{
	"contracts/IDO/SEAPreSale.sol": {
		"SEAPreSale": {
			"abi": [
				{
					"anonymous": false,
					"inputs": [
						{
							"indexed": true,
							"internalType": "address",
							"name": "previousOwner",
							"type": "address"
						},
						{
							"indexed": true,
							"internalType": "address",
							"name": "newOwner",
							"type": "address"
						}
					],
					"name": "OwnershipTransferred",
					"type": "event"
				},
				{
					"inputs": [],
					"name": "DAOAddress",
					"outputs": [
						{
							"internalType": "address",
							"name": "",
							"type": "address"
						}
					],
					"stateMutability": "view",
					"type": "function"
				},
				{
					"inputs": [
						{
							"internalType": "address",
							"name": "_DAOAddress",
							"type": "address"
						},
						{
							"internalType": "address",
							"name": "_alphaSEA",
							"type": "address"
						},
						{
							"internalType": "address",
							"name": "_usdc",
							"type": "address"
						},
						{
							"internalType": "uint256",
							"name": "_minAmount",
							"type": "uint256"
						},
						{
							"internalType": "uint256",
							"name": "_maxAmount",
							"type": "uint256"
						},
						{
							"internalType": "uint256",
							"name": "_toTalAmount",
							"type": "uint256"
						},
						{
							"internalType": "uint256",
							"name": "_salePrice",
							"type": "uint256"
						},
						{
							"internalType": "uint256",
							"name": "_startTimestamp",
							"type": "uint256"
						},
						{
							"internalType": "uint256",
							"name": "_endTimestamp",
							"type": "uint256"
						},
						{
							"internalType": "uint256",
							"name": "_remainingPurchasesMaxAmt",
							"type": "uint256"
						}
					],
					"name": "SET",
					"outputs": [
						{
							"internalType": "bool",
							"name": "",
							"type": "bool"
						}
					],
					"stateMutability": "nonpayable",
					"type": "function"
				},
				{
					"inputs": [],
					"name": "alphaSEA",
					"outputs": [
						{
							"internalType": "address",
							"name": "",
							"type": "address"
						}
					],
					"stateMutability": "view",
					"type": "function"
				},
				{
					"inputs": [
						{
							"internalType": "address",
							"name": "",
							"type": "address"
						}
					],
					"name": "boughtSEA",
					"outputs": [
						{
							"internalType": "bool",
							"name": "",
							"type": "bool"
						}
					],
					"stateMutability": "view",
					"type": "function"
				},
				{
					"inputs": [
						{
							"internalType": "uint256",
							"name": "paymentAmount_",
							"type": "uint256"
						}
					],
					"name": "calculateSaleQuote",
					"outputs": [
						{
							"internalType": "uint256",
							"name": "",
							"type": "uint256"
						}
					],
					"stateMutability": "view",
					"type": "function"
				},
				{
					"inputs": [],
					"name": "endTimestamp",
					"outputs": [
						{
							"internalType": "uint256",
							"name": "",
							"type": "uint256"
						}
					],
					"stateMutability": "view",
					"type": "function"
				},
				{
					"inputs": [
						{
							"internalType": "address",
							"name": "_DAOAddress",
							"type": "address"
						},
						{
							"internalType": "address",
							"name": "_alphaSEA",
							"type": "address"
						},
						{
							"internalType": "address",
							"name": "_usdc",
							"type": "address"
						},
						{
							"internalType": "uint256",
							"name": "_minAmount",
							"type": "uint256"
						},
						{
							"internalType": "uint256",
							"name": "_maxAmount",
							"type": "uint256"
						},
						{
							"internalType": "uint256",
							"name": "_toTalAmount",
							"type": "uint256"
						},
						{
							"internalType": "uint256",
							"name": "_salePrice",
							"type": "uint256"
						},
						{
							"internalType": "uint256",
							"name": "_startTimestamp",
							"type": "uint256"
						},
						{
							"internalType": "uint256",
							"name": "_endTimestamp",
							"type": "uint256"
						},
						{
							"internalType": "uint256",
							"name": "_remainingPurchasesMaxAmt",
							"type": "uint256"
						}
					],
					"name": "initialize",
					"outputs": [],
					"stateMutability": "nonpayable",
					"type": "function"
				},
				{
					"inputs": [],
					"name": "maxAmount",
					"outputs": [
						{
							"internalType": "uint256",
							"name": "",
							"type": "uint256"
						}
					],
					"stateMutability": "view",
					"type": "function"
				},
				{
					"inputs": [],
					"name": "minAmount",
					"outputs": [
						{
							"internalType": "uint256",
							"name": "",
							"type": "uint256"
						}
					],
					"stateMutability": "view",
					"type": "function"
				},
				{
					"inputs": [],
					"name": "owner",
					"outputs": [
						{
							"internalType": "address",
							"name": "",
							"type": "address"
						}
					],
					"stateMutability": "view",
					"type": "function"
				},
				{
					"inputs": [
						{
							"internalType": "uint256",
							"name": "_val",
							"type": "uint256"
						}
					],
					"name": "purchaseaSEA",
					"outputs": [
						{
							"internalType": "bool",
							"name": "",
							"type": "bool"
						}
					],
					"stateMutability": "nonpayable",
					"type": "function"
				},
				{
					"inputs": [],
					"name": "remainingPurchasesMaxAmt",
					"outputs": [
						{
							"internalType": "uint256",
							"name": "",
							"type": "uint256"
						}
					],
					"stateMutability": "view",
					"type": "function"
				},
				{
					"inputs": [],
					"name": "renounceOwnership",
					"outputs": [],
					"stateMutability": "nonpayable",
					"type": "function"
				},
				{
					"inputs": [],
					"name": "salePrice",
					"outputs": [
						{
							"internalType": "uint256",
							"name": "",
							"type": "uint256"
						}
					],
					"stateMutability": "view",
					"type": "function"
				},
				{
					"inputs": [],
					"name": "saleStarted",
					"outputs": [
						{
							"internalType": "bool",
							"name": "",
							"type": "bool"
						}
					],
					"stateMutability": "view",
					"type": "function"
				},
				{
					"inputs": [],
					"name": "sellAmount",
					"outputs": [
						{
							"internalType": "uint256",
							"name": "",
							"type": "uint256"
						}
					],
					"stateMutability": "view",
					"type": "function"
				},
				{
					"inputs": [],
					"name": "setStart",
					"outputs": [
						{
							"internalType": "bool",
							"name": "",
							"type": "bool"
						}
					],
					"stateMutability": "nonpayable",
					"type": "function"
				},
				{
					"inputs": [],
					"name": "startTimestamp",
					"outputs": [
						{
							"internalType": "uint256",
							"name": "",
							"type": "uint256"
						}
					],
					"stateMutability": "view",
					"type": "function"
				},
				{
					"inputs": [],
					"name": "toTalAmount",
					"outputs": [
						{
							"internalType": "uint256",
							"name": "",
							"type": "uint256"
						}
					],
					"stateMutability": "view",
					"type": "function"
				},
				{
					"inputs": [
						{
							"internalType": "address",
							"name": "newOwner",
							"type": "address"
						}
					],
					"name": "transferOwnership",
					"outputs": [],
					"stateMutability": "nonpayable",
					"type": "function"
				},
				{
					"inputs": [],
					"name": "usdc",
					"outputs": [
						{
							"internalType": "address",
							"name": "",
							"type": "address"
						}
					],
					"stateMutability": "view",
					"type": "function"
				},
				{
					"inputs": [
						{
							"internalType": "address[]",
							"name": "_buyers",
							"type": "address[]"
						}
					],
					"name": "whiteListBuyers",
					"outputs": [
						{
							"internalType": "bool",
							"name": "",
							"type": "bool"
						}
					],
					"stateMutability": "nonpayable",
					"type": "function"
				},
				{
					"inputs": [
						{
							"internalType": "address",
							"name": "",
							"type": "address"
						}
					],
					"name": "whiteListed",
					"outputs": [
						{
							"internalType": "bool",
							"name": "",
							"type": "bool"
						}
					],
					"stateMutability": "view",
					"type": "function"
				}
			],
			"devdoc": {
				"kind": "dev",
				"methods": {
					"owner()": {
						"details": "Returns the address of the current owner."
					},
					"renounceOwnership()": {
						"details": "Leaves the contract without owner. It will not be possible to call `onlyOwner` functions anymore. Can only be called by the current owner. NOTE: Renouncing ownership will leave the contract without an owner, thereby removing any functionality that is only available to the owner."
					},
					"transferOwnership(address)": {
						"details": "Transfers ownership of the contract to a new account (`newOwner`). Can only be called by the current owner."
					}
				},
				"version": 1
			},
			"evm": {
				"assembly": "    /* \"contracts/IDO/SEAPreSale.sol\":473:4743  contract SEAPreSale is Initializable, OwnableUpgradeable {... */\n  mstore(0x40, 0x80)\n  callvalue\n  dup1\n  iszero\n  tag_1\n  jumpi\n  0x00\n  dup1\n  revert\ntag_1:\n  pop\n  dataSize(sub_0)\n  dup1\n  dataOffset(sub_0)\n  0x00\n  codecopy\n  0x00\n  return\nstop\n\nsub_0: assembly {\n        /* \"contracts/IDO/SEAPreSale.sol\":473:4743  contract SEAPreSale is Initializable, OwnableUpgradeable {... */\n      mstore(0x40, 0x80)\n      callvalue\n      dup1\n      iszero\n      tag_1\n      jumpi\n      0x00\n      dup1\n      revert\n    tag_1:\n      pop\n      jumpi(tag_2, lt(calldatasize, 0x04))\n      shr(0xe0, calldataload(0x00))\n      dup1\n      0x9e623ae4\n      gt\n      tag_26\n      jumpi\n      dup1\n      0xe58bf43a\n      gt\n      tag_27\n      jumpi\n      dup1\n      0xe58bf43a\n      eq\n      tag_20\n      jumpi\n      dup1\n      0xe6fd48bc\n      eq\n      tag_21\n      jumpi\n      dup1\n      0xef8cdaa4\n      eq\n      tag_22\n      jumpi\n      dup1\n      0xf2fde38b\n      eq\n      tag_23\n      jumpi\n      dup1\n      0xf51f96dd\n      eq\n      tag_24\n      jumpi\n      dup1\n      0xfa0fca84\n      eq\n      tag_25\n      jumpi\n      jump(tag_2)\n    tag_27:\n      dup1\n      0x9e623ae4\n      eq\n      tag_14\n      jumpi\n      dup1\n      0xa85adeab\n      eq\n      tag_15\n      jumpi\n      dup1\n      0xb2292994\n      eq\n      tag_16\n      jumpi\n      dup1\n      0xd392eab1\n      eq\n      tag_17\n      jumpi\n      dup1\n      0xd45fc1a9\n      eq\n      tag_18\n      jumpi\n      dup1\n      0xe3bef142\n      eq\n      tag_19\n      jumpi\n      jump(tag_2)\n    tag_26:\n      dup1\n      0x492cc4e3\n      gt\n      tag_28\n      jumpi\n      dup1\n      0x492cc4e3\n      eq\n      tag_8\n      jumpi\n      dup1\n      0x5c474f9e\n      eq\n      tag_9\n      jumpi\n      dup1\n      0x5f48f393\n      eq\n      tag_10\n      jumpi\n      dup1\n      0x715018a6\n      eq\n      tag_11\n      jumpi\n      dup1\n      0x8da5cb5b\n      eq\n      tag_12\n      jumpi\n      dup1\n      0x9b2cb5d8\n      eq\n      tag_13\n      jumpi\n      jump(tag_2)\n    tag_28:\n      dup1\n      0x1eef7659\n      eq\n      tag_3\n      jumpi\n      dup1\n      0x2092c12b\n      eq\n      tag_4\n      jumpi\n      dup1\n      0x35975a37\n      eq\n      tag_5\n      jumpi\n      dup1\n      0x3e413bee\n      eq\n      tag_6\n      jumpi\n      dup1\n      0x3f407b84\n      eq\n      tag_7\n      jumpi\n    tag_2:\n      0x00\n      dup1\n      revert\n        /* \"contracts/IDO/SEAPreSale.sol\":1114:1360  function whiteListBuyers(address[] memory _buyers)... */\n    tag_3:\n      tag_29\n      tag_30\n      calldatasize\n      0x04\n      tag_31\n      jump\t// in\n    tag_30:\n      tag_32\n      jump\t// in\n    tag_29:\n      mload(0x40)\n      tag_33\n      swap2\n      swap1\n      tag_34\n      jump\t// in\n    tag_33:\n      mload(0x40)\n      dup1\n      swap2\n      sub\n      swap1\n      return\n        /* \"contracts/IDO/SEAPreSale.sol\":4570:4741  function calculateSaleQuote(uint256 paymentAmount_)... */\n    tag_4:\n      tag_35\n      tag_36\n      calldatasize\n      0x04\n      tag_37\n      jump\t// in\n    tag_36:\n      tag_38\n      jump\t// in\n    tag_35:\n      mload(0x40)\n      tag_33\n      swap2\n      swap1\n      tag_40\n      jump\t// in\n        /* \"contracts/IDO/SEAPreSale.sol\":2985:3110  function setStart() external onlyOwner returns (bool) {... */\n    tag_5:\n      tag_29\n      tag_42\n      jump\t// in\n        /* \"contracts/IDO/SEAPreSale.sol\":694:713  address public usdc */\n    tag_6:\n      tag_44\n      tag_45\n      jump\t// in\n    tag_44:\n      mload(0x40)\n      tag_33\n      swap2\n      swap1\n      tag_47\n      jump\t// in\n        /* \"contracts/IDO/SEAPreSale.sol\":910:935  uint256 public sellAmount */\n    tag_7:\n      tag_35\n      tag_49\n      jump\t// in\n        /* \"contracts/IDO/SEAPreSale.sol\":634:657  address public alphaSEA */\n    tag_8:\n      tag_44\n      tag_52\n      jump\t// in\n        /* \"contracts/IDO/SEAPreSale.sol\":987:1010  bool public saleStarted */\n    tag_9:\n      tag_29\n      tag_55\n      jump\t// in\n        /* \"contracts/IDO/SEAPreSale.sol\":750:774  uint256 public maxAmount */\n    tag_10:\n      tag_35\n      tag_58\n      jump\t// in\n        /* \"@openzeppelin/contracts-upgradeable/access/OwnableUpgradeable.sol\":1934:2035  function renounceOwnership() public virtual onlyOwner {... */\n    tag_11:\n      tag_60\n      tag_61\n      jump\t// in\n    tag_60:\n      stop\n        /* \"@openzeppelin/contracts-upgradeable/access/OwnableUpgradeable.sol\":1302:1387  function owner() public view virtual returns (address) {... */\n    tag_12:\n      tag_44\n      tag_63\n      jump\t// in\n        /* \"contracts/IDO/SEAPreSale.sol\":720:744  uint256 public minAmount */\n    tag_13:\n      tag_35\n      tag_66\n      jump\t// in\n        /* \"contracts/IDO/SEAPreSale.sol\":878:904  uint256 public toTalAmount */\n    tag_14:\n      tag_35\n      tag_69\n      jump\t// in\n        /* \"contracts/IDO/SEAPreSale.sol\":845:872  uint256 public endTimestamp */\n    tag_15:\n      tag_35\n      tag_72\n      jump\t// in\n        /* \"contracts/IDO/SEAPreSale.sol\":3116:4352  function purchaseaSEA(uint256 _val) external returns (bool) {... */\n    tag_16:\n      tag_29\n      tag_75\n      calldatasize\n      0x04\n      tag_37\n      jump\t// in\n    tag_75:\n      tag_76\n      jump\t// in\n        /* \"contracts/IDO/SEAPreSale.sol\":663:688  address public DAOAddress */\n    tag_17:\n      tag_44\n      tag_79\n      jump\t// in\n        /* \"contracts/IDO/SEAPreSale.sol\":1366:2195  function initialize(... */\n    tag_18:\n      tag_60\n      tag_82\n      calldatasize\n      0x04\n      tag_83\n      jump\t// in\n    tag_82:\n      tag_84\n      jump\t// in\n        /* \"contracts/IDO/SEAPreSale.sol\":2201:2979  function SET(... */\n    tag_19:\n      tag_29\n      tag_86\n      calldatasize\n      0x04\n      tag_83\n      jump\t// in\n    tag_86:\n      tag_87\n      jump\t// in\n        /* \"contracts/IDO/SEAPreSale.sol\":941:980  uint256 public remainingPurchasesMaxAmt */\n    tag_20:\n      tag_35\n      tag_90\n      jump\t// in\n        /* \"contracts/IDO/SEAPreSale.sol\":810:839  uint256 public startTimestamp */\n    tag_21:\n      tag_35\n      tag_93\n      jump\t// in\n        /* \"contracts/IDO/SEAPreSale.sol\":1017:1058  mapping(address => bool) public boughtSEA */\n    tag_22:\n      tag_29\n      tag_96\n      calldatasize\n      0x04\n      tag_97\n      jump\t// in\n    tag_96:\n      tag_98\n      jump\t// in\n        /* \"@openzeppelin/contracts-upgradeable/access/OwnableUpgradeable.sol\":2184:2382  function transferOwnership(address newOwner) public virtual onlyOwner {... */\n    tag_23:\n      tag_60\n      tag_101\n      calldatasize\n      0x04\n      tag_97\n      jump\t// in\n    tag_101:\n      tag_102\n      jump\t// in\n        /* \"contracts/IDO/SEAPreSale.sol\":780:804  uint256 public salePrice */\n    tag_24:\n      tag_35\n      tag_104\n      jump\t// in\n        /* \"contracts/IDO/SEAPreSale.sol\":1064:1107  mapping(address => bool) public whiteListed */\n    tag_25:\n      tag_29\n      tag_107\n      calldatasize\n      0x04\n      tag_97\n      jump\t// in\n    tag_107:\n      tag_108\n      jump\t// in\n        /* \"contracts/IDO/SEAPreSale.sol\":1114:1360  function whiteListBuyers(address[] memory _buyers)... */\n    tag_32:\n        /* \"contracts/IDO/SEAPreSale.sol\":1217:1221  bool */\n      0x00\n        /* \"@openzeppelin/contracts-upgradeable/access/OwnableUpgradeable.sol\":1525:1537  _msgSender() */\n      tag_111\n        /* \"@openzeppelin/contracts-upgradeable/access/OwnableUpgradeable.sol\":1525:1535  _msgSender */\n      tag_112\n        /* \"@openzeppelin/contracts-upgradeable/access/OwnableUpgradeable.sol\":1525:1537  _msgSender() */\n      jump\t// in\n    tag_111:\n      sub(shl(0xa0, 0x01), 0x01)\n        /* \"@openzeppelin/contracts-upgradeable/access/OwnableUpgradeable.sol\":1514:1537  owner() == _msgSender() */\n      and\n        /* \"@openzeppelin/contracts-upgradeable/access/OwnableUpgradeable.sol\":1514:1521  owner() */\n      tag_113\n        /* \"@openzeppelin/contracts-upgradeable/access/OwnableUpgradeable.sol\":1514:1519  owner */\n      tag_63\n        /* \"@openzeppelin/contracts-upgradeable/access/OwnableUpgradeable.sol\":1514:1521  owner() */\n      jump\t// in\n    tag_113:\n      sub(shl(0xa0, 0x01), 0x01)\n        /* \"@openzeppelin/contracts-upgradeable/access/OwnableUpgradeable.sol\":1514:1537  owner() == _msgSender() */\n      and\n      eq\n        /* \"@openzeppelin/contracts-upgradeable/access/OwnableUpgradeable.sol\":1506:1574  require(owner() == _msgSender(), \"Ownable: caller is not the owner\") */\n      tag_114\n      jumpi\n      mload(0x40)\n      shl(0xe5, 0x461bcd)\n      dup2\n      mstore\n      0x04\n      add\n      tag_115\n      swap1\n      tag_116\n      jump\t// in\n    tag_115:\n      mload(0x40)\n      dup1\n      swap2\n      sub\n      swap1\n      revert\n    tag_114:\n        /* \"contracts/IDO/SEAPreSale.sol\":1242:1251  uint256 i */\n      0x00\n        /* \"contracts/IDO/SEAPreSale.sol\":1237:1333  for (uint256 i; i < _buyers.length; i++) {... */\n    tag_118:\n        /* \"contracts/IDO/SEAPreSale.sol\":1257:1264  _buyers */\n      dup3\n        /* \"contracts/IDO/SEAPreSale.sol\":1257:1271  _buyers.length */\n      mload\n        /* \"contracts/IDO/SEAPreSale.sol\":1253:1254  i */\n      dup2\n        /* \"contracts/IDO/SEAPreSale.sol\":1253:1271  i < _buyers.length */\n      lt\n        /* \"contracts/IDO/SEAPreSale.sol\":1237:1333  for (uint256 i; i < _buyers.length; i++) {... */\n      iszero\n      tag_119\n      jumpi\n        /* \"contracts/IDO/SEAPreSale.sol\":1318:1322  true */\n      0x01\n        /* \"contracts/IDO/SEAPreSale.sol\":1292:1303  whiteListed */\n      0x72\n        /* \"contracts/IDO/SEAPreSale.sol\":1292:1315  whiteListed[_buyers[i]] */\n      0x00\n        /* \"contracts/IDO/SEAPreSale.sol\":1304:1311  _buyers */\n      dup6\n        /* \"contracts/IDO/SEAPreSale.sol\":1312:1313  i */\n      dup5\n        /* \"contracts/IDO/SEAPreSale.sol\":1304:1314  _buyers[i] */\n      dup2\n      mload\n      dup2\n      lt\n      tag_121\n      jumpi\n      mstore(0x00, shl(0xe0, 0x4e487b71))\n      mstore(0x04, 0x32)\n      revert(0x00, 0x24)\n    tag_121:\n      0x20\n      swap1\n      dup2\n      mul\n      swap2\n      swap1\n      swap2\n      add\n      dup2\n      add\n      mload\n      sub(shl(0xa0, 0x01), 0x01)\n        /* \"contracts/IDO/SEAPreSale.sol\":1292:1315  whiteListed[_buyers[i]] */\n      and\n      dup3\n      mstore\n      dup2\n      add\n      swap2\n      swap1\n      swap2\n      mstore\n      0x40\n      add\n      0x00\n      keccak256\n        /* \"contracts/IDO/SEAPreSale.sol\":1292:1322  whiteListed[_buyers[i]] = true */\n      dup1\n      sload\n      not(0xff)\n      and\n      swap2\n      iszero\n      iszero\n      swap2\n      swap1\n      swap2\n      or\n      swap1\n      sstore\n        /* \"contracts/IDO/SEAPreSale.sol\":1273:1276  i++ */\n      dup1\n      tag_122\n      dup2\n      tag_123\n      jump\t// in\n    tag_122:\n      swap2\n      pop\n      pop\n        /* \"contracts/IDO/SEAPreSale.sol\":1237:1333  for (uint256 i; i < _buyers.length; i++) {... */\n      jump(tag_118)\n    tag_119:\n      pop\n        /* \"contracts/IDO/SEAPreSale.sol\":1349:1353  true */\n      0x01\n        /* \"contracts/IDO/SEAPreSale.sol\":1342:1353  return true */\n      swap1\n      pop\n        /* \"@openzeppelin/contracts-upgradeable/access/OwnableUpgradeable.sol\":1584:1585  _ */\n    tag_117:\n        /* \"contracts/IDO/SEAPreSale.sol\":1114:1360  function whiteListBuyers(address[] memory _buyers)... */\n      swap2\n      swap1\n      pop\n      jump\t// out\n        /* \"contracts/IDO/SEAPreSale.sol\":4570:4741  function calculateSaleQuote(uint256 paymentAmount_)... */\n    tag_38:\n        /* \"contracts/IDO/SEAPreSale.sol\":4669:4676  uint256 */\n      0x00\n        /* \"contracts/IDO/SEAPreSale.sol\":4699:4734  _calculateSaleQuote(paymentAmount_) */\n      tag_125\n        /* \"contracts/IDO/SEAPreSale.sol\":4719:4733  paymentAmount_ */\n      dup3\n        /* \"contracts/IDO/SEAPreSale.sol\":4699:4718  _calculateSaleQuote */\n      tag_126\n        /* \"contracts/IDO/SEAPreSale.sol\":4699:4734  _calculateSaleQuote(paymentAmount_) */\n      jump\t// in\n    tag_125:\n        /* \"contracts/IDO/SEAPreSale.sol\":4692:4734  return _calculateSaleQuote(paymentAmount_) */\n      swap3\n        /* \"contracts/IDO/SEAPreSale.sol\":4570:4741  function calculateSaleQuote(uint256 paymentAmount_)... */\n      swap2\n      pop\n      pop\n      jump\t// out\n        /* \"contracts/IDO/SEAPreSale.sol\":2985:3110  function setStart() external onlyOwner returns (bool) {... */\n    tag_42:\n        /* \"contracts/IDO/SEAPreSale.sol\":3033:3037  bool */\n      0x00\n        /* \"@openzeppelin/contracts-upgradeable/access/OwnableUpgradeable.sol\":1525:1537  _msgSender() */\n      tag_128\n        /* \"@openzeppelin/contracts-upgradeable/access/OwnableUpgradeable.sol\":1525:1535  _msgSender */\n      tag_112\n        /* \"@openzeppelin/contracts-upgradeable/access/OwnableUpgradeable.sol\":1525:1537  _msgSender() */\n      jump\t// in\n    tag_128:\n      sub(shl(0xa0, 0x01), 0x01)\n        /* \"@openzeppelin/contracts-upgradeable/access/OwnableUpgradeable.sol\":1514:1537  owner() == _msgSender() */\n      and\n        /* \"@openzeppelin/contracts-upgradeable/access/OwnableUpgradeable.sol\":1514:1521  owner() */\n      tag_129\n        /* \"@openzeppelin/contracts-upgradeable/access/OwnableUpgradeable.sol\":1514:1519  owner */\n      tag_63\n        /* \"@openzeppelin/contracts-upgradeable/access/OwnableUpgradeable.sol\":1514:1521  owner() */\n      jump\t// in\n    tag_129:\n      sub(shl(0xa0, 0x01), 0x01)\n        /* \"@openzeppelin/contracts-upgradeable/access/OwnableUpgradeable.sol\":1514:1537  owner() == _msgSender() */\n      and\n      eq\n        /* \"@openzeppelin/contracts-upgradeable/access/OwnableUpgradeable.sol\":1506:1574  require(owner() == _msgSender(), \"Ownable: caller is not the owner\") */\n      tag_130\n      jumpi\n      mload(0x40)\n      shl(0xe5, 0x461bcd)\n      dup2\n      mstore\n      0x04\n      add\n      tag_115\n      swap1\n      tag_116\n      jump\t// in\n    tag_130:\n      pop\n        /* \"contracts/IDO/SEAPreSale.sol\":3064:3075  saleStarted */\n      0x70\n      dup1\n      sload\n      not(0xff)\n        /* \"contracts/IDO/SEAPreSale.sol\":3049:3075  saleStarted = !saleStarted */\n      dup2\n      and\n        /* \"contracts/IDO/SEAPreSale.sol\":3064:3075  saleStarted */\n      0xff\n      swap2\n      dup3\n      and\n        /* \"contracts/IDO/SEAPreSale.sol\":3063:3075  !saleStarted */\n      iszero\n        /* \"contracts/IDO/SEAPreSale.sol\":3049:3075  saleStarted = !saleStarted */\n      or\n      swap2\n      dup3\n      swap1\n      sstore\n        /* \"contracts/IDO/SEAPreSale.sol\":3092:3103  saleStarted */\n      and\n        /* \"contracts/IDO/SEAPreSale.sol\":2985:3110  function setStart() external onlyOwner returns (bool) {... */\n      swap1\n      jump\t// out\n        /* \"contracts/IDO/SEAPreSale.sol\":694:713  address public usdc */\n    tag_45:\n      and(sub(shl(0xa0, 0x01), 0x01), sload(0x67))\n      dup2\n      jump\t// out\n        /* \"contracts/IDO/SEAPreSale.sol\":910:935  uint256 public sellAmount */\n    tag_49:\n      sload(0x6e)\n      dup2\n      jump\t// out\n        /* \"contracts/IDO/SEAPreSale.sol\":634:657  address public alphaSEA */\n    tag_52:\n      and(sub(shl(0xa0, 0x01), 0x01), sload(0x65))\n      dup2\n      jump\t// out\n        /* \"contracts/IDO/SEAPreSale.sol\":987:1010  bool public saleStarted */\n    tag_55:\n      and(0xff, sload(0x70))\n      dup2\n      jump\t// out\n        /* \"contracts/IDO/SEAPreSale.sol\":750:774  uint256 public maxAmount */\n    tag_58:\n      sload(0x69)\n      dup2\n      jump\t// out\n        /* \"@openzeppelin/contracts-upgradeable/access/OwnableUpgradeable.sol\":1934:2035  function renounceOwnership() public virtual onlyOwner {... */\n    tag_61:\n        /* \"@openzeppelin/contracts-upgradeable/access/OwnableUpgradeable.sol\":1525:1537  _msgSender() */\n      tag_134\n        /* \"@openzeppelin/contracts-upgradeable/access/OwnableUpgradeable.sol\":1525:1535  _msgSender */\n      tag_112\n        /* \"@openzeppelin/contracts-upgradeable/access/OwnableUpgradeable.sol\":1525:1537  _msgSender() */\n      jump\t// in\n    tag_134:\n      sub(shl(0xa0, 0x01), 0x01)\n        /* \"@openzeppelin/contracts-upgradeable/access/OwnableUpgradeable.sol\":1514:1537  owner() == _msgSender() */\n      and\n        /* \"@openzeppelin/contracts-upgradeable/access/OwnableUpgradeable.sol\":1514:1521  owner() */\n      tag_135\n        /* \"@openzeppelin/contracts-upgradeable/access/OwnableUpgradeable.sol\":1514:1519  owner */\n      tag_63\n        /* \"@openzeppelin/contracts-upgradeable/access/OwnableUpgradeable.sol\":1514:1521  owner() */\n      jump\t// in\n    tag_135:\n      sub(shl(0xa0, 0x01), 0x01)\n        /* \"@openzeppelin/contracts-upgradeable/access/OwnableUpgradeable.sol\":1514:1537  owner() == _msgSender() */\n      and\n      eq\n        /* \"@openzeppelin/contracts-upgradeable/access/OwnableUpgradeable.sol\":1506:1574  require(owner() == _msgSender(), \"Ownable: caller is not the owner\") */\n      tag_136\n      jumpi\n      mload(0x40)\n      shl(0xe5, 0x461bcd)\n      dup2\n      mstore\n      0x04\n      add\n      tag_115\n      swap1\n      tag_116\n      jump\t// in\n    tag_136:\n        /* \"@openzeppelin/contracts-upgradeable/access/OwnableUpgradeable.sol\":1998:2028  _transferOwnership(address(0)) */\n      tag_139\n        /* \"@openzeppelin/contracts-upgradeable/access/OwnableUpgradeable.sol\":2025:2026  0 */\n      0x00\n        /* \"@openzeppelin/contracts-upgradeable/access/OwnableUpgradeable.sol\":1998:2016  _transferOwnership */\n      tag_140\n        /* \"@openzeppelin/contracts-upgradeable/access/OwnableUpgradeable.sol\":1998:2028  _transferOwnership(address(0)) */\n      jump\t// in\n    tag_139:\n        /* \"@openzeppelin/contracts-upgradeable/access/OwnableUpgradeable.sol\":1934:2035  function renounceOwnership() public virtual onlyOwner {... */\n      jump\t// out\n        /* \"@openzeppelin/contracts-upgradeable/access/OwnableUpgradeable.sol\":1302:1387  function owner() public view virtual returns (address) {... */\n    tag_63:\n        /* \"@openzeppelin/contracts-upgradeable/access/OwnableUpgradeable.sol\":1374:1380  _owner */\n      and(sub(shl(0xa0, 0x01), 0x01), sload(0x33))\n        /* \"@openzeppelin/contracts-upgradeable/access/OwnableUpgradeable.sol\":1302:1387  function owner() public view virtual returns (address) {... */\n      swap1\n      jump\t// out\n        /* \"contracts/IDO/SEAPreSale.sol\":720:744  uint256 public minAmount */\n    tag_66:\n      sload(0x68)\n      dup2\n      jump\t// out\n        /* \"contracts/IDO/SEAPreSale.sol\":878:904  uint256 public toTalAmount */\n    tag_69:\n      sload(0x6d)\n      dup2\n      jump\t// out\n        /* \"contracts/IDO/SEAPreSale.sol\":845:872  uint256 public endTimestamp */\n    tag_72:\n      sload(0x6c)\n      dup2\n      jump\t// out\n        /* \"contracts/IDO/SEAPreSale.sol\":3116:4352  function purchaseaSEA(uint256 _val) external returns (bool) {... */\n    tag_76:\n        /* \"contracts/IDO/SEAPreSale.sol\":3170:3174  bool */\n      0x00\n        /* \"contracts/IDO/SEAPreSale.sol\":3202:3211  minAmount */\n      sload(0x68)\n        /* \"contracts/IDO/SEAPreSale.sol\":3194:3198  _val */\n      dup3\n        /* \"contracts/IDO/SEAPreSale.sol\":3194:3211  _val >= minAmount */\n      lt\n      iszero\n        /* \"contracts/IDO/SEAPreSale.sol\":3186:3240  require(_val >= minAmount, \"Below minimum allocation\") */\n      tag_143\n      jumpi\n      mload(0x40)\n      shl(0xe5, 0x461bcd)\n      dup2\n      mstore\n      0x04\n      add\n      tag_115\n      swap1\n      tag_145\n      jump\t// in\n    tag_143:\n        /* \"contracts/IDO/SEAPreSale.sol\":3266:3275  maxAmount */\n      sload(0x69)\n        /* \"contracts/IDO/SEAPreSale.sol\":3258:3262  _val */\n      dup3\n        /* \"contracts/IDO/SEAPreSale.sol\":3258:3275  _val <= maxAmount */\n      gt\n      iszero\n        /* \"contracts/IDO/SEAPreSale.sol\":3250:3300  require(_val <= maxAmount, \"More than allocation\") */\n      tag_146\n      jumpi\n      mload(0x40)\n      shl(0xe5, 0x461bcd)\n      dup2\n      mstore\n      0x04\n      add\n      tag_115\n      swap1\n      tag_148\n      jump\t// in\n    tag_146:\n        /* \"contracts/IDO/SEAPreSale.sol\":3323:3333  sellAmount */\n      sload(0x6e)\n        /* \"contracts/IDO/SEAPreSale.sol\":3323:3343  sellAmount.add(_val) */\n      tag_149\n      swap1\n        /* \"contracts/IDO/SEAPreSale.sol\":3338:3342  _val */\n      dup4\n        /* \"contracts/IDO/SEAPreSale.sol\":3323:3337  sellAmount.add */\n      tag_150\n        /* \"contracts/IDO/SEAPreSale.sol\":3323:3343  sellAmount.add(_val) */\n      jump\t// in\n    tag_149:\n        /* \"contracts/IDO/SEAPreSale.sol\":3310:3320  sellAmount */\n      0x6e\n        /* \"contracts/IDO/SEAPreSale.sol\":3310:3343  sellAmount = sellAmount.add(_val) */\n      dup2\n      swap1\n      sstore\n        /* \"contracts/IDO/SEAPreSale.sol\":3388:3399  toTalAmount */\n      sload(0x6d)\n      lt\n        /* \"contracts/IDO/SEAPreSale.sol\":3374:3399  sellAmount <= toTalAmount */\n      iszero\n        /* \"contracts/IDO/SEAPreSale.sol\":3353:3466  require(... */\n      tag_151\n      jumpi\n      mload(0x40)\n      shl(0xe5, 0x461bcd)\n      dup2\n      mstore\n      0x04\n      add\n      tag_115\n      swap1\n      tag_153\n      jump\t// in\n    tag_151:\n        /* \"contracts/IDO/SEAPreSale.sol\":3484:3495  saleStarted */\n      and(0xff, sload(0x70))\n        /* \"contracts/IDO/SEAPreSale.sol\":3484:3503  saleStarted == true */\n      iszero\n      iszero\n        /* \"contracts/IDO/SEAPreSale.sol\":3484:3495  saleStarted */\n      0x01\n        /* \"contracts/IDO/SEAPreSale.sol\":3484:3503  saleStarted == true */\n      eq\n        /* \"contracts/IDO/SEAPreSale.sol\":3476:3519  require(saleStarted == true, \"Not started\") */\n      tag_154\n      jumpi\n      mload(0x40)\n      shl(0xe5, 0x461bcd)\n      dup2\n      mstore\n      0x04\n      add\n      tag_115\n      swap1\n      tag_156\n      jump\t// in\n    tag_154:\n        /* \"contracts/IDO/SEAPreSale.sol\":3547:3557  msg.sender */\n      caller\n        /* \"contracts/IDO/SEAPreSale.sol\":3537:3558  boughtSEA[msg.sender] */\n      0x00\n      swap1\n      dup2\n      mstore\n        /* \"contracts/IDO/SEAPreSale.sol\":3537:3546  boughtSEA */\n      0x71\n        /* \"contracts/IDO/SEAPreSale.sol\":3537:3558  boughtSEA[msg.sender] */\n      0x20\n      mstore\n      0x40\n      swap1\n      keccak256\n      sload\n      0xff\n      and\n        /* \"contracts/IDO/SEAPreSale.sol\":3537:3567  boughtSEA[msg.sender] == false */\n      iszero\n        /* \"contracts/IDO/SEAPreSale.sol\":3529:3592  require(boughtSEA[msg.sender] == false, \"Already participated\") */\n      tag_157\n      jumpi\n      mload(0x40)\n      shl(0xe5, 0x461bcd)\n      dup2\n      mstore\n      0x04\n      add\n      tag_115\n      swap1\n      tag_159\n      jump\t// in\n    tag_157:\n        /* \"contracts/IDO/SEAPreSale.sol\":3627:3642  block.timestamp */\n      timestamp\n        /* \"contracts/IDO/SEAPreSale.sol\":3610:3624  startTimestamp */\n      sload(0x6b)\n        /* \"contracts/IDO/SEAPreSale.sol\":3610:3642  startTimestamp < block.timestamp */\n      lt\n        /* \"contracts/IDO/SEAPreSale.sol\":3602:3662  require(startTimestamp < block.timestamp, \"Not started yet\") */\n      tag_160\n      jumpi\n      mload(0x40)\n      shl(0xe5, 0x461bcd)\n      dup2\n      mstore\n      0x04\n      add\n      tag_115\n      swap1\n      tag_162\n      jump\t// in\n    tag_160:\n        /* \"contracts/IDO/SEAPreSale.sol\":3683:3693  msg.sender */\n      caller\n        /* \"contracts/IDO/SEAPreSale.sol\":3673:3694  boughtSEA[msg.sender] */\n      0x00\n      swap1\n      dup2\n      mstore\n        /* \"contracts/IDO/SEAPreSale.sol\":3673:3682  boughtSEA */\n      0x71\n        /* \"contracts/IDO/SEAPreSale.sol\":3673:3694  boughtSEA[msg.sender] */\n      0x20\n      mstore\n      0x40\n      swap1\n      keccak256\n        /* \"contracts/IDO/SEAPreSale.sol\":3673:3701  boughtSEA[msg.sender] = true */\n      dup1\n      sload\n      not(0xff)\n      and\n        /* \"contracts/IDO/SEAPreSale.sol\":3697:3701  true */\n      0x01\n        /* \"contracts/IDO/SEAPreSale.sol\":3673:3701  boughtSEA[msg.sender] = true */\n      or\n      swap1\n      sstore\n        /* \"contracts/IDO/SEAPreSale.sol\":3716:3728  endTimestamp */\n      sload(0x6c)\n        /* \"contracts/IDO/SEAPreSale.sol\":3731:3746  block.timestamp */\n      timestamp\n      gt\n        /* \"contracts/IDO/SEAPreSale.sol\":3712:3992  if (endTimestamp < block.timestamp) {... */\n      iszero\n      tag_163\n      jumpi\n        /* \"contracts/IDO/SEAPreSale.sol\":3778:3802  remainingPurchasesMaxAmt */\n      sload(0x6f)\n        /* \"contracts/IDO/SEAPreSale.sol\":3770:3774  _val */\n      dup3\n        /* \"contracts/IDO/SEAPreSale.sol\":3770:3802  _val <= remainingPurchasesMaxAmt */\n      gt\n      iszero\n        /* \"contracts/IDO/SEAPreSale.sol\":3762:3825  require(_val <= remainingPurchasesMaxAmt, \"Exceeded IDO limit\") */\n      tag_164\n      jumpi\n      mload(0x40)\n      shl(0xe5, 0x461bcd)\n      dup2\n      mstore\n      0x04\n      add\n      tag_115\n      swap1\n      tag_166\n      jump\t// in\n    tag_164:\n        /* \"contracts/IDO/SEAPreSale.sol\":3712:3992  if (endTimestamp < block.timestamp) {... */\n      jump(tag_171)\n    tag_163:\n        /* \"contracts/IDO/SEAPreSale.sol\":3876:3886  msg.sender */\n      caller\n        /* \"contracts/IDO/SEAPreSale.sol\":3864:3887  whiteListed[msg.sender] */\n      0x00\n      swap1\n      dup2\n      mstore\n        /* \"contracts/IDO/SEAPreSale.sol\":3864:3875  whiteListed */\n      0x72\n        /* \"contracts/IDO/SEAPreSale.sol\":3864:3887  whiteListed[msg.sender] */\n      0x20\n      mstore\n      0x40\n      swap1\n      keccak256\n      sload\n      0xff\n      and\n        /* \"contracts/IDO/SEAPreSale.sol\":3864:3895  whiteListed[msg.sender] == true */\n      iszero\n      iszero\n        /* \"contracts/IDO/SEAPreSale.sol\":3864:3887  whiteListed[msg.sender] */\n      0x01\n        /* \"contracts/IDO/SEAPreSale.sol\":3864:3895  whiteListed[msg.sender] == true */\n      eq\n        /* \"contracts/IDO/SEAPreSale.sol\":3856:3915  require(whiteListed[msg.sender] == true, \"Not whitelisted\") */\n      tag_168\n      jumpi\n      mload(0x40)\n      shl(0xe5, 0x461bcd)\n      dup2\n      mstore\n      0x04\n      add\n      tag_115\n      swap1\n      tag_170\n      jump\t// in\n    tag_168:\n        /* \"contracts/IDO/SEAPreSale.sol\":3955:3967  endTimestamp */\n      sload(0x6c)\n        /* \"contracts/IDO/SEAPreSale.sol\":3937:3952  block.timestamp */\n      timestamp\n        /* \"contracts/IDO/SEAPreSale.sol\":3937:3967  block.timestamp < endTimestamp */\n      lt\n        /* \"contracts/IDO/SEAPreSale.sol\":3929:3981  require(block.timestamp < endTimestamp, \"Sale over\") */\n      tag_171\n      jumpi\n      mload(0x40)\n      shl(0xe5, 0x461bcd)\n      dup2\n      mstore\n      0x04\n      add\n      tag_115\n      swap1\n      tag_173\n      jump\t// in\n    tag_171:\n        /* \"contracts/IDO/SEAPreSale.sol\":4019:4023  usdc */\n      sload(0x67)\n        /* \"contracts/IDO/SEAPreSale.sol\":4001:4120  IERC20Upgradeable(usdc).safeTransferFrom(... */\n      tag_174\n      swap1\n      sub(shl(0xa0, 0x01), 0x01)\n        /* \"contracts/IDO/SEAPreSale.sol\":4019:4023  usdc */\n      and\n        /* \"contracts/IDO/SEAPreSale.sol\":4055:4065  msg.sender */\n      caller\n        /* \"contracts/IDO/SEAPreSale.sol\":4087:4091  this */\n      address\n        /* \"contracts/IDO/SEAPreSale.sol\":4106:4110  _val */\n      dup6\n        /* \"contracts/IDO/SEAPreSale.sol\":4001:4041  IERC20Upgradeable(usdc).safeTransferFrom */\n      tag_175\n        /* \"contracts/IDO/SEAPreSale.sol\":4001:4120  IERC20Upgradeable(usdc).safeTransferFrom(... */\n      jump\t// in\n    tag_174:\n        /* \"contracts/IDO/SEAPreSale.sol\":4167:4177  DAOAddress */\n      sload(0x66)\n        /* \"contracts/IDO/SEAPreSale.sol\":4148:4152  usdc */\n      sload(0x67)\n        /* \"contracts/IDO/SEAPreSale.sol\":4130:4184  IERC20Upgradeable(usdc).safeTransfer(DAOAddress, _val) */\n      tag_176\n      swap2\n      sub(shl(0xa0, 0x01), 0x01)\n        /* \"contracts/IDO/SEAPreSale.sol\":4148:4152  usdc */\n      swap2\n      dup3\n      and\n      swap2\n        /* \"contracts/IDO/SEAPreSale.sol\":4167:4177  DAOAddress */\n      and\n        /* \"contracts/IDO/SEAPreSale.sol\":4179:4183  _val */\n      dup5\n        /* \"contracts/IDO/SEAPreSale.sol\":4130:4166  IERC20Upgradeable(usdc).safeTransfer */\n      tag_177\n        /* \"contracts/IDO/SEAPreSale.sol\":4130:4184  IERC20Upgradeable(usdc).safeTransfer(DAOAddress, _val) */\n      jump\t// in\n    tag_176:\n        /* \"contracts/IDO/SEAPreSale.sol\":4194:4217  uint256 _purchaseAmount */\n      0x00\n        /* \"contracts/IDO/SEAPreSale.sol\":4220:4245  _calculateSaleQuote(_val) */\n      tag_178\n        /* \"contracts/IDO/SEAPreSale.sol\":4240:4244  _val */\n      dup4\n        /* \"contracts/IDO/SEAPreSale.sol\":4220:4239  _calculateSaleQuote */\n      tag_126\n        /* \"contracts/IDO/SEAPreSale.sol\":4220:4245  _calculateSaleQuote(_val) */\n      jump\t// in\n    tag_178:\n        /* \"contracts/IDO/SEAPreSale.sol\":4273:4281  alphaSEA */\n      sload(0x65)\n        /* \"contracts/IDO/SEAPreSale.sol\":4194:4245  uint256 _purchaseAmount = _calculateSaleQuote(_val) */\n      swap1\n      swap2\n      pop\n        /* \"contracts/IDO/SEAPreSale.sol\":4255:4324  IERC20Upgradeable(alphaSEA).safeTransfer(msg.sender, _purchaseAmount) */\n      tag_179\n      swap1\n      sub(shl(0xa0, 0x01), 0x01)\n        /* \"contracts/IDO/SEAPreSale.sol\":4273:4281  alphaSEA */\n      and\n        /* \"contracts/IDO/SEAPreSale.sol\":4296:4306  msg.sender */\n      caller\n        /* \"contracts/IDO/SEAPreSale.sol\":4194:4245  uint256 _purchaseAmount = _calculateSaleQuote(_val) */\n      dup4\n        /* \"contracts/IDO/SEAPreSale.sol\":4255:4295  IERC20Upgradeable(alphaSEA).safeTransfer */\n      tag_177\n        /* \"contracts/IDO/SEAPreSale.sol\":4255:4324  IERC20Upgradeable(alphaSEA).safeTransfer(msg.sender, _purchaseAmount) */\n      jump\t// in\n    tag_179:\n      pop\n        /* \"contracts/IDO/SEAPreSale.sol\":4341:4345  true */\n      0x01\n      swap3\n        /* \"contracts/IDO/SEAPreSale.sol\":3116:4352  function purchaseaSEA(uint256 _val) external returns (bool) {... */\n      swap2\n      pop\n      pop\n      jump\t// out\n        /* \"contracts/IDO/SEAPreSale.sol\":663:688  address public DAOAddress */\n    tag_79:\n      and(sub(shl(0xa0, 0x01), 0x01), sload(0x66))\n      dup2\n      jump\t// out\n        /* \"contracts/IDO/SEAPreSale.sol\":1366:2195  function initialize(... */\n    tag_84:\n        /* \"@openzeppelin/contracts-upgradeable/proxy/utils/Initializable.sol\":539:552  _initializing */\n      sload(0x00)\n      0x0100\n      swap1\n      div\n      0xff\n      and\n      dup1\n        /* \"@openzeppelin/contracts-upgradeable/proxy/utils/Initializable.sol\":539:569  _initializing || !_initialized */\n      tag_181\n      jumpi\n      pop\n        /* \"@openzeppelin/contracts-upgradeable/proxy/utils/Initializable.sol\":557:569  _initialized */\n      and(0xff, sload(0x00))\n        /* \"@openzeppelin/contracts-upgradeable/proxy/utils/Initializable.sol\":556:569  !_initialized */\n      iszero\n        /* \"@openzeppelin/contracts-upgradeable/proxy/utils/Initializable.sol\":539:569  _initializing || !_initialized */\n    tag_181:\n        /* \"@openzeppelin/contracts-upgradeable/proxy/utils/Initializable.sol\":531:620  require(_initializing || !_initialized, \"Initializable: contract is already initialized\") */\n      tag_182\n      jumpi\n      mload(0x40)\n      shl(0xe5, 0x461bcd)\n      dup2\n      mstore\n      0x04\n      add\n      tag_115\n      swap1\n      tag_184\n      jump\t// in\n    tag_182:\n        /* \"@openzeppelin/contracts-upgradeable/proxy/utils/Initializable.sol\":631:650  bool isTopLevelCall */\n      0x00\n        /* \"@openzeppelin/contracts-upgradeable/proxy/utils/Initializable.sol\":654:667  _initializing */\n      sload\n      0x0100\n      swap1\n      div\n      0xff\n      and\n        /* \"@openzeppelin/contracts-upgradeable/proxy/utils/Initializable.sol\":653:667  !_initializing */\n      iszero\n        /* \"@openzeppelin/contracts-upgradeable/proxy/utils/Initializable.sol\":677:775  if (isTopLevelCall) {... */\n      dup1\n      iszero\n      tag_185\n      jumpi\n        /* \"@openzeppelin/contracts-upgradeable/proxy/utils/Initializable.sol\":711:724  _initializing */\n      0x00\n        /* \"@openzeppelin/contracts-upgradeable/proxy/utils/Initializable.sol\":711:731  _initializing = true */\n      dup1\n      sload\n      not(0xff)\n      not(0xff00)\n      swap1\n      swap2\n      and\n      0x0100\n      or\n        /* \"@openzeppelin/contracts-upgradeable/proxy/utils/Initializable.sol\":745:764  _initialized = true */\n      and\n        /* \"@openzeppelin/contracts-upgradeable/proxy/utils/Initializable.sol\":727:731  true */\n      0x01\n        /* \"@openzeppelin/contracts-upgradeable/proxy/utils/Initializable.sol\":745:764  _initialized = true */\n      or\n      swap1\n      sstore\n        /* \"@openzeppelin/contracts-upgradeable/proxy/utils/Initializable.sol\":677:775  if (isTopLevelCall) {... */\n    tag_185:\n        /* \"contracts/IDO/SEAPreSale.sol\":1784:1800  __Ownable_init() */\n      tag_187\n        /* \"contracts/IDO/SEAPreSale.sol\":1784:1798  __Ownable_init */\n      tag_188\n        /* \"contracts/IDO/SEAPreSale.sol\":1784:1800  __Ownable_init() */\n      jump\t// in\n    tag_187:\n        /* \"contracts/IDO/SEAPreSale.sol\":1810:1818  alphaSEA */\n      0x65\n        /* \"contracts/IDO/SEAPreSale.sol\":1810:1830  alphaSEA = _alphaSEA */\n      dup1\n      sload\n      sub(shl(0xa0, 0x01), 0x01)\n      dup1\n      dup14\n      and\n      not(sub(shl(0xa0, 0x01), 0x01))\n      swap3\n      dup4\n      and\n      or\n      swap1\n      swap3\n      sstore\n        /* \"contracts/IDO/SEAPreSale.sol\":1840:1844  usdc */\n      0x67\n        /* \"contracts/IDO/SEAPreSale.sol\":1840:1852  usdc = _usdc */\n      dup1\n      sload\n      dup13\n      dup5\n      and\n      swap1\n      dup4\n      and\n      or\n      swap1\n      sstore\n        /* \"contracts/IDO/SEAPreSale.sol\":1862:1871  salePrice */\n      0x6a\n        /* \"contracts/IDO/SEAPreSale.sol\":1862:1884  salePrice = _salePrice */\n      dup8\n      swap1\n      sstore\n        /* \"contracts/IDO/SEAPreSale.sol\":1894:1908  startTimestamp */\n      0x6b\n        /* \"contracts/IDO/SEAPreSale.sol\":1894:1926  startTimestamp = _startTimestamp */\n      dup7\n      swap1\n      sstore\n        /* \"contracts/IDO/SEAPreSale.sol\":1936:1948  endTimestamp */\n      0x6c\n        /* \"contracts/IDO/SEAPreSale.sol\":1936:1964  endTimestamp = _endTimestamp */\n      dup6\n      swap1\n      sstore\n        /* \"contracts/IDO/SEAPreSale.sol\":1974:1984  DAOAddress */\n      0x66\n        /* \"contracts/IDO/SEAPreSale.sol\":1974:1998  DAOAddress = _DAOAddress */\n      dup1\n      sload\n      swap3\n      dup15\n      and\n      swap3\n      swap1\n      swap2\n      and\n      swap2\n      swap1\n      swap2\n      or\n      swap1\n      sstore\n        /* \"contracts/IDO/SEAPreSale.sol\":2008:2017  minAmount */\n      0x68\n        /* \"contracts/IDO/SEAPreSale.sol\":2008:2030  minAmount = _minAmount */\n      dup9\n      swap1\n      sstore\n        /* \"contracts/IDO/SEAPreSale.sol\":2040:2049  maxAmount */\n      0x69\n        /* \"contracts/IDO/SEAPreSale.sol\":2040:2062  maxAmount = _maxAmount */\n      dup8\n      swap1\n      sstore\n        /* \"contracts/IDO/SEAPreSale.sol\":2072:2083  toTalAmount */\n      0x6d\n        /* \"contracts/IDO/SEAPreSale.sol\":2072:2098  toTalAmount = _toTalAmount */\n      dup7\n      swap1\n      sstore\n        /* \"contracts/IDO/SEAPreSale.sol\":2108:2132  remainingPurchasesMaxAmt */\n      0x6f\n        /* \"contracts/IDO/SEAPreSale.sol\":2108:2160  remainingPurchasesMaxAmt = _remainingPurchasesMaxAmt */\n      dup3\n      swap1\n      sstore\n        /* \"contracts/IDO/SEAPreSale.sol\":2170:2181  saleStarted */\n      0x70\n        /* \"contracts/IDO/SEAPreSale.sol\":2170:2188  saleStarted = true */\n      dup1\n      sload\n      not(0xff)\n      and\n        /* \"contracts/IDO/SEAPreSale.sol\":1810:1830  alphaSEA = _alphaSEA */\n      0x01\n        /* \"contracts/IDO/SEAPreSale.sol\":2170:2188  saleStarted = true */\n      or\n      swap1\n      sstore\n        /* \"@openzeppelin/contracts-upgradeable/proxy/utils/Initializable.sol\":797:863  if (isTopLevelCall) {... */\n      dup1\n      iszero\n      tag_189\n      jumpi\n        /* \"@openzeppelin/contracts-upgradeable/proxy/utils/Initializable.sol\":847:852  false */\n      0x00\n        /* \"@openzeppelin/contracts-upgradeable/proxy/utils/Initializable.sol\":831:852  _initializing = false */\n      dup1\n      sload\n      not(0xff00)\n      and\n      swap1\n      sstore\n        /* \"@openzeppelin/contracts-upgradeable/proxy/utils/Initializable.sol\":797:863  if (isTopLevelCall) {... */\n    tag_189:\n        /* \"contracts/IDO/SEAPreSale.sol\":1366:2195  function initialize(... */\n      pop\n      pop\n      pop\n      pop\n      pop\n      pop\n      pop\n      pop\n      pop\n      pop\n      pop\n      jump\t// out\n        /* \"contracts/IDO/SEAPreSale.sol\":2201:2979  function SET(... */\n    tag_87:\n        /* \"contracts/IDO/SEAPreSale.sol\":2548:2552  bool */\n      0x00\n        /* \"@openzeppelin/contracts-upgradeable/access/OwnableUpgradeable.sol\":1525:1537  _msgSender() */\n      tag_191\n        /* \"@openzeppelin/contracts-upgradeable/access/OwnableUpgradeable.sol\":1525:1535  _msgSender */\n      tag_112\n        /* \"@openzeppelin/contracts-upgradeable/access/OwnableUpgradeable.sol\":1525:1537  _msgSender() */\n      jump\t// in\n    tag_191:\n      sub(shl(0xa0, 0x01), 0x01)\n        /* \"@openzeppelin/contracts-upgradeable/access/OwnableUpgradeable.sol\":1514:1537  owner() == _msgSender() */\n      and\n        /* \"@openzeppelin/contracts-upgradeable/access/OwnableUpgradeable.sol\":1514:1521  owner() */\n      tag_192\n        /* \"@openzeppelin/contracts-upgradeable/access/OwnableUpgradeable.sol\":1514:1519  owner */\n      tag_63\n        /* \"@openzeppelin/contracts-upgradeable/access/OwnableUpgradeable.sol\":1514:1521  owner() */\n      jump\t// in\n    tag_192:\n      sub(shl(0xa0, 0x01), 0x01)\n        /* \"@openzeppelin/contracts-upgradeable/access/OwnableUpgradeable.sol\":1514:1537  owner() == _msgSender() */\n      and\n      eq\n        /* \"@openzeppelin/contracts-upgradeable/access/OwnableUpgradeable.sol\":1506:1574  require(owner() == _msgSender(), \"Ownable: caller is not the owner\") */\n      tag_193\n      jumpi\n      mload(0x40)\n      shl(0xe5, 0x461bcd)\n      dup2\n      mstore\n      0x04\n      add\n      tag_115\n      swap1\n      tag_116\n      jump\t// in\n    tag_193:\n      pop\n        /* \"contracts/IDO/SEAPreSale.sol\":2564:2572  alphaSEA */\n      0x65\n        /* \"contracts/IDO/SEAPreSale.sol\":2564:2584  alphaSEA = _alphaSEA */\n      dup1\n      sload\n      not(sub(shl(0xa0, 0x01), 0x01))\n      swap1\n      dup2\n      and\n      sub(shl(0xa0, 0x01), 0x01)\n      swap12\n      dup13\n      and\n      or\n      swap1\n      swap2\n      sstore\n        /* \"contracts/IDO/SEAPreSale.sol\":2595:2599  usdc */\n      0x67\n        /* \"contracts/IDO/SEAPreSale.sol\":2595:2607  usdc = _usdc */\n      dup1\n      sload\n      dup3\n      and\n      swap10\n      dup12\n      and\n      swap10\n      swap1\n      swap10\n      or\n      swap1\n      swap9\n      sstore\n        /* \"contracts/IDO/SEAPreSale.sol\":2618:2627  salePrice */\n      0x6a\n        /* \"contracts/IDO/SEAPreSale.sol\":2618:2640  salePrice = _salePrice */\n      swap4\n      swap1\n      swap4\n      sstore\n        /* \"contracts/IDO/SEAPreSale.sol\":2651:2665  startTimestamp */\n      0x6b\n        /* \"contracts/IDO/SEAPreSale.sol\":2651:2683  startTimestamp = _startTimestamp */\n      swap2\n      swap1\n      swap2\n      sstore\n        /* \"contracts/IDO/SEAPreSale.sol\":2693:2705  endTimestamp */\n      0x6c\n        /* \"contracts/IDO/SEAPreSale.sol\":2693:2721  endTimestamp = _endTimestamp */\n      sstore\n        /* \"contracts/IDO/SEAPreSale.sol\":2732:2742  DAOAddress */\n      0x66\n        /* \"contracts/IDO/SEAPreSale.sol\":2732:2756  DAOAddress = _DAOAddress */\n      dup1\n      sload\n      swap1\n      swap6\n      and\n      swap7\n      swap1\n      swap6\n      and\n      swap6\n      swap1\n      swap6\n      or\n      swap1\n      swap3\n      sstore\n        /* \"contracts/IDO/SEAPreSale.sol\":2767:2776  minAmount */\n      0x68\n        /* \"contracts/IDO/SEAPreSale.sol\":2767:2789  minAmount = _minAmount */\n      sstore\n        /* \"contracts/IDO/SEAPreSale.sol\":2800:2809  maxAmount */\n      0x69\n        /* \"contracts/IDO/SEAPreSale.sol\":2800:2822  maxAmount = _maxAmount */\n      sstore\n        /* \"contracts/IDO/SEAPreSale.sol\":2833:2844  toTalAmount */\n      0x6d\n        /* \"contracts/IDO/SEAPreSale.sol\":2833:2859  toTalAmount = _toTalAmount */\n      swap2\n      swap1\n      swap2\n      sstore\n        /* \"contracts/IDO/SEAPreSale.sol\":2870:2894  remainingPurchasesMaxAmt */\n      0x6f\n        /* \"contracts/IDO/SEAPreSale.sol\":2870:2922  remainingPurchasesMaxAmt = _remainingPurchasesMaxAmt */\n      sstore\n        /* \"contracts/IDO/SEAPreSale.sol\":2933:2944  saleStarted */\n      0x70\n        /* \"contracts/IDO/SEAPreSale.sol\":2933:2951  saleStarted = true */\n      dup1\n      sload\n      not(0xff)\n      and\n      0x01\n      swap1\n      dup2\n      or\n      swap1\n      swap2\n      sstore\n      swap1\n        /* \"contracts/IDO/SEAPreSale.sol\":2201:2979  function SET(... */\n      jump\t// out\n        /* \"contracts/IDO/SEAPreSale.sol\":941:980  uint256 public remainingPurchasesMaxAmt */\n    tag_90:\n      sload(0x6f)\n      dup2\n      jump\t// out\n        /* \"contracts/IDO/SEAPreSale.sol\":810:839  uint256 public startTimestamp */\n    tag_93:\n      sload(0x6b)\n      dup2\n      jump\t// out\n        /* \"contracts/IDO/SEAPreSale.sol\":1017:1058  mapping(address => bool) public boughtSEA */\n    tag_98:\n      mstore(0x20, 0x71)\n      0x00\n      swap1\n      dup2\n      mstore\n      0x40\n      swap1\n      keccak256\n      sload\n      0xff\n      and\n      dup2\n      jump\t// out\n        /* \"@openzeppelin/contracts-upgradeable/access/OwnableUpgradeable.sol\":2184:2382  function transferOwnership(address newOwner) public virtual onlyOwner {... */\n    tag_102:\n        /* \"@openzeppelin/contracts-upgradeable/access/OwnableUpgradeable.sol\":1525:1537  _msgSender() */\n      tag_197\n        /* \"@openzeppelin/contracts-upgradeable/access/OwnableUpgradeable.sol\":1525:1535  _msgSender */\n      tag_112\n        /* \"@openzeppelin/contracts-upgradeable/access/OwnableUpgradeable.sol\":1525:1537  _msgSender() */\n      jump\t// in\n    tag_197:\n      sub(shl(0xa0, 0x01), 0x01)\n        /* \"@openzeppelin/contracts-upgradeable/access/OwnableUpgradeable.sol\":1514:1537  owner() == _msgSender() */\n      and\n        /* \"@openzeppelin/contracts-upgradeable/access/OwnableUpgradeable.sol\":1514:1521  owner() */\n      tag_198\n        /* \"@openzeppelin/contracts-upgradeable/access/OwnableUpgradeable.sol\":1514:1519  owner */\n      tag_63\n        /* \"@openzeppelin/contracts-upgradeable/access/OwnableUpgradeable.sol\":1514:1521  owner() */\n      jump\t// in\n    tag_198:\n      sub(shl(0xa0, 0x01), 0x01)\n        /* \"@openzeppelin/contracts-upgradeable/access/OwnableUpgradeable.sol\":1514:1537  owner() == _msgSender() */\n      and\n      eq\n        /* \"@openzeppelin/contracts-upgradeable/access/OwnableUpgradeable.sol\":1506:1574  require(owner() == _msgSender(), \"Ownable: caller is not the owner\") */\n      tag_199\n      jumpi\n      mload(0x40)\n      shl(0xe5, 0x461bcd)\n      dup2\n      mstore\n      0x04\n      add\n      tag_115\n      swap1\n      tag_116\n      jump\t// in\n    tag_199:\n      sub(shl(0xa0, 0x01), 0x01)\n        /* \"@openzeppelin/contracts-upgradeable/access/OwnableUpgradeable.sol\":2272:2294  newOwner != address(0) */\n      dup2\n      and\n        /* \"@openzeppelin/contracts-upgradeable/access/OwnableUpgradeable.sol\":2264:2337  require(newOwner != address(0), \"Ownable: new owner is the zero address\") */\n      tag_202\n      jumpi\n      mload(0x40)\n      shl(0xe5, 0x461bcd)\n      dup2\n      mstore\n      0x04\n      add\n      tag_115\n      swap1\n      tag_204\n      jump\t// in\n    tag_202:\n        /* \"@openzeppelin/contracts-upgradeable/access/OwnableUpgradeable.sol\":2347:2375  _transferOwnership(newOwner) */\n      tag_205\n        /* \"@openzeppelin/contracts-upgradeable/access/OwnableUpgradeable.sol\":2366:2374  newOwner */\n      dup2\n        /* \"@openzeppelin/contracts-upgradeable/access/OwnableUpgradeable.sol\":2347:2365  _transferOwnership */\n      tag_140\n        /* \"@openzeppelin/contracts-upgradeable/access/OwnableUpgradeable.sol\":2347:2375  _transferOwnership(newOwner) */\n      jump\t// in\n    tag_205:\n        /* \"@openzeppelin/contracts-upgradeable/access/OwnableUpgradeable.sol\":2184:2382  function transferOwnership(address newOwner) public virtual onlyOwner {... */\n      pop\n      jump\t// out\n        /* \"contracts/IDO/SEAPreSale.sol\":780:804  uint256 public salePrice */\n    tag_104:\n      sload(0x6a)\n      dup2\n      jump\t// out\n        /* \"contracts/IDO/SEAPreSale.sol\":1064:1107  mapping(address => bool) public whiteListed */\n    tag_108:\n      mstore(0x20, 0x72)\n      0x00\n      swap1\n      dup2\n      mstore\n      0x40\n      swap1\n      keccak256\n      sload\n      0xff\n      and\n      dup2\n      jump\t// out\n        /* \"@openzeppelin/contracts-upgradeable/utils/ContextUpgradeable.sol\":876:972  function _msgSender() internal view virtual returns (address) {... */\n    tag_112:\n        /* \"@openzeppelin/contracts-upgradeable/utils/ContextUpgradeable.sol\":955:965  msg.sender */\n      caller\n        /* \"@openzeppelin/contracts-upgradeable/utils/ContextUpgradeable.sol\":876:972  function _msgSender() internal view virtual returns (address) {... */\n      swap1\n      jump\t// out\n        /* \"contracts/IDO/SEAPreSale.sol\":4358:4564  function _calculateSaleQuote(uint256 paymentAmount_)... */\n    tag_126:\n        /* \"contracts/IDO/SEAPreSale.sol\":4526:4535  salePrice */\n      sload(0x6a)\n        /* \"contracts/IDO/SEAPreSale.sol\":4458:4465  uint256 */\n      0x00\n      swap1\n        /* \"contracts/IDO/SEAPreSale.sol\":4488:4536  uint256(1e18).mul(paymentAmount_).div(salePrice) */\n      tag_125\n      swap1\n        /* \"contracts/IDO/SEAPreSale.sol\":4488:4521  uint256(1e18).mul(paymentAmount_) */\n      tag_209\n        /* \"contracts/IDO/SEAPreSale.sol\":4496:4500  1e18 */\n      0x0de0b6b3a7640000\n        /* \"contracts/IDO/SEAPreSale.sol\":4506:4520  paymentAmount_ */\n      dup6\n        /* \"contracts/IDO/SEAPreSale.sol\":4488:4505  uint256(1e18).mul */\n      tag_210\n        /* \"contracts/IDO/SEAPreSale.sol\":4488:4521  uint256(1e18).mul(paymentAmount_) */\n      jump\t// in\n    tag_209:\n        /* \"contracts/IDO/SEAPreSale.sol\":4488:4525  uint256(1e18).mul(paymentAmount_).div */\n      swap1\n      tag_211\n        /* \"contracts/IDO/SEAPreSale.sol\":4488:4536  uint256(1e18).mul(paymentAmount_).div(salePrice) */\n      jump\t// in\n        /* \"@openzeppelin/contracts-upgradeable/access/OwnableUpgradeable.sol\":2536:2723  function _transferOwnership(address newOwner) internal virtual {... */\n    tag_140:\n        /* \"@openzeppelin/contracts-upgradeable/access/OwnableUpgradeable.sol\":2628:2634  _owner */\n      0x33\n      dup1\n      sload\n      sub(shl(0xa0, 0x01), 0x01)\n        /* \"@openzeppelin/contracts-upgradeable/access/OwnableUpgradeable.sol\":2644:2661  _owner = newOwner */\n      dup4\n      dup2\n      and\n      not(sub(shl(0xa0, 0x01), 0x01))\n      dup4\n      and\n      dup2\n      or\n      swap1\n      swap4\n      sstore\n        /* \"@openzeppelin/contracts-upgradeable/access/OwnableUpgradeable.sol\":2676:2716  OwnershipTransferred(oldOwner, newOwner) */\n      mload(0x40)\n        /* \"@openzeppelin/contracts-upgradeable/access/OwnableUpgradeable.sol\":2628:2634  _owner */\n      swap2\n      and\n      swap2\n        /* \"@openzeppelin/contracts-upgradeable/access/OwnableUpgradeable.sol\":2644:2661  _owner = newOwner */\n      swap1\n        /* \"@openzeppelin/contracts-upgradeable/access/OwnableUpgradeable.sol\":2628:2634  _owner */\n      dup3\n      swap1\n        /* \"@openzeppelin/contracts-upgradeable/access/OwnableUpgradeable.sol\":2676:2716  OwnershipTransferred(oldOwner, newOwner) */\n      0x8be0079c531659141344cd1fd0a4f28419497f9722a3daafe3b4186f6b6457e0\n      swap1\n        /* \"@openzeppelin/contracts-upgradeable/access/OwnableUpgradeable.sol\":2609:2625  address oldOwner */\n      0x00\n      swap1\n        /* \"@openzeppelin/contracts-upgradeable/access/OwnableUpgradeable.sol\":2676:2716  OwnershipTransferred(oldOwner, newOwner) */\n      log3\n        /* \"@openzeppelin/contracts-upgradeable/access/OwnableUpgradeable.sol\":2536:2723  function _transferOwnership(address newOwner) internal virtual {... */\n      pop\n      pop\n      jump\t// out\n        /* \"@openzeppelin/contracts-upgradeable/utils/math/SafeMathUpgradeable.sol\":2752:2848  function add(uint256 a, uint256 b) internal pure returns (uint256) {... */\n    tag_150:\n        /* \"@openzeppelin/contracts-upgradeable/utils/math/SafeMathUpgradeable.sol\":2810:2817  uint256 */\n      0x00\n        /* \"@openzeppelin/contracts-upgradeable/utils/math/SafeMathUpgradeable.sol\":2836:2841  a + b */\n      tag_214\n        /* \"@openzeppelin/contracts-upgradeable/utils/math/SafeMathUpgradeable.sol\":2840:2841  b */\n      dup3\n        /* \"@openzeppelin/contracts-upgradeable/utils/math/SafeMathUpgradeable.sol\":2836:2837  a */\n      dup5\n        /* \"@openzeppelin/contracts-upgradeable/utils/math/SafeMathUpgradeable.sol\":2836:2841  a + b */\n      tag_215\n      jump\t// in\n    tag_214:\n        /* \"@openzeppelin/contracts-upgradeable/utils/math/SafeMathUpgradeable.sol\":2829:2841  return a + b */\n      swap4\n        /* \"@openzeppelin/contracts-upgradeable/utils/math/SafeMathUpgradeable.sol\":2752:2848  function add(uint256 a, uint256 b) internal pure returns (uint256) {... */\n      swap3\n      pop\n      pop\n      pop\n      jump\t// out\n        /* \"@openzeppelin/contracts-upgradeable/token/ERC20/utils/SafeERC20Upgradeable.sol\":967:1219  function safeTransferFrom(... */\n    tag_175:\n        /* \"@openzeppelin/contracts-upgradeable/token/ERC20/utils/SafeERC20Upgradeable.sol\":1116:1212  _callOptionalReturn(token, abi.encodeWithSelector(token.transferFrom.selector, from, to, value)) */\n      tag_217\n        /* \"@openzeppelin/contracts-upgradeable/token/ERC20/utils/SafeERC20Upgradeable.sol\":1136:1141  token */\n      dup5\n        /* \"@openzeppelin/contracts-upgradeable/token/ERC20/utils/SafeERC20Upgradeable.sol\":1166:1193  token.transferFrom.selector */\n      shl(0xe0, 0x23b872dd)\n        /* \"@openzeppelin/contracts-upgradeable/token/ERC20/utils/SafeERC20Upgradeable.sol\":1195:1199  from */\n      dup6\n        /* \"@openzeppelin/contracts-upgradeable/token/ERC20/utils/SafeERC20Upgradeable.sol\":1201:1203  to */\n      dup6\n        /* \"@openzeppelin/contracts-upgradeable/token/ERC20/utils/SafeERC20Upgradeable.sol\":1205:1210  value */\n      dup6\n        /* \"@openzeppelin/contracts-upgradeable/token/ERC20/utils/SafeERC20Upgradeable.sol\":1143:1211  abi.encodeWithSelector(token.transferFrom.selector, from, to, value) */\n      add(0x24, mload(0x40))\n      tag_218\n      swap4\n      swap3\n      swap2\n      swap1\n      tag_219\n      jump\t// in\n    tag_218:\n      0x40\n      dup1\n      mload\n      not(0x1f)\n      dup2\n      dup5\n      sub\n      add\n      dup2\n      mstore\n      swap2\n      swap1\n      mstore\n      0x20\n      dup2\n      add\n      dup1\n      mload\n      sub(shl(0xe0, 0x01), 0x01)\n      and\n      not(sub(shl(0xe0, 0x01), 0x01))\n      swap1\n      swap4\n      and\n      swap3\n      swap1\n      swap3\n      or\n      swap1\n      swap2\n      mstore\n        /* \"@openzeppelin/contracts-upgradeable/token/ERC20/utils/SafeERC20Upgradeable.sol\":1116:1135  _callOptionalReturn */\n      tag_220\n        /* \"@openzeppelin/contracts-upgradeable/token/ERC20/utils/SafeERC20Upgradeable.sol\":1116:1212  _callOptionalReturn(token, abi.encodeWithSelector(token.transferFrom.selector, from, to, value)) */\n      jump\t// in\n    tag_217:\n        /* \"@openzeppelin/contracts-upgradeable/token/ERC20/utils/SafeERC20Upgradeable.sol\":967:1219  function safeTransferFrom(... */\n      pop\n      pop\n      pop\n      pop\n      jump\t// out\n        /* \"@openzeppelin/contracts-upgradeable/token/ERC20/utils/SafeERC20Upgradeable.sol\":745:961  function safeTransfer(... */\n    tag_177:\n        /* \"@openzeppelin/contracts-upgradeable/token/ERC20/utils/SafeERC20Upgradeable.sol\":868:954  _callOptionalReturn(token, abi.encodeWithSelector(token.transfer.selector, to, value)) */\n      tag_222\n        /* \"@openzeppelin/contracts-upgradeable/token/ERC20/utils/SafeERC20Upgradeable.sol\":888:893  token */\n      dup4\n        /* \"@openzeppelin/contracts-upgradeable/token/ERC20/utils/SafeERC20Upgradeable.sol\":918:941  token.transfer.selector */\n      shl(0xe0, 0xa9059cbb)\n        /* \"@openzeppelin/contracts-upgradeable/token/ERC20/utils/SafeERC20Upgradeable.sol\":943:945  to */\n      dup5\n        /* \"@openzeppelin/contracts-upgradeable/token/ERC20/utils/SafeERC20Upgradeable.sol\":947:952  value */\n      dup5\n        /* \"@openzeppelin/contracts-upgradeable/token/ERC20/utils/SafeERC20Upgradeable.sol\":895:953  abi.encodeWithSelector(token.transfer.selector, to, value) */\n      add(0x24, mload(0x40))\n      tag_218\n      swap3\n      swap2\n      swap1\n      tag_224\n      jump\t// in\n        /* \"@openzeppelin/contracts-upgradeable/token/ERC20/utils/SafeERC20Upgradeable.sol\":868:954  _callOptionalReturn(token, abi.encodeWithSelector(token.transfer.selector, to, value)) */\n    tag_222:\n        /* \"@openzeppelin/contracts-upgradeable/token/ERC20/utils/SafeERC20Upgradeable.sol\":745:961  function safeTransfer(... */\n      pop\n      pop\n      pop\n      jump\t// out\n        /* \"@openzeppelin/contracts-upgradeable/access/OwnableUpgradeable.sol\":988:1114  function __Ownable_init() internal initializer {... */\n    tag_188:\n        /* \"@openzeppelin/contracts-upgradeable/proxy/utils/Initializable.sol\":539:552  _initializing */\n      sload(0x00)\n      0x0100\n      swap1\n      div\n      0xff\n      and\n      dup1\n        /* \"@openzeppelin/contracts-upgradeable/proxy/utils/Initializable.sol\":539:569  _initializing || !_initialized */\n      tag_226\n      jumpi\n      pop\n        /* \"@openzeppelin/contracts-upgradeable/proxy/utils/Initializable.sol\":557:569  _initialized */\n      and(0xff, sload(0x00))\n        /* \"@openzeppelin/contracts-upgradeable/proxy/utils/Initializable.sol\":556:569  !_initialized */\n      iszero\n        /* \"@openzeppelin/contracts-upgradeable/proxy/utils/Initializable.sol\":539:569  _initializing || !_initialized */\n    tag_226:\n        /* \"@openzeppelin/contracts-upgradeable/proxy/utils/Initializable.sol\":531:620  require(_initializing || !_initialized, \"Initializable: contract is already initialized\") */\n      tag_227\n      jumpi\n      mload(0x40)\n      shl(0xe5, 0x461bcd)\n      dup2\n      mstore\n      0x04\n      add\n      tag_115\n      swap1\n      tag_184\n      jump\t// in\n    tag_227:\n        /* \"@openzeppelin/contracts-upgradeable/proxy/utils/Initializable.sol\":631:650  bool isTopLevelCall */\n      0x00\n        /* \"@openzeppelin/contracts-upgradeable/proxy/utils/Initializable.sol\":654:667  _initializing */\n      sload\n      0x0100\n      swap1\n      div\n      0xff\n      and\n        /* \"@openzeppelin/contracts-upgradeable/proxy/utils/Initializable.sol\":653:667  !_initializing */\n      iszero\n        /* \"@openzeppelin/contracts-upgradeable/proxy/utils/Initializable.sol\":677:775  if (isTopLevelCall) {... */\n      dup1\n      iszero\n      tag_229\n      jumpi\n        /* \"@openzeppelin/contracts-upgradeable/proxy/utils/Initializable.sol\":711:724  _initializing */\n      0x00\n        /* \"@openzeppelin/contracts-upgradeable/proxy/utils/Initializable.sol\":711:731  _initializing = true */\n      dup1\n      sload\n      not(0xff)\n      not(0xff00)\n      swap1\n      swap2\n      and\n      0x0100\n      or\n        /* \"@openzeppelin/contracts-upgradeable/proxy/utils/Initializable.sol\":745:764  _initialized = true */\n      and\n        /* \"@openzeppelin/contracts-upgradeable/proxy/utils/Initializable.sol\":727:731  true */\n      0x01\n        /* \"@openzeppelin/contracts-upgradeable/proxy/utils/Initializable.sol\":745:764  _initialized = true */\n      or\n      swap1\n      sstore\n        /* \"@openzeppelin/contracts-upgradeable/proxy/utils/Initializable.sol\":677:775  if (isTopLevelCall) {... */\n    tag_229:\n        /* \"@openzeppelin/contracts-upgradeable/access/OwnableUpgradeable.sol\":1045:1071  __Context_init_unchained() */\n      tag_231\n        /* \"@openzeppelin/contracts-upgradeable/access/OwnableUpgradeable.sol\":1045:1069  __Context_init_unchained */\n      tag_232\n        /* \"@openzeppelin/contracts-upgradeable/access/OwnableUpgradeable.sol\":1045:1071  __Context_init_unchained() */\n      jump\t// in\n    tag_231:\n        /* \"@openzeppelin/contracts-upgradeable/access/OwnableUpgradeable.sol\":1081:1107  __Ownable_init_unchained() */\n      tag_233\n        /* \"@openzeppelin/contracts-upgradeable/access/OwnableUpgradeable.sol\":1081:1105  __Ownable_init_unchained */\n      tag_234\n        /* \"@openzeppelin/contracts-upgradeable/access/OwnableUpgradeable.sol\":1081:1107  __Ownable_init_unchained() */\n      jump\t// in\n    tag_233:\n        /* \"@openzeppelin/contracts-upgradeable/proxy/utils/Initializable.sol\":801:815  isTopLevelCall */\n      dup1\n        /* \"@openzeppelin/contracts-upgradeable/proxy/utils/Initializable.sol\":797:863  if (isTopLevelCall) {... */\n      iszero\n      tag_205\n      jumpi\n        /* \"@openzeppelin/contracts-upgradeable/proxy/utils/Initializable.sol\":847:852  false */\n      0x00\n        /* \"@openzeppelin/contracts-upgradeable/proxy/utils/Initializable.sol\":831:852  _initializing = false */\n      dup1\n      sload\n      not(0xff00)\n      and\n      swap1\n      sstore\n        /* \"@openzeppelin/contracts-upgradeable/access/OwnableUpgradeable.sol\":988:1114  function __Ownable_init() internal initializer {... */\n      pop\n      jump\t// out\n        /* \"@openzeppelin/contracts-upgradeable/utils/math/SafeMathUpgradeable.sol\":3462:3558  function mul(uint256 a, uint256 b) internal pure returns (uint256) {... */\n    tag_210:\n        /* \"@openzeppelin/contracts-upgradeable/utils/math/SafeMathUpgradeable.sol\":3520:3527  uint256 */\n      0x00\n        /* \"@openzeppelin/contracts-upgradeable/utils/math/SafeMathUpgradeable.sol\":3546:3551  a * b */\n      tag_214\n        /* \"@openzeppelin/contracts-upgradeable/utils/math/SafeMathUpgradeable.sol\":3550:3551  b */\n      dup3\n        /* \"@openzeppelin/contracts-upgradeable/utils/math/SafeMathUpgradeable.sol\":3546:3547  a */\n      dup5\n        /* \"@openzeppelin/contracts-upgradeable/utils/math/SafeMathUpgradeable.sol\":3546:3551  a * b */\n      tag_238\n      jump\t// in\n        /* \"@openzeppelin/contracts-upgradeable/utils/math/SafeMathUpgradeable.sol\":3847:3943  function div(uint256 a, uint256 b) internal pure returns (uint256) {... */\n    tag_211:\n        /* \"@openzeppelin/contracts-upgradeable/utils/math/SafeMathUpgradeable.sol\":3905:3912  uint256 */\n      0x00\n        /* \"@openzeppelin/contracts-upgradeable/utils/math/SafeMathUpgradeable.sol\":3931:3936  a / b */\n      tag_214\n        /* \"@openzeppelin/contracts-upgradeable/utils/math/SafeMathUpgradeable.sol\":3935:3936  b */\n      dup3\n        /* \"@openzeppelin/contracts-upgradeable/utils/math/SafeMathUpgradeable.sol\":3931:3932  a */\n      dup5\n        /* \"@openzeppelin/contracts-upgradeable/utils/math/SafeMathUpgradeable.sol\":3931:3936  a / b */\n      tag_241\n      jump\t// in\n        /* \"@openzeppelin/contracts-upgradeable/token/ERC20/utils/SafeERC20Upgradeable.sol\":3306:4023  function _callOptionalReturn(IERC20Upgradeable token, bytes memory data) private {... */\n    tag_220:\n        /* \"@openzeppelin/contracts-upgradeable/token/ERC20/utils/SafeERC20Upgradeable.sol\":3736:3759  bytes memory returndata */\n      0x00\n        /* \"@openzeppelin/contracts-upgradeable/token/ERC20/utils/SafeERC20Upgradeable.sol\":3762:3831  address(token).functionCall(data, \"SafeERC20: low-level call failed\") */\n      tag_243\n        /* \"@openzeppelin/contracts-upgradeable/token/ERC20/utils/SafeERC20Upgradeable.sol\":3790:3794  data */\n      dup3\n        /* \"@openzeppelin/contracts-upgradeable/token/ERC20/utils/SafeERC20Upgradeable.sol\":3762:3831  address(token).functionCall(data, \"SafeERC20: low-level call failed\") */\n      mload(0x40)\n      dup1\n      0x40\n      add\n      0x40\n      mstore\n      dup1\n      0x20\n      dup2\n      mstore\n      0x20\n      add\n      0x5361666545524332303a206c6f772d6c6576656c2063616c6c206661696c6564\n      dup2\n      mstore\n      pop\n        /* \"@openzeppelin/contracts-upgradeable/token/ERC20/utils/SafeERC20Upgradeable.sol\":3770:3775  token */\n      dup6\n      sub(shl(0xa0, 0x01), 0x01)\n        /* \"@openzeppelin/contracts-upgradeable/token/ERC20/utils/SafeERC20Upgradeable.sol\":3762:3789  address(token).functionCall */\n      and\n      tag_244\n      swap1\n        /* \"@openzeppelin/contracts-upgradeable/token/ERC20/utils/SafeERC20Upgradeable.sol\":3762:3831  address(token).functionCall(data, \"SafeERC20: low-level call failed\") */\n      swap3\n      swap2\n      swap1\n      0xffffffff\n      and\n      jump\t// in\n    tag_243:\n        /* \"@openzeppelin/contracts-upgradeable/token/ERC20/utils/SafeERC20Upgradeable.sol\":3845:3862  returndata.length */\n      dup1\n      mload\n        /* \"@openzeppelin/contracts-upgradeable/token/ERC20/utils/SafeERC20Upgradeable.sol\":3736:3831  bytes memory returndata = address(token).functionCall(data, \"SafeERC20: low-level call failed\") */\n      swap1\n      swap2\n      pop\n        /* \"@openzeppelin/contracts-upgradeable/token/ERC20/utils/SafeERC20Upgradeable.sol\":3845:3866  returndata.length > 0 */\n      iszero\n        /* \"@openzeppelin/contracts-upgradeable/token/ERC20/utils/SafeERC20Upgradeable.sol\":3841:4017  if (returndata.length > 0) {... */\n      tag_222\n      jumpi\n        /* \"@openzeppelin/contracts-upgradeable/token/ERC20/utils/SafeERC20Upgradeable.sol\":3940:3950  returndata */\n      dup1\n        /* \"@openzeppelin/contracts-upgradeable/token/ERC20/utils/SafeERC20Upgradeable.sol\":3929:3959  abi.decode(returndata, (bool)) */\n      dup1\n      0x20\n      add\n      swap1\n      mload\n      dup2\n      add\n      swap1\n      tag_246\n      swap2\n      swap1\n      tag_247\n      jump\t// in\n    tag_246:\n        /* \"@openzeppelin/contracts-upgradeable/token/ERC20/utils/SafeERC20Upgradeable.sol\":3921:4006  require(abi.decode(returndata, (bool)), \"SafeERC20: ERC20 operation did not succeed\") */\n      tag_222\n      jumpi\n      mload(0x40)\n      shl(0xe5, 0x461bcd)\n      dup2\n      mstore\n      0x04\n      add\n      tag_115\n      swap1\n      tag_250\n      jump\t// in\n        /* \"@openzeppelin/contracts-upgradeable/utils/ContextUpgradeable.sol\":807:871  function __Context_init_unchained() internal initializer {... */\n    tag_232:\n        /* \"@openzeppelin/contracts-upgradeable/proxy/utils/Initializable.sol\":539:552  _initializing */\n      sload(0x00)\n      0x0100\n      swap1\n      div\n      0xff\n      and\n      dup1\n        /* \"@openzeppelin/contracts-upgradeable/proxy/utils/Initializable.sol\":539:569  _initializing || !_initialized */\n      tag_252\n      jumpi\n      pop\n        /* \"@openzeppelin/contracts-upgradeable/proxy/utils/Initializable.sol\":557:569  _initialized */\n      and(0xff, sload(0x00))\n        /* \"@openzeppelin/contracts-upgradeable/proxy/utils/Initializable.sol\":556:569  !_initialized */\n      iszero\n        /* \"@openzeppelin/contracts-upgradeable/proxy/utils/Initializable.sol\":539:569  _initializing || !_initialized */\n    tag_252:\n        /* \"@openzeppelin/contracts-upgradeable/proxy/utils/Initializable.sol\":531:620  require(_initializing || !_initialized, \"Initializable: contract is already initialized\") */\n      tag_253\n      jumpi\n      mload(0x40)\n      shl(0xe5, 0x461bcd)\n      dup2\n      mstore\n      0x04\n      add\n      tag_115\n      swap1\n      tag_184\n      jump\t// in\n    tag_253:\n        /* \"@openzeppelin/contracts-upgradeable/proxy/utils/Initializable.sol\":631:650  bool isTopLevelCall */\n      0x00\n        /* \"@openzeppelin/contracts-upgradeable/proxy/utils/Initializable.sol\":654:667  _initializing */\n      sload\n      0x0100\n      swap1\n      div\n      0xff\n      and\n        /* \"@openzeppelin/contracts-upgradeable/proxy/utils/Initializable.sol\":653:667  !_initializing */\n      iszero\n        /* \"@openzeppelin/contracts-upgradeable/proxy/utils/Initializable.sol\":677:775  if (isTopLevelCall) {... */\n      dup1\n      iszero\n      tag_233\n      jumpi\n        /* \"@openzeppelin/contracts-upgradeable/proxy/utils/Initializable.sol\":711:724  _initializing */\n      0x00\n        /* \"@openzeppelin/contracts-upgradeable/proxy/utils/Initializable.sol\":711:731  _initializing = true */\n      dup1\n      sload\n      not(0xff)\n      not(0xff00)\n      swap1\n      swap2\n      and\n      0x0100\n      or\n        /* \"@openzeppelin/contracts-upgradeable/proxy/utils/Initializable.sol\":745:764  _initialized = true */\n      and\n        /* \"@openzeppelin/contracts-upgradeable/proxy/utils/Initializable.sol\":727:731  true */\n      0x01\n        /* \"@openzeppelin/contracts-upgradeable/proxy/utils/Initializable.sol\":745:764  _initialized = true */\n      or\n      swap1\n      sstore\n        /* \"@openzeppelin/contracts-upgradeable/proxy/utils/Initializable.sol\":801:815  isTopLevelCall */\n      dup1\n        /* \"@openzeppelin/contracts-upgradeable/proxy/utils/Initializable.sol\":797:863  if (isTopLevelCall) {... */\n      iszero\n      tag_205\n      jumpi\n        /* \"@openzeppelin/contracts-upgradeable/proxy/utils/Initializable.sol\":847:852  false */\n      0x00\n        /* \"@openzeppelin/contracts-upgradeable/proxy/utils/Initializable.sol\":831:852  _initializing = false */\n      dup1\n      sload\n      not(0xff00)\n      and\n      swap1\n      sstore\n        /* \"@openzeppelin/contracts-upgradeable/utils/ContextUpgradeable.sol\":807:871  function __Context_init_unchained() internal initializer {... */\n      pop\n      jump\t// out\n        /* \"@openzeppelin/contracts-upgradeable/access/OwnableUpgradeable.sol\":1120:1226  function __Ownable_init_unchained() internal initializer {... */\n    tag_234:\n        /* \"@openzeppelin/contracts-upgradeable/proxy/utils/Initializable.sol\":539:552  _initializing */\n      sload(0x00)\n      0x0100\n      swap1\n      div\n      0xff\n      and\n      dup1\n        /* \"@openzeppelin/contracts-upgradeable/proxy/utils/Initializable.sol\":539:569  _initializing || !_initialized */\n      tag_259\n      jumpi\n      pop\n        /* \"@openzeppelin/contracts-upgradeable/proxy/utils/Initializable.sol\":557:569  _initialized */\n      and(0xff, sload(0x00))\n        /* \"@openzeppelin/contracts-upgradeable/proxy/utils/Initializable.sol\":556:569  !_initialized */\n      iszero\n        /* \"@openzeppelin/contracts-upgradeable/proxy/utils/Initializable.sol\":539:569  _initializing || !_initialized */\n    tag_259:\n        /* \"@openzeppelin/contracts-upgradeable/proxy/utils/Initializable.sol\":531:620  require(_initializing || !_initialized, \"Initializable: contract is already initialized\") */\n      tag_260\n      jumpi\n      mload(0x40)\n      shl(0xe5, 0x461bcd)\n      dup2\n      mstore\n      0x04\n      add\n      tag_115\n      swap1\n      tag_184\n      jump\t// in\n    tag_260:\n        /* \"@openzeppelin/contracts-upgradeable/proxy/utils/Initializable.sol\":631:650  bool isTopLevelCall */\n      0x00\n        /* \"@openzeppelin/contracts-upgradeable/proxy/utils/Initializable.sol\":654:667  _initializing */\n      sload\n      0x0100\n      swap1\n      div\n      0xff\n      and\n        /* \"@openzeppelin/contracts-upgradeable/proxy/utils/Initializable.sol\":653:667  !_initializing */\n      iszero\n        /* \"@openzeppelin/contracts-upgradeable/proxy/utils/Initializable.sol\":677:775  if (isTopLevelCall) {... */\n      dup1\n      iszero\n      tag_262\n      jumpi\n        /* \"@openzeppelin/contracts-upgradeable/proxy/utils/Initializable.sol\":711:724  _initializing */\n      0x00\n        /* \"@openzeppelin/contracts-upgradeable/proxy/utils/Initializable.sol\":711:731  _initializing = true */\n      dup1\n      sload\n      not(0xff)\n      not(0xff00)\n      swap1\n      swap2\n      and\n      0x0100\n      or\n        /* \"@openzeppelin/contracts-upgradeable/proxy/utils/Initializable.sol\":745:764  _initialized = true */\n      and\n        /* \"@openzeppelin/contracts-upgradeable/proxy/utils/Initializable.sol\":727:731  true */\n      0x01\n        /* \"@openzeppelin/contracts-upgradeable/proxy/utils/Initializable.sol\":745:764  _initialized = true */\n      or\n      swap1\n      sstore\n        /* \"@openzeppelin/contracts-upgradeable/proxy/utils/Initializable.sol\":677:775  if (isTopLevelCall) {... */\n    tag_262:\n        /* \"@openzeppelin/contracts-upgradeable/access/OwnableUpgradeable.sol\":1187:1219  _transferOwnership(_msgSender()) */\n      tag_233\n        /* \"@openzeppelin/contracts-upgradeable/access/OwnableUpgradeable.sol\":1206:1218  _msgSender() */\n      tag_265\n        /* \"@openzeppelin/contracts-upgradeable/access/OwnableUpgradeable.sol\":1206:1216  _msgSender */\n      tag_112\n        /* \"@openzeppelin/contracts-upgradeable/access/OwnableUpgradeable.sol\":1206:1218  _msgSender() */\n      jump\t// in\n    tag_265:\n        /* \"@openzeppelin/contracts-upgradeable/access/OwnableUpgradeable.sol\":1187:1205  _transferOwnership */\n      tag_140\n        /* \"@openzeppelin/contracts-upgradeable/access/OwnableUpgradeable.sol\":1187:1219  _transferOwnership(_msgSender()) */\n      jump\t// in\n        /* \"@openzeppelin/contracts-upgradeable/utils/AddressUpgradeable.sol\":3525:3748  function functionCall(... */\n    tag_244:\n        /* \"@openzeppelin/contracts-upgradeable/utils/AddressUpgradeable.sol\":3658:3670  bytes memory */\n      0x60\n        /* \"@openzeppelin/contracts-upgradeable/utils/AddressUpgradeable.sol\":3689:3741  functionCallWithValue(target, data, 0, errorMessage) */\n      tag_268\n        /* \"@openzeppelin/contracts-upgradeable/utils/AddressUpgradeable.sol\":3711:3717  target */\n      dup5\n        /* \"@openzeppelin/contracts-upgradeable/utils/AddressUpgradeable.sol\":3719:3723  data */\n      dup5\n        /* \"@openzeppelin/contracts-upgradeable/utils/AddressUpgradeable.sol\":3725:3726  0 */\n      0x00\n        /* \"@openzeppelin/contracts-upgradeable/utils/AddressUpgradeable.sol\":3728:3740  errorMessage */\n      dup6\n        /* \"@openzeppelin/contracts-upgradeable/utils/AddressUpgradeable.sol\":3689:3710  functionCallWithValue */\n      tag_269\n        /* \"@openzeppelin/contracts-upgradeable/utils/AddressUpgradeable.sol\":3689:3741  functionCallWithValue(target, data, 0, errorMessage) */\n      jump\t// in\n    tag_268:\n        /* \"@openzeppelin/contracts-upgradeable/utils/AddressUpgradeable.sol\":3682:3741  return functionCallWithValue(target, data, 0, errorMessage) */\n      swap5\n        /* \"@openzeppelin/contracts-upgradeable/utils/AddressUpgradeable.sol\":3525:3748  function functionCall(... */\n      swap4\n      pop\n      pop\n      pop\n      pop\n      jump\t// out\n        /* \"@openzeppelin/contracts-upgradeable/utils/AddressUpgradeable.sol\":4612:5111  function functionCallWithValue(... */\n    tag_269:\n        /* \"@openzeppelin/contracts-upgradeable/utils/AddressUpgradeable.sol\":4777:4789  bytes memory */\n      0x60\n        /* \"@openzeppelin/contracts-upgradeable/utils/AddressUpgradeable.sol\":4834:4839  value */\n      dup3\n        /* \"@openzeppelin/contracts-upgradeable/utils/AddressUpgradeable.sol\":4809:4830  address(this).balance */\n      selfbalance\n        /* \"@openzeppelin/contracts-upgradeable/utils/AddressUpgradeable.sol\":4809:4839  address(this).balance >= value */\n      lt\n      iszero\n        /* \"@openzeppelin/contracts-upgradeable/utils/AddressUpgradeable.sol\":4801:4882  require(address(this).balance >= value, \"Address: insufficient balance for call\") */\n      tag_271\n      jumpi\n      mload(0x40)\n      shl(0xe5, 0x461bcd)\n      dup2\n      mstore\n      0x04\n      add\n      tag_115\n      swap1\n      tag_273\n      jump\t// in\n    tag_271:\n        /* \"@openzeppelin/contracts-upgradeable/utils/AddressUpgradeable.sol\":4900:4918  isContract(target) */\n      tag_274\n        /* \"@openzeppelin/contracts-upgradeable/utils/AddressUpgradeable.sol\":4911:4917  target */\n      dup6\n        /* \"@openzeppelin/contracts-upgradeable/utils/AddressUpgradeable.sol\":4900:4910  isContract */\n      tag_275\n        /* \"@openzeppelin/contracts-upgradeable/utils/AddressUpgradeable.sol\":4900:4918  isContract(target) */\n      jump\t// in\n    tag_274:\n        /* \"@openzeppelin/contracts-upgradeable/utils/AddressUpgradeable.sol\":4892:4952  require(isContract(target), \"Address: call to non-contract\") */\n      tag_276\n      jumpi\n      mload(0x40)\n      shl(0xe5, 0x461bcd)\n      dup2\n      mstore\n      0x04\n      add\n      tag_115\n      swap1\n      tag_278\n      jump\t// in\n    tag_276:\n        /* \"@openzeppelin/contracts-upgradeable/utils/AddressUpgradeable.sol\":4964:4976  bool success */\n      0x00\n        /* \"@openzeppelin/contracts-upgradeable/utils/AddressUpgradeable.sol\":4978:5001  bytes memory returndata */\n      dup1\n        /* \"@openzeppelin/contracts-upgradeable/utils/AddressUpgradeable.sol\":5005:5011  target */\n      dup7\n      sub(shl(0xa0, 0x01), 0x01)\n        /* \"@openzeppelin/contracts-upgradeable/utils/AddressUpgradeable.sol\":5005:5016  target.call */\n      and\n        /* \"@openzeppelin/contracts-upgradeable/utils/AddressUpgradeable.sol\":5024:5029  value */\n      dup6\n        /* \"@openzeppelin/contracts-upgradeable/utils/AddressUpgradeable.sol\":5031:5035  data */\n      dup8\n        /* \"@openzeppelin/contracts-upgradeable/utils/AddressUpgradeable.sol\":5005:5036  target.call{value: value}(data) */\n      mload(0x40)\n      tag_279\n      swap2\n      swap1\n      tag_280\n      jump\t// in\n    tag_279:\n      0x00\n      mload(0x40)\n      dup1\n      dup4\n      sub\n      dup2\n      dup6\n      dup8\n      gas\n      call\n      swap3\n      pop\n      pop\n      pop\n      returndatasize\n      dup1\n      0x00\n      dup2\n      eq\n      tag_283\n      jumpi\n      mload(0x40)\n      swap2\n      pop\n      and(add(returndatasize, 0x3f), not(0x1f))\n      dup3\n      add\n      0x40\n      mstore\n      returndatasize\n      dup3\n      mstore\n      returndatasize\n      0x00\n      0x20\n      dup5\n      add\n      returndatacopy\n      jump(tag_282)\n    tag_283:\n      0x60\n      swap2\n      pop\n    tag_282:\n      pop\n        /* \"@openzeppelin/contracts-upgradeable/utils/AddressUpgradeable.sol\":4963:5036  (bool success, bytes memory returndata) = target.call{value: value}(data) */\n      swap2\n      pop\n      swap2\n      pop\n        /* \"@openzeppelin/contracts-upgradeable/utils/AddressUpgradeable.sol\":5053:5104  verifyCallResult(success, returndata, errorMessage) */\n      tag_284\n        /* \"@openzeppelin/contracts-upgradeable/utils/AddressUpgradeable.sol\":5070:5077  success */\n      dup3\n        /* \"@openzeppelin/contracts-upgradeable/utils/AddressUpgradeable.sol\":5079:5089  returndata */\n      dup3\n        /* \"@openzeppelin/contracts-upgradeable/utils/AddressUpgradeable.sol\":5091:5103  errorMessage */\n      dup7\n        /* \"@openzeppelin/contracts-upgradeable/utils/AddressUpgradeable.sol\":5053:5069  verifyCallResult */\n      tag_285\n        /* \"@openzeppelin/contracts-upgradeable/utils/AddressUpgradeable.sol\":5053:5104  verifyCallResult(success, returndata, errorMessage) */\n      jump\t// in\n    tag_284:\n        /* \"@openzeppelin/contracts-upgradeable/utils/AddressUpgradeable.sol\":5046:5104  return verifyCallResult(success, returndata, errorMessage) */\n      swap8\n        /* \"@openzeppelin/contracts-upgradeable/utils/AddressUpgradeable.sol\":4612:5111  function functionCallWithValue(... */\n      swap7\n      pop\n      pop\n      pop\n      pop\n      pop\n      pop\n      pop\n      jump\t// out\n        /* \"@openzeppelin/contracts-upgradeable/utils/AddressUpgradeable.sol\":782:1159  function isContract(address account) internal view returns (bool) {... */\n    tag_275:\n        /* \"@openzeppelin/contracts-upgradeable/utils/AddressUpgradeable.sol\":1098:1118  extcodesize(account) */\n      extcodesize\n        /* \"@openzeppelin/contracts-upgradeable/utils/AddressUpgradeable.sol\":1144:1152  size > 0 */\n      iszero\n      iszero\n      swap1\n        /* \"@openzeppelin/contracts-upgradeable/utils/AddressUpgradeable.sol\":782:1159  function isContract(address account) internal view returns (bool) {... */\n      jump\t// out\n        /* \"@openzeppelin/contracts-upgradeable/utils/AddressUpgradeable.sol\":6275:6967  function verifyCallResult(... */\n    tag_285:\n        /* \"@openzeppelin/contracts-upgradeable/utils/AddressUpgradeable.sol\":6421:6433  bytes memory */\n      0x60\n        /* \"@openzeppelin/contracts-upgradeable/utils/AddressUpgradeable.sol\":6449:6456  success */\n      dup4\n        /* \"@openzeppelin/contracts-upgradeable/utils/AddressUpgradeable.sol\":6445:6961  if (success) {... */\n      iszero\n      tag_288\n      jumpi\n      pop\n        /* \"@openzeppelin/contracts-upgradeable/utils/AddressUpgradeable.sol\":6479:6489  returndata */\n      dup2\n        /* \"@openzeppelin/contracts-upgradeable/utils/AddressUpgradeable.sol\":6472:6489  return returndata */\n      jump(tag_214)\n        /* \"@openzeppelin/contracts-upgradeable/utils/AddressUpgradeable.sol\":6445:6961  if (success) {... */\n    tag_288:\n        /* \"@openzeppelin/contracts-upgradeable/utils/AddressUpgradeable.sol\":6590:6607  returndata.length */\n      dup3\n      mload\n        /* \"@openzeppelin/contracts-upgradeable/utils/AddressUpgradeable.sol\":6590:6611  returndata.length > 0 */\n      iszero\n        /* \"@openzeppelin/contracts-upgradeable/utils/AddressUpgradeable.sol\":6586:6951  if (returndata.length > 0) {... */\n      tag_290\n      jumpi\n        /* \"@openzeppelin/contracts-upgradeable/utils/AddressUpgradeable.sol\":6784:6794  returndata */\n      dup3\n        /* \"@openzeppelin/contracts-upgradeable/utils/AddressUpgradeable.sol\":6778:6795  mload(returndata) */\n      mload\n        /* \"@openzeppelin/contracts-upgradeable/utils/AddressUpgradeable.sol\":6844:6859  returndata_size */\n      dup1\n        /* \"@openzeppelin/contracts-upgradeable/utils/AddressUpgradeable.sol\":6831:6841  returndata */\n      dup5\n        /* \"@openzeppelin/contracts-upgradeable/utils/AddressUpgradeable.sol\":6827:6829  32 */\n      0x20\n        /* \"@openzeppelin/contracts-upgradeable/utils/AddressUpgradeable.sol\":6823:6842  add(32, returndata) */\n      add\n        /* \"@openzeppelin/contracts-upgradeable/utils/AddressUpgradeable.sol\":6816:6860  revert(add(32, returndata), returndata_size) */\n      revert\n        /* \"@openzeppelin/contracts-upgradeable/utils/AddressUpgradeable.sol\":6733:6878  {... */\n    tag_290:\n        /* \"@openzeppelin/contracts-upgradeable/utils/AddressUpgradeable.sol\":6923:6935  errorMessage */\n      dup2\n        /* \"@openzeppelin/contracts-upgradeable/utils/AddressUpgradeable.sol\":6916:6936  revert(errorMessage) */\n      mload(0x40)\n      shl(0xe5, 0x461bcd)\n      dup2\n      mstore\n      0x04\n      add\n      tag_115\n      swap2\n      swap1\n      tag_293\n      jump\t// in\n        /* \"#utility.yul\":14:189   */\n    tag_295:\n        /* \"#utility.yul\":84:104   */\n      dup1\n      calldataload\n      sub(shl(0xa0, 0x01), 0x01)\n        /* \"#utility.yul\":133:164   */\n      dup2\n      and\n        /* \"#utility.yul\":123:165   */\n      dup2\n      eq\n        /* \"#utility.yul\":113:115   */\n      tag_117\n      jumpi\n        /* \"#utility.yul\":179:180   */\n      0x00\n        /* \"#utility.yul\":176:177   */\n      dup1\n        /* \"#utility.yul\":169:181   */\n      revert\n        /* \"#utility.yul\":194:392   */\n    tag_97:\n      0x00\n        /* \"#utility.yul\":306:308   */\n      0x20\n        /* \"#utility.yul\":294:303   */\n      dup3\n        /* \"#utility.yul\":285:292   */\n      dup5\n        /* \"#utility.yul\":281:304   */\n      sub\n        /* \"#utility.yul\":277:309   */\n      slt\n        /* \"#utility.yul\":274:276   */\n      iszero\n      tag_299\n      jumpi\n        /* \"#utility.yul\":327:333   */\n      dup1\n        /* \"#utility.yul\":319:325   */\n      dup2\n        /* \"#utility.yul\":312:334   */\n      revert\n        /* \"#utility.yul\":274:276   */\n    tag_299:\n        /* \"#utility.yul\":355:386   */\n      tag_214\n        /* \"#utility.yul\":376:385   */\n      dup3\n        /* \"#utility.yul\":355:386   */\n      tag_295\n      jump\t// in\n        /* \"#utility.yul\":397:1230   */\n    tag_83:\n      0x00\n      dup1\n      0x00\n      dup1\n      0x00\n      dup1\n      0x00\n      dup1\n      0x00\n      dup1\n        /* \"#utility.yul\":662:665   */\n      0x0140\n        /* \"#utility.yul\":650:659   */\n      dup12\n        /* \"#utility.yul\":641:648   */\n      dup14\n        /* \"#utility.yul\":637:660   */\n      sub\n        /* \"#utility.yul\":633:666   */\n      slt\n        /* \"#utility.yul\":630:632   */\n      iszero\n      tag_302\n      jumpi\n        /* \"#utility.yul\":684:690   */\n      dup6\n        /* \"#utility.yul\":676:682   */\n      dup7\n        /* \"#utility.yul\":669:691   */\n      revert\n        /* \"#utility.yul\":630:632   */\n    tag_302:\n        /* \"#utility.yul\":712:743   */\n      tag_303\n        /* \"#utility.yul\":733:742   */\n      dup12\n        /* \"#utility.yul\":712:743   */\n      tag_295\n      jump\t// in\n    tag_303:\n        /* \"#utility.yul\":702:743   */\n      swap10\n      pop\n        /* \"#utility.yul\":762:802   */\n      tag_304\n        /* \"#utility.yul\":798:800   */\n      0x20\n        /* \"#utility.yul\":787:796   */\n      dup13\n        /* \"#utility.yul\":783:801   */\n      add\n        /* \"#utility.yul\":762:802   */\n      tag_295\n      jump\t// in\n    tag_304:\n        /* \"#utility.yul\":752:802   */\n      swap9\n      pop\n        /* \"#utility.yul\":821:861   */\n      tag_305\n        /* \"#utility.yul\":857:859   */\n      0x40\n        /* \"#utility.yul\":846:855   */\n      dup13\n        /* \"#utility.yul\":842:860   */\n      add\n        /* \"#utility.yul\":821:861   */\n      tag_295\n      jump\t// in\n    tag_305:\n        /* \"#utility.yul\":620:1230   */\n      swap10\n      swap13\n      swap9\n      swap12\n      pop\n        /* \"#utility.yul\":811:861   */\n      swap9\n      swap10\n        /* \"#utility.yul\":908:910   */\n      0x60\n        /* \"#utility.yul\":893:911   */\n      dup2\n      add\n        /* \"#utility.yul\":880:912   */\n      calldataload\n      swap10\n      pop\n        /* \"#utility.yul\":959:962   */\n      0x80\n        /* \"#utility.yul\":944:963   */\n      dup2\n      add\n        /* \"#utility.yul\":931:964   */\n      calldataload\n      swap9\n        /* \"#utility.yul\":1011:1014   */\n      0xa0\n        /* \"#utility.yul\":996:1015   */\n      dup3\n      add\n        /* \"#utility.yul\":983:1016   */\n      calldataload\n      swap9\n      pop\n        /* \"#utility.yul\":1063:1066   */\n      0xc0\n        /* \"#utility.yul\":1048:1067   */\n      dup3\n      add\n        /* \"#utility.yul\":1035:1068   */\n      calldataload\n      swap8\n      pop\n        /* \"#utility.yul\":1115:1118   */\n      0xe0\n        /* \"#utility.yul\":1100:1119   */\n      dup3\n      add\n        /* \"#utility.yul\":1087:1120   */\n      calldataload\n      swap7\n      pop\n        /* \"#utility.yul\":1167:1170   */\n      0x0100\n        /* \"#utility.yul\":1152:1171   */\n      dup3\n      add\n        /* \"#utility.yul\":1139:1172   */\n      calldataload\n      swap6\n      pop\n        /* \"#utility.yul\":1219:1222   */\n      0x0120\n        /* \"#utility.yul\":1204:1223   */\n      swap1\n      swap2\n      add\n        /* \"#utility.yul\":1191:1224   */\n      calldataload\n      swap4\n      pop\n        /* \"#utility.yul\":620:1230   */\n      swap2\n      pop\n      pop\n      jump\t// out\n        /* \"#utility.yul\":1235:2401   */\n    tag_31:\n      0x00\n        /* \"#utility.yul\":1350:1352   */\n      0x20\n        /* \"#utility.yul\":1393:1395   */\n      dup1\n        /* \"#utility.yul\":1381:1390   */\n      dup4\n        /* \"#utility.yul\":1372:1379   */\n      dup6\n        /* \"#utility.yul\":1368:1391   */\n      sub\n        /* \"#utility.yul\":1364:1396   */\n      slt\n        /* \"#utility.yul\":1361:1363   */\n      iszero\n      tag_307\n      jumpi\n        /* \"#utility.yul\":1414:1420   */\n      dup2\n        /* \"#utility.yul\":1406:1412   */\n      dup3\n        /* \"#utility.yul\":1399:1421   */\n      revert\n        /* \"#utility.yul\":1361:1363   */\n    tag_307:\n        /* \"#utility.yul\":1459:1468   */\n      dup3\n        /* \"#utility.yul\":1446:1469   */\n      calldataload\n        /* \"#utility.yul\":1488:1506   */\n      0xffffffffffffffff\n        /* \"#utility.yul\":1529:1531   */\n      dup1\n        /* \"#utility.yul\":1521:1527   */\n      dup3\n        /* \"#utility.yul\":1518:1532   */\n      gt\n        /* \"#utility.yul\":1515:1517   */\n      iszero\n      tag_308\n      jumpi\n        /* \"#utility.yul\":1550:1556   */\n      dup4\n        /* \"#utility.yul\":1542:1548   */\n      dup5\n        /* \"#utility.yul\":1535:1557   */\n      revert\n        /* \"#utility.yul\":1515:1517   */\n    tag_308:\n        /* \"#utility.yul\":1593:1599   */\n      dup2\n        /* \"#utility.yul\":1582:1591   */\n      dup6\n        /* \"#utility.yul\":1578:1600   */\n      add\n        /* \"#utility.yul\":1568:1600   */\n      swap2\n      pop\n        /* \"#utility.yul\":1638:1645   */\n      dup6\n        /* \"#utility.yul\":1631:1635   */\n      0x1f\n        /* \"#utility.yul\":1627:1629   */\n      dup4\n        /* \"#utility.yul\":1623:1636   */\n      add\n        /* \"#utility.yul\":1619:1646   */\n      slt\n        /* \"#utility.yul\":1609:1611   */\n      tag_309\n      jumpi\n        /* \"#utility.yul\":1665:1671   */\n      dup4\n        /* \"#utility.yul\":1657:1663   */\n      dup5\n        /* \"#utility.yul\":1650:1672   */\n      revert\n        /* \"#utility.yul\":1609:1611   */\n    tag_309:\n        /* \"#utility.yul\":1706:1708   */\n      dup2\n        /* \"#utility.yul\":1693:1709   */\n      calldataload\n        /* \"#utility.yul\":1728:1730   */\n      dup2\n        /* \"#utility.yul\":1724:1726   */\n      dup2\n        /* \"#utility.yul\":1721:1731   */\n      gt\n        /* \"#utility.yul\":1718:1720   */\n      iszero\n      tag_311\n      jumpi\n        /* \"#utility.yul\":1734:1752   */\n      tag_311\n      tag_312\n      jump\t// in\n    tag_311:\n        /* \"#utility.yul\":1781:1783   */\n      dup4\n        /* \"#utility.yul\":1777:1779   */\n      dup2\n        /* \"#utility.yul\":1773:1784   */\n      mul\n        /* \"#utility.yul\":1813:1815   */\n      0x40\n        /* \"#utility.yul\":1807:1816   */\n      mload\n        /* \"#utility.yul\":1864:1866   */\n      dup6\n        /* \"#utility.yul\":1859:1861   */\n      dup3\n        /* \"#utility.yul\":1851:1857   */\n      dup3\n        /* \"#utility.yul\":1847:1862   */\n      add\n        /* \"#utility.yul\":1843:1867   */\n      add\n        /* \"#utility.yul\":1917:1923   */\n      dup2\n        /* \"#utility.yul\":1905:1915   */\n      dup2\n        /* \"#utility.yul\":1902:1924   */\n      lt\n        /* \"#utility.yul\":1897:1899   */\n      dup6\n        /* \"#utility.yul\":1885:1895   */\n      dup3\n        /* \"#utility.yul\":1882:1900   */\n      gt\n        /* \"#utility.yul\":1879:1925   */\n      or\n        /* \"#utility.yul\":1876:1878   */\n      iszero\n      tag_314\n      jumpi\n        /* \"#utility.yul\":1928:1946   */\n      tag_314\n      tag_312\n      jump\t// in\n    tag_314:\n        /* \"#utility.yul\":1964:1966   */\n      0x40\n        /* \"#utility.yul\":1957:1979   */\n      mstore\n        /* \"#utility.yul\":2014:2032   */\n      dup3\n      dup2\n      mstore\n        /* \"#utility.yul\":2048:2063   */\n      dup6\n      dup2\n      add\n      swap4\n      pop\n        /* \"#utility.yul\":2083:2094   */\n      dup5\n      dup7\n      add\n        /* \"#utility.yul\":2113:2124   */\n      dup3\n      dup7\n      add\n        /* \"#utility.yul\":2109:2129   */\n      dup8\n      add\n        /* \"#utility.yul\":2106:2139   */\n      dup11\n      lt\n        /* \"#utility.yul\":2103:2105   */\n      iszero\n      tag_315\n      jumpi\n        /* \"#utility.yul\":2157:2163   */\n      dup8\n        /* \"#utility.yul\":2149:2155   */\n      dup9\n        /* \"#utility.yul\":2142:2164   */\n      revert\n        /* \"#utility.yul\":2103:2105   */\n    tag_315:\n        /* \"#utility.yul\":2184:2190   */\n      dup8\n        /* \"#utility.yul\":2175:2190   */\n      swap6\n      pop\n        /* \"#utility.yul\":2199:2370   */\n    tag_316:\n        /* \"#utility.yul\":2213:2215   */\n      dup4\n        /* \"#utility.yul\":2210:2211   */\n      dup7\n        /* \"#utility.yul\":2207:2216   */\n      lt\n        /* \"#utility.yul\":2199:2370   */\n      iszero\n      tag_318\n      jumpi\n        /* \"#utility.yul\":2270:2295   */\n      tag_319\n        /* \"#utility.yul\":2291:2294   */\n      dup2\n        /* \"#utility.yul\":2270:2295   */\n      tag_295\n      jump\t// in\n    tag_319:\n        /* \"#utility.yul\":2258:2296   */\n      dup6\n      mstore\n        /* \"#utility.yul\":2231:2232   */\n      0x01\n        /* \"#utility.yul\":2224:2233   */\n      swap6\n      swap1\n      swap6\n      add\n      swap5\n        /* \"#utility.yul\":2316:2328   */\n      swap4\n      dup7\n      add\n      swap4\n        /* \"#utility.yul\":2348:2360   */\n      dup7\n      add\n        /* \"#utility.yul\":2199:2370   */\n      jump(tag_316)\n    tag_318:\n      pop\n        /* \"#utility.yul\":2389:2395   */\n      swap9\n        /* \"#utility.yul\":1330:2401   */\n      swap8\n      pop\n      pop\n      pop\n      pop\n      pop\n      pop\n      pop\n      pop\n      jump\t// out\n        /* \"#utility.yul\":2406:2703   */\n    tag_247:\n      0x00\n        /* \"#utility.yul\":2526:2528   */\n      0x20\n        /* \"#utility.yul\":2514:2523   */\n      dup3\n        /* \"#utility.yul\":2505:2512   */\n      dup5\n        /* \"#utility.yul\":2501:2524   */\n      sub\n        /* \"#utility.yul\":2497:2529   */\n      slt\n        /* \"#utility.yul\":2494:2496   */\n      iszero\n      tag_321\n      jumpi\n        /* \"#utility.yul\":2547:2553   */\n      dup1\n        /* \"#utility.yul\":2539:2545   */\n      dup2\n        /* \"#utility.yul\":2532:2554   */\n      revert\n        /* \"#utility.yul\":2494:2496   */\n    tag_321:\n        /* \"#utility.yul\":2584:2593   */\n      dup2\n        /* \"#utility.yul\":2578:2594   */\n      mload\n        /* \"#utility.yul\":2637:2642   */\n      dup1\n        /* \"#utility.yul\":2630:2643   */\n      iszero\n        /* \"#utility.yul\":2623:2644   */\n      iszero\n        /* \"#utility.yul\":2616:2621   */\n      dup2\n        /* \"#utility.yul\":2613:2645   */\n      eq\n        /* \"#utility.yul\":2603:2605   */\n      tag_214\n      jumpi\n        /* \"#utility.yul\":2664:2670   */\n      dup2\n        /* \"#utility.yul\":2656:2662   */\n      dup3\n        /* \"#utility.yul\":2649:2671   */\n      revert\n        /* \"#utility.yul\":2708:2898   */\n    tag_37:\n      0x00\n        /* \"#utility.yul\":2820:2822   */\n      0x20\n        /* \"#utility.yul\":2808:2817   */\n      dup3\n        /* \"#utility.yul\":2799:2806   */\n      dup5\n        /* \"#utility.yul\":2795:2818   */\n      sub\n        /* \"#utility.yul\":2791:2823   */\n      slt\n        /* \"#utility.yul\":2788:2790   */\n      iszero\n      tag_324\n      jumpi\n        /* \"#utility.yul\":2841:2847   */\n      dup1\n        /* \"#utility.yul\":2833:2839   */\n      dup2\n        /* \"#utility.yul\":2826:2848   */\n      revert\n        /* \"#utility.yul\":2788:2790   */\n    tag_324:\n      pop\n        /* \"#utility.yul\":2869:2892   */\n      calldataload\n      swap2\n        /* \"#utility.yul\":2778:2898   */\n      swap1\n      pop\n      jump\t// out\n        /* \"#utility.yul\":2903:3177   */\n    tag_280:\n      0x00\n        /* \"#utility.yul\":3070:3076   */\n      dup3\n        /* \"#utility.yul\":3064:3077   */\n      mload\n        /* \"#utility.yul\":3086:3139   */\n      tag_326\n        /* \"#utility.yul\":3132:3138   */\n      dup2\n        /* \"#utility.yul\":3127:3130   */\n      dup5\n        /* \"#utility.yul\":3120:3124   */\n      0x20\n        /* \"#utility.yul\":3112:3118   */\n      dup8\n        /* \"#utility.yul\":3108:3125   */\n      add\n        /* \"#utility.yul\":3086:3139   */\n      tag_327\n      jump\t// in\n    tag_326:\n        /* \"#utility.yul\":3155:3171   */\n      swap2\n      swap1\n      swap2\n      add\n      swap3\n        /* \"#utility.yul\":3040:3177   */\n      swap2\n      pop\n      pop\n      jump\t// out\n        /* \"#utility.yul\":3182:3385   */\n    tag_47:\n      sub(shl(0xa0, 0x01), 0x01)\n        /* \"#utility.yul\":3346:3378   */\n      swap2\n      swap1\n      swap2\n      and\n        /* \"#utility.yul\":3328:3379   */\n      dup2\n      mstore\n        /* \"#utility.yul\":3316:3318   */\n      0x20\n        /* \"#utility.yul\":3301:3319   */\n      add\n      swap1\n        /* \"#utility.yul\":3283:3385   */\n      jump\t// out\n        /* \"#utility.yul\":3390:3765   */\n    tag_219:\n      sub(shl(0xa0, 0x01), 0x01)\n        /* \"#utility.yul\":3648:3663   */\n      swap4\n      dup5\n      and\n        /* \"#utility.yul\":3630:3664   */\n      dup2\n      mstore\n        /* \"#utility.yul\":3700:3715   */\n      swap2\n      swap1\n      swap3\n      and\n        /* \"#utility.yul\":3695:3697   */\n      0x20\n        /* \"#utility.yul\":3680:3698   */\n      dup3\n      add\n        /* \"#utility.yul\":3673:3716   */\n      mstore\n        /* \"#utility.yul\":3747:3749   */\n      0x40\n        /* \"#utility.yul\":3732:3750   */\n      dup2\n      add\n        /* \"#utility.yul\":3725:3759   */\n      swap2\n      swap1\n      swap2\n      mstore\n        /* \"#utility.yul\":3580:3582   */\n      0x60\n        /* \"#utility.yul\":3565:3583   */\n      add\n      swap1\n        /* \"#utility.yul\":3547:3765   */\n      jump\t// out\n        /* \"#utility.yul\":3770:4044   */\n    tag_224:\n      sub(shl(0xa0, 0x01), 0x01)\n        /* \"#utility.yul\":3962:3994   */\n      swap3\n      swap1\n      swap3\n      and\n        /* \"#utility.yul\":3944:3995   */\n      dup3\n      mstore\n        /* \"#utility.yul\":4026:4028   */\n      0x20\n        /* \"#utility.yul\":4011:4029   */\n      dup3\n      add\n        /* \"#utility.yul\":4004:4038   */\n      mstore\n        /* \"#utility.yul\":3932:3934   */\n      0x40\n        /* \"#utility.yul\":3917:3935   */\n      add\n      swap1\n        /* \"#utility.yul\":3899:4044   */\n      jump\t// out\n        /* \"#utility.yul\":4049:4236   */\n    tag_34:\n        /* \"#utility.yul\":4214:4228   */\n      swap1\n      iszero\n        /* \"#utility.yul\":4207:4229   */\n      iszero\n        /* \"#utility.yul\":4189:4230   */\n      dup2\n      mstore\n        /* \"#utility.yul\":4177:4179   */\n      0x20\n        /* \"#utility.yul\":4162:4180   */\n      add\n      swap1\n        /* \"#utility.yul\":4144:4236   */\n      jump\t// out\n        /* \"#utility.yul\":4241:4624   */\n    tag_293:\n      0x00\n        /* \"#utility.yul\":4390:4392   */\n      0x20\n        /* \"#utility.yul\":4379:4388   */\n      dup3\n        /* \"#utility.yul\":4372:4393   */\n      mstore\n        /* \"#utility.yul\":4422:4428   */\n      dup3\n        /* \"#utility.yul\":4416:4429   */\n      mload\n        /* \"#utility.yul\":4465:4471   */\n      dup1\n        /* \"#utility.yul\":4460:4462   */\n      0x20\n        /* \"#utility.yul\":4449:4458   */\n      dup5\n        /* \"#utility.yul\":4445:4463   */\n      add\n        /* \"#utility.yul\":4438:4472   */\n      mstore\n        /* \"#utility.yul\":4481:4547   */\n      tag_333\n        /* \"#utility.yul\":4540:4546   */\n      dup2\n        /* \"#utility.yul\":4535:4537   */\n      0x40\n        /* \"#utility.yul\":4524:4533   */\n      dup6\n        /* \"#utility.yul\":4520:4538   */\n      add\n        /* \"#utility.yul\":4515:4517   */\n      0x20\n        /* \"#utility.yul\":4507:4513   */\n      dup8\n        /* \"#utility.yul\":4503:4518   */\n      add\n        /* \"#utility.yul\":4481:4547   */\n      tag_327\n      jump\t// in\n    tag_333:\n        /* \"#utility.yul\":4608:4610   */\n      0x1f\n        /* \"#utility.yul\":4587:4602   */\n      add\n      not(0x1f)\n        /* \"#utility.yul\":4583:4612   */\n      and\n        /* \"#utility.yul\":4568:4613   */\n      swap2\n      swap1\n      swap2\n      add\n        /* \"#utility.yul\":4615:4617   */\n      0x40\n        /* \"#utility.yul\":4564:4618   */\n      add\n      swap3\n        /* \"#utility.yul\":4362:4624   */\n      swap2\n      pop\n      pop\n      jump\t// out\n        /* \"#utility.yul\":4629:4964   */\n    tag_156:\n        /* \"#utility.yul\":4831:4833   */\n      0x20\n        /* \"#utility.yul\":4813:4834   */\n      dup1\n      dup3\n      mstore\n        /* \"#utility.yul\":4870:4872   */\n      0x0b\n        /* \"#utility.yul\":4850:4868   */\n      swap1\n      dup3\n      add\n        /* \"#utility.yul\":4843:4873   */\n      mstore\n      shl(0xaa, 0x139bdd081cdd185c9d1959)\n        /* \"#utility.yul\":4904:4906   */\n      0x40\n        /* \"#utility.yul\":4889:4907   */\n      dup3\n      add\n        /* \"#utility.yul\":4882:4923   */\n      mstore\n        /* \"#utility.yul\":4955:4957   */\n      0x60\n        /* \"#utility.yul\":4940:4958   */\n      add\n      swap1\n        /* \"#utility.yul\":4803:4964   */\n      jump\t// out\n        /* \"#utility.yul\":4969:5371   */\n    tag_204:\n        /* \"#utility.yul\":5171:5173   */\n      0x20\n        /* \"#utility.yul\":5153:5174   */\n      dup1\n      dup3\n      mstore\n        /* \"#utility.yul\":5210:5212   */\n      0x26\n        /* \"#utility.yul\":5190:5208   */\n      swap1\n      dup3\n      add\n        /* \"#utility.yul\":5183:5213   */\n      mstore\n        /* \"#utility.yul\":5249:5283   */\n      0x4f776e61626c653a206e6577206f776e657220697320746865207a65726f2061\n        /* \"#utility.yul\":5244:5246   */\n      0x40\n        /* \"#utility.yul\":5229:5247   */\n      dup3\n      add\n        /* \"#utility.yul\":5222:5284   */\n      mstore\n      shl(0xd0, 0x646472657373)\n        /* \"#utility.yul\":5315:5317   */\n      0x60\n        /* \"#utility.yul\":5300:5318   */\n      dup3\n      add\n        /* \"#utility.yul\":5293:5329   */\n      mstore\n        /* \"#utility.yul\":5361:5364   */\n      0x80\n        /* \"#utility.yul\":5346:5365   */\n      add\n      swap1\n        /* \"#utility.yul\":5143:5371   */\n      jump\t// out\n        /* \"#utility.yul\":5376:5778   */\n    tag_273:\n        /* \"#utility.yul\":5578:5580   */\n      0x20\n        /* \"#utility.yul\":5560:5581   */\n      dup1\n      dup3\n      mstore\n        /* \"#utility.yul\":5617:5619   */\n      0x26\n        /* \"#utility.yul\":5597:5615   */\n      swap1\n      dup3\n      add\n        /* \"#utility.yul\":5590:5620   */\n      mstore\n        /* \"#utility.yul\":5656:5690   */\n      0x416464726573733a20696e73756666696369656e742062616c616e636520666f\n        /* \"#utility.yul\":5651:5653   */\n      0x40\n        /* \"#utility.yul\":5636:5654   */\n      dup3\n      add\n        /* \"#utility.yul\":5629:5691   */\n      mstore\n      shl(0xd2, 0x1c8818d85b1b)\n        /* \"#utility.yul\":5722:5724   */\n      0x60\n        /* \"#utility.yul\":5707:5725   */\n      dup3\n      add\n        /* \"#utility.yul\":5700:5736   */\n      mstore\n        /* \"#utility.yul\":5768:5771   */\n      0x80\n        /* \"#utility.yul\":5753:5772   */\n      add\n      swap1\n        /* \"#utility.yul\":5550:5778   */\n      jump\t// out\n        /* \"#utility.yul\":5783:6127   */\n    tag_159:\n        /* \"#utility.yul\":5985:5987   */\n      0x20\n        /* \"#utility.yul\":5967:5988   */\n      dup1\n      dup3\n      mstore\n        /* \"#utility.yul\":6024:6026   */\n      0x14\n        /* \"#utility.yul\":6004:6022   */\n      swap1\n      dup3\n      add\n        /* \"#utility.yul\":5997:6027   */\n      mstore\n      shl(0x62, 0x105b1c9958591e481c185c9d1a58da5c185d1959)\n        /* \"#utility.yul\":6058:6060   */\n      0x40\n        /* \"#utility.yul\":6043:6061   */\n      dup3\n      add\n        /* \"#utility.yul\":6036:6086   */\n      mstore\n        /* \"#utility.yul\":6118:6120   */\n      0x60\n        /* \"#utility.yul\":6103:6121   */\n      add\n      swap1\n        /* \"#utility.yul\":5957:6127   */\n      jump\t// out\n        /* \"#utility.yul\":6132:6464   */\n    tag_173:\n        /* \"#utility.yul\":6334:6336   */\n      0x20\n        /* \"#utility.yul\":6316:6337   */\n      dup1\n      dup3\n      mstore\n        /* \"#utility.yul\":6373:6374   */\n      0x09\n        /* \"#utility.yul\":6353:6371   */\n      swap1\n      dup3\n      add\n        /* \"#utility.yul\":6346:6375   */\n      mstore\n      shl(0xb9, 0x29b0b6329037bb32b9)\n        /* \"#utility.yul\":6406:6408   */\n      0x40\n        /* \"#utility.yul\":6391:6409   */\n      dup3\n      add\n        /* \"#utility.yul\":6384:6423   */\n      mstore\n        /* \"#utility.yul\":6455:6457   */\n      0x60\n        /* \"#utility.yul\":6440:6458   */\n      add\n      swap1\n        /* \"#utility.yul\":6306:6464   */\n      jump\t// out\n        /* \"#utility.yul\":6469:6808   */\n    tag_170:\n        /* \"#utility.yul\":6671:6673   */\n      0x20\n        /* \"#utility.yul\":6653:6674   */\n      dup1\n      dup3\n      mstore\n        /* \"#utility.yul\":6710:6712   */\n      0x0f\n        /* \"#utility.yul\":6690:6708   */\n      swap1\n      dup3\n      add\n        /* \"#utility.yul\":6683:6713   */\n      mstore\n      shl(0x8a, 0x139bdd081dda1a5d195b1a5cdd1959)\n        /* \"#utility.yul\":6744:6746   */\n      0x40\n        /* \"#utility.yul\":6729:6747   */\n      dup3\n      add\n        /* \"#utility.yul\":6722:6767   */\n      mstore\n        /* \"#utility.yul\":6799:6801   */\n      0x60\n        /* \"#utility.yul\":6784:6802   */\n      add\n      swap1\n        /* \"#utility.yul\":6643:6808   */\n      jump\t// out\n        /* \"#utility.yul\":6813:7218   */\n    tag_153:\n        /* \"#utility.yul\":7015:7017   */\n      0x20\n        /* \"#utility.yul\":6997:7018   */\n      dup1\n      dup3\n      mstore\n        /* \"#utility.yul\":7054:7056   */\n      0x29\n        /* \"#utility.yul\":7034:7052   */\n      swap1\n      dup3\n      add\n        /* \"#utility.yul\":7027:7057   */\n      mstore\n        /* \"#utility.yul\":7093:7127   */\n      0x54686520616d6f756e7420656e746572656420657863656564732046756e6472\n        /* \"#utility.yul\":7088:7090   */\n      0x40\n        /* \"#utility.yul\":7073:7091   */\n      dup3\n      add\n        /* \"#utility.yul\":7066:7128   */\n      mstore\n      shl(0xba, 0x185a5cd94811dbd85b)\n        /* \"#utility.yul\":7159:7161   */\n      0x60\n        /* \"#utility.yul\":7144:7162   */\n      dup3\n      add\n        /* \"#utility.yul\":7137:7176   */\n      mstore\n        /* \"#utility.yul\":7208:7211   */\n      0x80\n        /* \"#utility.yul\":7193:7212   */\n      add\n      swap1\n        /* \"#utility.yul\":6987:7218   */\n      jump\t// out\n        /* \"#utility.yul\":7223:7633   */\n    tag_184:\n        /* \"#utility.yul\":7425:7427   */\n      0x20\n        /* \"#utility.yul\":7407:7428   */\n      dup1\n      dup3\n      mstore\n        /* \"#utility.yul\":7464:7466   */\n      0x2e\n        /* \"#utility.yul\":7444:7462   */\n      swap1\n      dup3\n      add\n        /* \"#utility.yul\":7437:7467   */\n      mstore\n        /* \"#utility.yul\":7503:7537   */\n      0x496e697469616c697a61626c653a20636f6e747261637420697320616c726561\n        /* \"#utility.yul\":7498:7500   */\n      0x40\n        /* \"#utility.yul\":7483:7501   */\n      dup3\n      add\n        /* \"#utility.yul\":7476:7538   */\n      mstore\n      shl(0x92, 0x191e481a5b9a5d1a585b1a5e9959)\n        /* \"#utility.yul\":7569:7571   */\n      0x60\n        /* \"#utility.yul\":7554:7572   */\n      dup3\n      add\n        /* \"#utility.yul\":7547:7591   */\n      mstore\n        /* \"#utility.yul\":7623:7626   */\n      0x80\n        /* \"#utility.yul\":7608:7627   */\n      add\n      swap1\n        /* \"#utility.yul\":7397:7633   */\n      jump\t// out\n        /* \"#utility.yul\":7638:7994   */\n    tag_116:\n        /* \"#utility.yul\":7840:7842   */\n      0x20\n        /* \"#utility.yul\":7822:7843   */\n      dup1\n      dup3\n      mstore\n        /* \"#utility.yul\":7859:7877   */\n      dup2\n      dup2\n      add\n        /* \"#utility.yul\":7852:7882   */\n      mstore\n        /* \"#utility.yul\":7918:7952   */\n      0x4f776e61626c653a2063616c6c6572206973206e6f7420746865206f776e6572\n        /* \"#utility.yul\":7913:7915   */\n      0x40\n        /* \"#utility.yul\":7898:7916   */\n      dup3\n      add\n        /* \"#utility.yul\":7891:7953   */\n      mstore\n        /* \"#utility.yul\":7985:7987   */\n      0x60\n        /* \"#utility.yul\":7970:7988   */\n      add\n      swap1\n        /* \"#utility.yul\":7812:7994   */\n      jump\t// out\n        /* \"#utility.yul\":7999:8341   */\n    tag_166:\n        /* \"#utility.yul\":8201:8203   */\n      0x20\n        /* \"#utility.yul\":8183:8204   */\n      dup1\n      dup3\n      mstore\n        /* \"#utility.yul\":8240:8242   */\n      0x12\n        /* \"#utility.yul\":8220:8238   */\n      swap1\n      dup3\n      add\n        /* \"#utility.yul\":8213:8243   */\n      mstore\n      shl(0x72, 0x115e18d95959195908125113c81b1a5b5a5d)\n        /* \"#utility.yul\":8274:8276   */\n      0x40\n        /* \"#utility.yul\":8259:8277   */\n      dup3\n      add\n        /* \"#utility.yul\":8252:8300   */\n      mstore\n        /* \"#utility.yul\":8332:8334   */\n      0x60\n        /* \"#utility.yul\":8317:8335   */\n      add\n      swap1\n        /* \"#utility.yul\":8173:8341   */\n      jump\t// out\n        /* \"#utility.yul\":8346:8694   */\n    tag_145:\n        /* \"#utility.yul\":8548:8550   */\n      0x20\n        /* \"#utility.yul\":8530:8551   */\n      dup1\n      dup3\n      mstore\n        /* \"#utility.yul\":8587:8589   */\n      0x18\n        /* \"#utility.yul\":8567:8585   */\n      swap1\n      dup3\n      add\n        /* \"#utility.yul\":8560:8590   */\n      mstore\n        /* \"#utility.yul\":8626:8652   */\n      0x42656c6f77206d696e696d756d20616c6c6f636174696f6e0000000000000000\n        /* \"#utility.yul\":8621:8623   */\n      0x40\n        /* \"#utility.yul\":8606:8624   */\n      dup3\n      add\n        /* \"#utility.yul\":8599:8653   */\n      mstore\n        /* \"#utility.yul\":8685:8687   */\n      0x60\n        /* \"#utility.yul\":8670:8688   */\n      add\n      swap1\n        /* \"#utility.yul\":8520:8694   */\n      jump\t// out\n        /* \"#utility.yul\":8699:9052   */\n    tag_278:\n        /* \"#utility.yul\":8901:8903   */\n      0x20\n        /* \"#utility.yul\":8883:8904   */\n      dup1\n      dup3\n      mstore\n        /* \"#utility.yul\":8940:8942   */\n      0x1d\n        /* \"#utility.yul\":8920:8938   */\n      swap1\n      dup3\n      add\n        /* \"#utility.yul\":8913:8943   */\n      mstore\n        /* \"#utility.yul\":8979:9010   */\n      0x416464726573733a2063616c6c20746f206e6f6e2d636f6e7472616374000000\n        /* \"#utility.yul\":8974:8976   */\n      0x40\n        /* \"#utility.yul\":8959:8977   */\n      dup3\n      add\n        /* \"#utility.yul\":8952:9011   */\n      mstore\n        /* \"#utility.yul\":9043:9045   */\n      0x60\n        /* \"#utility.yul\":9028:9046   */\n      add\n      swap1\n        /* \"#utility.yul\":8873:9052   */\n      jump\t// out\n        /* \"#utility.yul\":9057:9401   */\n    tag_148:\n        /* \"#utility.yul\":9259:9261   */\n      0x20\n        /* \"#utility.yul\":9241:9262   */\n      dup1\n      dup3\n      mstore\n        /* \"#utility.yul\":9298:9300   */\n      0x14\n        /* \"#utility.yul\":9278:9296   */\n      swap1\n      dup3\n      add\n        /* \"#utility.yul\":9271:9301   */\n      mstore\n      shl(0x61, 0x26b7b932903a3430b71030b63637b1b0ba34b7b7)\n        /* \"#utility.yul\":9332:9334   */\n      0x40\n        /* \"#utility.yul\":9317:9335   */\n      dup3\n      add\n        /* \"#utility.yul\":9310:9360   */\n      mstore\n        /* \"#utility.yul\":9392:9394   */\n      0x60\n        /* \"#utility.yul\":9377:9395   */\n      add\n      swap1\n        /* \"#utility.yul\":9231:9401   */\n      jump\t// out\n        /* \"#utility.yul\":9406:9745   */\n    tag_162:\n        /* \"#utility.yul\":9608:9610   */\n      0x20\n        /* \"#utility.yul\":9590:9611   */\n      dup1\n      dup3\n      mstore\n        /* \"#utility.yul\":9647:9649   */\n      0x0f\n        /* \"#utility.yul\":9627:9645   */\n      swap1\n      dup3\n      add\n        /* \"#utility.yul\":9620:9650   */\n      mstore\n      shl(0x8a, 0x139bdd081cdd185c9d1959081e595d)\n        /* \"#utility.yul\":9681:9683   */\n      0x40\n        /* \"#utility.yul\":9666:9684   */\n      dup3\n      add\n        /* \"#utility.yul\":9659:9704   */\n      mstore\n        /* \"#utility.yul\":9736:9738   */\n      0x60\n        /* \"#utility.yul\":9721:9739   */\n      add\n      swap1\n        /* \"#utility.yul\":9580:9745   */\n      jump\t// out\n        /* \"#utility.yul\":9750:10156   */\n    tag_250:\n        /* \"#utility.yul\":9952:9954   */\n      0x20\n        /* \"#utility.yul\":9934:9955   */\n      dup1\n      dup3\n      mstore\n        /* \"#utility.yul\":9991:9993   */\n      0x2a\n        /* \"#utility.yul\":9971:9989   */\n      swap1\n      dup3\n      add\n        /* \"#utility.yul\":9964:9994   */\n      mstore\n        /* \"#utility.yul\":10030:10064   */\n      0x5361666545524332303a204552433230206f7065726174696f6e20646964206e\n        /* \"#utility.yul\":10025:10027   */\n      0x40\n        /* \"#utility.yul\":10010:10028   */\n      dup3\n      add\n        /* \"#utility.yul\":10003:10065   */\n      mstore\n      shl(0xb2, 0x1bdd081cdd58d8d95959)\n        /* \"#utility.yul\":10096:10098   */\n      0x60\n        /* \"#utility.yul\":10081:10099   */\n      dup3\n      add\n        /* \"#utility.yul\":10074:10114   */\n      mstore\n        /* \"#utility.yul\":10146:10149   */\n      0x80\n        /* \"#utility.yul\":10131:10150   */\n      add\n      swap1\n        /* \"#utility.yul\":9924:10156   */\n      jump\t// out\n        /* \"#utility.yul\":10161:10338   */\n    tag_40:\n        /* \"#utility.yul\":10307:10332   */\n      swap1\n      dup2\n      mstore\n        /* \"#utility.yul\":10295:10297   */\n      0x20\n        /* \"#utility.yul\":10280:10298   */\n      add\n      swap1\n        /* \"#utility.yul\":10262:10338   */\n      jump\t// out\n        /* \"#utility.yul\":10343:10471   */\n    tag_215:\n      0x00\n        /* \"#utility.yul\":10414:10415   */\n      dup3\n        /* \"#utility.yul\":10410:10416   */\n      not\n        /* \"#utility.yul\":10407:10408   */\n      dup3\n        /* \"#utility.yul\":10404:10417   */\n      gt\n        /* \"#utility.yul\":10401:10403   */\n      iszero\n      tag_352\n      jumpi\n        /* \"#utility.yul\":10420:10438   */\n      tag_352\n      tag_353\n      jump\t// in\n    tag_352:\n      pop\n        /* \"#utility.yul\":10456:10465   */\n      add\n      swap1\n        /* \"#utility.yul\":10391:10471   */\n      jump\t// out\n        /* \"#utility.yul\":10476:10693   */\n    tag_241:\n      0x00\n        /* \"#utility.yul\":10542:10543   */\n      dup3\n        /* \"#utility.yul\":10532:10534   */\n      tag_355\n      jumpi\n      shl(0xe0, 0x4e487b71)\n        /* \"#utility.yul\":10567:10598   */\n      dup2\n      mstore\n        /* \"#utility.yul\":10621:10625   */\n      0x12\n        /* \"#utility.yul\":10618:10619   */\n      0x04\n        /* \"#utility.yul\":10611:10626   */\n      mstore\n        /* \"#utility.yul\":10649:10653   */\n      0x24\n        /* \"#utility.yul\":10574:10575   */\n      dup2\n        /* \"#utility.yul\":10639:10654   */\n      revert\n        /* \"#utility.yul\":10532:10534   */\n    tag_355:\n      pop\n        /* \"#utility.yul\":10678:10687   */\n      div\n      swap1\n        /* \"#utility.yul\":10522:10693   */\n      jump\t// out\n        /* \"#utility.yul\":10698:10866   */\n    tag_238:\n      0x00\n        /* \"#utility.yul\":10804:10805   */\n      dup2\n        /* \"#utility.yul\":10800:10801   */\n      0x00\n        /* \"#utility.yul\":10796:10802   */\n      not\n        /* \"#utility.yul\":10792:10806   */\n      div\n        /* \"#utility.yul\":10789:10790   */\n      dup4\n        /* \"#utility.yul\":10786:10807   */\n      gt\n        /* \"#utility.yul\":10781:10782   */\n      dup3\n        /* \"#utility.yul\":10774:10783   */\n      iszero\n        /* \"#utility.yul\":10767:10784   */\n      iszero\n        /* \"#utility.yul\":10763:10808   */\n      and\n        /* \"#utility.yul\":10760:10762   */\n      iszero\n      tag_358\n      jumpi\n        /* \"#utility.yul\":10811:10829   */\n      tag_358\n      tag_353\n      jump\t// in\n    tag_358:\n      pop\n        /* \"#utility.yul\":10851:10860   */\n      mul\n      swap1\n        /* \"#utility.yul\":10750:10866   */\n      jump\t// out\n        /* \"#utility.yul\":10871:11129   */\n    tag_327:\n        /* \"#utility.yul\":10943:10944   */\n      0x00\n        /* \"#utility.yul\":10953:11066   */\n    tag_360:\n        /* \"#utility.yul\":10967:10973   */\n      dup4\n        /* \"#utility.yul\":10964:10965   */\n      dup2\n        /* \"#utility.yul\":10961:10974   */\n      lt\n        /* \"#utility.yul\":10953:11066   */\n      iszero\n      tag_362\n      jumpi\n        /* \"#utility.yul\":11043:11054   */\n      dup2\n      dup2\n      add\n        /* \"#utility.yul\":11037:11055   */\n      mload\n        /* \"#utility.yul\":11024:11035   */\n      dup4\n      dup3\n      add\n        /* \"#utility.yul\":11017:11056   */\n      mstore\n        /* \"#utility.yul\":10989:10991   */\n      0x20\n        /* \"#utility.yul\":10982:10992   */\n      add\n        /* \"#utility.yul\":10953:11066   */\n      jump(tag_360)\n    tag_362:\n        /* \"#utility.yul\":11084:11090   */\n      dup4\n        /* \"#utility.yul\":11081:11082   */\n      dup2\n        /* \"#utility.yul\":11078:11091   */\n      gt\n        /* \"#utility.yul\":11075:11077   */\n      iszero\n      tag_217\n      jumpi\n      pop\n      pop\n        /* \"#utility.yul\":11119:11120   */\n      0x00\n        /* \"#utility.yul\":11101:11117   */\n      swap2\n      add\n        /* \"#utility.yul\":11094:11121   */\n      mstore\n        /* \"#utility.yul\":10924:11129   */\n      jump\t// out\n        /* \"#utility.yul\":11134:11269   */\n    tag_123:\n      0x00\n      not(0x00)\n        /* \"#utility.yul\":11194:11211   */\n      dup3\n      eq\n        /* \"#utility.yul\":11191:11193   */\n      iszero\n      tag_366\n      jumpi\n        /* \"#utility.yul\":11214:11232   */\n      tag_366\n      tag_353\n      jump\t// in\n    tag_366:\n      pop\n        /* \"#utility.yul\":11261:11262   */\n      0x01\n        /* \"#utility.yul\":11250:11263   */\n      add\n      swap1\n        /* \"#utility.yul\":11181:11269   */\n      jump\t// out\n        /* \"#utility.yul\":11274:11401   */\n    tag_353:\n        /* \"#utility.yul\":11335:11345   */\n      0x4e487b71\n        /* \"#utility.yul\":11330:11333   */\n      0xe0\n        /* \"#utility.yul\":11326:11346   */\n      shl\n        /* \"#utility.yul\":11323:11324   */\n      0x00\n        /* \"#utility.yul\":11316:11347   */\n      mstore\n        /* \"#utility.yul\":11366:11370   */\n      0x11\n        /* \"#utility.yul\":11363:11364   */\n      0x04\n        /* \"#utility.yul\":11356:11371   */\n      mstore\n        /* \"#utility.yul\":11390:11394   */\n      0x24\n        /* \"#utility.yul\":11387:11388   */\n      0x00\n        /* \"#utility.yul\":11380:11395   */\n      revert\n        /* \"#utility.yul\":11406:11533   */\n    tag_312:\n        /* \"#utility.yul\":11467:11477   */\n      0x4e487b71\n        /* \"#utility.yul\":11462:11465   */\n      0xe0\n        /* \"#utility.yul\":11458:11478   */\n      shl\n        /* \"#utility.yul\":11455:11456   */\n      0x00\n        /* \"#utility.yul\":11448:11479   */\n      mstore\n        /* \"#utility.yul\":11498:11502   */\n      0x41\n        /* \"#utility.yul\":11495:11496   */\n      0x04\n        /* \"#utility.yul\":11488:11503   */\n      mstore\n        /* \"#utility.yul\":11522:11526   */\n      0x24\n        /* \"#utility.yul\":11519:11520   */\n      0x00\n        /* \"#utility.yul\":11512:11527   */\n      revert\n\n    auxdata: 0xa2646970667358221220989a5c118439b428179ecbdb261f27647feba2f834ae5ae86e6a176ac4f7435b64736f6c63430008000033\n}\n",
				"bytecode": {
					"linkReferences": {},
					"object": "608060405234801561001057600080fd5b50611385806100206000396000f3fe608060405234801561001057600080fd5b506004361061014d5760003560e01c80639e623ae4116100c3578063e58bf43a1161007c578063e58bf43a14610243578063e6fd48bc1461024b578063ef8cdaa414610253578063f2fde38b14610266578063f51f96dd14610279578063fa0fca84146102815761014d565b80639e623ae4146101f2578063a85adeab146101fa578063b229299414610202578063d392eab114610215578063d45fc1a91461021d578063e3bef142146102305761014d565b8063492cc4e311610115578063492cc4e3146101c05780635c474f9e146101c85780635f48f393146101d0578063715018a6146101d85780638da5cb5b146101e25780639b2cb5d8146101ea5761014d565b80631eef7659146101525780632092c12b1461017b57806335975a371461019b5780633e413bee146101a35780633f407b84146101b8575b600080fd5b610165610160366004610da6565b610294565b6040516101729190610f0c565b60405180910390f35b61018e610189366004610e87565b61035f565b604051610172919061127c565b610165610370565b6101ab6103ca565b6040516101729190610ebb565b61018e6103d9565b6101ab6103df565b6101656103ee565b61018e6103f7565b6101e06103fd565b005b6101ab610448565b61018e610457565b61018e61045d565b61018e610463565b610165610210366004610e87565b610469565b6101ab61065d565b6101e061022b366004610d23565b61066c565b61016561023e366004610d23565b610760565b61018e610814565b61018e61081a565b610165610261366004610d09565b610820565b6101e0610274366004610d09565b610835565b61018e6108a6565b61016561028f366004610d09565b6108ac565b600061029e6108c1565b6001600160a01b03166102af610448565b6001600160a01b0316146102de5760405162461bcd60e51b81526004016102d59061110c565b60405180910390fd5b60005b82518110156103545760016072600085848151811061031057634e487b7160e01b600052603260045260246000fd5b6020908102919091018101516001600160a01b03168252810191909152604001600020805460ff19169115159190911790558061034c81611308565b9150506102e1565b50600190505b919050565b600061036a826108c5565b92915050565b600061037a6108c1565b6001600160a01b031661038b610448565b6001600160a01b0316146103b15760405162461bcd60e51b81526004016102d59061110c565b506070805460ff19811660ff9182161517918290551690565b6067546001600160a01b031681565b606e5481565b6065546001600160a01b031681565b60705460ff1681565b60695481565b6104056108c1565b6001600160a01b0316610416610448565b6001600160a01b03161461043c5760405162461bcd60e51b81526004016102d59061110c565b61044660006108e7565b565b6033546001600160a01b031690565b60685481565b606d5481565b606c5481565b600060685482101561048d5760405162461bcd60e51b81526004016102d59061116d565b6069548211156104af5760405162461bcd60e51b81526004016102d5906111db565b606e546104bc9083610939565b606e819055606d5410156104e25760405162461bcd60e51b81526004016102d590611075565b60705460ff1615156001146105095760405162461bcd60e51b81526004016102d590610f4a565b3360009081526071602052604090205460ff16156105395760405162461bcd60e51b81526004016102d590610ffb565b42606b541061055a5760405162461bcd60e51b81526004016102d590611209565b336000908152607160205260409020805460ff19166001179055606c544211156105a557606f548211156105a05760405162461bcd60e51b81526004016102d590611141565b6105fa565b3360009081526072602052604090205460ff1615156001146105d95760405162461bcd60e51b81526004016102d59061104c565b606c5442106105fa5760405162461bcd60e51b81526004016102d590611029565b606754610612906001600160a01b031633308561094c565b60665460675461062f916001600160a01b039182169116846109aa565b600061063a836108c5565b606554909150610654906001600160a01b031633836109aa565b50600192915050565b6066546001600160a01b031681565b600054610100900460ff1680610685575060005460ff16155b6106a15760405162461bcd60e51b81526004016102d5906110be565b600054610100900460ff161580156106cc576000805460ff1961ff0019909116610100171660011790555b6106d46109ce565b606580546001600160a01b03808d166001600160a01b031992831617909255606780548c8416908316179055606a879055606b869055606c85905560668054928e169290911691909117905560688890556069879055606d869055606f8290556070805460ff191660011790558015610753576000805461ff00191690555b5050505050505050505050565b600061076a6108c1565b6001600160a01b031661077b610448565b6001600160a01b0316146107a15760405162461bcd60e51b81526004016102d59061110c565b50606580546001600160a01b03199081166001600160a01b039b8c1617909155606780548216998b1699909917909855606a93909355606b91909155606c55606680549095169690951695909517909255606855606955606d91909155606f556070805460ff1916600190811790915590565b606f5481565b606b5481565b60716020526000908152604090205460ff1681565b61083d6108c1565b6001600160a01b031661084e610448565b6001600160a01b0316146108745760405162461bcd60e51b81526004016102d59061110c565b6001600160a01b03811661089a5760405162461bcd60e51b81526004016102d590610f6f565b6108a3816108e7565b50565b606a5481565b60726020526000908152604090205460ff1681565b3390565b606a5460009061036a906108e1670de0b6b3a764000085610a52565b90610a5e565b603380546001600160a01b038381166001600160a01b0319831681179093556040519116919082907f8be0079c531659141344cd1fd0a4f28419497f9722a3daafe3b4186f6b6457e090600090a35050565b60006109458284611285565b9392505050565b6109a4846323b872dd60e01b85858560405160240161096d93929190610ecf565b60408051601f198184030181529190526020810180516001600160e01b03166001600160e01b031990931692909217909152610a6a565b50505050565b6109c98363a9059cbb60e01b848460405160240161096d929190610ef3565b505050565b600054610100900460ff16806109e7575060005460ff16155b610a035760405162461bcd60e51b81526004016102d5906110be565b600054610100900460ff16158015610a2e576000805460ff1961ff0019909116610100171660011790555b610a36610af9565b610a3e610b6c565b80156108a3576000805461ff001916905550565b600061094582846112bd565b6000610945828461129d565b6000610abf826040518060400160405280602081526020017f5361666545524332303a206c6f772d6c6576656c2063616c6c206661696c6564815250856001600160a01b0316610bdc9092919063ffffffff16565b8051909150156109c95780806020019051810190610add9190610e67565b6109c95760405162461bcd60e51b81526004016102d590611232565b600054610100900460ff1680610b12575060005460ff16155b610b2e5760405162461bcd60e51b81526004016102d5906110be565b600054610100900460ff16158015610a3e576000805460ff1961ff00199091166101001716600117905580156108a3576000805461ff001916905550565b600054610100900460ff1680610b85575060005460ff16155b610ba15760405162461bcd60e51b81526004016102d5906110be565b600054610100900460ff16158015610bcc576000805460ff1961ff0019909116610100171660011790555b610a3e610bd76108c1565b6108e7565b6060610beb8484600085610bf3565b949350505050565b606082471015610c155760405162461bcd60e51b81526004016102d590610fb5565b610c1e85610cb3565b610c3a5760405162461bcd60e51b81526004016102d5906111a4565b600080866001600160a01b03168587604051610c569190610e9f565b60006040518083038185875af1925050503d8060008114610c93576040519150601f19603f3d011682016040523d82523d6000602084013e610c98565b606091505b5091509150610ca8828286610cb9565b979650505050505050565b3b151590565b60608315610cc8575081610945565b825115610cd85782518084602001fd5b8160405162461bcd60e51b81526004016102d59190610f17565b80356001600160a01b038116811461035a57600080fd5b600060208284031215610d1a578081fd5b61094582610cf2565b6000806000806000806000806000806101408b8d031215610d42578586fd5b610d4b8b610cf2565b9950610d5960208c01610cf2565b9850610d6760408c01610cf2565b999c989b5098996060810135995060808101359860a0820135985060c0820135975060e082013596506101008201359550610120909101359350915050565b60006020808385031215610db8578182fd5b823567ffffffffffffffff80821115610dcf578384fd5b818501915085601f830112610de2578384fd5b813581811115610df457610df4611339565b83810260405185828201018181108582111715610e1357610e13611339565b604052828152858101935084860182860187018a1015610e31578788fd5b8795505b83861015610e5a57610e4681610cf2565b855260019590950194938601938601610e35565b5098975050505050505050565b600060208284031215610e78578081fd5b81518015158114610945578182fd5b600060208284031215610e98578081fd5b5035919050565b60008251610eb18184602087016112dc565b9190910192915050565b6001600160a01b0391909116815260200190565b6001600160a01b039384168152919092166020820152604081019190915260600190565b6001600160a01b03929092168252602082015260400190565b901515815260200190565b6000602082528251806020840152610f368160408501602087016112dc565b601f01601f19169190910160400192915050565b6020808252600b908201526a139bdd081cdd185c9d195960aa1b604082015260600190565b60208082526026908201527f4f776e61626c653a206e6577206f776e657220697320746865207a65726f206160408201526564647265737360d01b606082015260800190565b60208082526026908201527f416464726573733a20696e73756666696369656e742062616c616e636520666f6040820152651c8818d85b1b60d21b606082015260800190565b602080825260149082015273105b1c9958591e481c185c9d1a58da5c185d195960621b604082015260600190565b60208082526009908201526829b0b6329037bb32b960b91b604082015260600190565b6020808252600f908201526e139bdd081dda1a5d195b1a5cdd1959608a1b604082015260600190565b60208082526029908201527f54686520616d6f756e7420656e746572656420657863656564732046756e6472604082015268185a5cd94811dbd85b60ba1b606082015260800190565b6020808252602e908201527f496e697469616c697a61626c653a20636f6e747261637420697320616c72656160408201526d191e481a5b9a5d1a585b1a5e995960921b606082015260800190565b6020808252818101527f4f776e61626c653a2063616c6c6572206973206e6f7420746865206f776e6572604082015260600190565b602080825260129082015271115e18d95959195908125113c81b1a5b5a5d60721b604082015260600190565b60208082526018908201527f42656c6f77206d696e696d756d20616c6c6f636174696f6e0000000000000000604082015260600190565b6020808252601d908201527f416464726573733a2063616c6c20746f206e6f6e2d636f6e7472616374000000604082015260600190565b60208082526014908201527326b7b932903a3430b71030b63637b1b0ba34b7b760611b604082015260600190565b6020808252600f908201526e139bdd081cdd185c9d1959081e595d608a1b604082015260600190565b6020808252602a908201527f5361666545524332303a204552433230206f7065726174696f6e20646964206e6040820152691bdd081cdd58d8d9595960b21b606082015260800190565b90815260200190565b6000821982111561129857611298611323565b500190565b6000826112b857634e487b7160e01b81526012600452602481fd5b500490565b60008160001904831182151516156112d7576112d7611323565b500290565b60005b838110156112f75781810151838201526020016112df565b838111156109a45750506000910152565b600060001982141561131c5761131c611323565b5060010190565b634e487b7160e01b600052601160045260246000fd5b634e487b7160e01b600052604160045260246000fdfea2646970667358221220989a5c118439b428179ecbdb261f27647feba2f834ae5ae86e6a176ac4f7435b64736f6c63430008000033",
					"opcodes": "PUSH1 0x80 PUSH1 0x40 MSTORE CALLVALUE DUP1 ISZERO PUSH2 0x10 JUMPI PUSH1 0x0 DUP1 REVERT JUMPDEST POP PUSH2 0x1385 DUP1 PUSH2 0x20 PUSH1 0x0 CODECOPY PUSH1 0x0 RETURN INVALID PUSH1 0x80 PUSH1 0x40 MSTORE CALLVALUE DUP1 ISZERO PUSH2 0x10 JUMPI PUSH1 0x0 DUP1 REVERT JUMPDEST POP PUSH1 0x4 CALLDATASIZE LT PUSH2 0x14D JUMPI PUSH1 0x0 CALLDATALOAD PUSH1 0xE0 SHR DUP1 PUSH4 0x9E623AE4 GT PUSH2 0xC3 JUMPI DUP1 PUSH4 0xE58BF43A GT PUSH2 0x7C JUMPI DUP1 PUSH4 0xE58BF43A EQ PUSH2 0x243 JUMPI DUP1 PUSH4 0xE6FD48BC EQ PUSH2 0x24B JUMPI DUP1 PUSH4 0xEF8CDAA4 EQ PUSH2 0x253 JUMPI DUP1 PUSH4 0xF2FDE38B EQ PUSH2 0x266 JUMPI DUP1 PUSH4 0xF51F96DD EQ PUSH2 0x279 JUMPI DUP1 PUSH4 0xFA0FCA84 EQ PUSH2 0x281 JUMPI PUSH2 0x14D JUMP JUMPDEST DUP1 PUSH4 0x9E623AE4 EQ PUSH2 0x1F2 JUMPI DUP1 PUSH4 0xA85ADEAB EQ PUSH2 0x1FA JUMPI DUP1 PUSH4 0xB2292994 EQ PUSH2 0x202 JUMPI DUP1 PUSH4 0xD392EAB1 EQ PUSH2 0x215 JUMPI DUP1 PUSH4 0xD45FC1A9 EQ PUSH2 0x21D JUMPI DUP1 PUSH4 0xE3BEF142 EQ PUSH2 0x230 JUMPI PUSH2 0x14D JUMP JUMPDEST DUP1 PUSH4 0x492CC4E3 GT PUSH2 0x115 JUMPI DUP1 PUSH4 0x492CC4E3 EQ PUSH2 0x1C0 JUMPI DUP1 PUSH4 0x5C474F9E EQ PUSH2 0x1C8 JUMPI DUP1 PUSH4 0x5F48F393 EQ PUSH2 0x1D0 JUMPI DUP1 PUSH4 0x715018A6 EQ PUSH2 0x1D8 JUMPI DUP1 PUSH4 0x8DA5CB5B EQ PUSH2 0x1E2 JUMPI DUP1 PUSH4 0x9B2CB5D8 EQ PUSH2 0x1EA JUMPI PUSH2 0x14D JUMP JUMPDEST DUP1 PUSH4 0x1EEF7659 EQ PUSH2 0x152 JUMPI DUP1 PUSH4 0x2092C12B EQ PUSH2 0x17B JUMPI DUP1 PUSH4 0x35975A37 EQ PUSH2 0x19B JUMPI DUP1 PUSH4 0x3E413BEE EQ PUSH2 0x1A3 JUMPI DUP1 PUSH4 0x3F407B84 EQ PUSH2 0x1B8 JUMPI JUMPDEST PUSH1 0x0 DUP1 REVERT JUMPDEST PUSH2 0x165 PUSH2 0x160 CALLDATASIZE PUSH1 0x4 PUSH2 0xDA6 JUMP JUMPDEST PUSH2 0x294 JUMP JUMPDEST PUSH1 0x40 MLOAD PUSH2 0x172 SWAP2 SWAP1 PUSH2 0xF0C JUMP JUMPDEST PUSH1 0x40 MLOAD DUP1 SWAP2 SUB SWAP1 RETURN JUMPDEST PUSH2 0x18E PUSH2 0x189 CALLDATASIZE PUSH1 0x4 PUSH2 0xE87 JUMP JUMPDEST PUSH2 0x35F JUMP JUMPDEST PUSH1 0x40 MLOAD PUSH2 0x172 SWAP2 SWAP1 PUSH2 0x127C JUMP JUMPDEST PUSH2 0x165 PUSH2 0x370 JUMP JUMPDEST PUSH2 0x1AB PUSH2 0x3CA JUMP JUMPDEST PUSH1 0x40 MLOAD PUSH2 0x172 SWAP2 SWAP1 PUSH2 0xEBB JUMP JUMPDEST PUSH2 0x18E PUSH2 0x3D9 JUMP JUMPDEST PUSH2 0x1AB PUSH2 0x3DF JUMP JUMPDEST PUSH2 0x165 PUSH2 0x3EE JUMP JUMPDEST PUSH2 0x18E PUSH2 0x3F7 JUMP JUMPDEST PUSH2 0x1E0 PUSH2 0x3FD JUMP JUMPDEST STOP JUMPDEST PUSH2 0x1AB PUSH2 0x448 JUMP JUMPDEST PUSH2 0x18E PUSH2 0x457 JUMP JUMPDEST PUSH2 0x18E PUSH2 0x45D JUMP JUMPDEST PUSH2 0x18E PUSH2 0x463 JUMP JUMPDEST PUSH2 0x165 PUSH2 0x210 CALLDATASIZE PUSH1 0x4 PUSH2 0xE87 JUMP JUMPDEST PUSH2 0x469 JUMP JUMPDEST PUSH2 0x1AB PUSH2 0x65D JUMP JUMPDEST PUSH2 0x1E0 PUSH2 0x22B CALLDATASIZE PUSH1 0x4 PUSH2 0xD23 JUMP JUMPDEST PUSH2 0x66C JUMP JUMPDEST PUSH2 0x165 PUSH2 0x23E CALLDATASIZE PUSH1 0x4 PUSH2 0xD23 JUMP JUMPDEST PUSH2 0x760 JUMP JUMPDEST PUSH2 0x18E PUSH2 0x814 JUMP JUMPDEST PUSH2 0x18E PUSH2 0x81A JUMP JUMPDEST PUSH2 0x165 PUSH2 0x261 CALLDATASIZE PUSH1 0x4 PUSH2 0xD09 JUMP JUMPDEST PUSH2 0x820 JUMP JUMPDEST PUSH2 0x1E0 PUSH2 0x274 CALLDATASIZE PUSH1 0x4 PUSH2 0xD09 JUMP JUMPDEST PUSH2 0x835 JUMP JUMPDEST PUSH2 0x18E PUSH2 0x8A6 JUMP JUMPDEST PUSH2 0x165 PUSH2 0x28F CALLDATASIZE PUSH1 0x4 PUSH2 0xD09 JUMP JUMPDEST PUSH2 0x8AC JUMP JUMPDEST PUSH1 0x0 PUSH2 0x29E PUSH2 0x8C1 JUMP JUMPDEST PUSH1 0x1 PUSH1 0x1 PUSH1 0xA0 SHL SUB AND PUSH2 0x2AF PUSH2 0x448 JUMP JUMPDEST PUSH1 0x1 PUSH1 0x1 PUSH1 0xA0 SHL SUB AND EQ PUSH2 0x2DE JUMPI PUSH1 0x40 MLOAD PUSH3 0x461BCD PUSH1 0xE5 SHL DUP2 MSTORE PUSH1 0x4 ADD PUSH2 0x2D5 SWAP1 PUSH2 0x110C JUMP JUMPDEST PUSH1 0x40 MLOAD DUP1 SWAP2 SUB SWAP1 REVERT JUMPDEST PUSH1 0x0 JUMPDEST DUP3 MLOAD DUP2 LT ISZERO PUSH2 0x354 JUMPI PUSH1 0x1 PUSH1 0x72 PUSH1 0x0 DUP6 DUP5 DUP2 MLOAD DUP2 LT PUSH2 0x310 JUMPI PUSH4 0x4E487B71 PUSH1 0xE0 SHL PUSH1 0x0 MSTORE PUSH1 0x32 PUSH1 0x4 MSTORE PUSH1 0x24 PUSH1 0x0 REVERT JUMPDEST PUSH1 0x20 SWAP1 DUP2 MUL SWAP2 SWAP1 SWAP2 ADD DUP2 ADD MLOAD PUSH1 0x1 PUSH1 0x1 PUSH1 0xA0 SHL SUB AND DUP3 MSTORE DUP2 ADD SWAP2 SWAP1 SWAP2 MSTORE PUSH1 0x40 ADD PUSH1 0x0 KECCAK256 DUP1 SLOAD PUSH1 0xFF NOT AND SWAP2 ISZERO ISZERO SWAP2 SWAP1 SWAP2 OR SWAP1 SSTORE DUP1 PUSH2 0x34C DUP2 PUSH2 0x1308 JUMP JUMPDEST SWAP2 POP POP PUSH2 0x2E1 JUMP JUMPDEST POP PUSH1 0x1 SWAP1 POP JUMPDEST SWAP2 SWAP1 POP JUMP JUMPDEST PUSH1 0x0 PUSH2 0x36A DUP3 PUSH2 0x8C5 JUMP JUMPDEST SWAP3 SWAP2 POP POP JUMP JUMPDEST PUSH1 0x0 PUSH2 0x37A PUSH2 0x8C1 JUMP JUMPDEST PUSH1 0x1 PUSH1 0x1 PUSH1 0xA0 SHL SUB AND PUSH2 0x38B PUSH2 0x448 JUMP JUMPDEST PUSH1 0x1 PUSH1 0x1 PUSH1 0xA0 SHL SUB AND EQ PUSH2 0x3B1 JUMPI PUSH1 0x40 MLOAD PUSH3 0x461BCD PUSH1 0xE5 SHL DUP2 MSTORE PUSH1 0x4 ADD PUSH2 0x2D5 SWAP1 PUSH2 0x110C JUMP JUMPDEST POP PUSH1 0x70 DUP1 SLOAD PUSH1 0xFF NOT DUP2 AND PUSH1 0xFF SWAP2 DUP3 AND ISZERO OR SWAP2 DUP3 SWAP1 SSTORE AND SWAP1 JUMP JUMPDEST PUSH1 0x67 SLOAD PUSH1 0x1 PUSH1 0x1 PUSH1 0xA0 SHL SUB AND DUP2 JUMP JUMPDEST PUSH1 0x6E SLOAD DUP2 JUMP JUMPDEST PUSH1 0x65 SLOAD PUSH1 0x1 PUSH1 0x1 PUSH1 0xA0 SHL SUB AND DUP2 JUMP JUMPDEST PUSH1 0x70 SLOAD PUSH1 0xFF AND DUP2 JUMP JUMPDEST PUSH1 0x69 SLOAD DUP2 JUMP JUMPDEST PUSH2 0x405 PUSH2 0x8C1 JUMP JUMPDEST PUSH1 0x1 PUSH1 0x1 PUSH1 0xA0 SHL SUB AND PUSH2 0x416 PUSH2 0x448 JUMP JUMPDEST PUSH1 0x1 PUSH1 0x1 PUSH1 0xA0 SHL SUB AND EQ PUSH2 0x43C JUMPI PUSH1 0x40 MLOAD PUSH3 0x461BCD PUSH1 0xE5 SHL DUP2 MSTORE PUSH1 0x4 ADD PUSH2 0x2D5 SWAP1 PUSH2 0x110C JUMP JUMPDEST PUSH2 0x446 PUSH1 0x0 PUSH2 0x8E7 JUMP JUMPDEST JUMP JUMPDEST PUSH1 0x33 SLOAD PUSH1 0x1 PUSH1 0x1 PUSH1 0xA0 SHL SUB AND SWAP1 JUMP JUMPDEST PUSH1 0x68 SLOAD DUP2 JUMP JUMPDEST PUSH1 0x6D SLOAD DUP2 JUMP JUMPDEST PUSH1 0x6C SLOAD DUP2 JUMP JUMPDEST PUSH1 0x0 PUSH1 0x68 SLOAD DUP3 LT ISZERO PUSH2 0x48D JUMPI PUSH1 0x40 MLOAD PUSH3 0x461BCD PUSH1 0xE5 SHL DUP2 MSTORE PUSH1 0x4 ADD PUSH2 0x2D5 SWAP1 PUSH2 0x116D JUMP JUMPDEST PUSH1 0x69 SLOAD DUP3 GT ISZERO PUSH2 0x4AF JUMPI PUSH1 0x40 MLOAD PUSH3 0x461BCD PUSH1 0xE5 SHL DUP2 MSTORE PUSH1 0x4 ADD PUSH2 0x2D5 SWAP1 PUSH2 0x11DB JUMP JUMPDEST PUSH1 0x6E SLOAD PUSH2 0x4BC SWAP1 DUP4 PUSH2 0x939 JUMP JUMPDEST PUSH1 0x6E DUP2 SWAP1 SSTORE PUSH1 0x6D SLOAD LT ISZERO PUSH2 0x4E2 JUMPI PUSH1 0x40 MLOAD PUSH3 0x461BCD PUSH1 0xE5 SHL DUP2 MSTORE PUSH1 0x4 ADD PUSH2 0x2D5 SWAP1 PUSH2 0x1075 JUMP JUMPDEST PUSH1 0x70 SLOAD PUSH1 0xFF AND ISZERO ISZERO PUSH1 0x1 EQ PUSH2 0x509 JUMPI PUSH1 0x40 MLOAD PUSH3 0x461BCD PUSH1 0xE5 SHL DUP2 MSTORE PUSH1 0x4 ADD PUSH2 0x2D5 SWAP1 PUSH2 0xF4A JUMP JUMPDEST CALLER PUSH1 0x0 SWAP1 DUP2 MSTORE PUSH1 0x71 PUSH1 0x20 MSTORE PUSH1 0x40 SWAP1 KECCAK256 SLOAD PUSH1 0xFF AND ISZERO PUSH2 0x539 JUMPI PUSH1 0x40 MLOAD PUSH3 0x461BCD PUSH1 0xE5 SHL DUP2 MSTORE PUSH1 0x4 ADD PUSH2 0x2D5 SWAP1 PUSH2 0xFFB JUMP JUMPDEST TIMESTAMP PUSH1 0x6B SLOAD LT PUSH2 0x55A JUMPI PUSH1 0x40 MLOAD PUSH3 0x461BCD PUSH1 0xE5 SHL DUP2 MSTORE PUSH1 0x4 ADD PUSH2 0x2D5 SWAP1 PUSH2 0x1209 JUMP JUMPDEST CALLER PUSH1 0x0 SWAP1 DUP2 MSTORE PUSH1 0x71 PUSH1 0x20 MSTORE PUSH1 0x40 SWAP1 KECCAK256 DUP1 SLOAD PUSH1 0xFF NOT AND PUSH1 0x1 OR SWAP1 SSTORE PUSH1 0x6C SLOAD TIMESTAMP GT ISZERO PUSH2 0x5A5 JUMPI PUSH1 0x6F SLOAD DUP3 GT ISZERO PUSH2 0x5A0 JUMPI PUSH1 0x40 MLOAD PUSH3 0x461BCD PUSH1 0xE5 SHL DUP2 MSTORE PUSH1 0x4 ADD PUSH2 0x2D5 SWAP1 PUSH2 0x1141 JUMP JUMPDEST PUSH2 0x5FA JUMP JUMPDEST CALLER PUSH1 0x0 SWAP1 DUP2 MSTORE PUSH1 0x72 PUSH1 0x20 MSTORE PUSH1 0x40 SWAP1 KECCAK256 SLOAD PUSH1 0xFF AND ISZERO ISZERO PUSH1 0x1 EQ PUSH2 0x5D9 JUMPI PUSH1 0x40 MLOAD PUSH3 0x461BCD PUSH1 0xE5 SHL DUP2 MSTORE PUSH1 0x4 ADD PUSH2 0x2D5 SWAP1 PUSH2 0x104C JUMP JUMPDEST PUSH1 0x6C SLOAD TIMESTAMP LT PUSH2 0x5FA JUMPI PUSH1 0x40 MLOAD PUSH3 0x461BCD PUSH1 0xE5 SHL DUP2 MSTORE PUSH1 0x4 ADD PUSH2 0x2D5 SWAP1 PUSH2 0x1029 JUMP JUMPDEST PUSH1 0x67 SLOAD PUSH2 0x612 SWAP1 PUSH1 0x1 PUSH1 0x1 PUSH1 0xA0 SHL SUB AND CALLER ADDRESS DUP6 PUSH2 0x94C JUMP JUMPDEST PUSH1 0x66 SLOAD PUSH1 0x67 SLOAD PUSH2 0x62F SWAP2 PUSH1 0x1 PUSH1 0x1 PUSH1 0xA0 SHL SUB SWAP2 DUP3 AND SWAP2 AND DUP5 PUSH2 0x9AA JUMP JUMPDEST PUSH1 0x0 PUSH2 0x63A DUP4 PUSH2 0x8C5 JUMP JUMPDEST PUSH1 0x65 SLOAD SWAP1 SWAP2 POP PUSH2 0x654 SWAP1 PUSH1 0x1 PUSH1 0x1 PUSH1 0xA0 SHL SUB AND CALLER DUP4 PUSH2 0x9AA JUMP JUMPDEST POP PUSH1 0x1 SWAP3 SWAP2 POP POP JUMP JUMPDEST PUSH1 0x66 SLOAD PUSH1 0x1 PUSH1 0x1 PUSH1 0xA0 SHL SUB AND DUP2 JUMP JUMPDEST PUSH1 0x0 SLOAD PUSH2 0x100 SWAP1 DIV PUSH1 0xFF AND DUP1 PUSH2 0x685 JUMPI POP PUSH1 0x0 SLOAD PUSH1 0xFF AND ISZERO JUMPDEST PUSH2 0x6A1 JUMPI PUSH1 0x40 MLOAD PUSH3 0x461BCD PUSH1 0xE5 SHL DUP2 MSTORE PUSH1 0x4 ADD PUSH2 0x2D5 SWAP1 PUSH2 0x10BE JUMP JUMPDEST PUSH1 0x0 SLOAD PUSH2 0x100 SWAP1 DIV PUSH1 0xFF AND ISZERO DUP1 ISZERO PUSH2 0x6CC JUMPI PUSH1 0x0 DUP1 SLOAD PUSH1 0xFF NOT PUSH2 0xFF00 NOT SWAP1 SWAP2 AND PUSH2 0x100 OR AND PUSH1 0x1 OR SWAP1 SSTORE JUMPDEST PUSH2 0x6D4 PUSH2 0x9CE JUMP JUMPDEST PUSH1 0x65 DUP1 SLOAD PUSH1 0x1 PUSH1 0x1 PUSH1 0xA0 SHL SUB DUP1 DUP14 AND PUSH1 0x1 PUSH1 0x1 PUSH1 0xA0 SHL SUB NOT SWAP3 DUP4 AND OR SWAP1 SWAP3 SSTORE PUSH1 0x67 DUP1 SLOAD DUP13 DUP5 AND SWAP1 DUP4 AND OR SWAP1 SSTORE PUSH1 0x6A DUP8 SWAP1 SSTORE PUSH1 0x6B DUP7 SWAP1 SSTORE PUSH1 0x6C DUP6 SWAP1 SSTORE PUSH1 0x66 DUP1 SLOAD SWAP3 DUP15 AND SWAP3 SWAP1 SWAP2 AND SWAP2 SWAP1 SWAP2 OR SWAP1 SSTORE PUSH1 0x68 DUP9 SWAP1 SSTORE PUSH1 0x69 DUP8 SWAP1 SSTORE PUSH1 0x6D DUP7 SWAP1 SSTORE PUSH1 0x6F DUP3 SWAP1 SSTORE PUSH1 0x70 DUP1 SLOAD PUSH1 0xFF NOT AND PUSH1 0x1 OR SWAP1 SSTORE DUP1 ISZERO PUSH2 0x753 JUMPI PUSH1 0x0 DUP1 SLOAD PUSH2 0xFF00 NOT AND SWAP1 SSTORE JUMPDEST POP POP POP POP POP POP POP POP POP POP POP JUMP JUMPDEST PUSH1 0x0 PUSH2 0x76A PUSH2 0x8C1 JUMP JUMPDEST PUSH1 0x1 PUSH1 0x1 PUSH1 0xA0 SHL SUB AND PUSH2 0x77B PUSH2 0x448 JUMP JUMPDEST PUSH1 0x1 PUSH1 0x1 PUSH1 0xA0 SHL SUB AND EQ PUSH2 0x7A1 JUMPI PUSH1 0x40 MLOAD PUSH3 0x461BCD PUSH1 0xE5 SHL DUP2 MSTORE PUSH1 0x4 ADD PUSH2 0x2D5 SWAP1 PUSH2 0x110C JUMP JUMPDEST POP PUSH1 0x65 DUP1 SLOAD PUSH1 0x1 PUSH1 0x1 PUSH1 0xA0 SHL SUB NOT SWAP1 DUP2 AND PUSH1 0x1 PUSH1 0x1 PUSH1 0xA0 SHL SUB SWAP12 DUP13 AND OR SWAP1 SWAP2 SSTORE PUSH1 0x67 DUP1 SLOAD DUP3 AND SWAP10 DUP12 AND SWAP10 SWAP1 SWAP10 OR SWAP1 SWAP9 SSTORE PUSH1 0x6A SWAP4 SWAP1 SWAP4 SSTORE PUSH1 0x6B SWAP2 SWAP1 SWAP2 SSTORE PUSH1 0x6C SSTORE PUSH1 0x66 DUP1 SLOAD SWAP1 SWAP6 AND SWAP7 SWAP1 SWAP6 AND SWAP6 SWAP1 SWAP6 OR SWAP1 SWAP3 SSTORE PUSH1 0x68 SSTORE PUSH1 0x69 SSTORE PUSH1 0x6D SWAP2 SWAP1 SWAP2 SSTORE PUSH1 0x6F SSTORE PUSH1 0x70 DUP1 SLOAD PUSH1 0xFF NOT AND PUSH1 0x1 SWAP1 DUP2 OR SWAP1 SWAP2 SSTORE SWAP1 JUMP JUMPDEST PUSH1 0x6F SLOAD DUP2 JUMP JUMPDEST PUSH1 0x6B SLOAD DUP2 JUMP JUMPDEST PUSH1 0x71 PUSH1 0x20 MSTORE PUSH1 0x0 SWAP1 DUP2 MSTORE PUSH1 0x40 SWAP1 KECCAK256 SLOAD PUSH1 0xFF AND DUP2 JUMP JUMPDEST PUSH2 0x83D PUSH2 0x8C1 JUMP JUMPDEST PUSH1 0x1 PUSH1 0x1 PUSH1 0xA0 SHL SUB AND PUSH2 0x84E PUSH2 0x448 JUMP JUMPDEST PUSH1 0x1 PUSH1 0x1 PUSH1 0xA0 SHL SUB AND EQ PUSH2 0x874 JUMPI PUSH1 0x40 MLOAD PUSH3 0x461BCD PUSH1 0xE5 SHL DUP2 MSTORE PUSH1 0x4 ADD PUSH2 0x2D5 SWAP1 PUSH2 0x110C JUMP JUMPDEST PUSH1 0x1 PUSH1 0x1 PUSH1 0xA0 SHL SUB DUP2 AND PUSH2 0x89A JUMPI PUSH1 0x40 MLOAD PUSH3 0x461BCD PUSH1 0xE5 SHL DUP2 MSTORE PUSH1 0x4 ADD PUSH2 0x2D5 SWAP1 PUSH2 0xF6F JUMP JUMPDEST PUSH2 0x8A3 DUP2 PUSH2 0x8E7 JUMP JUMPDEST POP JUMP JUMPDEST PUSH1 0x6A SLOAD DUP2 JUMP JUMPDEST PUSH1 0x72 PUSH1 0x20 MSTORE PUSH1 0x0 SWAP1 DUP2 MSTORE PUSH1 0x40 SWAP1 KECCAK256 SLOAD PUSH1 0xFF AND DUP2 JUMP JUMPDEST CALLER SWAP1 JUMP JUMPDEST PUSH1 0x6A SLOAD PUSH1 0x0 SWAP1 PUSH2 0x36A SWAP1 PUSH2 0x8E1 PUSH8 0xDE0B6B3A7640000 DUP6 PUSH2 0xA52 JUMP JUMPDEST SWAP1 PUSH2 0xA5E JUMP JUMPDEST PUSH1 0x33 DUP1 SLOAD PUSH1 0x1 PUSH1 0x1 PUSH1 0xA0 SHL SUB DUP4 DUP2 AND PUSH1 0x1 PUSH1 0x1 PUSH1 0xA0 SHL SUB NOT DUP4 AND DUP2 OR SWAP1 SWAP4 SSTORE PUSH1 0x40 MLOAD SWAP2 AND SWAP2 SWAP1 DUP3 SWAP1 PUSH32 0x8BE0079C531659141344CD1FD0A4F28419497F9722A3DAAFE3B4186F6B6457E0 SWAP1 PUSH1 0x0 SWAP1 LOG3 POP POP JUMP JUMPDEST PUSH1 0x0 PUSH2 0x945 DUP3 DUP5 PUSH2 0x1285 JUMP JUMPDEST SWAP4 SWAP3 POP POP POP JUMP JUMPDEST PUSH2 0x9A4 DUP5 PUSH4 0x23B872DD PUSH1 0xE0 SHL DUP6 DUP6 DUP6 PUSH1 0x40 MLOAD PUSH1 0x24 ADD PUSH2 0x96D SWAP4 SWAP3 SWAP2 SWAP1 PUSH2 0xECF JUMP JUMPDEST PUSH1 0x40 DUP1 MLOAD PUSH1 0x1F NOT DUP2 DUP5 SUB ADD DUP2 MSTORE SWAP2 SWAP1 MSTORE PUSH1 0x20 DUP2 ADD DUP1 MLOAD PUSH1 0x1 PUSH1 0x1 PUSH1 0xE0 SHL SUB AND PUSH1 0x1 PUSH1 0x1 PUSH1 0xE0 SHL SUB NOT SWAP1 SWAP4 AND SWAP3 SWAP1 SWAP3 OR SWAP1 SWAP2 MSTORE PUSH2 0xA6A JUMP JUMPDEST POP POP POP POP JUMP JUMPDEST PUSH2 0x9C9 DUP4 PUSH4 0xA9059CBB PUSH1 0xE0 SHL DUP5 DUP5 PUSH1 0x40 MLOAD PUSH1 0x24 ADD PUSH2 0x96D SWAP3 SWAP2 SWAP1 PUSH2 0xEF3 JUMP JUMPDEST POP POP POP JUMP JUMPDEST PUSH1 0x0 SLOAD PUSH2 0x100 SWAP1 DIV PUSH1 0xFF AND DUP1 PUSH2 0x9E7 JUMPI POP PUSH1 0x0 SLOAD PUSH1 0xFF AND ISZERO JUMPDEST PUSH2 0xA03 JUMPI PUSH1 0x40 MLOAD PUSH3 0x461BCD PUSH1 0xE5 SHL DUP2 MSTORE PUSH1 0x4 ADD PUSH2 0x2D5 SWAP1 PUSH2 0x10BE JUMP JUMPDEST PUSH1 0x0 SLOAD PUSH2 0x100 SWAP1 DIV PUSH1 0xFF AND ISZERO DUP1 ISZERO PUSH2 0xA2E JUMPI PUSH1 0x0 DUP1 SLOAD PUSH1 0xFF NOT PUSH2 0xFF00 NOT SWAP1 SWAP2 AND PUSH2 0x100 OR AND PUSH1 0x1 OR SWAP1 SSTORE JUMPDEST PUSH2 0xA36 PUSH2 0xAF9 JUMP JUMPDEST PUSH2 0xA3E PUSH2 0xB6C JUMP JUMPDEST DUP1 ISZERO PUSH2 0x8A3 JUMPI PUSH1 0x0 DUP1 SLOAD PUSH2 0xFF00 NOT AND SWAP1 SSTORE POP JUMP JUMPDEST PUSH1 0x0 PUSH2 0x945 DUP3 DUP5 PUSH2 0x12BD JUMP JUMPDEST PUSH1 0x0 PUSH2 0x945 DUP3 DUP5 PUSH2 0x129D JUMP JUMPDEST PUSH1 0x0 PUSH2 0xABF DUP3 PUSH1 0x40 MLOAD DUP1 PUSH1 0x40 ADD PUSH1 0x40 MSTORE DUP1 PUSH1 0x20 DUP2 MSTORE PUSH1 0x20 ADD PUSH32 0x5361666545524332303A206C6F772D6C6576656C2063616C6C206661696C6564 DUP2 MSTORE POP DUP6 PUSH1 0x1 PUSH1 0x1 PUSH1 0xA0 SHL SUB AND PUSH2 0xBDC SWAP1 SWAP3 SWAP2 SWAP1 PUSH4 0xFFFFFFFF AND JUMP JUMPDEST DUP1 MLOAD SWAP1 SWAP2 POP ISZERO PUSH2 0x9C9 JUMPI DUP1 DUP1 PUSH1 0x20 ADD SWAP1 MLOAD DUP2 ADD SWAP1 PUSH2 0xADD SWAP2 SWAP1 PUSH2 0xE67 JUMP JUMPDEST PUSH2 0x9C9 JUMPI PUSH1 0x40 MLOAD PUSH3 0x461BCD PUSH1 0xE5 SHL DUP2 MSTORE PUSH1 0x4 ADD PUSH2 0x2D5 SWAP1 PUSH2 0x1232 JUMP JUMPDEST PUSH1 0x0 SLOAD PUSH2 0x100 SWAP1 DIV PUSH1 0xFF AND DUP1 PUSH2 0xB12 JUMPI POP PUSH1 0x0 SLOAD PUSH1 0xFF AND ISZERO JUMPDEST PUSH2 0xB2E JUMPI PUSH1 0x40 MLOAD PUSH3 0x461BCD PUSH1 0xE5 SHL DUP2 MSTORE PUSH1 0x4 ADD PUSH2 0x2D5 SWAP1 PUSH2 0x10BE JUMP JUMPDEST PUSH1 0x0 SLOAD PUSH2 0x100 SWAP1 DIV PUSH1 0xFF AND ISZERO DUP1 ISZERO PUSH2 0xA3E JUMPI PUSH1 0x0 DUP1 SLOAD PUSH1 0xFF NOT PUSH2 0xFF00 NOT SWAP1 SWAP2 AND PUSH2 0x100 OR AND PUSH1 0x1 OR SWAP1 SSTORE DUP1 ISZERO PUSH2 0x8A3 JUMPI PUSH1 0x0 DUP1 SLOAD PUSH2 0xFF00 NOT AND SWAP1 SSTORE POP JUMP JUMPDEST PUSH1 0x0 SLOAD PUSH2 0x100 SWAP1 DIV PUSH1 0xFF AND DUP1 PUSH2 0xB85 JUMPI POP PUSH1 0x0 SLOAD PUSH1 0xFF AND ISZERO JUMPDEST PUSH2 0xBA1 JUMPI PUSH1 0x40 MLOAD PUSH3 0x461BCD PUSH1 0xE5 SHL DUP2 MSTORE PUSH1 0x4 ADD PUSH2 0x2D5 SWAP1 PUSH2 0x10BE JUMP JUMPDEST PUSH1 0x0 SLOAD PUSH2 0x100 SWAP1 DIV PUSH1 0xFF AND ISZERO DUP1 ISZERO PUSH2 0xBCC JUMPI PUSH1 0x0 DUP1 SLOAD PUSH1 0xFF NOT PUSH2 0xFF00 NOT SWAP1 SWAP2 AND PUSH2 0x100 OR AND PUSH1 0x1 OR SWAP1 SSTORE JUMPDEST PUSH2 0xA3E PUSH2 0xBD7 PUSH2 0x8C1 JUMP JUMPDEST PUSH2 0x8E7 JUMP JUMPDEST PUSH1 0x60 PUSH2 0xBEB DUP5 DUP5 PUSH1 0x0 DUP6 PUSH2 0xBF3 JUMP JUMPDEST SWAP5 SWAP4 POP POP POP POP JUMP JUMPDEST PUSH1 0x60 DUP3 SELFBALANCE LT ISZERO PUSH2 0xC15 JUMPI PUSH1 0x40 MLOAD PUSH3 0x461BCD PUSH1 0xE5 SHL DUP2 MSTORE PUSH1 0x4 ADD PUSH2 0x2D5 SWAP1 PUSH2 0xFB5 JUMP JUMPDEST PUSH2 0xC1E DUP6 PUSH2 0xCB3 JUMP JUMPDEST PUSH2 0xC3A JUMPI PUSH1 0x40 MLOAD PUSH3 0x461BCD PUSH1 0xE5 SHL DUP2 MSTORE PUSH1 0x4 ADD PUSH2 0x2D5 SWAP1 PUSH2 0x11A4 JUMP JUMPDEST PUSH1 0x0 DUP1 DUP7 PUSH1 0x1 PUSH1 0x1 PUSH1 0xA0 SHL SUB AND DUP6 DUP8 PUSH1 0x40 MLOAD PUSH2 0xC56 SWAP2 SWAP1 PUSH2 0xE9F JUMP JUMPDEST PUSH1 0x0 PUSH1 0x40 MLOAD DUP1 DUP4 SUB DUP2 DUP6 DUP8 GAS CALL SWAP3 POP POP POP RETURNDATASIZE DUP1 PUSH1 0x0 DUP2 EQ PUSH2 0xC93 JUMPI PUSH1 0x40 MLOAD SWAP2 POP PUSH1 0x1F NOT PUSH1 0x3F RETURNDATASIZE ADD AND DUP3 ADD PUSH1 0x40 MSTORE RETURNDATASIZE DUP3 MSTORE RETURNDATASIZE PUSH1 0x0 PUSH1 0x20 DUP5 ADD RETURNDATACOPY PUSH2 0xC98 JUMP JUMPDEST PUSH1 0x60 SWAP2 POP JUMPDEST POP SWAP2 POP SWAP2 POP PUSH2 0xCA8 DUP3 DUP3 DUP7 PUSH2 0xCB9 JUMP JUMPDEST SWAP8 SWAP7 POP POP POP POP POP POP POP JUMP JUMPDEST EXTCODESIZE ISZERO ISZERO SWAP1 JUMP JUMPDEST PUSH1 0x60 DUP4 ISZERO PUSH2 0xCC8 JUMPI POP DUP2 PUSH2 0x945 JUMP JUMPDEST DUP3 MLOAD ISZERO PUSH2 0xCD8 JUMPI DUP3 MLOAD DUP1 DUP5 PUSH1 0x20 ADD REVERT JUMPDEST DUP2 PUSH1 0x40 MLOAD PUSH3 0x461BCD PUSH1 0xE5 SHL DUP2 MSTORE PUSH1 0x4 ADD PUSH2 0x2D5 SWAP2 SWAP1 PUSH2 0xF17 JUMP JUMPDEST DUP1 CALLDATALOAD PUSH1 0x1 PUSH1 0x1 PUSH1 0xA0 SHL SUB DUP2 AND DUP2 EQ PUSH2 0x35A JUMPI PUSH1 0x0 DUP1 REVERT JUMPDEST PUSH1 0x0 PUSH1 0x20 DUP3 DUP5 SUB SLT ISZERO PUSH2 0xD1A JUMPI DUP1 DUP2 REVERT JUMPDEST PUSH2 0x945 DUP3 PUSH2 0xCF2 JUMP JUMPDEST PUSH1 0x0 DUP1 PUSH1 0x0 DUP1 PUSH1 0x0 DUP1 PUSH1 0x0 DUP1 PUSH1 0x0 DUP1 PUSH2 0x140 DUP12 DUP14 SUB SLT ISZERO PUSH2 0xD42 JUMPI DUP6 DUP7 REVERT JUMPDEST PUSH2 0xD4B DUP12 PUSH2 0xCF2 JUMP JUMPDEST SWAP10 POP PUSH2 0xD59 PUSH1 0x20 DUP13 ADD PUSH2 0xCF2 JUMP JUMPDEST SWAP9 POP PUSH2 0xD67 PUSH1 0x40 DUP13 ADD PUSH2 0xCF2 JUMP JUMPDEST SWAP10 SWAP13 SWAP9 SWAP12 POP SWAP9 SWAP10 PUSH1 0x60 DUP2 ADD CALLDATALOAD SWAP10 POP PUSH1 0x80 DUP2 ADD CALLDATALOAD SWAP9 PUSH1 0xA0 DUP3 ADD CALLDATALOAD SWAP9 POP PUSH1 0xC0 DUP3 ADD CALLDATALOAD SWAP8 POP PUSH1 0xE0 DUP3 ADD CALLDATALOAD SWAP7 POP PUSH2 0x100 DUP3 ADD CALLDATALOAD SWAP6 POP PUSH2 0x120 SWAP1 SWAP2 ADD CALLDATALOAD SWAP4 POP SWAP2 POP POP JUMP JUMPDEST PUSH1 0x0 PUSH1 0x20 DUP1 DUP4 DUP6 SUB SLT ISZERO PUSH2 0xDB8 JUMPI DUP2 DUP3 REVERT JUMPDEST DUP3 CALLDATALOAD PUSH8 0xFFFFFFFFFFFFFFFF DUP1 DUP3 GT ISZERO PUSH2 0xDCF JUMPI DUP4 DUP5 REVERT JUMPDEST DUP2 DUP6 ADD SWAP2 POP DUP6 PUSH1 0x1F DUP4 ADD SLT PUSH2 0xDE2 JUMPI DUP4 DUP5 REVERT JUMPDEST DUP2 CALLDATALOAD DUP2 DUP2 GT ISZERO PUSH2 0xDF4 JUMPI PUSH2 0xDF4 PUSH2 0x1339 JUMP JUMPDEST DUP4 DUP2 MUL PUSH1 0x40 MLOAD DUP6 DUP3 DUP3 ADD ADD DUP2 DUP2 LT DUP6 DUP3 GT OR ISZERO PUSH2 0xE13 JUMPI PUSH2 0xE13 PUSH2 0x1339 JUMP JUMPDEST PUSH1 0x40 MSTORE DUP3 DUP2 MSTORE DUP6 DUP2 ADD SWAP4 POP DUP5 DUP7 ADD DUP3 DUP7 ADD DUP8 ADD DUP11 LT ISZERO PUSH2 0xE31 JUMPI DUP8 DUP9 REVERT JUMPDEST DUP8 SWAP6 POP JUMPDEST DUP4 DUP7 LT ISZERO PUSH2 0xE5A JUMPI PUSH2 0xE46 DUP2 PUSH2 0xCF2 JUMP JUMPDEST DUP6 MSTORE PUSH1 0x1 SWAP6 SWAP1 SWAP6 ADD SWAP5 SWAP4 DUP7 ADD SWAP4 DUP7 ADD PUSH2 0xE35 JUMP JUMPDEST POP SWAP9 SWAP8 POP POP POP POP POP POP POP POP JUMP JUMPDEST PUSH1 0x0 PUSH1 0x20 DUP3 DUP5 SUB SLT ISZERO PUSH2 0xE78 JUMPI DUP1 DUP2 REVERT JUMPDEST DUP2 MLOAD DUP1 ISZERO ISZERO DUP2 EQ PUSH2 0x945 JUMPI DUP2 DUP3 REVERT JUMPDEST PUSH1 0x0 PUSH1 0x20 DUP3 DUP5 SUB SLT ISZERO PUSH2 0xE98 JUMPI DUP1 DUP2 REVERT JUMPDEST POP CALLDATALOAD SWAP2 SWAP1 POP JUMP JUMPDEST PUSH1 0x0 DUP3 MLOAD PUSH2 0xEB1 DUP2 DUP5 PUSH1 0x20 DUP8 ADD PUSH2 0x12DC JUMP JUMPDEST SWAP2 SWAP1 SWAP2 ADD SWAP3 SWAP2 POP POP JUMP JUMPDEST PUSH1 0x1 PUSH1 0x1 PUSH1 0xA0 SHL SUB SWAP2 SWAP1 SWAP2 AND DUP2 MSTORE PUSH1 0x20 ADD SWAP1 JUMP JUMPDEST PUSH1 0x1 PUSH1 0x1 PUSH1 0xA0 SHL SUB SWAP4 DUP5 AND DUP2 MSTORE SWAP2 SWAP1 SWAP3 AND PUSH1 0x20 DUP3 ADD MSTORE PUSH1 0x40 DUP2 ADD SWAP2 SWAP1 SWAP2 MSTORE PUSH1 0x60 ADD SWAP1 JUMP JUMPDEST PUSH1 0x1 PUSH1 0x1 PUSH1 0xA0 SHL SUB SWAP3 SWAP1 SWAP3 AND DUP3 MSTORE PUSH1 0x20 DUP3 ADD MSTORE PUSH1 0x40 ADD SWAP1 JUMP JUMPDEST SWAP1 ISZERO ISZERO DUP2 MSTORE PUSH1 0x20 ADD SWAP1 JUMP JUMPDEST PUSH1 0x0 PUSH1 0x20 DUP3 MSTORE DUP3 MLOAD DUP1 PUSH1 0x20 DUP5 ADD MSTORE PUSH2 0xF36 DUP2 PUSH1 0x40 DUP6 ADD PUSH1 0x20 DUP8 ADD PUSH2 0x12DC JUMP JUMPDEST PUSH1 0x1F ADD PUSH1 0x1F NOT AND SWAP2 SWAP1 SWAP2 ADD PUSH1 0x40 ADD SWAP3 SWAP2 POP POP JUMP JUMPDEST PUSH1 0x20 DUP1 DUP3 MSTORE PUSH1 0xB SWAP1 DUP3 ADD MSTORE PUSH11 0x139BDD081CDD185C9D1959 PUSH1 0xAA SHL PUSH1 0x40 DUP3 ADD MSTORE PUSH1 0x60 ADD SWAP1 JUMP JUMPDEST PUSH1 0x20 DUP1 DUP3 MSTORE PUSH1 0x26 SWAP1 DUP3 ADD MSTORE PUSH32 0x4F776E61626C653A206E6577206F776E657220697320746865207A65726F2061 PUSH1 0x40 DUP3 ADD MSTORE PUSH6 0x646472657373 PUSH1 0xD0 SHL PUSH1 0x60 DUP3 ADD MSTORE PUSH1 0x80 ADD SWAP1 JUMP JUMPDEST PUSH1 0x20 DUP1 DUP3 MSTORE PUSH1 0x26 SWAP1 DUP3 ADD MSTORE PUSH32 0x416464726573733A20696E73756666696369656E742062616C616E636520666F PUSH1 0x40 DUP3 ADD MSTORE PUSH6 0x1C8818D85B1B PUSH1 0xD2 SHL PUSH1 0x60 DUP3 ADD MSTORE PUSH1 0x80 ADD SWAP1 JUMP JUMPDEST PUSH1 0x20 DUP1 DUP3 MSTORE PUSH1 0x14 SWAP1 DUP3 ADD MSTORE PUSH20 0x105B1C9958591E481C185C9D1A58DA5C185D1959 PUSH1 0x62 SHL PUSH1 0x40 DUP3 ADD MSTORE PUSH1 0x60 ADD SWAP1 JUMP JUMPDEST PUSH1 0x20 DUP1 DUP3 MSTORE PUSH1 0x9 SWAP1 DUP3 ADD MSTORE PUSH9 0x29B0B6329037BB32B9 PUSH1 0xB9 SHL PUSH1 0x40 DUP3 ADD MSTORE PUSH1 0x60 ADD SWAP1 JUMP JUMPDEST PUSH1 0x20 DUP1 DUP3 MSTORE PUSH1 0xF SWAP1 DUP3 ADD MSTORE PUSH15 0x139BDD081DDA1A5D195B1A5CDD1959 PUSH1 0x8A SHL PUSH1 0x40 DUP3 ADD MSTORE PUSH1 0x60 ADD SWAP1 JUMP JUMPDEST PUSH1 0x20 DUP1 DUP3 MSTORE PUSH1 0x29 SWAP1 DUP3 ADD MSTORE PUSH32 0x54686520616D6F756E7420656E746572656420657863656564732046756E6472 PUSH1 0x40 DUP3 ADD MSTORE PUSH9 0x185A5CD94811DBD85B PUSH1 0xBA SHL PUSH1 0x60 DUP3 ADD MSTORE PUSH1 0x80 ADD SWAP1 JUMP JUMPDEST PUSH1 0x20 DUP1 DUP3 MSTORE PUSH1 0x2E SWAP1 DUP3 ADD MSTORE PUSH32 0x496E697469616C697A61626C653A20636F6E747261637420697320616C726561 PUSH1 0x40 DUP3 ADD MSTORE PUSH14 0x191E481A5B9A5D1A585B1A5E9959 PUSH1 0x92 SHL PUSH1 0x60 DUP3 ADD MSTORE PUSH1 0x80 ADD SWAP1 JUMP JUMPDEST PUSH1 0x20 DUP1 DUP3 MSTORE DUP2 DUP2 ADD MSTORE PUSH32 0x4F776E61626C653A2063616C6C6572206973206E6F7420746865206F776E6572 PUSH1 0x40 DUP3 ADD MSTORE PUSH1 0x60 ADD SWAP1 JUMP JUMPDEST PUSH1 0x20 DUP1 DUP3 MSTORE PUSH1 0x12 SWAP1 DUP3 ADD MSTORE PUSH18 0x115E18D95959195908125113C81B1A5B5A5D PUSH1 0x72 SHL PUSH1 0x40 DUP3 ADD MSTORE PUSH1 0x60 ADD SWAP1 JUMP JUMPDEST PUSH1 0x20 DUP1 DUP3 MSTORE PUSH1 0x18 SWAP1 DUP3 ADD MSTORE PUSH32 0x42656C6F77206D696E696D756D20616C6C6F636174696F6E0000000000000000 PUSH1 0x40 DUP3 ADD MSTORE PUSH1 0x60 ADD SWAP1 JUMP JUMPDEST PUSH1 0x20 DUP1 DUP3 MSTORE PUSH1 0x1D SWAP1 DUP3 ADD MSTORE PUSH32 0x416464726573733A2063616C6C20746F206E6F6E2D636F6E7472616374000000 PUSH1 0x40 DUP3 ADD MSTORE PUSH1 0x60 ADD SWAP1 JUMP JUMPDEST PUSH1 0x20 DUP1 DUP3 MSTORE PUSH1 0x14 SWAP1 DUP3 ADD MSTORE PUSH20 0x26B7B932903A3430B71030B63637B1B0BA34B7B7 PUSH1 0x61 SHL PUSH1 0x40 DUP3 ADD MSTORE PUSH1 0x60 ADD SWAP1 JUMP JUMPDEST PUSH1 0x20 DUP1 DUP3 MSTORE PUSH1 0xF SWAP1 DUP3 ADD MSTORE PUSH15 0x139BDD081CDD185C9D1959081E595D PUSH1 0x8A SHL PUSH1 0x40 DUP3 ADD MSTORE PUSH1 0x60 ADD SWAP1 JUMP JUMPDEST PUSH1 0x20 DUP1 DUP3 MSTORE PUSH1 0x2A SWAP1 DUP3 ADD MSTORE PUSH32 0x5361666545524332303A204552433230206F7065726174696F6E20646964206E PUSH1 0x40 DUP3 ADD MSTORE PUSH10 0x1BDD081CDD58D8D95959 PUSH1 0xB2 SHL PUSH1 0x60 DUP3 ADD MSTORE PUSH1 0x80 ADD SWAP1 JUMP JUMPDEST SWAP1 DUP2 MSTORE PUSH1 0x20 ADD SWAP1 JUMP JUMPDEST PUSH1 0x0 DUP3 NOT DUP3 GT ISZERO PUSH2 0x1298 JUMPI PUSH2 0x1298 PUSH2 0x1323 JUMP JUMPDEST POP ADD SWAP1 JUMP JUMPDEST PUSH1 0x0 DUP3 PUSH2 0x12B8 JUMPI PUSH4 0x4E487B71 PUSH1 0xE0 SHL DUP2 MSTORE PUSH1 0x12 PUSH1 0x4 MSTORE PUSH1 0x24 DUP2 REVERT JUMPDEST POP DIV SWAP1 JUMP JUMPDEST PUSH1 0x0 DUP2 PUSH1 0x0 NOT DIV DUP4 GT DUP3 ISZERO ISZERO AND ISZERO PUSH2 0x12D7 JUMPI PUSH2 0x12D7 PUSH2 0x1323 JUMP JUMPDEST POP MUL SWAP1 JUMP JUMPDEST PUSH1 0x0 JUMPDEST DUP4 DUP2 LT ISZERO PUSH2 0x12F7 JUMPI DUP2 DUP2 ADD MLOAD DUP4 DUP3 ADD MSTORE PUSH1 0x20 ADD PUSH2 0x12DF JUMP JUMPDEST DUP4 DUP2 GT ISZERO PUSH2 0x9A4 JUMPI POP POP PUSH1 0x0 SWAP2 ADD MSTORE JUMP JUMPDEST PUSH1 0x0 PUSH1 0x0 NOT DUP3 EQ ISZERO PUSH2 0x131C JUMPI PUSH2 0x131C PUSH2 0x1323 JUMP JUMPDEST POP PUSH1 0x1 ADD SWAP1 JUMP JUMPDEST PUSH4 0x4E487B71 PUSH1 0xE0 SHL PUSH1 0x0 MSTORE PUSH1 0x11 PUSH1 0x4 MSTORE PUSH1 0x24 PUSH1 0x0 REVERT JUMPDEST PUSH4 0x4E487B71 PUSH1 0xE0 SHL PUSH1 0x0 MSTORE PUSH1 0x41 PUSH1 0x4 MSTORE PUSH1 0x24 PUSH1 0x0 REVERT INVALID LOG2 PUSH5 0x6970667358 0x22 SLT KECCAK256 SWAP9 SWAP11 0x5C GT DUP5 CODECOPY 0xB4 0x28 OR SWAP15 0xCB 0xDB 0x26 0x1F 0x27 PUSH5 0x7FEBA2F834 0xAE GAS 0xE8 PUSH15 0x6A176AC4F7435B64736F6C63430008 STOP STOP CALLER "
				},
				"gasEstimates": {
					"creation": {
						"codeDepositCost": "999400",
						"executionCost": "1041",
						"totalCost": "1000441"
					},
					"external": {
						"DAOAddress()": "1159",
						"SET(address,address,address,uint256,uint256,uint256,uint256,uint256,uint256,uint256)": "infinite",
						"alphaSEA()": "1093",
						"boughtSEA(address)": "1330",
						"calculateSaleQuote(uint256)": "infinite",
						"endTimestamp()": "1073",
						"initialize(address,address,address,uint256,uint256,uint256,uint256,uint256,uint256,uint256)": "infinite",
						"maxAmount()": "1095",
						"minAmount()": "1161",
						"owner()": "1181",
						"purchaseaSEA(uint256)": "infinite",
						"remainingPurchasesMaxAmt()": "1050",
						"renounceOwnership()": "23596",
						"salePrice()": "1138",
						"saleStarted()": "1085",
						"sellAmount()": "1140",
						"setStart()": "22082",
						"startTimestamp()": "1072",
						"toTalAmount()": "1051",
						"transferOwnership(address)": "23790",
						"usdc()": "1160",
						"whiteListBuyers(address[])": "infinite",
						"whiteListed(address)": "1396"
					},
					"internal": {
						"_calculateSaleQuote(uint256)": "infinite"
					}
				},
				"methodIdentifiers": {
					"DAOAddress()": "d392eab1",
					"SET(address,address,address,uint256,uint256,uint256,uint256,uint256,uint256,uint256)": "e3bef142",
					"alphaSEA()": "492cc4e3",
					"boughtSEA(address)": "ef8cdaa4",
					"calculateSaleQuote(uint256)": "2092c12b",
					"endTimestamp()": "a85adeab",
					"initialize(address,address,address,uint256,uint256,uint256,uint256,uint256,uint256,uint256)": "d45fc1a9",
					"maxAmount()": "5f48f393",
					"minAmount()": "9b2cb5d8",
					"owner()": "8da5cb5b",
					"purchaseaSEA(uint256)": "b2292994",
					"remainingPurchasesMaxAmt()": "e58bf43a",
					"renounceOwnership()": "715018a6",
					"salePrice()": "f51f96dd",
					"saleStarted()": "5c474f9e",
					"sellAmount()": "3f407b84",
					"setStart()": "35975a37",
					"startTimestamp()": "e6fd48bc",
					"toTalAmount()": "9e623ae4",
					"transferOwnership(address)": "f2fde38b",
					"usdc()": "3e413bee",
					"whiteListBuyers(address[])": "1eef7659",
					"whiteListed(address)": "fa0fca84"
				}
			},
			"storageLayout": {
				"storage": [
					{
						"astId": 130,
						"contract": "contracts/IDO/SEAPreSale.sol:SEAPreSale",
						"label": "_initialized",
						"offset": 0,
						"slot": "0",
						"type": "t_bool"
					},
					{
						"astId": 133,
						"contract": "contracts/IDO/SEAPreSale.sol:SEAPreSale",
						"label": "_initializing",
						"offset": 1,
						"slot": "0",
						"type": "t_bool"
					},
					{
						"astId": 760,
						"contract": "contracts/IDO/SEAPreSale.sol:SEAPreSale",
						"label": "__gap",
						"offset": 0,
						"slot": "1",
						"type": "t_array(t_uint256)50_storage"
					},
					{
						"astId": 10,
						"contract": "contracts/IDO/SEAPreSale.sol:SEAPreSale",
						"label": "_owner",
						"offset": 0,
						"slot": "51",
						"type": "t_address"
					},
					{
						"astId": 124,
						"contract": "contracts/IDO/SEAPreSale.sol:SEAPreSale",
						"label": "__gap",
						"offset": 0,
						"slot": "52",
						"type": "t_array(t_uint256)49_storage"
					},
					{
						"astId": 1093,
						"contract": "contracts/IDO/SEAPreSale.sol:SEAPreSale",
						"label": "alphaSEA",
						"offset": 0,
						"slot": "101",
						"type": "t_address"
					},
					{
						"astId": 1095,
						"contract": "contracts/IDO/SEAPreSale.sol:SEAPreSale",
						"label": "DAOAddress",
						"offset": 0,
						"slot": "102",
						"type": "t_address"
					},
					{
						"astId": 1097,
						"contract": "contracts/IDO/SEAPreSale.sol:SEAPreSale",
						"label": "usdc",
						"offset": 0,
						"slot": "103",
						"type": "t_address"
					},
					{
						"astId": 1099,
						"contract": "contracts/IDO/SEAPreSale.sol:SEAPreSale",
						"label": "minAmount",
						"offset": 0,
						"slot": "104",
						"type": "t_uint256"
					},
					{
						"astId": 1101,
						"contract": "contracts/IDO/SEAPreSale.sol:SEAPreSale",
						"label": "maxAmount",
						"offset": 0,
						"slot": "105",
						"type": "t_uint256"
					},
					{
						"astId": 1103,
						"contract": "contracts/IDO/SEAPreSale.sol:SEAPreSale",
						"label": "salePrice",
						"offset": 0,
						"slot": "106",
						"type": "t_uint256"
					},
					{
						"astId": 1105,
						"contract": "contracts/IDO/SEAPreSale.sol:SEAPreSale",
						"label": "startTimestamp",
						"offset": 0,
						"slot": "107",
						"type": "t_uint256"
					},
					{
						"astId": 1107,
						"contract": "contracts/IDO/SEAPreSale.sol:SEAPreSale",
						"label": "endTimestamp",
						"offset": 0,
						"slot": "108",
						"type": "t_uint256"
					},
					{
						"astId": 1109,
						"contract": "contracts/IDO/SEAPreSale.sol:SEAPreSale",
						"label": "toTalAmount",
						"offset": 0,
						"slot": "109",
						"type": "t_uint256"
					},
					{
						"astId": 1111,
						"contract": "contracts/IDO/SEAPreSale.sol:SEAPreSale",
						"label": "sellAmount",
						"offset": 0,
						"slot": "110",
						"type": "t_uint256"
					},
					{
						"astId": 1113,
						"contract": "contracts/IDO/SEAPreSale.sol:SEAPreSale",
						"label": "remainingPurchasesMaxAmt",
						"offset": 0,
						"slot": "111",
						"type": "t_uint256"
					},
					{
						"astId": 1115,
						"contract": "contracts/IDO/SEAPreSale.sol:SEAPreSale",
						"label": "saleStarted",
						"offset": 0,
						"slot": "112",
						"type": "t_bool"
					},
					{
						"astId": 1119,
						"contract": "contracts/IDO/SEAPreSale.sol:SEAPreSale",
						"label": "boughtSEA",
						"offset": 0,
						"slot": "113",
						"type": "t_mapping(t_address,t_bool)"
					},
					{
						"astId": 1123,
						"contract": "contracts/IDO/SEAPreSale.sol:SEAPreSale",
						"label": "whiteListed",
						"offset": 0,
						"slot": "114",
						"type": "t_mapping(t_address,t_bool)"
					}
				],
				"types": {
					"t_address": {
						"encoding": "inplace",
						"label": "address",
						"numberOfBytes": "20"
					},
					"t_array(t_uint256)49_storage": {
						"base": "t_uint256",
						"encoding": "inplace",
						"label": "uint256[49]",
						"numberOfBytes": "1568"
					},
					"t_array(t_uint256)50_storage": {
						"base": "t_uint256",
						"encoding": "inplace",
						"label": "uint256[50]",
						"numberOfBytes": "1600"
					},
					"t_bool": {
						"encoding": "inplace",
						"label": "bool",
						"numberOfBytes": "1"
					},
					"t_mapping(t_address,t_bool)": {
						"encoding": "mapping",
						"key": "t_address",
						"label": "mapping(address => bool)",
						"numberOfBytes": "32",
						"value": "t_bool"
					},
					"t_uint256": {
						"encoding": "inplace",
						"label": "uint256",
						"numberOfBytes": "32"
					}
				}
			},
			"userdoc": {
				"kind": "user",
				"methods": {},
				"version": 1
			}
		}
	}
}