{
	"contracts/IDO/AlphaSEAMigration.sol": {
		"aSEAMigration": {
			"abi": [
				{
					"anonymous": false,
					"inputs": [
						{
							"indexed": true,
							"internalType": "address",
							"name": "previousOwner",
							"type": "address"
						},
						{
							"indexed": true,
							"internalType": "address",
							"name": "newOwner",
							"type": "address"
						}
					],
					"name": "OwnershipTransferred",
					"type": "event"
				},
				{
					"inputs": [],
					"name": "SEA",
					"outputs": [
						{
							"internalType": "contract IERC20Upgradeable",
							"name": "",
							"type": "address"
						}
					],
					"stateMutability": "view",
					"type": "function"
				},
				{
					"inputs": [],
					"name": "aSEA",
					"outputs": [
						{
							"internalType": "contract IERC20Upgradeable",
							"name": "",
							"type": "address"
						}
					],
					"stateMutability": "view",
					"type": "function"
				},
				{
					"inputs": [],
					"name": "endTimestamp",
					"outputs": [
						{
							"internalType": "uint256",
							"name": "",
							"type": "uint256"
						}
					],
					"stateMutability": "view",
					"type": "function"
				},
				{
					"inputs": [
						{
							"internalType": "address",
							"name": "_SEA",
							"type": "address"
						},
						{
							"internalType": "address",
							"name": "_aSEA",
							"type": "address"
						},
						{
							"internalType": "uint256",
							"name": "_startTimestamp",
							"type": "uint256"
						},
						{
							"internalType": "uint256",
							"name": "_endTimestamp",
							"type": "uint256"
						}
					],
					"name": "initialize",
					"outputs": [],
					"stateMutability": "nonpayable",
					"type": "function"
				},
				{
					"inputs": [],
					"name": "isInitialized",
					"outputs": [
						{
							"internalType": "bool",
							"name": "",
							"type": "bool"
						}
					],
					"stateMutability": "view",
					"type": "function"
				},
				{
					"inputs": [],
					"name": "maxAmt",
					"outputs": [
						{
							"internalType": "uint256",
							"name": "",
							"type": "uint256"
						}
					],
					"stateMutability": "view",
					"type": "function"
				},
				{
					"inputs": [],
					"name": "migrate",
					"outputs": [],
					"stateMutability": "nonpayable",
					"type": "function"
				},
				{
					"inputs": [
						{
							"internalType": "bool",
							"name": "_bool",
							"type": "bool"
						}
					],
					"name": "open",
					"outputs": [],
					"stateMutability": "nonpayable",
					"type": "function"
				},
				{
					"inputs": [],
					"name": "owner",
					"outputs": [
						{
							"internalType": "address",
							"name": "",
							"type": "address"
						}
					],
					"stateMutability": "view",
					"type": "function"
				},
				{
					"inputs": [],
					"name": "renounceOwnership",
					"outputs": [],
					"stateMutability": "nonpayable",
					"type": "function"
				},
				{
					"inputs": [
						{
							"internalType": "address",
							"name": "",
							"type": "address"
						}
					],
					"name": "senderInfo",
					"outputs": [
						{
							"internalType": "uint256",
							"name": "",
							"type": "uint256"
						}
					],
					"stateMutability": "view",
					"type": "function"
				},
				{
					"inputs": [
						{
							"internalType": "uint256",
							"name": "val",
							"type": "uint256"
						}
					],
					"name": "setEndTimestamp",
					"outputs": [],
					"stateMutability": "nonpayable",
					"type": "function"
				},
				{
					"inputs": [
						{
							"internalType": "uint256",
							"name": "val",
							"type": "uint256"
						}
					],
					"name": "setMaxAmt",
					"outputs": [],
					"stateMutability": "nonpayable",
					"type": "function"
				},
				{
					"inputs": [
						{
							"internalType": "uint256",
							"name": "val",
							"type": "uint256"
						}
					],
					"name": "setStartTimestamp",
					"outputs": [],
					"stateMutability": "nonpayable",
					"type": "function"
				},
				{
					"inputs": [],
					"name": "startTimestamp",
					"outputs": [
						{
							"internalType": "uint256",
							"name": "",
							"type": "uint256"
						}
					],
					"stateMutability": "view",
					"type": "function"
				},
				{
					"inputs": [
						{
							"internalType": "address",
							"name": "newOwner",
							"type": "address"
						}
					],
					"name": "transferOwnership",
					"outputs": [],
					"stateMutability": "nonpayable",
					"type": "function"
				},
				{
					"inputs": [],
					"name": "withdraw",
					"outputs": [],
					"stateMutability": "nonpayable",
					"type": "function"
				}
			],
			"devdoc": {
				"kind": "dev",
				"methods": {
					"owner()": {
						"details": "Returns the address of the current owner."
					},
					"renounceOwnership()": {
						"details": "Leaves the contract without owner. It will not be possible to call `onlyOwner` functions anymore. Can only be called by the current owner. NOTE: Renouncing ownership will leave the contract without an owner, thereby removing any functionality that is only available to the owner."
					},
					"transferOwnership(address)": {
						"details": "Transfers ownership of the contract to a new account (`newOwner`). Can only be called by the current owner."
					}
				},
				"version": 1
			},
			"evm": {
				"assembly": "    /* \"contracts/IDO/AlphaSEAMigration.sol\":459:2981  contract aSEAMigration is Initializable, OwnableUpgradeable {... */\n  mstore(0x40, 0x80)\n  callvalue\n  dup1\n  iszero\n  tag_1\n  jumpi\n  0x00\n  dup1\n  revert\ntag_1:\n  pop\n  dataSize(sub_0)\n  dup1\n  dataOffset(sub_0)\n  0x00\n  codecopy\n  0x00\n  return\nstop\n\nsub_0: assembly {\n        /* \"contracts/IDO/AlphaSEAMigration.sol\":459:2981  contract aSEAMigration is Initializable, OwnableUpgradeable {... */\n      mstore(0x40, 0x80)\n      callvalue\n      dup1\n      iszero\n      tag_1\n      jumpi\n      0x00\n      dup1\n      revert\n    tag_1:\n      pop\n      jumpi(tag_2, lt(calldatasize, 0x04))\n      shr(0xe0, calldataload(0x00))\n      dup1\n      0xa6dd4c66\n      gt\n      tag_20\n      jumpi\n      dup1\n      0xe6fd48bc\n      gt\n      tag_21\n      jumpi\n      dup1\n      0xe6fd48bc\n      eq\n      tag_15\n      jumpi\n      dup1\n      0xeb990c59\n      eq\n      tag_16\n      jumpi\n      dup1\n      0xf019e2b2\n      eq\n      tag_17\n      jumpi\n      dup1\n      0xf2fde38b\n      eq\n      tag_18\n      jumpi\n      dup1\n      0xff257dad\n      eq\n      tag_19\n      jumpi\n      jump(tag_2)\n    tag_21:\n      dup1\n      0xa6dd4c66\n      eq\n      tag_11\n      jumpi\n      dup1\n      0xa85717d3\n      eq\n      tag_12\n      jumpi\n      dup1\n      0xa85adeab\n      eq\n      tag_13\n      jumpi\n      dup1\n      0xc44bef75\n      eq\n      tag_14\n      jumpi\n      jump(tag_2)\n    tag_20:\n      dup1\n      0x715018a6\n      gt\n      tag_22\n      jumpi\n      dup1\n      0x715018a6\n      eq\n      tag_7\n      jumpi\n      dup1\n      0x7df6a6c8\n      eq\n      tag_8\n      jumpi\n      dup1\n      0x8da5cb5b\n      eq\n      tag_9\n      jumpi\n      dup1\n      0x8fd3ab80\n      eq\n      tag_10\n      jumpi\n      jump(tag_2)\n    tag_22:\n      dup1\n      0x392e53cd\n      eq\n      tag_3\n      jumpi\n      dup1\n      0x3ccfd60b\n      eq\n      tag_4\n      jumpi\n      dup1\n      0x5294385b\n      eq\n      tag_5\n      jumpi\n      dup1\n      0x5d2b6a0c\n      eq\n      tag_6\n      jumpi\n    tag_2:\n      0x00\n      dup1\n      revert\n        /* \"contracts/IDO/AlphaSEAMigration.sol\":790:815  bool public isInitialized */\n    tag_3:\n      tag_23\n      tag_24\n      jump\t// in\n    tag_23:\n      mload(0x40)\n      tag_25\n      swap2\n      swap1\n      tag_26\n      jump\t// in\n    tag_25:\n      mload(0x40)\n      dup1\n      swap2\n      sub\n      swap1\n      return\n        /* \"contracts/IDO/AlphaSEAMigration.sol\":2432:2693  function withdraw() external onlyOwner {... */\n    tag_4:\n      tag_27\n      tag_28\n      jump\t// in\n    tag_27:\n      stop\n        /* \"contracts/IDO/AlphaSEAMigration.sol\":2899:2979  function setMaxAmt(uint256 val) external onlyOwner {... */\n    tag_5:\n      tag_27\n      tag_30\n      calldatasize\n      0x04\n      tag_31\n      jump\t// in\n    tag_30:\n      tag_32\n      jump\t// in\n        /* \"contracts/IDO/AlphaSEAMigration.sol\":754:783  IERC20Upgradeable public aSEA */\n    tag_6:\n      tag_33\n      tag_34\n      jump\t// in\n    tag_33:\n      mload(0x40)\n      tag_25\n      swap2\n      swap1\n      tag_45\n      jump\t// in\n        /* \"@openzeppelin/contracts-upgradeable/access/OwnableUpgradeable.sol\":1934:2035  function renounceOwnership() public virtual onlyOwner {... */\n    tag_7:\n      tag_27\n      tag_38\n      jump\t// in\n        /* \"contracts/IDO/AlphaSEAMigration.sol\":2699:2791  function setEndTimestamp(uint256 val) external onlyOwner {... */\n    tag_8:\n      tag_27\n      tag_40\n      calldatasize\n      0x04\n      tag_31\n      jump\t// in\n    tag_40:\n      tag_41\n      jump\t// in\n        /* \"@openzeppelin/contracts-upgradeable/access/OwnableUpgradeable.sol\":1302:1387  function owner() public view virtual returns (address) {... */\n    tag_9:\n      tag_33\n      tag_43\n      jump\t// in\n        /* \"contracts/IDO/AlphaSEAMigration.sol\":1586:2079  function migrate() external onlyInitialized {... */\n    tag_10:\n      tag_27\n      tag_47\n      jump\t// in\n        /* \"contracts/IDO/AlphaSEAMigration.sol\":822:867  mapping(address => uint256) public senderInfo */\n    tag_11:\n      tag_48\n      tag_49\n      calldatasize\n      0x04\n      tag_50\n      jump\t// in\n    tag_49:\n      tag_51\n      jump\t// in\n    tag_48:\n      mload(0x40)\n      tag_25\n      swap2\n      swap1\n      tag_53\n      jump\t// in\n        /* \"contracts/IDO/AlphaSEAMigration.sol\":1497:1580  function open(bool _bool) external onlyOwner {... */\n    tag_12:\n      tag_27\n      tag_55\n      calldatasize\n      0x04\n      tag_56\n      jump\t// in\n    tag_55:\n      tag_57\n      jump\t// in\n        /* \"contracts/IDO/AlphaSEAMigration.sol\":623:650  uint256 public endTimestamp */\n    tag_13:\n      tag_48\n      tag_59\n      jump\t// in\n        /* \"contracts/IDO/AlphaSEAMigration.sol\":2797:2893  function setStartTimestamp(uint256 val) external onlyOwner {... */\n    tag_14:\n      tag_27\n      tag_62\n      calldatasize\n      0x04\n      tag_31\n      jump\t// in\n    tag_62:\n      tag_63\n      jump\t// in\n        /* \"contracts/IDO/AlphaSEAMigration.sol\":656:685  uint256 public startTimestamp */\n    tag_15:\n      tag_48\n      tag_65\n      jump\t// in\n        /* \"contracts/IDO/AlphaSEAMigration.sol\":1082:1491  function initialize(... */\n    tag_16:\n      tag_27\n      tag_68\n      calldatasize\n      0x04\n      tag_69\n      jump\t// in\n    tag_68:\n      tag_70\n      jump\t// in\n        /* \"contracts/IDO/AlphaSEAMigration.sol\":692:713  uint256 public maxAmt */\n    tag_17:\n      tag_48\n      tag_72\n      jump\t// in\n        /* \"@openzeppelin/contracts-upgradeable/access/OwnableUpgradeable.sol\":2184:2382  function transferOwnership(address newOwner) public virtual onlyOwner {... */\n    tag_18:\n      tag_27\n      tag_75\n      calldatasize\n      0x04\n      tag_50\n      jump\t// in\n    tag_75:\n      tag_76\n      jump\t// in\n        /* \"contracts/IDO/AlphaSEAMigration.sol\":720:748  IERC20Upgradeable public SEA */\n    tag_19:\n      tag_33\n      tag_78\n      jump\t// in\n        /* \"contracts/IDO/AlphaSEAMigration.sol\":790:815  bool public isInitialized */\n    tag_24:\n      sload(0x69)\n      shl(0xa0, 0x01)\n      swap1\n      div\n      0xff\n      and\n      dup2\n      jump\t// out\n        /* \"contracts/IDO/AlphaSEAMigration.sol\":2432:2693  function withdraw() external onlyOwner {... */\n    tag_28:\n        /* \"@openzeppelin/contracts-upgradeable/access/OwnableUpgradeable.sol\":1525:1537  _msgSender() */\n      tag_81\n        /* \"@openzeppelin/contracts-upgradeable/access/OwnableUpgradeable.sol\":1525:1535  _msgSender */\n      tag_82\n        /* \"@openzeppelin/contracts-upgradeable/access/OwnableUpgradeable.sol\":1525:1537  _msgSender() */\n      jump\t// in\n    tag_81:\n      sub(shl(0xa0, 0x01), 0x01)\n        /* \"@openzeppelin/contracts-upgradeable/access/OwnableUpgradeable.sol\":1514:1537  owner() == _msgSender() */\n      and\n        /* \"@openzeppelin/contracts-upgradeable/access/OwnableUpgradeable.sol\":1514:1521  owner() */\n      tag_83\n        /* \"@openzeppelin/contracts-upgradeable/access/OwnableUpgradeable.sol\":1514:1519  owner */\n      tag_43\n        /* \"@openzeppelin/contracts-upgradeable/access/OwnableUpgradeable.sol\":1514:1521  owner() */\n      jump\t// in\n    tag_83:\n      sub(shl(0xa0, 0x01), 0x01)\n        /* \"@openzeppelin/contracts-upgradeable/access/OwnableUpgradeable.sol\":1514:1537  owner() == _msgSender() */\n      and\n      eq\n        /* \"@openzeppelin/contracts-upgradeable/access/OwnableUpgradeable.sol\":1506:1574  require(owner() == _msgSender(), \"Ownable: caller is not the owner\") */\n      tag_84\n      jumpi\n      mload(0x40)\n      shl(0xe5, 0x461bcd)\n      dup2\n      mstore\n      0x04\n      add\n      tag_85\n      swap1\n      tag_86\n      jump\t// in\n    tag_85:\n      mload(0x40)\n      dup1\n      swap2\n      sub\n      swap1\n      revert\n    tag_84:\n        /* \"contracts/IDO/AlphaSEAMigration.sol\":2520:2532  endTimestamp */\n      sload(0x65)\n        /* \"contracts/IDO/AlphaSEAMigration.sol\":2502:2517  block.timestamp */\n      timestamp\n        /* \"contracts/IDO/AlphaSEAMigration.sol\":2502:2532  block.timestamp > endTimestamp */\n      gt\n        /* \"contracts/IDO/AlphaSEAMigration.sol\":2481:2588  require(... */\n      tag_88\n      jumpi\n      mload(0x40)\n      shl(0xe5, 0x461bcd)\n      dup2\n      mstore\n      0x04\n      add\n      tag_85\n      swap1\n      tag_90\n      jump\t// in\n    tag_88:\n        /* \"contracts/IDO/AlphaSEAMigration.sol\":2615:2618  SEA */\n      sload(0x68)\n        /* \"contracts/IDO/AlphaSEAMigration.sol\":2615:2643  SEA.balanceOf(address(this)) */\n      mload(0x40)\n      shl(0xe0, 0x70a08231)\n      dup2\n      mstore\n        /* \"contracts/IDO/AlphaSEAMigration.sol\":2598:2612  uint256 amount */\n      0x00\n      swap2\n      sub(shl(0xa0, 0x01), 0x01)\n        /* \"contracts/IDO/AlphaSEAMigration.sol\":2615:2618  SEA */\n      and\n      swap1\n        /* \"contracts/IDO/AlphaSEAMigration.sol\":2615:2628  SEA.balanceOf */\n      0x70a08231\n      swap1\n        /* \"contracts/IDO/AlphaSEAMigration.sol\":2615:2643  SEA.balanceOf(address(this)) */\n      tag_91\n      swap1\n        /* \"contracts/IDO/AlphaSEAMigration.sol\":2637:2641  this */\n      address\n      swap1\n        /* \"contracts/IDO/AlphaSEAMigration.sol\":2615:2643  SEA.balanceOf(address(this)) */\n      0x04\n      add\n      tag_45\n      jump\t// in\n    tag_91:\n      0x20\n      mload(0x40)\n      dup1\n      dup4\n      sub\n      dup2\n      dup7\n      dup1\n      extcodesize\n      iszero\n      dup1\n      iszero\n      tag_92\n      jumpi\n      0x00\n      dup1\n      revert\n    tag_92:\n      pop\n      gas\n      staticcall\n      iszero\n      dup1\n      iszero\n      tag_94\n      jumpi\n      returndatasize\n      0x00\n      dup1\n      returndatacopy\n      revert(0x00, returndatasize)\n    tag_94:\n      pop\n      pop\n      pop\n      pop\n      mload(0x40)\n      returndatasize\n      not(0x1f)\n      0x1f\n      dup3\n      add\n      and\n      dup3\n      add\n      dup1\n      0x40\n      mstore\n      pop\n      dup2\n      add\n      swap1\n      tag_95\n      swap2\n      swap1\n      tag_96\n      jump\t// in\n    tag_95:\n        /* \"contracts/IDO/AlphaSEAMigration.sol\":2654:2657  SEA */\n      sload(0x68)\n        /* \"contracts/IDO/AlphaSEAMigration.sol\":2654:2686  SEA.transfer(msg.sender, amount) */\n      mload(0x40)\n      shl(0xe0, 0xa9059cbb)\n      dup2\n      mstore\n        /* \"contracts/IDO/AlphaSEAMigration.sol\":2598:2643  uint256 amount = SEA.balanceOf(address(this)) */\n      swap2\n      swap3\n      pop\n      sub(shl(0xa0, 0x01), 0x01)\n        /* \"contracts/IDO/AlphaSEAMigration.sol\":2654:2657  SEA */\n      and\n      swap1\n        /* \"contracts/IDO/AlphaSEAMigration.sol\":2654:2666  SEA.transfer */\n      0xa9059cbb\n      swap1\n        /* \"contracts/IDO/AlphaSEAMigration.sol\":2654:2686  SEA.transfer(msg.sender, amount) */\n      tag_97\n      swap1\n        /* \"contracts/IDO/AlphaSEAMigration.sol\":2667:2677  msg.sender */\n      caller\n      swap1\n        /* \"contracts/IDO/AlphaSEAMigration.sol\":2598:2643  uint256 amount = SEA.balanceOf(address(this)) */\n      dup6\n      swap1\n        /* \"contracts/IDO/AlphaSEAMigration.sol\":2654:2686  SEA.transfer(msg.sender, amount) */\n      0x04\n      add\n      tag_98\n      jump\t// in\n    tag_97:\n      0x20\n      mload(0x40)\n      dup1\n      dup4\n      sub\n      dup2\n      0x00\n      dup8\n      dup1\n      extcodesize\n      iszero\n      dup1\n      iszero\n      tag_99\n      jumpi\n      0x00\n      dup1\n      revert\n    tag_99:\n      pop\n      gas\n      call\n      iszero\n      dup1\n      iszero\n      tag_101\n      jumpi\n      returndatasize\n      0x00\n      dup1\n      returndatacopy\n      revert(0x00, returndatasize)\n    tag_101:\n      pop\n      pop\n      pop\n      pop\n      mload(0x40)\n      returndatasize\n      not(0x1f)\n      0x1f\n      dup3\n      add\n      and\n      dup3\n      add\n      dup1\n      0x40\n      mstore\n      pop\n      dup2\n      add\n      swap1\n      tag_102\n      swap2\n      swap1\n      tag_103\n      jump\t// in\n    tag_102:\n      pop\n        /* \"@openzeppelin/contracts-upgradeable/access/OwnableUpgradeable.sol\":1584:1585  _ */\n      pop\n        /* \"contracts/IDO/AlphaSEAMigration.sol\":2432:2693  function withdraw() external onlyOwner {... */\n      jump\t// out\n        /* \"contracts/IDO/AlphaSEAMigration.sol\":2899:2979  function setMaxAmt(uint256 val) external onlyOwner {... */\n    tag_32:\n        /* \"@openzeppelin/contracts-upgradeable/access/OwnableUpgradeable.sol\":1525:1537  _msgSender() */\n      tag_105\n        /* \"@openzeppelin/contracts-upgradeable/access/OwnableUpgradeable.sol\":1525:1535  _msgSender */\n      tag_82\n        /* \"@openzeppelin/contracts-upgradeable/access/OwnableUpgradeable.sol\":1525:1537  _msgSender() */\n      jump\t// in\n    tag_105:\n      sub(shl(0xa0, 0x01), 0x01)\n        /* \"@openzeppelin/contracts-upgradeable/access/OwnableUpgradeable.sol\":1514:1537  owner() == _msgSender() */\n      and\n        /* \"@openzeppelin/contracts-upgradeable/access/OwnableUpgradeable.sol\":1514:1521  owner() */\n      tag_106\n        /* \"@openzeppelin/contracts-upgradeable/access/OwnableUpgradeable.sol\":1514:1519  owner */\n      tag_43\n        /* \"@openzeppelin/contracts-upgradeable/access/OwnableUpgradeable.sol\":1514:1521  owner() */\n      jump\t// in\n    tag_106:\n      sub(shl(0xa0, 0x01), 0x01)\n        /* \"@openzeppelin/contracts-upgradeable/access/OwnableUpgradeable.sol\":1514:1537  owner() == _msgSender() */\n      and\n      eq\n        /* \"@openzeppelin/contracts-upgradeable/access/OwnableUpgradeable.sol\":1506:1574  require(owner() == _msgSender(), \"Ownable: caller is not the owner\") */\n      tag_107\n      jumpi\n      mload(0x40)\n      shl(0xe5, 0x461bcd)\n      dup2\n      mstore\n      0x04\n      add\n      tag_85\n      swap1\n      tag_86\n      jump\t// in\n    tag_107:\n        /* \"contracts/IDO/AlphaSEAMigration.sol\":2960:2966  maxAmt */\n      0x67\n        /* \"contracts/IDO/AlphaSEAMigration.sol\":2960:2972  maxAmt = val */\n      sstore\n        /* \"contracts/IDO/AlphaSEAMigration.sol\":2899:2979  function setMaxAmt(uint256 val) external onlyOwner {... */\n      jump\t// out\n        /* \"contracts/IDO/AlphaSEAMigration.sol\":754:783  IERC20Upgradeable public aSEA */\n    tag_34:\n      and(sub(shl(0xa0, 0x01), 0x01), sload(0x69))\n      dup2\n      jump\t// out\n        /* \"@openzeppelin/contracts-upgradeable/access/OwnableUpgradeable.sol\":1934:2035  function renounceOwnership() public virtual onlyOwner {... */\n    tag_38:\n        /* \"@openzeppelin/contracts-upgradeable/access/OwnableUpgradeable.sol\":1525:1537  _msgSender() */\n      tag_111\n        /* \"@openzeppelin/contracts-upgradeable/access/OwnableUpgradeable.sol\":1525:1535  _msgSender */\n      tag_82\n        /* \"@openzeppelin/contracts-upgradeable/access/OwnableUpgradeable.sol\":1525:1537  _msgSender() */\n      jump\t// in\n    tag_111:\n      sub(shl(0xa0, 0x01), 0x01)\n        /* \"@openzeppelin/contracts-upgradeable/access/OwnableUpgradeable.sol\":1514:1537  owner() == _msgSender() */\n      and\n        /* \"@openzeppelin/contracts-upgradeable/access/OwnableUpgradeable.sol\":1514:1521  owner() */\n      tag_112\n        /* \"@openzeppelin/contracts-upgradeable/access/OwnableUpgradeable.sol\":1514:1519  owner */\n      tag_43\n        /* \"@openzeppelin/contracts-upgradeable/access/OwnableUpgradeable.sol\":1514:1521  owner() */\n      jump\t// in\n    tag_112:\n      sub(shl(0xa0, 0x01), 0x01)\n        /* \"@openzeppelin/contracts-upgradeable/access/OwnableUpgradeable.sol\":1514:1537  owner() == _msgSender() */\n      and\n      eq\n        /* \"@openzeppelin/contracts-upgradeable/access/OwnableUpgradeable.sol\":1506:1574  require(owner() == _msgSender(), \"Ownable: caller is not the owner\") */\n      tag_113\n      jumpi\n      mload(0x40)\n      shl(0xe5, 0x461bcd)\n      dup2\n      mstore\n      0x04\n      add\n      tag_85\n      swap1\n      tag_86\n      jump\t// in\n    tag_113:\n        /* \"@openzeppelin/contracts-upgradeable/access/OwnableUpgradeable.sol\":1998:2028  _transferOwnership(address(0)) */\n      tag_116\n        /* \"@openzeppelin/contracts-upgradeable/access/OwnableUpgradeable.sol\":2025:2026  0 */\n      0x00\n        /* \"@openzeppelin/contracts-upgradeable/access/OwnableUpgradeable.sol\":1998:2016  _transferOwnership */\n      tag_117\n        /* \"@openzeppelin/contracts-upgradeable/access/OwnableUpgradeable.sol\":1998:2028  _transferOwnership(address(0)) */\n      jump\t// in\n    tag_116:\n        /* \"@openzeppelin/contracts-upgradeable/access/OwnableUpgradeable.sol\":1934:2035  function renounceOwnership() public virtual onlyOwner {... */\n      jump\t// out\n        /* \"contracts/IDO/AlphaSEAMigration.sol\":2699:2791  function setEndTimestamp(uint256 val) external onlyOwner {... */\n    tag_41:\n        /* \"@openzeppelin/contracts-upgradeable/access/OwnableUpgradeable.sol\":1525:1537  _msgSender() */\n      tag_119\n        /* \"@openzeppelin/contracts-upgradeable/access/OwnableUpgradeable.sol\":1525:1535  _msgSender */\n      tag_82\n        /* \"@openzeppelin/contracts-upgradeable/access/OwnableUpgradeable.sol\":1525:1537  _msgSender() */\n      jump\t// in\n    tag_119:\n      sub(shl(0xa0, 0x01), 0x01)\n        /* \"@openzeppelin/contracts-upgradeable/access/OwnableUpgradeable.sol\":1514:1537  owner() == _msgSender() */\n      and\n        /* \"@openzeppelin/contracts-upgradeable/access/OwnableUpgradeable.sol\":1514:1521  owner() */\n      tag_120\n        /* \"@openzeppelin/contracts-upgradeable/access/OwnableUpgradeable.sol\":1514:1519  owner */\n      tag_43\n        /* \"@openzeppelin/contracts-upgradeable/access/OwnableUpgradeable.sol\":1514:1521  owner() */\n      jump\t// in\n    tag_120:\n      sub(shl(0xa0, 0x01), 0x01)\n        /* \"@openzeppelin/contracts-upgradeable/access/OwnableUpgradeable.sol\":1514:1537  owner() == _msgSender() */\n      and\n      eq\n        /* \"@openzeppelin/contracts-upgradeable/access/OwnableUpgradeable.sol\":1506:1574  require(owner() == _msgSender(), \"Ownable: caller is not the owner\") */\n      tag_121\n      jumpi\n      mload(0x40)\n      shl(0xe5, 0x461bcd)\n      dup2\n      mstore\n      0x04\n      add\n      tag_85\n      swap1\n      tag_86\n      jump\t// in\n    tag_121:\n        /* \"contracts/IDO/AlphaSEAMigration.sol\":2766:2778  endTimestamp */\n      0x65\n        /* \"contracts/IDO/AlphaSEAMigration.sol\":2766:2784  endTimestamp = val */\n      sstore\n        /* \"contracts/IDO/AlphaSEAMigration.sol\":2699:2791  function setEndTimestamp(uint256 val) external onlyOwner {... */\n      jump\t// out\n        /* \"@openzeppelin/contracts-upgradeable/access/OwnableUpgradeable.sol\":1302:1387  function owner() public view virtual returns (address) {... */\n    tag_43:\n        /* \"@openzeppelin/contracts-upgradeable/access/OwnableUpgradeable.sol\":1374:1380  _owner */\n      and(sub(shl(0xa0, 0x01), 0x01), sload(0x33))\n        /* \"@openzeppelin/contracts-upgradeable/access/OwnableUpgradeable.sol\":1302:1387  function owner() public view virtual returns (address) {... */\n      swap1\n      jump\t// out\n        /* \"contracts/IDO/AlphaSEAMigration.sol\":1586:2079  function migrate() external onlyInitialized {... */\n    tag_47:\n        /* \"contracts/IDO/AlphaSEAMigration.sol\":919:932  isInitialized */\n      sload(0x69)\n      shl(0xa0, 0x01)\n      swap1\n      div\n      0xff\n      and\n        /* \"contracts/IDO/AlphaSEAMigration.sol\":911:952  require(isInitialized, \"not initialized\") */\n      tag_126\n      jumpi\n      mload(0x40)\n      shl(0xe5, 0x461bcd)\n      dup2\n      mstore\n      0x04\n      add\n      tag_85\n      swap1\n      tag_128\n      jump\t// in\n    tag_126:\n        /* \"contracts/IDO/AlphaSEAMigration.sol\":1657:1661  aSEA */\n      sload(0x69)\n        /* \"contracts/IDO/AlphaSEAMigration.sol\":1657:1683  aSEA.balanceOf(msg.sender) */\n      mload(0x40)\n      shl(0xe0, 0x70a08231)\n      dup2\n      mstore\n        /* \"contracts/IDO/AlphaSEAMigration.sol\":1640:1654  uint256 amount */\n      0x00\n      swap2\n      sub(shl(0xa0, 0x01), 0x01)\n        /* \"contracts/IDO/AlphaSEAMigration.sol\":1657:1661  aSEA */\n      and\n      swap1\n        /* \"contracts/IDO/AlphaSEAMigration.sol\":1657:1671  aSEA.balanceOf */\n      0x70a08231\n      swap1\n        /* \"contracts/IDO/AlphaSEAMigration.sol\":1657:1683  aSEA.balanceOf(msg.sender) */\n      tag_130\n      swap1\n        /* \"contracts/IDO/AlphaSEAMigration.sol\":1672:1682  msg.sender */\n      caller\n      swap1\n        /* \"contracts/IDO/AlphaSEAMigration.sol\":1657:1683  aSEA.balanceOf(msg.sender) */\n      0x04\n      add\n      tag_45\n      jump\t// in\n    tag_130:\n      0x20\n      mload(0x40)\n      dup1\n      dup4\n      sub\n      dup2\n      dup7\n      dup1\n      extcodesize\n      iszero\n      dup1\n      iszero\n      tag_131\n      jumpi\n      0x00\n      dup1\n      revert\n    tag_131:\n      pop\n      gas\n      staticcall\n      iszero\n      dup1\n      iszero\n      tag_133\n      jumpi\n      returndatasize\n      0x00\n      dup1\n      returndatacopy\n      revert(0x00, returndatasize)\n    tag_133:\n      pop\n      pop\n      pop\n      pop\n      mload(0x40)\n      returndatasize\n      not(0x1f)\n      0x1f\n      dup3\n      add\n      and\n      dup3\n      add\n      dup1\n      0x40\n      mstore\n      pop\n      dup2\n      add\n      swap1\n      tag_134\n      swap2\n      swap1\n      tag_96\n      jump\t// in\n    tag_134:\n        /* \"contracts/IDO/AlphaSEAMigration.sol\":1640:1683  uint256 amount = aSEA.balanceOf(msg.sender) */\n      swap1\n      pop\n        /* \"contracts/IDO/AlphaSEAMigration.sol\":1711:1717  maxAmt */\n      sload(0x67)\n        /* \"contracts/IDO/AlphaSEAMigration.sol\":1701:1707  amount */\n      dup2\n        /* \"contracts/IDO/AlphaSEAMigration.sol\":1701:1717  amount <= maxAmt */\n      gt\n      iszero\n        /* \"contracts/IDO/AlphaSEAMigration.sol\":1693:1749  require(amount <= maxAmt, \"Exceed the specified amount\") */\n      tag_135\n      jumpi\n      mload(0x40)\n      shl(0xe5, 0x461bcd)\n      dup2\n      mstore\n      0x04\n      add\n      tag_85\n      swap1\n      tag_137\n      jump\t// in\n    tag_135:\n        /* \"contracts/IDO/AlphaSEAMigration.sol\":1784:1799  block.timestamp */\n      timestamp\n        /* \"contracts/IDO/AlphaSEAMigration.sol\":1767:1781  startTimestamp */\n      sload(0x66)\n        /* \"contracts/IDO/AlphaSEAMigration.sol\":1767:1799  startTimestamp < block.timestamp */\n      lt\n        /* \"contracts/IDO/AlphaSEAMigration.sol\":1759:1819  require(startTimestamp < block.timestamp, \"Not started yet\") */\n      tag_138\n      jumpi\n      mload(0x40)\n      shl(0xe5, 0x461bcd)\n      dup2\n      mstore\n      0x04\n      add\n      tag_85\n      swap1\n      tag_140\n      jump\t// in\n    tag_138:\n        /* \"contracts/IDO/AlphaSEAMigration.sol\":1855:1867  endTimestamp */\n      sload(0x65)\n        /* \"contracts/IDO/AlphaSEAMigration.sol\":1837:1852  block.timestamp */\n      timestamp\n        /* \"contracts/IDO/AlphaSEAMigration.sol\":1837:1867  block.timestamp < endTimestamp */\n      lt\n        /* \"contracts/IDO/AlphaSEAMigration.sol\":1829:1898  require(block.timestamp < endTimestamp, \"swapping of aSEA has ended\") */\n      tag_141\n      jumpi\n      mload(0x40)\n      shl(0xe5, 0x461bcd)\n      dup2\n      mstore\n      0x04\n      add\n      tag_85\n      swap1\n      tag_143\n      jump\t// in\n    tag_141:\n        /* \"contracts/IDO/AlphaSEAMigration.sol\":1909:1913  aSEA */\n      sload(0x69)\n        /* \"contracts/IDO/AlphaSEAMigration.sol\":1909:1961  aSEA.transferFrom(msg.sender, address(this), amount) */\n      mload(0x40)\n      shl(0xe0, 0x23b872dd)\n      dup2\n      mstore\n      sub(shl(0xa0, 0x01), 0x01)\n        /* \"contracts/IDO/AlphaSEAMigration.sol\":1909:1913  aSEA */\n      swap1\n      swap2\n      and\n      swap1\n        /* \"contracts/IDO/AlphaSEAMigration.sol\":1909:1926  aSEA.transferFrom */\n      0x23b872dd\n      swap1\n        /* \"contracts/IDO/AlphaSEAMigration.sol\":1909:1961  aSEA.transferFrom(msg.sender, address(this), amount) */\n      tag_144\n      swap1\n        /* \"contracts/IDO/AlphaSEAMigration.sol\":1927:1937  msg.sender */\n      caller\n      swap1\n        /* \"contracts/IDO/AlphaSEAMigration.sol\":1947:1951  this */\n      address\n      swap1\n        /* \"contracts/IDO/AlphaSEAMigration.sol\":1954:1960  amount */\n      dup7\n      swap1\n        /* \"contracts/IDO/AlphaSEAMigration.sol\":1909:1961  aSEA.transferFrom(msg.sender, address(this), amount) */\n      0x04\n      add\n      tag_145\n      jump\t// in\n    tag_144:\n      0x20\n      mload(0x40)\n      dup1\n      dup4\n      sub\n      dup2\n      0x00\n      dup8\n      dup1\n      extcodesize\n      iszero\n      dup1\n      iszero\n      tag_146\n      jumpi\n      0x00\n      dup1\n      revert\n    tag_146:\n      pop\n      gas\n      call\n      iszero\n      dup1\n      iszero\n      tag_148\n      jumpi\n      returndatasize\n      0x00\n      dup1\n      returndatacopy\n      revert(0x00, returndatasize)\n    tag_148:\n      pop\n      pop\n      pop\n      pop\n      mload(0x40)\n      returndatasize\n      not(0x1f)\n      0x1f\n      dup3\n      add\n      and\n      dup3\n      add\n      dup1\n      0x40\n      mstore\n      pop\n      dup2\n      add\n      swap1\n      tag_149\n      swap2\n      swap1\n      tag_103\n      jump\t// in\n    tag_149:\n      pop\n        /* \"contracts/IDO/AlphaSEAMigration.sol\":2007:2017  msg.sender */\n      caller\n        /* \"contracts/IDO/AlphaSEAMigration.sol\":1996:2018  senderInfo[msg.sender] */\n      0x00\n      swap1\n      dup2\n      mstore\n        /* \"contracts/IDO/AlphaSEAMigration.sol\":1996:2006  senderInfo */\n      0x6a\n        /* \"contracts/IDO/AlphaSEAMigration.sol\":1996:2018  senderInfo[msg.sender] */\n      0x20\n      mstore\n      0x40\n      swap1\n      keccak256\n      sload\n        /* \"contracts/IDO/AlphaSEAMigration.sol\":1996:2030  senderInfo[msg.sender].add(amount) */\n      tag_150\n      swap1\n        /* \"contracts/IDO/AlphaSEAMigration.sol\":2023:2029  amount */\n      dup3\n        /* \"contracts/IDO/AlphaSEAMigration.sol\":1996:2022  senderInfo[msg.sender].add */\n      tag_151\n        /* \"contracts/IDO/AlphaSEAMigration.sol\":1996:2030  senderInfo[msg.sender].add(amount) */\n      jump\t// in\n    tag_150:\n        /* \"contracts/IDO/AlphaSEAMigration.sol\":1982:1992  msg.sender */\n      caller\n        /* \"contracts/IDO/AlphaSEAMigration.sol\":1971:1993  senderInfo[msg.sender] */\n      0x00\n      dup2\n      dup2\n      mstore\n        /* \"contracts/IDO/AlphaSEAMigration.sol\":1971:1981  senderInfo */\n      0x6a\n        /* \"contracts/IDO/AlphaSEAMigration.sol\":1971:1993  senderInfo[msg.sender] */\n      0x20\n      mstore\n      0x40\n      swap1\n      dup2\n      swap1\n      keccak256\n        /* \"contracts/IDO/AlphaSEAMigration.sol\":1971:2030  senderInfo[msg.sender] = senderInfo[msg.sender].add(amount) */\n      swap3\n      swap1\n      swap3\n      sstore\n        /* \"contracts/IDO/AlphaSEAMigration.sol\":2040:2043  SEA */\n      sload(0x68)\n        /* \"contracts/IDO/AlphaSEAMigration.sol\":2040:2072  SEA.transfer(msg.sender, amount) */\n      swap2\n      mload\n      shl(0xe0, 0xa9059cbb)\n      dup2\n      mstore\n      sub(shl(0xa0, 0x01), 0x01)\n        /* \"contracts/IDO/AlphaSEAMigration.sol\":2040:2043  SEA */\n      swap1\n      swap3\n      and\n      swap2\n        /* \"contracts/IDO/AlphaSEAMigration.sol\":2040:2052  SEA.transfer */\n      0xa9059cbb\n      swap2\n        /* \"contracts/IDO/AlphaSEAMigration.sol\":2040:2072  SEA.transfer(msg.sender, amount) */\n      tag_97\n      swap2\n        /* \"contracts/IDO/AlphaSEAMigration.sol\":2065:2071  amount */\n      dup6\n      swap1\n        /* \"contracts/IDO/AlphaSEAMigration.sol\":2040:2072  SEA.transfer(msg.sender, amount) */\n      0x04\n      add\n      tag_98\n      jump\t// in\n        /* \"contracts/IDO/AlphaSEAMigration.sol\":822:867  mapping(address => uint256) public senderInfo */\n    tag_51:\n      mstore(0x20, 0x6a)\n      0x00\n      swap1\n      dup2\n      mstore\n      0x40\n      swap1\n      keccak256\n      sload\n      dup2\n      jump\t// out\n        /* \"contracts/IDO/AlphaSEAMigration.sol\":1497:1580  function open(bool _bool) external onlyOwner {... */\n    tag_57:\n        /* \"@openzeppelin/contracts-upgradeable/access/OwnableUpgradeable.sol\":1525:1537  _msgSender() */\n      tag_158\n        /* \"@openzeppelin/contracts-upgradeable/access/OwnableUpgradeable.sol\":1525:1535  _msgSender */\n      tag_82\n        /* \"@openzeppelin/contracts-upgradeable/access/OwnableUpgradeable.sol\":1525:1537  _msgSender() */\n      jump\t// in\n    tag_158:\n      sub(shl(0xa0, 0x01), 0x01)\n        /* \"@openzeppelin/contracts-upgradeable/access/OwnableUpgradeable.sol\":1514:1537  owner() == _msgSender() */\n      and\n        /* \"@openzeppelin/contracts-upgradeable/access/OwnableUpgradeable.sol\":1514:1521  owner() */\n      tag_159\n        /* \"@openzeppelin/contracts-upgradeable/access/OwnableUpgradeable.sol\":1514:1519  owner */\n      tag_43\n        /* \"@openzeppelin/contracts-upgradeable/access/OwnableUpgradeable.sol\":1514:1521  owner() */\n      jump\t// in\n    tag_159:\n      sub(shl(0xa0, 0x01), 0x01)\n        /* \"@openzeppelin/contracts-upgradeable/access/OwnableUpgradeable.sol\":1514:1537  owner() == _msgSender() */\n      and\n      eq\n        /* \"@openzeppelin/contracts-upgradeable/access/OwnableUpgradeable.sol\":1506:1574  require(owner() == _msgSender(), \"Ownable: caller is not the owner\") */\n      tag_160\n      jumpi\n      mload(0x40)\n      shl(0xe5, 0x461bcd)\n      dup2\n      mstore\n      0x04\n      add\n      tag_85\n      swap1\n      tag_86\n      jump\t// in\n    tag_160:\n        /* \"contracts/IDO/AlphaSEAMigration.sol\":1552:1565  isInitialized */\n      0x69\n        /* \"contracts/IDO/AlphaSEAMigration.sol\":1552:1573  isInitialized = _bool */\n      dup1\n      sload\n      swap2\n      iszero\n      iszero\n      shl(0xa0, 0x01)\n      mul\n      not(shl(0xa0, 0xff))\n      swap1\n      swap3\n      and\n      swap2\n      swap1\n      swap2\n      or\n      swap1\n      sstore\n        /* \"contracts/IDO/AlphaSEAMigration.sol\":1497:1580  function open(bool _bool) external onlyOwner {... */\n      jump\t// out\n        /* \"contracts/IDO/AlphaSEAMigration.sol\":623:650  uint256 public endTimestamp */\n    tag_59:\n      sload(0x65)\n      dup2\n      jump\t// out\n        /* \"contracts/IDO/AlphaSEAMigration.sol\":2797:2893  function setStartTimestamp(uint256 val) external onlyOwner {... */\n    tag_63:\n        /* \"@openzeppelin/contracts-upgradeable/access/OwnableUpgradeable.sol\":1525:1537  _msgSender() */\n      tag_164\n        /* \"@openzeppelin/contracts-upgradeable/access/OwnableUpgradeable.sol\":1525:1535  _msgSender */\n      tag_82\n        /* \"@openzeppelin/contracts-upgradeable/access/OwnableUpgradeable.sol\":1525:1537  _msgSender() */\n      jump\t// in\n    tag_164:\n      sub(shl(0xa0, 0x01), 0x01)\n        /* \"@openzeppelin/contracts-upgradeable/access/OwnableUpgradeable.sol\":1514:1537  owner() == _msgSender() */\n      and\n        /* \"@openzeppelin/contracts-upgradeable/access/OwnableUpgradeable.sol\":1514:1521  owner() */\n      tag_165\n        /* \"@openzeppelin/contracts-upgradeable/access/OwnableUpgradeable.sol\":1514:1519  owner */\n      tag_43\n        /* \"@openzeppelin/contracts-upgradeable/access/OwnableUpgradeable.sol\":1514:1521  owner() */\n      jump\t// in\n    tag_165:\n      sub(shl(0xa0, 0x01), 0x01)\n        /* \"@openzeppelin/contracts-upgradeable/access/OwnableUpgradeable.sol\":1514:1537  owner() == _msgSender() */\n      and\n      eq\n        /* \"@openzeppelin/contracts-upgradeable/access/OwnableUpgradeable.sol\":1506:1574  require(owner() == _msgSender(), \"Ownable: caller is not the owner\") */\n      tag_166\n      jumpi\n      mload(0x40)\n      shl(0xe5, 0x461bcd)\n      dup2\n      mstore\n      0x04\n      add\n      tag_85\n      swap1\n      tag_86\n      jump\t// in\n    tag_166:\n        /* \"contracts/IDO/AlphaSEAMigration.sol\":2866:2880  startTimestamp */\n      0x66\n        /* \"contracts/IDO/AlphaSEAMigration.sol\":2866:2886  startTimestamp = val */\n      sstore\n        /* \"contracts/IDO/AlphaSEAMigration.sol\":2797:2893  function setStartTimestamp(uint256 val) external onlyOwner {... */\n      jump\t// out\n        /* \"contracts/IDO/AlphaSEAMigration.sol\":656:685  uint256 public startTimestamp */\n    tag_65:\n      sload(0x66)\n      dup2\n      jump\t// out\n        /* \"contracts/IDO/AlphaSEAMigration.sol\":1082:1491  function initialize(... */\n    tag_70:\n        /* \"@openzeppelin/contracts-upgradeable/proxy/utils/Initializable.sol\":539:552  _initializing */\n      sload(0x00)\n      0x0100\n      swap1\n      div\n      0xff\n      and\n      dup1\n        /* \"@openzeppelin/contracts-upgradeable/proxy/utils/Initializable.sol\":539:569  _initializing || !_initialized */\n      tag_170\n      jumpi\n      pop\n        /* \"@openzeppelin/contracts-upgradeable/proxy/utils/Initializable.sol\":557:569  _initialized */\n      and(0xff, sload(0x00))\n        /* \"@openzeppelin/contracts-upgradeable/proxy/utils/Initializable.sol\":556:569  !_initialized */\n      iszero\n        /* \"@openzeppelin/contracts-upgradeable/proxy/utils/Initializable.sol\":539:569  _initializing || !_initialized */\n    tag_170:\n        /* \"@openzeppelin/contracts-upgradeable/proxy/utils/Initializable.sol\":531:620  require(_initializing || !_initialized, \"Initializable: contract is already initialized\") */\n      tag_171\n      jumpi\n      mload(0x40)\n      shl(0xe5, 0x461bcd)\n      dup2\n      mstore\n      0x04\n      add\n      tag_85\n      swap1\n      tag_173\n      jump\t// in\n    tag_171:\n        /* \"@openzeppelin/contracts-upgradeable/proxy/utils/Initializable.sol\":631:650  bool isTopLevelCall */\n      0x00\n        /* \"@openzeppelin/contracts-upgradeable/proxy/utils/Initializable.sol\":654:667  _initializing */\n      sload\n      0x0100\n      swap1\n      div\n      0xff\n      and\n        /* \"@openzeppelin/contracts-upgradeable/proxy/utils/Initializable.sol\":653:667  !_initializing */\n      iszero\n        /* \"@openzeppelin/contracts-upgradeable/proxy/utils/Initializable.sol\":677:775  if (isTopLevelCall) {... */\n      dup1\n      iszero\n      tag_174\n      jumpi\n        /* \"@openzeppelin/contracts-upgradeable/proxy/utils/Initializable.sol\":711:724  _initializing */\n      0x00\n        /* \"@openzeppelin/contracts-upgradeable/proxy/utils/Initializable.sol\":711:731  _initializing = true */\n      dup1\n      sload\n      not(0xff)\n      not(0xff00)\n      swap1\n      swap2\n      and\n      0x0100\n      or\n        /* \"@openzeppelin/contracts-upgradeable/proxy/utils/Initializable.sol\":745:764  _initialized = true */\n      and\n        /* \"@openzeppelin/contracts-upgradeable/proxy/utils/Initializable.sol\":727:731  true */\n      0x01\n        /* \"@openzeppelin/contracts-upgradeable/proxy/utils/Initializable.sol\":745:764  _initialized = true */\n      or\n      swap1\n      sstore\n        /* \"@openzeppelin/contracts-upgradeable/proxy/utils/Initializable.sol\":677:775  if (isTopLevelCall) {... */\n    tag_174:\n        /* \"contracts/IDO/AlphaSEAMigration.sol\":1248:1264  __Ownable_init() */\n      tag_176\n        /* \"contracts/IDO/AlphaSEAMigration.sol\":1248:1262  __Ownable_init */\n      tag_177\n        /* \"contracts/IDO/AlphaSEAMigration.sol\":1248:1264  __Ownable_init() */\n      jump\t// in\n    tag_176:\n        /* \"contracts/IDO/AlphaSEAMigration.sol\":1274:1277  SEA */\n      0x68\n        /* \"contracts/IDO/AlphaSEAMigration.sol\":1274:1303  SEA = IERC20Upgradeable(_SEA) */\n      dup1\n      sload\n      sub(shl(0xa0, 0x01), 0x01)\n      dup1\n      dup9\n      and\n      not(sub(shl(0xa0, 0x01), 0x01))\n      swap3\n      dup4\n      and\n      or\n      swap1\n      swap3\n      sstore\n        /* \"contracts/IDO/AlphaSEAMigration.sol\":1313:1317  aSEA */\n      0x69\n        /* \"contracts/IDO/AlphaSEAMigration.sol\":1313:1344  aSEA = IERC20Upgradeable(_aSEA) */\n      dup1\n      sload\n        /* \"contracts/IDO/AlphaSEAMigration.sol\":1354:1368  startTimestamp */\n      0x66\n        /* \"contracts/IDO/AlphaSEAMigration.sol\":1354:1386  startTimestamp = _startTimestamp */\n      dup8\n      swap1\n      sstore\n        /* \"contracts/IDO/AlphaSEAMigration.sol\":1396:1408  endTimestamp */\n      0x65\n        /* \"contracts/IDO/AlphaSEAMigration.sol\":1396:1424  endTimestamp = _endTimestamp */\n      dup7\n      swap1\n      sstore\n      not(shl(0xa0, 0xff))\n        /* \"contracts/IDO/AlphaSEAMigration.sol\":1313:1344  aSEA = IERC20Upgradeable(_aSEA) */\n      swap4\n      dup9\n      and\n      swap3\n      and\n      swap2\n      swap1\n      swap2\n      or\n        /* \"contracts/IDO/AlphaSEAMigration.sol\":1434:1455  isInitialized = false */\n      swap2\n      swap1\n      swap2\n      and\n      swap1\n      sstore\n        /* \"contracts/IDO/AlphaSEAMigration.sol\":1474:1484  120 * 1e18 */\n      0x068155a43676e00000\n        /* \"contracts/IDO/AlphaSEAMigration.sol\":1465:1471  maxAmt */\n      0x67\n        /* \"contracts/IDO/AlphaSEAMigration.sol\":1465:1484  maxAmt = 120 * 1e18 */\n      sstore\n        /* \"@openzeppelin/contracts-upgradeable/proxy/utils/Initializable.sol\":797:863  if (isTopLevelCall) {... */\n      dup1\n      iszero\n      tag_178\n      jumpi\n        /* \"@openzeppelin/contracts-upgradeable/proxy/utils/Initializable.sol\":847:852  false */\n      0x00\n        /* \"@openzeppelin/contracts-upgradeable/proxy/utils/Initializable.sol\":831:852  _initializing = false */\n      dup1\n      sload\n      not(0xff00)\n      and\n      swap1\n      sstore\n        /* \"@openzeppelin/contracts-upgradeable/proxy/utils/Initializable.sol\":797:863  if (isTopLevelCall) {... */\n    tag_178:\n        /* \"contracts/IDO/AlphaSEAMigration.sol\":1082:1491  function initialize(... */\n      pop\n      pop\n      pop\n      pop\n      pop\n      jump\t// out\n        /* \"contracts/IDO/AlphaSEAMigration.sol\":692:713  uint256 public maxAmt */\n    tag_72:\n      sload(0x67)\n      dup2\n      jump\t// out\n        /* \"@openzeppelin/contracts-upgradeable/access/OwnableUpgradeable.sol\":2184:2382  function transferOwnership(address newOwner) public virtual onlyOwner {... */\n    tag_76:\n        /* \"@openzeppelin/contracts-upgradeable/access/OwnableUpgradeable.sol\":1525:1537  _msgSender() */\n      tag_180\n        /* \"@openzeppelin/contracts-upgradeable/access/OwnableUpgradeable.sol\":1525:1535  _msgSender */\n      tag_82\n        /* \"@openzeppelin/contracts-upgradeable/access/OwnableUpgradeable.sol\":1525:1537  _msgSender() */\n      jump\t// in\n    tag_180:\n      sub(shl(0xa0, 0x01), 0x01)\n        /* \"@openzeppelin/contracts-upgradeable/access/OwnableUpgradeable.sol\":1514:1537  owner() == _msgSender() */\n      and\n        /* \"@openzeppelin/contracts-upgradeable/access/OwnableUpgradeable.sol\":1514:1521  owner() */\n      tag_181\n        /* \"@openzeppelin/contracts-upgradeable/access/OwnableUpgradeable.sol\":1514:1519  owner */\n      tag_43\n        /* \"@openzeppelin/contracts-upgradeable/access/OwnableUpgradeable.sol\":1514:1521  owner() */\n      jump\t// in\n    tag_181:\n      sub(shl(0xa0, 0x01), 0x01)\n        /* \"@openzeppelin/contracts-upgradeable/access/OwnableUpgradeable.sol\":1514:1537  owner() == _msgSender() */\n      and\n      eq\n        /* \"@openzeppelin/contracts-upgradeable/access/OwnableUpgradeable.sol\":1506:1574  require(owner() == _msgSender(), \"Ownable: caller is not the owner\") */\n      tag_182\n      jumpi\n      mload(0x40)\n      shl(0xe5, 0x461bcd)\n      dup2\n      mstore\n      0x04\n      add\n      tag_85\n      swap1\n      tag_86\n      jump\t// in\n    tag_182:\n      sub(shl(0xa0, 0x01), 0x01)\n        /* \"@openzeppelin/contracts-upgradeable/access/OwnableUpgradeable.sol\":2272:2294  newOwner != address(0) */\n      dup2\n      and\n        /* \"@openzeppelin/contracts-upgradeable/access/OwnableUpgradeable.sol\":2264:2337  require(newOwner != address(0), \"Ownable: new owner is the zero address\") */\n      tag_185\n      jumpi\n      mload(0x40)\n      shl(0xe5, 0x461bcd)\n      dup2\n      mstore\n      0x04\n      add\n      tag_85\n      swap1\n      tag_187\n      jump\t// in\n    tag_185:\n        /* \"@openzeppelin/contracts-upgradeable/access/OwnableUpgradeable.sol\":2347:2375  _transferOwnership(newOwner) */\n      tag_188\n        /* \"@openzeppelin/contracts-upgradeable/access/OwnableUpgradeable.sol\":2366:2374  newOwner */\n      dup2\n        /* \"@openzeppelin/contracts-upgradeable/access/OwnableUpgradeable.sol\":2347:2365  _transferOwnership */\n      tag_117\n        /* \"@openzeppelin/contracts-upgradeable/access/OwnableUpgradeable.sol\":2347:2375  _transferOwnership(newOwner) */\n      jump\t// in\n    tag_188:\n        /* \"@openzeppelin/contracts-upgradeable/access/OwnableUpgradeable.sol\":2184:2382  function transferOwnership(address newOwner) public virtual onlyOwner {... */\n      pop\n      jump\t// out\n        /* \"contracts/IDO/AlphaSEAMigration.sol\":720:748  IERC20Upgradeable public SEA */\n    tag_78:\n      and(sub(shl(0xa0, 0x01), 0x01), sload(0x68))\n      dup2\n      jump\t// out\n        /* \"@openzeppelin/contracts-upgradeable/utils/ContextUpgradeable.sol\":876:972  function _msgSender() internal view virtual returns (address) {... */\n    tag_82:\n        /* \"@openzeppelin/contracts-upgradeable/utils/ContextUpgradeable.sol\":955:965  msg.sender */\n      caller\n        /* \"@openzeppelin/contracts-upgradeable/utils/ContextUpgradeable.sol\":876:972  function _msgSender() internal view virtual returns (address) {... */\n      swap1\n      jump\t// out\n        /* \"@openzeppelin/contracts-upgradeable/access/OwnableUpgradeable.sol\":2536:2723  function _transferOwnership(address newOwner) internal virtual {... */\n    tag_117:\n        /* \"@openzeppelin/contracts-upgradeable/access/OwnableUpgradeable.sol\":2628:2634  _owner */\n      0x33\n      dup1\n      sload\n      sub(shl(0xa0, 0x01), 0x01)\n        /* \"@openzeppelin/contracts-upgradeable/access/OwnableUpgradeable.sol\":2644:2661  _owner = newOwner */\n      dup4\n      dup2\n      and\n      not(sub(shl(0xa0, 0x01), 0x01))\n      dup4\n      and\n      dup2\n      or\n      swap1\n      swap4\n      sstore\n        /* \"@openzeppelin/contracts-upgradeable/access/OwnableUpgradeable.sol\":2676:2716  OwnershipTransferred(oldOwner, newOwner) */\n      mload(0x40)\n        /* \"@openzeppelin/contracts-upgradeable/access/OwnableUpgradeable.sol\":2628:2634  _owner */\n      swap2\n      and\n      swap2\n        /* \"@openzeppelin/contracts-upgradeable/access/OwnableUpgradeable.sol\":2644:2661  _owner = newOwner */\n      swap1\n        /* \"@openzeppelin/contracts-upgradeable/access/OwnableUpgradeable.sol\":2628:2634  _owner */\n      dup3\n      swap1\n        /* \"@openzeppelin/contracts-upgradeable/access/OwnableUpgradeable.sol\":2676:2716  OwnershipTransferred(oldOwner, newOwner) */\n      0x8be0079c531659141344cd1fd0a4f28419497f9722a3daafe3b4186f6b6457e0\n      swap1\n        /* \"@openzeppelin/contracts-upgradeable/access/OwnableUpgradeable.sol\":2609:2625  address oldOwner */\n      0x00\n      swap1\n        /* \"@openzeppelin/contracts-upgradeable/access/OwnableUpgradeable.sol\":2676:2716  OwnershipTransferred(oldOwner, newOwner) */\n      log3\n        /* \"@openzeppelin/contracts-upgradeable/access/OwnableUpgradeable.sol\":2536:2723  function _transferOwnership(address newOwner) internal virtual {... */\n      pop\n      pop\n      jump\t// out\n        /* \"@openzeppelin/contracts-upgradeable/utils/math/SafeMathUpgradeable.sol\":2752:2848  function add(uint256 a, uint256 b) internal pure returns (uint256) {... */\n    tag_151:\n        /* \"@openzeppelin/contracts-upgradeable/utils/math/SafeMathUpgradeable.sol\":2810:2817  uint256 */\n      0x00\n        /* \"@openzeppelin/contracts-upgradeable/utils/math/SafeMathUpgradeable.sol\":2836:2841  a + b */\n      tag_192\n        /* \"@openzeppelin/contracts-upgradeable/utils/math/SafeMathUpgradeable.sol\":2840:2841  b */\n      dup3\n        /* \"@openzeppelin/contracts-upgradeable/utils/math/SafeMathUpgradeable.sol\":2836:2837  a */\n      dup5\n        /* \"@openzeppelin/contracts-upgradeable/utils/math/SafeMathUpgradeable.sol\":2836:2841  a + b */\n      tag_193\n      jump\t// in\n    tag_192:\n        /* \"@openzeppelin/contracts-upgradeable/utils/math/SafeMathUpgradeable.sol\":2829:2841  return a + b */\n      swap4\n        /* \"@openzeppelin/contracts-upgradeable/utils/math/SafeMathUpgradeable.sol\":2752:2848  function add(uint256 a, uint256 b) internal pure returns (uint256) {... */\n      swap3\n      pop\n      pop\n      pop\n      jump\t// out\n        /* \"@openzeppelin/contracts-upgradeable/access/OwnableUpgradeable.sol\":988:1114  function __Ownable_init() internal initializer {... */\n    tag_177:\n        /* \"@openzeppelin/contracts-upgradeable/proxy/utils/Initializable.sol\":539:552  _initializing */\n      sload(0x00)\n      0x0100\n      swap1\n      div\n      0xff\n      and\n      dup1\n        /* \"@openzeppelin/contracts-upgradeable/proxy/utils/Initializable.sol\":539:569  _initializing || !_initialized */\n      tag_195\n      jumpi\n      pop\n        /* \"@openzeppelin/contracts-upgradeable/proxy/utils/Initializable.sol\":557:569  _initialized */\n      and(0xff, sload(0x00))\n        /* \"@openzeppelin/contracts-upgradeable/proxy/utils/Initializable.sol\":556:569  !_initialized */\n      iszero\n        /* \"@openzeppelin/contracts-upgradeable/proxy/utils/Initializable.sol\":539:569  _initializing || !_initialized */\n    tag_195:\n        /* \"@openzeppelin/contracts-upgradeable/proxy/utils/Initializable.sol\":531:620  require(_initializing || !_initialized, \"Initializable: contract is already initialized\") */\n      tag_196\n      jumpi\n      mload(0x40)\n      shl(0xe5, 0x461bcd)\n      dup2\n      mstore\n      0x04\n      add\n      tag_85\n      swap1\n      tag_173\n      jump\t// in\n    tag_196:\n        /* \"@openzeppelin/contracts-upgradeable/proxy/utils/Initializable.sol\":631:650  bool isTopLevelCall */\n      0x00\n        /* \"@openzeppelin/contracts-upgradeable/proxy/utils/Initializable.sol\":654:667  _initializing */\n      sload\n      0x0100\n      swap1\n      div\n      0xff\n      and\n        /* \"@openzeppelin/contracts-upgradeable/proxy/utils/Initializable.sol\":653:667  !_initializing */\n      iszero\n        /* \"@openzeppelin/contracts-upgradeable/proxy/utils/Initializable.sol\":677:775  if (isTopLevelCall) {... */\n      dup1\n      iszero\n      tag_198\n      jumpi\n        /* \"@openzeppelin/contracts-upgradeable/proxy/utils/Initializable.sol\":711:724  _initializing */\n      0x00\n        /* \"@openzeppelin/contracts-upgradeable/proxy/utils/Initializable.sol\":711:731  _initializing = true */\n      dup1\n      sload\n      not(0xff)\n      not(0xff00)\n      swap1\n      swap2\n      and\n      0x0100\n      or\n        /* \"@openzeppelin/contracts-upgradeable/proxy/utils/Initializable.sol\":745:764  _initialized = true */\n      and\n        /* \"@openzeppelin/contracts-upgradeable/proxy/utils/Initializable.sol\":727:731  true */\n      0x01\n        /* \"@openzeppelin/contracts-upgradeable/proxy/utils/Initializable.sol\":745:764  _initialized = true */\n      or\n      swap1\n      sstore\n        /* \"@openzeppelin/contracts-upgradeable/proxy/utils/Initializable.sol\":677:775  if (isTopLevelCall) {... */\n    tag_198:\n        /* \"@openzeppelin/contracts-upgradeable/access/OwnableUpgradeable.sol\":1045:1071  __Context_init_unchained() */\n      tag_200\n        /* \"@openzeppelin/contracts-upgradeable/access/OwnableUpgradeable.sol\":1045:1069  __Context_init_unchained */\n      tag_201\n        /* \"@openzeppelin/contracts-upgradeable/access/OwnableUpgradeable.sol\":1045:1071  __Context_init_unchained() */\n      jump\t// in\n    tag_200:\n        /* \"@openzeppelin/contracts-upgradeable/access/OwnableUpgradeable.sol\":1081:1107  __Ownable_init_unchained() */\n      tag_202\n        /* \"@openzeppelin/contracts-upgradeable/access/OwnableUpgradeable.sol\":1081:1105  __Ownable_init_unchained */\n      tag_203\n        /* \"@openzeppelin/contracts-upgradeable/access/OwnableUpgradeable.sol\":1081:1107  __Ownable_init_unchained() */\n      jump\t// in\n    tag_202:\n        /* \"@openzeppelin/contracts-upgradeable/proxy/utils/Initializable.sol\":801:815  isTopLevelCall */\n      dup1\n        /* \"@openzeppelin/contracts-upgradeable/proxy/utils/Initializable.sol\":797:863  if (isTopLevelCall) {... */\n      iszero\n      tag_188\n      jumpi\n        /* \"@openzeppelin/contracts-upgradeable/proxy/utils/Initializable.sol\":847:852  false */\n      0x00\n        /* \"@openzeppelin/contracts-upgradeable/proxy/utils/Initializable.sol\":831:852  _initializing = false */\n      dup1\n      sload\n      not(0xff00)\n      and\n      swap1\n      sstore\n        /* \"@openzeppelin/contracts-upgradeable/access/OwnableUpgradeable.sol\":988:1114  function __Ownable_init() internal initializer {... */\n      pop\n      jump\t// out\n        /* \"@openzeppelin/contracts-upgradeable/utils/ContextUpgradeable.sol\":807:871  function __Context_init_unchained() internal initializer {... */\n    tag_201:\n        /* \"@openzeppelin/contracts-upgradeable/proxy/utils/Initializable.sol\":539:552  _initializing */\n      sload(0x00)\n      0x0100\n      swap1\n      div\n      0xff\n      and\n      dup1\n        /* \"@openzeppelin/contracts-upgradeable/proxy/utils/Initializable.sol\":539:569  _initializing || !_initialized */\n      tag_206\n      jumpi\n      pop\n        /* \"@openzeppelin/contracts-upgradeable/proxy/utils/Initializable.sol\":557:569  _initialized */\n      and(0xff, sload(0x00))\n        /* \"@openzeppelin/contracts-upgradeable/proxy/utils/Initializable.sol\":556:569  !_initialized */\n      iszero\n        /* \"@openzeppelin/contracts-upgradeable/proxy/utils/Initializable.sol\":539:569  _initializing || !_initialized */\n    tag_206:\n        /* \"@openzeppelin/contracts-upgradeable/proxy/utils/Initializable.sol\":531:620  require(_initializing || !_initialized, \"Initializable: contract is already initialized\") */\n      tag_207\n      jumpi\n      mload(0x40)\n      shl(0xe5, 0x461bcd)\n      dup2\n      mstore\n      0x04\n      add\n      tag_85\n      swap1\n      tag_173\n      jump\t// in\n    tag_207:\n        /* \"@openzeppelin/contracts-upgradeable/proxy/utils/Initializable.sol\":631:650  bool isTopLevelCall */\n      0x00\n        /* \"@openzeppelin/contracts-upgradeable/proxy/utils/Initializable.sol\":654:667  _initializing */\n      sload\n      0x0100\n      swap1\n      div\n      0xff\n      and\n        /* \"@openzeppelin/contracts-upgradeable/proxy/utils/Initializable.sol\":653:667  !_initializing */\n      iszero\n        /* \"@openzeppelin/contracts-upgradeable/proxy/utils/Initializable.sol\":677:775  if (isTopLevelCall) {... */\n      dup1\n      iszero\n      tag_202\n      jumpi\n        /* \"@openzeppelin/contracts-upgradeable/proxy/utils/Initializable.sol\":711:724  _initializing */\n      0x00\n        /* \"@openzeppelin/contracts-upgradeable/proxy/utils/Initializable.sol\":711:731  _initializing = true */\n      dup1\n      sload\n      not(0xff)\n      not(0xff00)\n      swap1\n      swap2\n      and\n      0x0100\n      or\n        /* \"@openzeppelin/contracts-upgradeable/proxy/utils/Initializable.sol\":745:764  _initialized = true */\n      and\n        /* \"@openzeppelin/contracts-upgradeable/proxy/utils/Initializable.sol\":727:731  true */\n      0x01\n        /* \"@openzeppelin/contracts-upgradeable/proxy/utils/Initializable.sol\":745:764  _initialized = true */\n      or\n      swap1\n      sstore\n        /* \"@openzeppelin/contracts-upgradeable/proxy/utils/Initializable.sol\":801:815  isTopLevelCall */\n      dup1\n        /* \"@openzeppelin/contracts-upgradeable/proxy/utils/Initializable.sol\":797:863  if (isTopLevelCall) {... */\n      iszero\n      tag_188\n      jumpi\n        /* \"@openzeppelin/contracts-upgradeable/proxy/utils/Initializable.sol\":847:852  false */\n      0x00\n        /* \"@openzeppelin/contracts-upgradeable/proxy/utils/Initializable.sol\":831:852  _initializing = false */\n      dup1\n      sload\n      not(0xff00)\n      and\n      swap1\n      sstore\n        /* \"@openzeppelin/contracts-upgradeable/utils/ContextUpgradeable.sol\":807:871  function __Context_init_unchained() internal initializer {... */\n      pop\n      jump\t// out\n        /* \"@openzeppelin/contracts-upgradeable/access/OwnableUpgradeable.sol\":1120:1226  function __Ownable_init_unchained() internal initializer {... */\n    tag_203:\n        /* \"@openzeppelin/contracts-upgradeable/proxy/utils/Initializable.sol\":539:552  _initializing */\n      sload(0x00)\n      0x0100\n      swap1\n      div\n      0xff\n      and\n      dup1\n        /* \"@openzeppelin/contracts-upgradeable/proxy/utils/Initializable.sol\":539:569  _initializing || !_initialized */\n      tag_213\n      jumpi\n      pop\n        /* \"@openzeppelin/contracts-upgradeable/proxy/utils/Initializable.sol\":557:569  _initialized */\n      and(0xff, sload(0x00))\n        /* \"@openzeppelin/contracts-upgradeable/proxy/utils/Initializable.sol\":556:569  !_initialized */\n      iszero\n        /* \"@openzeppelin/contracts-upgradeable/proxy/utils/Initializable.sol\":539:569  _initializing || !_initialized */\n    tag_213:\n        /* \"@openzeppelin/contracts-upgradeable/proxy/utils/Initializable.sol\":531:620  require(_initializing || !_initialized, \"Initializable: contract is already initialized\") */\n      tag_214\n      jumpi\n      mload(0x40)\n      shl(0xe5, 0x461bcd)\n      dup2\n      mstore\n      0x04\n      add\n      tag_85\n      swap1\n      tag_173\n      jump\t// in\n    tag_214:\n        /* \"@openzeppelin/contracts-upgradeable/proxy/utils/Initializable.sol\":631:650  bool isTopLevelCall */\n      0x00\n        /* \"@openzeppelin/contracts-upgradeable/proxy/utils/Initializable.sol\":654:667  _initializing */\n      sload\n      0x0100\n      swap1\n      div\n      0xff\n      and\n        /* \"@openzeppelin/contracts-upgradeable/proxy/utils/Initializable.sol\":653:667  !_initializing */\n      iszero\n        /* \"@openzeppelin/contracts-upgradeable/proxy/utils/Initializable.sol\":677:775  if (isTopLevelCall) {... */\n      dup1\n      iszero\n      tag_216\n      jumpi\n        /* \"@openzeppelin/contracts-upgradeable/proxy/utils/Initializable.sol\":711:724  _initializing */\n      0x00\n        /* \"@openzeppelin/contracts-upgradeable/proxy/utils/Initializable.sol\":711:731  _initializing = true */\n      dup1\n      sload\n      not(0xff)\n      not(0xff00)\n      swap1\n      swap2\n      and\n      0x0100\n      or\n        /* \"@openzeppelin/contracts-upgradeable/proxy/utils/Initializable.sol\":745:764  _initialized = true */\n      and\n        /* \"@openzeppelin/contracts-upgradeable/proxy/utils/Initializable.sol\":727:731  true */\n      0x01\n        /* \"@openzeppelin/contracts-upgradeable/proxy/utils/Initializable.sol\":745:764  _initialized = true */\n      or\n      swap1\n      sstore\n        /* \"@openzeppelin/contracts-upgradeable/proxy/utils/Initializable.sol\":677:775  if (isTopLevelCall) {... */\n    tag_216:\n        /* \"@openzeppelin/contracts-upgradeable/access/OwnableUpgradeable.sol\":1187:1219  _transferOwnership(_msgSender()) */\n      tag_202\n        /* \"@openzeppelin/contracts-upgradeable/access/OwnableUpgradeable.sol\":1206:1218  _msgSender() */\n      tag_219\n        /* \"@openzeppelin/contracts-upgradeable/access/OwnableUpgradeable.sol\":1206:1216  _msgSender */\n      tag_82\n        /* \"@openzeppelin/contracts-upgradeable/access/OwnableUpgradeable.sol\":1206:1218  _msgSender() */\n      jump\t// in\n    tag_219:\n        /* \"@openzeppelin/contracts-upgradeable/access/OwnableUpgradeable.sol\":1187:1205  _transferOwnership */\n      tag_117\n        /* \"@openzeppelin/contracts-upgradeable/access/OwnableUpgradeable.sol\":1187:1219  _transferOwnership(_msgSender()) */\n      jump\t// in\n        /* \"#utility.yul\":14:189   */\n    tag_222:\n        /* \"#utility.yul\":84:104   */\n      dup1\n      calldataload\n      sub(shl(0xa0, 0x01), 0x01)\n        /* \"#utility.yul\":133:164   */\n      dup2\n      and\n        /* \"#utility.yul\":123:165   */\n      dup2\n      eq\n        /* \"#utility.yul\":113:115   */\n      tag_224\n      jumpi\n        /* \"#utility.yul\":179:180   */\n      0x00\n        /* \"#utility.yul\":176:177   */\n      dup1\n        /* \"#utility.yul\":169:181   */\n      revert\n        /* \"#utility.yul\":113:115   */\n    tag_224:\n        /* \"#utility.yul\":65:189   */\n      swap2\n      swap1\n      pop\n      jump\t// out\n        /* \"#utility.yul\":194:392   */\n    tag_50:\n      0x00\n        /* \"#utility.yul\":306:308   */\n      0x20\n        /* \"#utility.yul\":294:303   */\n      dup3\n        /* \"#utility.yul\":285:292   */\n      dup5\n        /* \"#utility.yul\":281:304   */\n      sub\n        /* \"#utility.yul\":277:309   */\n      slt\n        /* \"#utility.yul\":274:276   */\n      iszero\n      tag_226\n      jumpi\n        /* \"#utility.yul\":327:333   */\n      dup1\n        /* \"#utility.yul\":319:325   */\n      dup2\n        /* \"#utility.yul\":312:334   */\n      revert\n        /* \"#utility.yul\":274:276   */\n    tag_226:\n        /* \"#utility.yul\":355:386   */\n      tag_192\n        /* \"#utility.yul\":376:385   */\n      dup3\n        /* \"#utility.yul\":355:386   */\n      tag_222\n      jump\t// in\n        /* \"#utility.yul\":397:808   */\n    tag_69:\n      0x00\n      dup1\n      0x00\n      dup1\n        /* \"#utility.yul\":560:563   */\n      0x80\n        /* \"#utility.yul\":548:557   */\n      dup6\n        /* \"#utility.yul\":539:546   */\n      dup8\n        /* \"#utility.yul\":535:558   */\n      sub\n        /* \"#utility.yul\":531:564   */\n      slt\n        /* \"#utility.yul\":528:530   */\n      iszero\n      tag_229\n      jumpi\n        /* \"#utility.yul\":582:588   */\n      dup3\n        /* \"#utility.yul\":574:580   */\n      dup4\n        /* \"#utility.yul\":567:589   */\n      revert\n        /* \"#utility.yul\":528:530   */\n    tag_229:\n        /* \"#utility.yul\":610:641   */\n      tag_230\n        /* \"#utility.yul\":631:640   */\n      dup6\n        /* \"#utility.yul\":610:641   */\n      tag_222\n      jump\t// in\n    tag_230:\n        /* \"#utility.yul\":600:641   */\n      swap4\n      pop\n        /* \"#utility.yul\":660:700   */\n      tag_231\n        /* \"#utility.yul\":696:698   */\n      0x20\n        /* \"#utility.yul\":685:694   */\n      dup7\n        /* \"#utility.yul\":681:699   */\n      add\n        /* \"#utility.yul\":660:700   */\n      tag_222\n      jump\t// in\n    tag_231:\n        /* \"#utility.yul\":518:808   */\n      swap4\n      swap7\n        /* \"#utility.yul\":650:700   */\n      swap4\n      swap6\n      pop\n      pop\n      pop\n      pop\n        /* \"#utility.yul\":747:749   */\n      0x40\n        /* \"#utility.yul\":732:750   */\n      dup3\n      add\n        /* \"#utility.yul\":719:751   */\n      calldataload\n      swap2\n        /* \"#utility.yul\":798:800   */\n      0x60\n        /* \"#utility.yul\":783:801   */\n      add\n        /* \"#utility.yul\":770:802   */\n      calldataload\n      swap1\n        /* \"#utility.yul\":518:808   */\n      jump\t// out\n        /* \"#utility.yul\":813:1066   */\n    tag_56:\n      0x00\n        /* \"#utility.yul\":922:924   */\n      0x20\n        /* \"#utility.yul\":910:919   */\n      dup3\n        /* \"#utility.yul\":901:908   */\n      dup5\n        /* \"#utility.yul\":897:920   */\n      sub\n        /* \"#utility.yul\":893:925   */\n      slt\n        /* \"#utility.yul\":890:892   */\n      iszero\n      tag_233\n      jumpi\n        /* \"#utility.yul\":943:949   */\n      dup1\n        /* \"#utility.yul\":935:941   */\n      dup2\n        /* \"#utility.yul\":928:950   */\n      revert\n        /* \"#utility.yul\":890:892   */\n    tag_233:\n        /* \"#utility.yul\":987:996   */\n      dup2\n        /* \"#utility.yul\":974:997   */\n      calldataload\n        /* \"#utility.yul\":1006:1036   */\n      tag_192\n        /* \"#utility.yul\":1030:1035   */\n      dup2\n        /* \"#utility.yul\":1006:1036   */\n      tag_235\n      jump\t// in\n        /* \"#utility.yul\":1071:1328   */\n    tag_103:\n      0x00\n        /* \"#utility.yul\":1191:1193   */\n      0x20\n        /* \"#utility.yul\":1179:1188   */\n      dup3\n        /* \"#utility.yul\":1170:1177   */\n      dup5\n        /* \"#utility.yul\":1166:1189   */\n      sub\n        /* \"#utility.yul\":1162:1194   */\n      slt\n        /* \"#utility.yul\":1159:1161   */\n      iszero\n      tag_237\n      jumpi\n        /* \"#utility.yul\":1212:1218   */\n      dup1\n        /* \"#utility.yul\":1204:1210   */\n      dup2\n        /* \"#utility.yul\":1197:1219   */\n      revert\n        /* \"#utility.yul\":1159:1161   */\n    tag_237:\n        /* \"#utility.yul\":1249:1258   */\n      dup2\n        /* \"#utility.yul\":1243:1259   */\n      mload\n        /* \"#utility.yul\":1268:1298   */\n      tag_192\n        /* \"#utility.yul\":1292:1297   */\n      dup2\n        /* \"#utility.yul\":1268:1298   */\n      tag_235\n      jump\t// in\n        /* \"#utility.yul\":1333:1523   */\n    tag_31:\n      0x00\n        /* \"#utility.yul\":1445:1447   */\n      0x20\n        /* \"#utility.yul\":1433:1442   */\n      dup3\n        /* \"#utility.yul\":1424:1431   */\n      dup5\n        /* \"#utility.yul\":1420:1443   */\n      sub\n        /* \"#utility.yul\":1416:1448   */\n      slt\n        /* \"#utility.yul\":1413:1415   */\n      iszero\n      tag_240\n      jumpi\n        /* \"#utility.yul\":1466:1472   */\n      dup1\n        /* \"#utility.yul\":1458:1464   */\n      dup2\n        /* \"#utility.yul\":1451:1473   */\n      revert\n        /* \"#utility.yul\":1413:1415   */\n    tag_240:\n      pop\n        /* \"#utility.yul\":1494:1517   */\n      calldataload\n      swap2\n        /* \"#utility.yul\":1403:1523   */\n      swap1\n      pop\n      jump\t// out\n        /* \"#utility.yul\":1528:1722   */\n    tag_96:\n      0x00\n        /* \"#utility.yul\":1651:1653   */\n      0x20\n        /* \"#utility.yul\":1639:1648   */\n      dup3\n        /* \"#utility.yul\":1630:1637   */\n      dup5\n        /* \"#utility.yul\":1626:1649   */\n      sub\n        /* \"#utility.yul\":1622:1654   */\n      slt\n        /* \"#utility.yul\":1619:1621   */\n      iszero\n      tag_242\n      jumpi\n        /* \"#utility.yul\":1672:1678   */\n      dup1\n        /* \"#utility.yul\":1664:1670   */\n      dup2\n        /* \"#utility.yul\":1657:1679   */\n      revert\n        /* \"#utility.yul\":1619:1621   */\n    tag_242:\n      pop\n        /* \"#utility.yul\":1700:1716   */\n      mload\n      swap2\n        /* \"#utility.yul\":1609:1722   */\n      swap1\n      pop\n      jump\t// out\n        /* \"#utility.yul\":1727:1930   */\n    tag_45:\n      sub(shl(0xa0, 0x01), 0x01)\n        /* \"#utility.yul\":1891:1923   */\n      swap2\n      swap1\n      swap2\n      and\n        /* \"#utility.yul\":1873:1924   */\n      dup2\n      mstore\n        /* \"#utility.yul\":1861:1863   */\n      0x20\n        /* \"#utility.yul\":1846:1864   */\n      add\n      swap1\n        /* \"#utility.yul\":1828:1930   */\n      jump\t// out\n        /* \"#utility.yul\":1935:2310   */\n    tag_145:\n      sub(shl(0xa0, 0x01), 0x01)\n        /* \"#utility.yul\":2193:2208   */\n      swap4\n      dup5\n      and\n        /* \"#utility.yul\":2175:2209   */\n      dup2\n      mstore\n        /* \"#utility.yul\":2245:2260   */\n      swap2\n      swap1\n      swap3\n      and\n        /* \"#utility.yul\":2240:2242   */\n      0x20\n        /* \"#utility.yul\":2225:2243   */\n      dup3\n      add\n        /* \"#utility.yul\":2218:2261   */\n      mstore\n        /* \"#utility.yul\":2292:2294   */\n      0x40\n        /* \"#utility.yul\":2277:2295   */\n      dup2\n      add\n        /* \"#utility.yul\":2270:2304   */\n      swap2\n      swap1\n      swap2\n      mstore\n        /* \"#utility.yul\":2125:2127   */\n      0x60\n        /* \"#utility.yul\":2110:2128   */\n      add\n      swap1\n        /* \"#utility.yul\":2092:2310   */\n      jump\t// out\n        /* \"#utility.yul\":2315:2589   */\n    tag_98:\n      sub(shl(0xa0, 0x01), 0x01)\n        /* \"#utility.yul\":2507:2539   */\n      swap3\n      swap1\n      swap3\n      and\n        /* \"#utility.yul\":2489:2540   */\n      dup3\n      mstore\n        /* \"#utility.yul\":2571:2573   */\n      0x20\n        /* \"#utility.yul\":2556:2574   */\n      dup3\n      add\n        /* \"#utility.yul\":2549:2583   */\n      mstore\n        /* \"#utility.yul\":2477:2479   */\n      0x40\n        /* \"#utility.yul\":2462:2480   */\n      add\n      swap1\n        /* \"#utility.yul\":2444:2589   */\n      jump\t// out\n        /* \"#utility.yul\":2594:2781   */\n    tag_26:\n        /* \"#utility.yul\":2759:2773   */\n      swap1\n      iszero\n        /* \"#utility.yul\":2752:2774   */\n      iszero\n        /* \"#utility.yul\":2734:2775   */\n      dup2\n      mstore\n        /* \"#utility.yul\":2722:2724   */\n      0x20\n        /* \"#utility.yul\":2707:2725   */\n      add\n      swap1\n        /* \"#utility.yul\":2689:2781   */\n      jump\t// out\n        /* \"#utility.yul\":3019:3373   */\n    tag_90:\n        /* \"#utility.yul\":3221:3223   */\n      0x20\n        /* \"#utility.yul\":3203:3224   */\n      dup1\n      dup3\n      mstore\n        /* \"#utility.yul\":3260:3262   */\n      0x1e\n        /* \"#utility.yul\":3240:3258   */\n      swap1\n      dup3\n      add\n        /* \"#utility.yul\":3233:3263   */\n      mstore\n        /* \"#utility.yul\":3299:3331   */\n      0x7377617070696e67206f66206153454120686173206e6f7420656e6465640000\n        /* \"#utility.yul\":3294:3296   */\n      0x40\n        /* \"#utility.yul\":3279:3297   */\n      dup3\n      add\n        /* \"#utility.yul\":3272:3332   */\n      mstore\n        /* \"#utility.yul\":3364:3366   */\n      0x60\n        /* \"#utility.yul\":3349:3367   */\n      add\n      swap1\n        /* \"#utility.yul\":3193:3373   */\n      jump\t// out\n        /* \"#utility.yul\":3378:3717   */\n    tag_128:\n        /* \"#utility.yul\":3580:3582   */\n      0x20\n        /* \"#utility.yul\":3562:3583   */\n      dup1\n      dup3\n      mstore\n        /* \"#utility.yul\":3619:3621   */\n      0x0f\n        /* \"#utility.yul\":3599:3617   */\n      swap1\n      dup3\n      add\n        /* \"#utility.yul\":3592:3622   */\n      mstore\n      shl(0x8a, 0x1b9bdd081a5b9a5d1a585b1a5e9959)\n        /* \"#utility.yul\":3653:3655   */\n      0x40\n        /* \"#utility.yul\":3638:3656   */\n      dup3\n      add\n        /* \"#utility.yul\":3631:3676   */\n      mstore\n        /* \"#utility.yul\":3708:3710   */\n      0x60\n        /* \"#utility.yul\":3693:3711   */\n      add\n      swap1\n        /* \"#utility.yul\":3552:3717   */\n      jump\t// out\n        /* \"#utility.yul\":3722:4124   */\n    tag_187:\n        /* \"#utility.yul\":3924:3926   */\n      0x20\n        /* \"#utility.yul\":3906:3927   */\n      dup1\n      dup3\n      mstore\n        /* \"#utility.yul\":3963:3965   */\n      0x26\n        /* \"#utility.yul\":3943:3961   */\n      swap1\n      dup3\n      add\n        /* \"#utility.yul\":3936:3966   */\n      mstore\n        /* \"#utility.yul\":4002:4036   */\n      0x4f776e61626c653a206e6577206f776e657220697320746865207a65726f2061\n        /* \"#utility.yul\":3997:3999   */\n      0x40\n        /* \"#utility.yul\":3982:4000   */\n      dup3\n      add\n        /* \"#utility.yul\":3975:4037   */\n      mstore\n      shl(0xd0, 0x646472657373)\n        /* \"#utility.yul\":4068:4070   */\n      0x60\n        /* \"#utility.yul\":4053:4071   */\n      dup3\n      add\n        /* \"#utility.yul\":4046:4082   */\n      mstore\n        /* \"#utility.yul\":4114:4117   */\n      0x80\n        /* \"#utility.yul\":4099:4118   */\n      add\n      swap1\n        /* \"#utility.yul\":3896:4124   */\n      jump\t// out\n        /* \"#utility.yul\":4129:4539   */\n    tag_173:\n        /* \"#utility.yul\":4331:4333   */\n      0x20\n        /* \"#utility.yul\":4313:4334   */\n      dup1\n      dup3\n      mstore\n        /* \"#utility.yul\":4370:4372   */\n      0x2e\n        /* \"#utility.yul\":4350:4368   */\n      swap1\n      dup3\n      add\n        /* \"#utility.yul\":4343:4373   */\n      mstore\n        /* \"#utility.yul\":4409:4443   */\n      0x496e697469616c697a61626c653a20636f6e747261637420697320616c726561\n        /* \"#utility.yul\":4404:4406   */\n      0x40\n        /* \"#utility.yul\":4389:4407   */\n      dup3\n      add\n        /* \"#utility.yul\":4382:4444   */\n      mstore\n      shl(0x92, 0x191e481a5b9a5d1a585b1a5e9959)\n        /* \"#utility.yul\":4475:4477   */\n      0x60\n        /* \"#utility.yul\":4460:4478   */\n      dup3\n      add\n        /* \"#utility.yul\":4453:4497   */\n      mstore\n        /* \"#utility.yul\":4529:4532   */\n      0x80\n        /* \"#utility.yul\":4514:4533   */\n      add\n      swap1\n        /* \"#utility.yul\":4303:4539   */\n      jump\t// out\n        /* \"#utility.yul\":4544:4900   */\n    tag_86:\n        /* \"#utility.yul\":4746:4748   */\n      0x20\n        /* \"#utility.yul\":4728:4749   */\n      dup1\n      dup3\n      mstore\n        /* \"#utility.yul\":4765:4783   */\n      dup2\n      dup2\n      add\n        /* \"#utility.yul\":4758:4788   */\n      mstore\n        /* \"#utility.yul\":4824:4858   */\n      0x4f776e61626c653a2063616c6c6572206973206e6f7420746865206f776e6572\n        /* \"#utility.yul\":4819:4821   */\n      0x40\n        /* \"#utility.yul\":4804:4822   */\n      dup3\n      add\n        /* \"#utility.yul\":4797:4859   */\n      mstore\n        /* \"#utility.yul\":4891:4893   */\n      0x60\n        /* \"#utility.yul\":4876:4894   */\n      add\n      swap1\n        /* \"#utility.yul\":4718:4900   */\n      jump\t// out\n        /* \"#utility.yul\":4905:5256   */\n    tag_137:\n        /* \"#utility.yul\":5107:5109   */\n      0x20\n        /* \"#utility.yul\":5089:5110   */\n      dup1\n      dup3\n      mstore\n        /* \"#utility.yul\":5146:5148   */\n      0x1b\n        /* \"#utility.yul\":5126:5144   */\n      swap1\n      dup3\n      add\n        /* \"#utility.yul\":5119:5149   */\n      mstore\n        /* \"#utility.yul\":5185:5214   */\n      0x457863656564207468652073706563696669656420616d6f756e740000000000\n        /* \"#utility.yul\":5180:5182   */\n      0x40\n        /* \"#utility.yul\":5165:5183   */\n      dup3\n      add\n        /* \"#utility.yul\":5158:5215   */\n      mstore\n        /* \"#utility.yul\":5247:5249   */\n      0x60\n        /* \"#utility.yul\":5232:5250   */\n      add\n      swap1\n        /* \"#utility.yul\":5079:5256   */\n      jump\t// out\n        /* \"#utility.yul\":5261:5611   */\n    tag_143:\n        /* \"#utility.yul\":5463:5465   */\n      0x20\n        /* \"#utility.yul\":5445:5466   */\n      dup1\n      dup3\n      mstore\n        /* \"#utility.yul\":5502:5504   */\n      0x1a\n        /* \"#utility.yul\":5482:5500   */\n      swap1\n      dup3\n      add\n        /* \"#utility.yul\":5475:5505   */\n      mstore\n        /* \"#utility.yul\":5541:5569   */\n      0x7377617070696e67206f6620615345412068617320656e646564000000000000\n        /* \"#utility.yul\":5536:5538   */\n      0x40\n        /* \"#utility.yul\":5521:5539   */\n      dup3\n      add\n        /* \"#utility.yul\":5514:5570   */\n      mstore\n        /* \"#utility.yul\":5602:5604   */\n      0x60\n        /* \"#utility.yul\":5587:5605   */\n      add\n      swap1\n        /* \"#utility.yul\":5435:5611   */\n      jump\t// out\n        /* \"#utility.yul\":5616:5955   */\n    tag_140:\n        /* \"#utility.yul\":5818:5820   */\n      0x20\n        /* \"#utility.yul\":5800:5821   */\n      dup1\n      dup3\n      mstore\n        /* \"#utility.yul\":5857:5859   */\n      0x0f\n        /* \"#utility.yul\":5837:5855   */\n      swap1\n      dup3\n      add\n        /* \"#utility.yul\":5830:5860   */\n      mstore\n      shl(0x8a, 0x139bdd081cdd185c9d1959081e595d)\n        /* \"#utility.yul\":5891:5893   */\n      0x40\n        /* \"#utility.yul\":5876:5894   */\n      dup3\n      add\n        /* \"#utility.yul\":5869:5914   */\n      mstore\n        /* \"#utility.yul\":5946:5948   */\n      0x60\n        /* \"#utility.yul\":5931:5949   */\n      add\n      swap1\n        /* \"#utility.yul\":5790:5955   */\n      jump\t// out\n        /* \"#utility.yul\":5960:6137   */\n    tag_53:\n        /* \"#utility.yul\":6106:6131   */\n      swap1\n      dup2\n      mstore\n        /* \"#utility.yul\":6094:6096   */\n      0x20\n        /* \"#utility.yul\":6079:6097   */\n      add\n      swap1\n        /* \"#utility.yul\":6061:6137   */\n      jump\t// out\n        /* \"#utility.yul\":6142:6371   */\n    tag_193:\n      0x00\n        /* \"#utility.yul\":6213:6214   */\n      dup3\n        /* \"#utility.yul\":6209:6215   */\n      not\n        /* \"#utility.yul\":6206:6207   */\n      dup3\n        /* \"#utility.yul\":6203:6216   */\n      gt\n        /* \"#utility.yul\":6200:6202   */\n      iszero\n      tag_258\n      jumpi\n      shl(0xe0, 0x4e487b71)\n        /* \"#utility.yul\":6239:6272   */\n      dup2\n      mstore\n        /* \"#utility.yul\":6295:6299   */\n      0x11\n        /* \"#utility.yul\":6292:6293   */\n      0x04\n        /* \"#utility.yul\":6285:6300   */\n      mstore\n        /* \"#utility.yul\":6325:6329   */\n      0x24\n        /* \"#utility.yul\":6246:6249   */\n      dup2\n        /* \"#utility.yul\":6313:6330   */\n      revert\n        /* \"#utility.yul\":6200:6202   */\n    tag_258:\n      pop\n        /* \"#utility.yul\":6356:6365   */\n      add\n      swap1\n        /* \"#utility.yul\":6190:6371   */\n      jump\t// out\n        /* \"#utility.yul\":6376:6496   */\n    tag_235:\n        /* \"#utility.yul\":6464:6469   */\n      dup1\n        /* \"#utility.yul\":6457:6470   */\n      iszero\n        /* \"#utility.yul\":6450:6471   */\n      iszero\n        /* \"#utility.yul\":6443:6448   */\n      dup2\n        /* \"#utility.yul\":6440:6472   */\n      eq\n        /* \"#utility.yul\":6430:6432   */\n      tag_188\n      jumpi\n        /* \"#utility.yul\":6486:6487   */\n      0x00\n        /* \"#utility.yul\":6483:6484   */\n      dup1\n        /* \"#utility.yul\":6476:6488   */\n      revert\n\n    auxdata: 0xa26469706673582212204efd9fece93a08c3cef6a0909ab6a26c923655b4c86f742e2420ac62b26ee80864736f6c63430008000033\n}\n",
				"bytecode": {
					"linkReferences": {},
					"object": "608060405234801561001057600080fd5b50610dd1806100206000396000f3fe608060405234801561001057600080fd5b506004361061010b5760003560e01c8063a6dd4c66116100a2578063e6fd48bc11610071578063e6fd48bc146101d9578063eb990c59146101e1578063f019e2b2146101f4578063f2fde38b146101fc578063ff257dad1461020f5761010b565b8063a6dd4c661461018b578063a85717d3146101ab578063a85adeab146101be578063c44bef75146101c65761010b565b8063715018a6116100de578063715018a6146101605780637df6a6c8146101685780638da5cb5b1461017b5780638fd3ab80146101835761010b565b8063392e53cd146101105780633ccfd60b1461012e5780635294385b146101385780635d2b6a0c1461014b575b600080fd5b610118610217565b6040516101259190610b95565b60405180910390f35b610136610227565b005b610136610146366004610b14565b61039a565b6101536103de565b6040516101259190610b44565b6101366103ed565b610136610176366004610b14565b610438565b61015361047c565b61013661048b565b61019e610199366004610a81565b610680565b6040516101259190610d60565b6101366101b9366004610adc565b610692565b61019e6106ef565b6101366101d4366004610b14565b6106f5565b61019e610739565b6101366101ef366004610a9b565b61073f565b61019e61080f565b61013661020a366004610a81565b610815565b610153610886565b606954600160a01b900460ff1681565b61022f610895565b6001600160a01b031661024061047c565b6001600160a01b03161461026f5760405162461bcd60e51b815260040161026690610c94565b60405180910390fd5b60655442116102905760405162461bcd60e51b815260040161026690610ba0565b6068546040516370a0823160e01b81526000916001600160a01b0316906370a08231906102c1903090600401610b44565b60206040518083038186803b1580156102d957600080fd5b505afa1580156102ed573d6000803e3d6000fd5b505050506040513d601f19601f820116820180604052508101906103119190610b2c565b60685460405163a9059cbb60e01b81529192506001600160a01b03169063a9059cbb906103449033908590600401610b7c565b602060405180830381600087803b15801561035e57600080fd5b505af1158015610372573d6000803e3d6000fd5b505050506040513d601f19601f820116820180604052508101906103969190610af8565b5050565b6103a2610895565b6001600160a01b03166103b361047c565b6001600160a01b0316146103d95760405162461bcd60e51b815260040161026690610c94565b606755565b6069546001600160a01b031681565b6103f5610895565b6001600160a01b031661040661047c565b6001600160a01b03161461042c5760405162461bcd60e51b815260040161026690610c94565b6104366000610899565b565b610440610895565b6001600160a01b031661045161047c565b6001600160a01b0316146104775760405162461bcd60e51b815260040161026690610c94565b606555565b6033546001600160a01b031690565b606954600160a01b900460ff166104b45760405162461bcd60e51b815260040161026690610bd7565b6069546040516370a0823160e01b81526000916001600160a01b0316906370a08231906104e5903390600401610b44565b60206040518083038186803b1580156104fd57600080fd5b505afa158015610511573d6000803e3d6000fd5b505050506040513d601f19601f820116820180604052508101906105359190610b2c565b90506067548111156105595760405162461bcd60e51b815260040161026690610cc9565b426066541061057a5760405162461bcd60e51b815260040161026690610d37565b606554421061059b5760405162461bcd60e51b815260040161026690610d00565b6069546040516323b872dd60e01b81526001600160a01b03909116906323b872dd906105cf90339030908690600401610b58565b602060405180830381600087803b1580156105e957600080fd5b505af11580156105fd573d6000803e3d6000fd5b505050506040513d601f19601f820116820180604052508101906106219190610af8565b50336000908152606a602052604090205461063c90826108eb565b336000818152606a60205260409081902092909255606854915163a9059cbb60e01b81526001600160a01b039092169163a9059cbb91610344918590600401610b7c565b606a6020526000908152604090205481565b61069a610895565b6001600160a01b03166106ab61047c565b6001600160a01b0316146106d15760405162461bcd60e51b815260040161026690610c94565b60698054911515600160a01b0260ff60a01b19909216919091179055565b60655481565b6106fd610895565b6001600160a01b031661070e61047c565b6001600160a01b0316146107345760405162461bcd60e51b815260040161026690610c94565b606655565b60665481565b600054610100900460ff1680610758575060005460ff16155b6107745760405162461bcd60e51b815260040161026690610c46565b600054610100900460ff1615801561079f576000805460ff1961ff0019909116610100171660011790555b6107a76108fe565b606880546001600160a01b038088166001600160a01b031992831617909255606980546066879055606586905560ff60a01b1993881692169190911791909116905568068155a43676e000006067558015610808576000805461ff00191690555b5050505050565b60675481565b61081d610895565b6001600160a01b031661082e61047c565b6001600160a01b0316146108545760405162461bcd60e51b815260040161026690610c94565b6001600160a01b03811661087a5760405162461bcd60e51b815260040161026690610c00565b61088381610899565b50565b6068546001600160a01b031681565b3390565b603380546001600160a01b038381166001600160a01b0319831681179093556040519116919082907f8be0079c531659141344cd1fd0a4f28419497f9722a3daafe3b4186f6b6457e090600090a35050565b60006108f78284610d69565b9392505050565b600054610100900460ff1680610917575060005460ff16155b6109335760405162461bcd60e51b815260040161026690610c46565b600054610100900460ff1615801561095e576000805460ff1961ff0019909116610100171660011790555b610966610982565b61096e6109f5565b8015610883576000805461ff001916905550565b600054610100900460ff168061099b575060005460ff16155b6109b75760405162461bcd60e51b815260040161026690610c46565b600054610100900460ff1615801561096e576000805460ff1961ff0019909116610100171660011790558015610883576000805461ff001916905550565b600054610100900460ff1680610a0e575060005460ff16155b610a2a5760405162461bcd60e51b815260040161026690610c46565b600054610100900460ff16158015610a55576000805460ff1961ff0019909116610100171660011790555b61096e610a60610895565b610899565b80356001600160a01b0381168114610a7c57600080fd5b919050565b600060208284031215610a92578081fd5b6108f782610a65565b60008060008060808587031215610ab0578283fd5b610ab985610a65565b9350610ac760208601610a65565b93969395505050506040820135916060013590565b600060208284031215610aed578081fd5b81356108f781610d8d565b600060208284031215610b09578081fd5b81516108f781610d8d565b600060208284031215610b25578081fd5b5035919050565b600060208284031215610b3d578081fd5b5051919050565b6001600160a01b0391909116815260200190565b6001600160a01b039384168152919092166020820152604081019190915260600190565b6001600160a01b03929092168252602082015260400190565b901515815260200190565b6020808252601e908201527f7377617070696e67206f66206153454120686173206e6f7420656e6465640000604082015260600190565b6020808252600f908201526e1b9bdd081a5b9a5d1a585b1a5e9959608a1b604082015260600190565b60208082526026908201527f4f776e61626c653a206e6577206f776e657220697320746865207a65726f206160408201526564647265737360d01b606082015260800190565b6020808252602e908201527f496e697469616c697a61626c653a20636f6e747261637420697320616c72656160408201526d191e481a5b9a5d1a585b1a5e995960921b606082015260800190565b6020808252818101527f4f776e61626c653a2063616c6c6572206973206e6f7420746865206f776e6572604082015260600190565b6020808252601b908201527f457863656564207468652073706563696669656420616d6f756e740000000000604082015260600190565b6020808252601a908201527f7377617070696e67206f6620615345412068617320656e646564000000000000604082015260600190565b6020808252600f908201526e139bdd081cdd185c9d1959081e595d608a1b604082015260600190565b90815260200190565b60008219821115610d8857634e487b7160e01b81526011600452602481fd5b500190565b801515811461088357600080fdfea26469706673582212204efd9fece93a08c3cef6a0909ab6a26c923655b4c86f742e2420ac62b26ee80864736f6c63430008000033",
					"opcodes": "PUSH1 0x80 PUSH1 0x40 MSTORE CALLVALUE DUP1 ISZERO PUSH2 0x10 JUMPI PUSH1 0x0 DUP1 REVERT JUMPDEST POP PUSH2 0xDD1 DUP1 PUSH2 0x20 PUSH1 0x0 CODECOPY PUSH1 0x0 RETURN INVALID PUSH1 0x80 PUSH1 0x40 MSTORE CALLVALUE DUP1 ISZERO PUSH2 0x10 JUMPI PUSH1 0x0 DUP1 REVERT JUMPDEST POP PUSH1 0x4 CALLDATASIZE LT PUSH2 0x10B JUMPI PUSH1 0x0 CALLDATALOAD PUSH1 0xE0 SHR DUP1 PUSH4 0xA6DD4C66 GT PUSH2 0xA2 JUMPI DUP1 PUSH4 0xE6FD48BC GT PUSH2 0x71 JUMPI DUP1 PUSH4 0xE6FD48BC EQ PUSH2 0x1D9 JUMPI DUP1 PUSH4 0xEB990C59 EQ PUSH2 0x1E1 JUMPI DUP1 PUSH4 0xF019E2B2 EQ PUSH2 0x1F4 JUMPI DUP1 PUSH4 0xF2FDE38B EQ PUSH2 0x1FC JUMPI DUP1 PUSH4 0xFF257DAD EQ PUSH2 0x20F JUMPI PUSH2 0x10B JUMP JUMPDEST DUP1 PUSH4 0xA6DD4C66 EQ PUSH2 0x18B JUMPI DUP1 PUSH4 0xA85717D3 EQ PUSH2 0x1AB JUMPI DUP1 PUSH4 0xA85ADEAB EQ PUSH2 0x1BE JUMPI DUP1 PUSH4 0xC44BEF75 EQ PUSH2 0x1C6 JUMPI PUSH2 0x10B JUMP JUMPDEST DUP1 PUSH4 0x715018A6 GT PUSH2 0xDE JUMPI DUP1 PUSH4 0x715018A6 EQ PUSH2 0x160 JUMPI DUP1 PUSH4 0x7DF6A6C8 EQ PUSH2 0x168 JUMPI DUP1 PUSH4 0x8DA5CB5B EQ PUSH2 0x17B JUMPI DUP1 PUSH4 0x8FD3AB80 EQ PUSH2 0x183 JUMPI PUSH2 0x10B JUMP JUMPDEST DUP1 PUSH4 0x392E53CD EQ PUSH2 0x110 JUMPI DUP1 PUSH4 0x3CCFD60B EQ PUSH2 0x12E JUMPI DUP1 PUSH4 0x5294385B EQ PUSH2 0x138 JUMPI DUP1 PUSH4 0x5D2B6A0C EQ PUSH2 0x14B JUMPI JUMPDEST PUSH1 0x0 DUP1 REVERT JUMPDEST PUSH2 0x118 PUSH2 0x217 JUMP JUMPDEST PUSH1 0x40 MLOAD PUSH2 0x125 SWAP2 SWAP1 PUSH2 0xB95 JUMP JUMPDEST PUSH1 0x40 MLOAD DUP1 SWAP2 SUB SWAP1 RETURN JUMPDEST PUSH2 0x136 PUSH2 0x227 JUMP JUMPDEST STOP JUMPDEST PUSH2 0x136 PUSH2 0x146 CALLDATASIZE PUSH1 0x4 PUSH2 0xB14 JUMP JUMPDEST PUSH2 0x39A JUMP JUMPDEST PUSH2 0x153 PUSH2 0x3DE JUMP JUMPDEST PUSH1 0x40 MLOAD PUSH2 0x125 SWAP2 SWAP1 PUSH2 0xB44 JUMP JUMPDEST PUSH2 0x136 PUSH2 0x3ED JUMP JUMPDEST PUSH2 0x136 PUSH2 0x176 CALLDATASIZE PUSH1 0x4 PUSH2 0xB14 JUMP JUMPDEST PUSH2 0x438 JUMP JUMPDEST PUSH2 0x153 PUSH2 0x47C JUMP JUMPDEST PUSH2 0x136 PUSH2 0x48B JUMP JUMPDEST PUSH2 0x19E PUSH2 0x199 CALLDATASIZE PUSH1 0x4 PUSH2 0xA81 JUMP JUMPDEST PUSH2 0x680 JUMP JUMPDEST PUSH1 0x40 MLOAD PUSH2 0x125 SWAP2 SWAP1 PUSH2 0xD60 JUMP JUMPDEST PUSH2 0x136 PUSH2 0x1B9 CALLDATASIZE PUSH1 0x4 PUSH2 0xADC JUMP JUMPDEST PUSH2 0x692 JUMP JUMPDEST PUSH2 0x19E PUSH2 0x6EF JUMP JUMPDEST PUSH2 0x136 PUSH2 0x1D4 CALLDATASIZE PUSH1 0x4 PUSH2 0xB14 JUMP JUMPDEST PUSH2 0x6F5 JUMP JUMPDEST PUSH2 0x19E PUSH2 0x739 JUMP JUMPDEST PUSH2 0x136 PUSH2 0x1EF CALLDATASIZE PUSH1 0x4 PUSH2 0xA9B JUMP JUMPDEST PUSH2 0x73F JUMP JUMPDEST PUSH2 0x19E PUSH2 0x80F JUMP JUMPDEST PUSH2 0x136 PUSH2 0x20A CALLDATASIZE PUSH1 0x4 PUSH2 0xA81 JUMP JUMPDEST PUSH2 0x815 JUMP JUMPDEST PUSH2 0x153 PUSH2 0x886 JUMP JUMPDEST PUSH1 0x69 SLOAD PUSH1 0x1 PUSH1 0xA0 SHL SWAP1 DIV PUSH1 0xFF AND DUP2 JUMP JUMPDEST PUSH2 0x22F PUSH2 0x895 JUMP JUMPDEST PUSH1 0x1 PUSH1 0x1 PUSH1 0xA0 SHL SUB AND PUSH2 0x240 PUSH2 0x47C JUMP JUMPDEST PUSH1 0x1 PUSH1 0x1 PUSH1 0xA0 SHL SUB AND EQ PUSH2 0x26F JUMPI PUSH1 0x40 MLOAD PUSH3 0x461BCD PUSH1 0xE5 SHL DUP2 MSTORE PUSH1 0x4 ADD PUSH2 0x266 SWAP1 PUSH2 0xC94 JUMP JUMPDEST PUSH1 0x40 MLOAD DUP1 SWAP2 SUB SWAP1 REVERT JUMPDEST PUSH1 0x65 SLOAD TIMESTAMP GT PUSH2 0x290 JUMPI PUSH1 0x40 MLOAD PUSH3 0x461BCD PUSH1 0xE5 SHL DUP2 MSTORE PUSH1 0x4 ADD PUSH2 0x266 SWAP1 PUSH2 0xBA0 JUMP JUMPDEST PUSH1 0x68 SLOAD PUSH1 0x40 MLOAD PUSH4 0x70A08231 PUSH1 0xE0 SHL DUP2 MSTORE PUSH1 0x0 SWAP2 PUSH1 0x1 PUSH1 0x1 PUSH1 0xA0 SHL SUB AND SWAP1 PUSH4 0x70A08231 SWAP1 PUSH2 0x2C1 SWAP1 ADDRESS SWAP1 PUSH1 0x4 ADD PUSH2 0xB44 JUMP JUMPDEST PUSH1 0x20 PUSH1 0x40 MLOAD DUP1 DUP4 SUB DUP2 DUP7 DUP1 EXTCODESIZE ISZERO DUP1 ISZERO PUSH2 0x2D9 JUMPI PUSH1 0x0 DUP1 REVERT JUMPDEST POP GAS STATICCALL ISZERO DUP1 ISZERO PUSH2 0x2ED JUMPI RETURNDATASIZE PUSH1 0x0 DUP1 RETURNDATACOPY RETURNDATASIZE PUSH1 0x0 REVERT JUMPDEST POP POP POP POP PUSH1 0x40 MLOAD RETURNDATASIZE PUSH1 0x1F NOT PUSH1 0x1F DUP3 ADD AND DUP3 ADD DUP1 PUSH1 0x40 MSTORE POP DUP2 ADD SWAP1 PUSH2 0x311 SWAP2 SWAP1 PUSH2 0xB2C JUMP JUMPDEST PUSH1 0x68 SLOAD PUSH1 0x40 MLOAD PUSH4 0xA9059CBB PUSH1 0xE0 SHL DUP2 MSTORE SWAP2 SWAP3 POP PUSH1 0x1 PUSH1 0x1 PUSH1 0xA0 SHL SUB AND SWAP1 PUSH4 0xA9059CBB SWAP1 PUSH2 0x344 SWAP1 CALLER SWAP1 DUP6 SWAP1 PUSH1 0x4 ADD PUSH2 0xB7C JUMP JUMPDEST PUSH1 0x20 PUSH1 0x40 MLOAD DUP1 DUP4 SUB DUP2 PUSH1 0x0 DUP8 DUP1 EXTCODESIZE ISZERO DUP1 ISZERO PUSH2 0x35E JUMPI PUSH1 0x0 DUP1 REVERT JUMPDEST POP GAS CALL ISZERO DUP1 ISZERO PUSH2 0x372 JUMPI RETURNDATASIZE PUSH1 0x0 DUP1 RETURNDATACOPY RETURNDATASIZE PUSH1 0x0 REVERT JUMPDEST POP POP POP POP PUSH1 0x40 MLOAD RETURNDATASIZE PUSH1 0x1F NOT PUSH1 0x1F DUP3 ADD AND DUP3 ADD DUP1 PUSH1 0x40 MSTORE POP DUP2 ADD SWAP1 PUSH2 0x396 SWAP2 SWAP1 PUSH2 0xAF8 JUMP JUMPDEST POP POP JUMP JUMPDEST PUSH2 0x3A2 PUSH2 0x895 JUMP JUMPDEST PUSH1 0x1 PUSH1 0x1 PUSH1 0xA0 SHL SUB AND PUSH2 0x3B3 PUSH2 0x47C JUMP JUMPDEST PUSH1 0x1 PUSH1 0x1 PUSH1 0xA0 SHL SUB AND EQ PUSH2 0x3D9 JUMPI PUSH1 0x40 MLOAD PUSH3 0x461BCD PUSH1 0xE5 SHL DUP2 MSTORE PUSH1 0x4 ADD PUSH2 0x266 SWAP1 PUSH2 0xC94 JUMP JUMPDEST PUSH1 0x67 SSTORE JUMP JUMPDEST PUSH1 0x69 SLOAD PUSH1 0x1 PUSH1 0x1 PUSH1 0xA0 SHL SUB AND DUP2 JUMP JUMPDEST PUSH2 0x3F5 PUSH2 0x895 JUMP JUMPDEST PUSH1 0x1 PUSH1 0x1 PUSH1 0xA0 SHL SUB AND PUSH2 0x406 PUSH2 0x47C JUMP JUMPDEST PUSH1 0x1 PUSH1 0x1 PUSH1 0xA0 SHL SUB AND EQ PUSH2 0x42C JUMPI PUSH1 0x40 MLOAD PUSH3 0x461BCD PUSH1 0xE5 SHL DUP2 MSTORE PUSH1 0x4 ADD PUSH2 0x266 SWAP1 PUSH2 0xC94 JUMP JUMPDEST PUSH2 0x436 PUSH1 0x0 PUSH2 0x899 JUMP JUMPDEST JUMP JUMPDEST PUSH2 0x440 PUSH2 0x895 JUMP JUMPDEST PUSH1 0x1 PUSH1 0x1 PUSH1 0xA0 SHL SUB AND PUSH2 0x451 PUSH2 0x47C JUMP JUMPDEST PUSH1 0x1 PUSH1 0x1 PUSH1 0xA0 SHL SUB AND EQ PUSH2 0x477 JUMPI PUSH1 0x40 MLOAD PUSH3 0x461BCD PUSH1 0xE5 SHL DUP2 MSTORE PUSH1 0x4 ADD PUSH2 0x266 SWAP1 PUSH2 0xC94 JUMP JUMPDEST PUSH1 0x65 SSTORE JUMP JUMPDEST PUSH1 0x33 SLOAD PUSH1 0x1 PUSH1 0x1 PUSH1 0xA0 SHL SUB AND SWAP1 JUMP JUMPDEST PUSH1 0x69 SLOAD PUSH1 0x1 PUSH1 0xA0 SHL SWAP1 DIV PUSH1 0xFF AND PUSH2 0x4B4 JUMPI PUSH1 0x40 MLOAD PUSH3 0x461BCD PUSH1 0xE5 SHL DUP2 MSTORE PUSH1 0x4 ADD PUSH2 0x266 SWAP1 PUSH2 0xBD7 JUMP JUMPDEST PUSH1 0x69 SLOAD PUSH1 0x40 MLOAD PUSH4 0x70A08231 PUSH1 0xE0 SHL DUP2 MSTORE PUSH1 0x0 SWAP2 PUSH1 0x1 PUSH1 0x1 PUSH1 0xA0 SHL SUB AND SWAP1 PUSH4 0x70A08231 SWAP1 PUSH2 0x4E5 SWAP1 CALLER SWAP1 PUSH1 0x4 ADD PUSH2 0xB44 JUMP JUMPDEST PUSH1 0x20 PUSH1 0x40 MLOAD DUP1 DUP4 SUB DUP2 DUP7 DUP1 EXTCODESIZE ISZERO DUP1 ISZERO PUSH2 0x4FD JUMPI PUSH1 0x0 DUP1 REVERT JUMPDEST POP GAS STATICCALL ISZERO DUP1 ISZERO PUSH2 0x511 JUMPI RETURNDATASIZE PUSH1 0x0 DUP1 RETURNDATACOPY RETURNDATASIZE PUSH1 0x0 REVERT JUMPDEST POP POP POP POP PUSH1 0x40 MLOAD RETURNDATASIZE PUSH1 0x1F NOT PUSH1 0x1F DUP3 ADD AND DUP3 ADD DUP1 PUSH1 0x40 MSTORE POP DUP2 ADD SWAP1 PUSH2 0x535 SWAP2 SWAP1 PUSH2 0xB2C JUMP JUMPDEST SWAP1 POP PUSH1 0x67 SLOAD DUP2 GT ISZERO PUSH2 0x559 JUMPI PUSH1 0x40 MLOAD PUSH3 0x461BCD PUSH1 0xE5 SHL DUP2 MSTORE PUSH1 0x4 ADD PUSH2 0x266 SWAP1 PUSH2 0xCC9 JUMP JUMPDEST TIMESTAMP PUSH1 0x66 SLOAD LT PUSH2 0x57A JUMPI PUSH1 0x40 MLOAD PUSH3 0x461BCD PUSH1 0xE5 SHL DUP2 MSTORE PUSH1 0x4 ADD PUSH2 0x266 SWAP1 PUSH2 0xD37 JUMP JUMPDEST PUSH1 0x65 SLOAD TIMESTAMP LT PUSH2 0x59B JUMPI PUSH1 0x40 MLOAD PUSH3 0x461BCD PUSH1 0xE5 SHL DUP2 MSTORE PUSH1 0x4 ADD PUSH2 0x266 SWAP1 PUSH2 0xD00 JUMP JUMPDEST PUSH1 0x69 SLOAD PUSH1 0x40 MLOAD PUSH4 0x23B872DD PUSH1 0xE0 SHL DUP2 MSTORE PUSH1 0x1 PUSH1 0x1 PUSH1 0xA0 SHL SUB SWAP1 SWAP2 AND SWAP1 PUSH4 0x23B872DD SWAP1 PUSH2 0x5CF SWAP1 CALLER SWAP1 ADDRESS SWAP1 DUP7 SWAP1 PUSH1 0x4 ADD PUSH2 0xB58 JUMP JUMPDEST PUSH1 0x20 PUSH1 0x40 MLOAD DUP1 DUP4 SUB DUP2 PUSH1 0x0 DUP8 DUP1 EXTCODESIZE ISZERO DUP1 ISZERO PUSH2 0x5E9 JUMPI PUSH1 0x0 DUP1 REVERT JUMPDEST POP GAS CALL ISZERO DUP1 ISZERO PUSH2 0x5FD JUMPI RETURNDATASIZE PUSH1 0x0 DUP1 RETURNDATACOPY RETURNDATASIZE PUSH1 0x0 REVERT JUMPDEST POP POP POP POP PUSH1 0x40 MLOAD RETURNDATASIZE PUSH1 0x1F NOT PUSH1 0x1F DUP3 ADD AND DUP3 ADD DUP1 PUSH1 0x40 MSTORE POP DUP2 ADD SWAP1 PUSH2 0x621 SWAP2 SWAP1 PUSH2 0xAF8 JUMP JUMPDEST POP CALLER PUSH1 0x0 SWAP1 DUP2 MSTORE PUSH1 0x6A PUSH1 0x20 MSTORE PUSH1 0x40 SWAP1 KECCAK256 SLOAD PUSH2 0x63C SWAP1 DUP3 PUSH2 0x8EB JUMP JUMPDEST CALLER PUSH1 0x0 DUP2 DUP2 MSTORE PUSH1 0x6A PUSH1 0x20 MSTORE PUSH1 0x40 SWAP1 DUP2 SWAP1 KECCAK256 SWAP3 SWAP1 SWAP3 SSTORE PUSH1 0x68 SLOAD SWAP2 MLOAD PUSH4 0xA9059CBB PUSH1 0xE0 SHL DUP2 MSTORE PUSH1 0x1 PUSH1 0x1 PUSH1 0xA0 SHL SUB SWAP1 SWAP3 AND SWAP2 PUSH4 0xA9059CBB SWAP2 PUSH2 0x344 SWAP2 DUP6 SWAP1 PUSH1 0x4 ADD PUSH2 0xB7C JUMP JUMPDEST PUSH1 0x6A PUSH1 0x20 MSTORE PUSH1 0x0 SWAP1 DUP2 MSTORE PUSH1 0x40 SWAP1 KECCAK256 SLOAD DUP2 JUMP JUMPDEST PUSH2 0x69A PUSH2 0x895 JUMP JUMPDEST PUSH1 0x1 PUSH1 0x1 PUSH1 0xA0 SHL SUB AND PUSH2 0x6AB PUSH2 0x47C JUMP JUMPDEST PUSH1 0x1 PUSH1 0x1 PUSH1 0xA0 SHL SUB AND EQ PUSH2 0x6D1 JUMPI PUSH1 0x40 MLOAD PUSH3 0x461BCD PUSH1 0xE5 SHL DUP2 MSTORE PUSH1 0x4 ADD PUSH2 0x266 SWAP1 PUSH2 0xC94 JUMP JUMPDEST PUSH1 0x69 DUP1 SLOAD SWAP2 ISZERO ISZERO PUSH1 0x1 PUSH1 0xA0 SHL MUL PUSH1 0xFF PUSH1 0xA0 SHL NOT SWAP1 SWAP3 AND SWAP2 SWAP1 SWAP2 OR SWAP1 SSTORE JUMP JUMPDEST PUSH1 0x65 SLOAD DUP2 JUMP JUMPDEST PUSH2 0x6FD PUSH2 0x895 JUMP JUMPDEST PUSH1 0x1 PUSH1 0x1 PUSH1 0xA0 SHL SUB AND PUSH2 0x70E PUSH2 0x47C JUMP JUMPDEST PUSH1 0x1 PUSH1 0x1 PUSH1 0xA0 SHL SUB AND EQ PUSH2 0x734 JUMPI PUSH1 0x40 MLOAD PUSH3 0x461BCD PUSH1 0xE5 SHL DUP2 MSTORE PUSH1 0x4 ADD PUSH2 0x266 SWAP1 PUSH2 0xC94 JUMP JUMPDEST PUSH1 0x66 SSTORE JUMP JUMPDEST PUSH1 0x66 SLOAD DUP2 JUMP JUMPDEST PUSH1 0x0 SLOAD PUSH2 0x100 SWAP1 DIV PUSH1 0xFF AND DUP1 PUSH2 0x758 JUMPI POP PUSH1 0x0 SLOAD PUSH1 0xFF AND ISZERO JUMPDEST PUSH2 0x774 JUMPI PUSH1 0x40 MLOAD PUSH3 0x461BCD PUSH1 0xE5 SHL DUP2 MSTORE PUSH1 0x4 ADD PUSH2 0x266 SWAP1 PUSH2 0xC46 JUMP JUMPDEST PUSH1 0x0 SLOAD PUSH2 0x100 SWAP1 DIV PUSH1 0xFF AND ISZERO DUP1 ISZERO PUSH2 0x79F JUMPI PUSH1 0x0 DUP1 SLOAD PUSH1 0xFF NOT PUSH2 0xFF00 NOT SWAP1 SWAP2 AND PUSH2 0x100 OR AND PUSH1 0x1 OR SWAP1 SSTORE JUMPDEST PUSH2 0x7A7 PUSH2 0x8FE JUMP JUMPDEST PUSH1 0x68 DUP1 SLOAD PUSH1 0x1 PUSH1 0x1 PUSH1 0xA0 SHL SUB DUP1 DUP9 AND PUSH1 0x1 PUSH1 0x1 PUSH1 0xA0 SHL SUB NOT SWAP3 DUP4 AND OR SWAP1 SWAP3 SSTORE PUSH1 0x69 DUP1 SLOAD PUSH1 0x66 DUP8 SWAP1 SSTORE PUSH1 0x65 DUP7 SWAP1 SSTORE PUSH1 0xFF PUSH1 0xA0 SHL NOT SWAP4 DUP9 AND SWAP3 AND SWAP2 SWAP1 SWAP2 OR SWAP2 SWAP1 SWAP2 AND SWAP1 SSTORE PUSH9 0x68155A43676E00000 PUSH1 0x67 SSTORE DUP1 ISZERO PUSH2 0x808 JUMPI PUSH1 0x0 DUP1 SLOAD PUSH2 0xFF00 NOT AND SWAP1 SSTORE JUMPDEST POP POP POP POP POP JUMP JUMPDEST PUSH1 0x67 SLOAD DUP2 JUMP JUMPDEST PUSH2 0x81D PUSH2 0x895 JUMP JUMPDEST PUSH1 0x1 PUSH1 0x1 PUSH1 0xA0 SHL SUB AND PUSH2 0x82E PUSH2 0x47C JUMP JUMPDEST PUSH1 0x1 PUSH1 0x1 PUSH1 0xA0 SHL SUB AND EQ PUSH2 0x854 JUMPI PUSH1 0x40 MLOAD PUSH3 0x461BCD PUSH1 0xE5 SHL DUP2 MSTORE PUSH1 0x4 ADD PUSH2 0x266 SWAP1 PUSH2 0xC94 JUMP JUMPDEST PUSH1 0x1 PUSH1 0x1 PUSH1 0xA0 SHL SUB DUP2 AND PUSH2 0x87A JUMPI PUSH1 0x40 MLOAD PUSH3 0x461BCD PUSH1 0xE5 SHL DUP2 MSTORE PUSH1 0x4 ADD PUSH2 0x266 SWAP1 PUSH2 0xC00 JUMP JUMPDEST PUSH2 0x883 DUP2 PUSH2 0x899 JUMP JUMPDEST POP JUMP JUMPDEST PUSH1 0x68 SLOAD PUSH1 0x1 PUSH1 0x1 PUSH1 0xA0 SHL SUB AND DUP2 JUMP JUMPDEST CALLER SWAP1 JUMP JUMPDEST PUSH1 0x33 DUP1 SLOAD PUSH1 0x1 PUSH1 0x1 PUSH1 0xA0 SHL SUB DUP4 DUP2 AND PUSH1 0x1 PUSH1 0x1 PUSH1 0xA0 SHL SUB NOT DUP4 AND DUP2 OR SWAP1 SWAP4 SSTORE PUSH1 0x40 MLOAD SWAP2 AND SWAP2 SWAP1 DUP3 SWAP1 PUSH32 0x8BE0079C531659141344CD1FD0A4F28419497F9722A3DAAFE3B4186F6B6457E0 SWAP1 PUSH1 0x0 SWAP1 LOG3 POP POP JUMP JUMPDEST PUSH1 0x0 PUSH2 0x8F7 DUP3 DUP5 PUSH2 0xD69 JUMP JUMPDEST SWAP4 SWAP3 POP POP POP JUMP JUMPDEST PUSH1 0x0 SLOAD PUSH2 0x100 SWAP1 DIV PUSH1 0xFF AND DUP1 PUSH2 0x917 JUMPI POP PUSH1 0x0 SLOAD PUSH1 0xFF AND ISZERO JUMPDEST PUSH2 0x933 JUMPI PUSH1 0x40 MLOAD PUSH3 0x461BCD PUSH1 0xE5 SHL DUP2 MSTORE PUSH1 0x4 ADD PUSH2 0x266 SWAP1 PUSH2 0xC46 JUMP JUMPDEST PUSH1 0x0 SLOAD PUSH2 0x100 SWAP1 DIV PUSH1 0xFF AND ISZERO DUP1 ISZERO PUSH2 0x95E JUMPI PUSH1 0x0 DUP1 SLOAD PUSH1 0xFF NOT PUSH2 0xFF00 NOT SWAP1 SWAP2 AND PUSH2 0x100 OR AND PUSH1 0x1 OR SWAP1 SSTORE JUMPDEST PUSH2 0x966 PUSH2 0x982 JUMP JUMPDEST PUSH2 0x96E PUSH2 0x9F5 JUMP JUMPDEST DUP1 ISZERO PUSH2 0x883 JUMPI PUSH1 0x0 DUP1 SLOAD PUSH2 0xFF00 NOT AND SWAP1 SSTORE POP JUMP JUMPDEST PUSH1 0x0 SLOAD PUSH2 0x100 SWAP1 DIV PUSH1 0xFF AND DUP1 PUSH2 0x99B JUMPI POP PUSH1 0x0 SLOAD PUSH1 0xFF AND ISZERO JUMPDEST PUSH2 0x9B7 JUMPI PUSH1 0x40 MLOAD PUSH3 0x461BCD PUSH1 0xE5 SHL DUP2 MSTORE PUSH1 0x4 ADD PUSH2 0x266 SWAP1 PUSH2 0xC46 JUMP JUMPDEST PUSH1 0x0 SLOAD PUSH2 0x100 SWAP1 DIV PUSH1 0xFF AND ISZERO DUP1 ISZERO PUSH2 0x96E JUMPI PUSH1 0x0 DUP1 SLOAD PUSH1 0xFF NOT PUSH2 0xFF00 NOT SWAP1 SWAP2 AND PUSH2 0x100 OR AND PUSH1 0x1 OR SWAP1 SSTORE DUP1 ISZERO PUSH2 0x883 JUMPI PUSH1 0x0 DUP1 SLOAD PUSH2 0xFF00 NOT AND SWAP1 SSTORE POP JUMP JUMPDEST PUSH1 0x0 SLOAD PUSH2 0x100 SWAP1 DIV PUSH1 0xFF AND DUP1 PUSH2 0xA0E JUMPI POP PUSH1 0x0 SLOAD PUSH1 0xFF AND ISZERO JUMPDEST PUSH2 0xA2A JUMPI PUSH1 0x40 MLOAD PUSH3 0x461BCD PUSH1 0xE5 SHL DUP2 MSTORE PUSH1 0x4 ADD PUSH2 0x266 SWAP1 PUSH2 0xC46 JUMP JUMPDEST PUSH1 0x0 SLOAD PUSH2 0x100 SWAP1 DIV PUSH1 0xFF AND ISZERO DUP1 ISZERO PUSH2 0xA55 JUMPI PUSH1 0x0 DUP1 SLOAD PUSH1 0xFF NOT PUSH2 0xFF00 NOT SWAP1 SWAP2 AND PUSH2 0x100 OR AND PUSH1 0x1 OR SWAP1 SSTORE JUMPDEST PUSH2 0x96E PUSH2 0xA60 PUSH2 0x895 JUMP JUMPDEST PUSH2 0x899 JUMP JUMPDEST DUP1 CALLDATALOAD PUSH1 0x1 PUSH1 0x1 PUSH1 0xA0 SHL SUB DUP2 AND DUP2 EQ PUSH2 0xA7C JUMPI PUSH1 0x0 DUP1 REVERT JUMPDEST SWAP2 SWAP1 POP JUMP JUMPDEST PUSH1 0x0 PUSH1 0x20 DUP3 DUP5 SUB SLT ISZERO PUSH2 0xA92 JUMPI DUP1 DUP2 REVERT JUMPDEST PUSH2 0x8F7 DUP3 PUSH2 0xA65 JUMP JUMPDEST PUSH1 0x0 DUP1 PUSH1 0x0 DUP1 PUSH1 0x80 DUP6 DUP8 SUB SLT ISZERO PUSH2 0xAB0 JUMPI DUP3 DUP4 REVERT JUMPDEST PUSH2 0xAB9 DUP6 PUSH2 0xA65 JUMP JUMPDEST SWAP4 POP PUSH2 0xAC7 PUSH1 0x20 DUP7 ADD PUSH2 0xA65 JUMP JUMPDEST SWAP4 SWAP7 SWAP4 SWAP6 POP POP POP POP PUSH1 0x40 DUP3 ADD CALLDATALOAD SWAP2 PUSH1 0x60 ADD CALLDATALOAD SWAP1 JUMP JUMPDEST PUSH1 0x0 PUSH1 0x20 DUP3 DUP5 SUB SLT ISZERO PUSH2 0xAED JUMPI DUP1 DUP2 REVERT JUMPDEST DUP2 CALLDATALOAD PUSH2 0x8F7 DUP2 PUSH2 0xD8D JUMP JUMPDEST PUSH1 0x0 PUSH1 0x20 DUP3 DUP5 SUB SLT ISZERO PUSH2 0xB09 JUMPI DUP1 DUP2 REVERT JUMPDEST DUP2 MLOAD PUSH2 0x8F7 DUP2 PUSH2 0xD8D JUMP JUMPDEST PUSH1 0x0 PUSH1 0x20 DUP3 DUP5 SUB SLT ISZERO PUSH2 0xB25 JUMPI DUP1 DUP2 REVERT JUMPDEST POP CALLDATALOAD SWAP2 SWAP1 POP JUMP JUMPDEST PUSH1 0x0 PUSH1 0x20 DUP3 DUP5 SUB SLT ISZERO PUSH2 0xB3D JUMPI DUP1 DUP2 REVERT JUMPDEST POP MLOAD SWAP2 SWAP1 POP JUMP JUMPDEST PUSH1 0x1 PUSH1 0x1 PUSH1 0xA0 SHL SUB SWAP2 SWAP1 SWAP2 AND DUP2 MSTORE PUSH1 0x20 ADD SWAP1 JUMP JUMPDEST PUSH1 0x1 PUSH1 0x1 PUSH1 0xA0 SHL SUB SWAP4 DUP5 AND DUP2 MSTORE SWAP2 SWAP1 SWAP3 AND PUSH1 0x20 DUP3 ADD MSTORE PUSH1 0x40 DUP2 ADD SWAP2 SWAP1 SWAP2 MSTORE PUSH1 0x60 ADD SWAP1 JUMP JUMPDEST PUSH1 0x1 PUSH1 0x1 PUSH1 0xA0 SHL SUB SWAP3 SWAP1 SWAP3 AND DUP3 MSTORE PUSH1 0x20 DUP3 ADD MSTORE PUSH1 0x40 ADD SWAP1 JUMP JUMPDEST SWAP1 ISZERO ISZERO DUP2 MSTORE PUSH1 0x20 ADD SWAP1 JUMP JUMPDEST PUSH1 0x20 DUP1 DUP3 MSTORE PUSH1 0x1E SWAP1 DUP3 ADD MSTORE PUSH32 0x7377617070696E67206F66206153454120686173206E6F7420656E6465640000 PUSH1 0x40 DUP3 ADD MSTORE PUSH1 0x60 ADD SWAP1 JUMP JUMPDEST PUSH1 0x20 DUP1 DUP3 MSTORE PUSH1 0xF SWAP1 DUP3 ADD MSTORE PUSH15 0x1B9BDD081A5B9A5D1A585B1A5E9959 PUSH1 0x8A SHL PUSH1 0x40 DUP3 ADD MSTORE PUSH1 0x60 ADD SWAP1 JUMP JUMPDEST PUSH1 0x20 DUP1 DUP3 MSTORE PUSH1 0x26 SWAP1 DUP3 ADD MSTORE PUSH32 0x4F776E61626C653A206E6577206F776E657220697320746865207A65726F2061 PUSH1 0x40 DUP3 ADD MSTORE PUSH6 0x646472657373 PUSH1 0xD0 SHL PUSH1 0x60 DUP3 ADD MSTORE PUSH1 0x80 ADD SWAP1 JUMP JUMPDEST PUSH1 0x20 DUP1 DUP3 MSTORE PUSH1 0x2E SWAP1 DUP3 ADD MSTORE PUSH32 0x496E697469616C697A61626C653A20636F6E747261637420697320616C726561 PUSH1 0x40 DUP3 ADD MSTORE PUSH14 0x191E481A5B9A5D1A585B1A5E9959 PUSH1 0x92 SHL PUSH1 0x60 DUP3 ADD MSTORE PUSH1 0x80 ADD SWAP1 JUMP JUMPDEST PUSH1 0x20 DUP1 DUP3 MSTORE DUP2 DUP2 ADD MSTORE PUSH32 0x4F776E61626C653A2063616C6C6572206973206E6F7420746865206F776E6572 PUSH1 0x40 DUP3 ADD MSTORE PUSH1 0x60 ADD SWAP1 JUMP JUMPDEST PUSH1 0x20 DUP1 DUP3 MSTORE PUSH1 0x1B SWAP1 DUP3 ADD MSTORE PUSH32 0x457863656564207468652073706563696669656420616D6F756E740000000000 PUSH1 0x40 DUP3 ADD MSTORE PUSH1 0x60 ADD SWAP1 JUMP JUMPDEST PUSH1 0x20 DUP1 DUP3 MSTORE PUSH1 0x1A SWAP1 DUP3 ADD MSTORE PUSH32 0x7377617070696E67206F6620615345412068617320656E646564000000000000 PUSH1 0x40 DUP3 ADD MSTORE PUSH1 0x60 ADD SWAP1 JUMP JUMPDEST PUSH1 0x20 DUP1 DUP3 MSTORE PUSH1 0xF SWAP1 DUP3 ADD MSTORE PUSH15 0x139BDD081CDD185C9D1959081E595D PUSH1 0x8A SHL PUSH1 0x40 DUP3 ADD MSTORE PUSH1 0x60 ADD SWAP1 JUMP JUMPDEST SWAP1 DUP2 MSTORE PUSH1 0x20 ADD SWAP1 JUMP JUMPDEST PUSH1 0x0 DUP3 NOT DUP3 GT ISZERO PUSH2 0xD88 JUMPI PUSH4 0x4E487B71 PUSH1 0xE0 SHL DUP2 MSTORE PUSH1 0x11 PUSH1 0x4 MSTORE PUSH1 0x24 DUP2 REVERT JUMPDEST POP ADD SWAP1 JUMP JUMPDEST DUP1 ISZERO ISZERO DUP2 EQ PUSH2 0x883 JUMPI PUSH1 0x0 DUP1 REVERT INVALID LOG2 PUSH5 0x6970667358 0x22 SLT KECCAK256 0x4E REVERT SWAP16 0xEC 0xE9 GASPRICE ADDMOD 0xC3 0xCE 0xF6 LOG0 SWAP1 SWAP11 0xB6 LOG2 PUSH13 0x923655B4C86F742E2420AC62B2 PUSH15 0xE80864736F6C634300080000330000 "
				},
				"gasEstimates": {
					"creation": {
						"codeDepositCost": "707400",
						"executionCost": "741",
						"totalCost": "708141"
					},
					"external": {
						"SEA()": "1180",
						"aSEA()": "1160",
						"endTimestamp()": "1095",
						"initialize(address,address,uint256,uint256)": "infinite",
						"isInitialized()": "1081",
						"maxAmt()": "1094",
						"migrate()": "infinite",
						"open(bool)": "22124",
						"owner()": "1137",
						"renounceOwnership()": "23530",
						"senderInfo(address)": "1275",
						"setEndTimestamp(uint256)": "21199",
						"setMaxAmt(uint256)": "21222",
						"setStartTimestamp(uint256)": "21243",
						"startTimestamp()": "1050",
						"transferOwnership(address)": "23790",
						"withdraw()": "infinite"
					}
				},
				"methodIdentifiers": {
					"SEA()": "ff257dad",
					"aSEA()": "5d2b6a0c",
					"endTimestamp()": "a85adeab",
					"initialize(address,address,uint256,uint256)": "eb990c59",
					"isInitialized()": "392e53cd",
					"maxAmt()": "f019e2b2",
					"migrate()": "8fd3ab80",
					"open(bool)": "a85717d3",
					"owner()": "8da5cb5b",
					"renounceOwnership()": "715018a6",
					"senderInfo(address)": "a6dd4c66",
					"setEndTimestamp(uint256)": "7df6a6c8",
					"setMaxAmt(uint256)": "5294385b",
					"setStartTimestamp(uint256)": "c44bef75",
					"startTimestamp()": "e6fd48bc",
					"transferOwnership(address)": "f2fde38b",
					"withdraw()": "3ccfd60b"
				}
			},
			"storageLayout": {
				"storage": [
					{
						"astId": 130,
						"contract": "contracts/IDO/AlphaSEAMigration.sol:aSEAMigration",
						"label": "_initialized",
						"offset": 0,
						"slot": "0",
						"type": "t_bool"
					},
					{
						"astId": 133,
						"contract": "contracts/IDO/AlphaSEAMigration.sol:aSEAMigration",
						"label": "_initializing",
						"offset": 1,
						"slot": "0",
						"type": "t_bool"
					},
					{
						"astId": 760,
						"contract": "contracts/IDO/AlphaSEAMigration.sol:aSEAMigration",
						"label": "__gap",
						"offset": 0,
						"slot": "1",
						"type": "t_array(t_uint256)50_storage"
					},
					{
						"astId": 10,
						"contract": "contracts/IDO/AlphaSEAMigration.sol:aSEAMigration",
						"label": "_owner",
						"offset": 0,
						"slot": "51",
						"type": "t_address"
					},
					{
						"astId": 124,
						"contract": "contracts/IDO/AlphaSEAMigration.sol:aSEAMigration",
						"label": "__gap",
						"offset": 0,
						"slot": "52",
						"type": "t_array(t_uint256)49_storage"
					},
					{
						"astId": 1093,
						"contract": "contracts/IDO/AlphaSEAMigration.sol:aSEAMigration",
						"label": "endTimestamp",
						"offset": 0,
						"slot": "101",
						"type": "t_uint256"
					},
					{
						"astId": 1095,
						"contract": "contracts/IDO/AlphaSEAMigration.sol:aSEAMigration",
						"label": "startTimestamp",
						"offset": 0,
						"slot": "102",
						"type": "t_uint256"
					},
					{
						"astId": 1097,
						"contract": "contracts/IDO/AlphaSEAMigration.sol:aSEAMigration",
						"label": "maxAmt",
						"offset": 0,
						"slot": "103",
						"type": "t_uint256"
					},
					{
						"astId": 1100,
						"contract": "contracts/IDO/AlphaSEAMigration.sol:aSEAMigration",
						"label": "SEA",
						"offset": 0,
						"slot": "104",
						"type": "t_contract(IERC20Upgradeable)248"
					},
					{
						"astId": 1103,
						"contract": "contracts/IDO/AlphaSEAMigration.sol:aSEAMigration",
						"label": "aSEA",
						"offset": 0,
						"slot": "105",
						"type": "t_contract(IERC20Upgradeable)248"
					},
					{
						"astId": 1105,
						"contract": "contracts/IDO/AlphaSEAMigration.sol:aSEAMigration",
						"label": "isInitialized",
						"offset": 20,
						"slot": "105",
						"type": "t_bool"
					},
					{
						"astId": 1109,
						"contract": "contracts/IDO/AlphaSEAMigration.sol:aSEAMigration",
						"label": "senderInfo",
						"offset": 0,
						"slot": "106",
						"type": "t_mapping(t_address,t_uint256)"
					}
				],
				"types": {
					"t_address": {
						"encoding": "inplace",
						"label": "address",
						"numberOfBytes": "20"
					},
					"t_array(t_uint256)49_storage": {
						"base": "t_uint256",
						"encoding": "inplace",
						"label": "uint256[49]",
						"numberOfBytes": "1568"
					},
					"t_array(t_uint256)50_storage": {
						"base": "t_uint256",
						"encoding": "inplace",
						"label": "uint256[50]",
						"numberOfBytes": "1600"
					},
					"t_bool": {
						"encoding": "inplace",
						"label": "bool",
						"numberOfBytes": "1"
					},
					"t_contract(IERC20Upgradeable)248": {
						"encoding": "inplace",
						"label": "contract IERC20Upgradeable",
						"numberOfBytes": "20"
					},
					"t_mapping(t_address,t_uint256)": {
						"encoding": "mapping",
						"key": "t_address",
						"label": "mapping(address => uint256)",
						"numberOfBytes": "32",
						"value": "t_uint256"
					},
					"t_uint256": {
						"encoding": "inplace",
						"label": "uint256",
						"numberOfBytes": "32"
					}
				}
			},
			"userdoc": {
				"kind": "user",
				"methods": {},
				"version": 1
			}
		}
	}
}