{
	"data": {
		"bytecode": {
			"linkReferences": {},
			"object": "608060405234801561001057600080fd5b50610dd1806100206000396000f3fe608060405234801561001057600080fd5b506004361061010b5760003560e01c8063a6dd4c66116100a2578063e6fd48bc11610071578063e6fd48bc146101d9578063eb990c59146101e1578063f019e2b2146101f4578063f2fde38b146101fc578063ff257dad1461020f5761010b565b8063a6dd4c661461018b578063a85717d3146101ab578063a85adeab146101be578063c44bef75146101c65761010b565b8063715018a6116100de578063715018a6146101605780637df6a6c8146101685780638da5cb5b1461017b5780638fd3ab80146101835761010b565b8063392e53cd146101105780633ccfd60b1461012e5780635294385b146101385780635d2b6a0c1461014b575b600080fd5b610118610217565b6040516101259190610b95565b60405180910390f35b610136610227565b005b610136610146366004610b14565b61039a565b6101536103de565b6040516101259190610b44565b6101366103ed565b610136610176366004610b14565b610438565b61015361047c565b61013661048b565b61019e610199366004610a81565b610680565b6040516101259190610d60565b6101366101b9366004610adc565b610692565b61019e6106ef565b6101366101d4366004610b14565b6106f5565b61019e610739565b6101366101ef366004610a9b565b61073f565b61019e61080f565b61013661020a366004610a81565b610815565b610153610886565b606954600160a01b900460ff1681565b61022f610895565b6001600160a01b031661024061047c565b6001600160a01b03161461026f5760405162461bcd60e51b815260040161026690610c94565b60405180910390fd5b60655442116102905760405162461bcd60e51b815260040161026690610ba0565b6068546040516370a0823160e01b81526000916001600160a01b0316906370a08231906102c1903090600401610b44565b60206040518083038186803b1580156102d957600080fd5b505afa1580156102ed573d6000803e3d6000fd5b505050506040513d601f19601f820116820180604052508101906103119190610b2c565b60685460405163a9059cbb60e01b81529192506001600160a01b03169063a9059cbb906103449033908590600401610b7c565b602060405180830381600087803b15801561035e57600080fd5b505af1158015610372573d6000803e3d6000fd5b505050506040513d601f19601f820116820180604052508101906103969190610af8565b5050565b6103a2610895565b6001600160a01b03166103b361047c565b6001600160a01b0316146103d95760405162461bcd60e51b815260040161026690610c94565b606755565b6069546001600160a01b031681565b6103f5610895565b6001600160a01b031661040661047c565b6001600160a01b03161461042c5760405162461bcd60e51b815260040161026690610c94565b6104366000610899565b565b610440610895565b6001600160a01b031661045161047c565b6001600160a01b0316146104775760405162461bcd60e51b815260040161026690610c94565b606555565b6033546001600160a01b031690565b606954600160a01b900460ff166104b45760405162461bcd60e51b815260040161026690610bd7565b6069546040516370a0823160e01b81526000916001600160a01b0316906370a08231906104e5903390600401610b44565b60206040518083038186803b1580156104fd57600080fd5b505afa158015610511573d6000803e3d6000fd5b505050506040513d601f19601f820116820180604052508101906105359190610b2c565b90506067548111156105595760405162461bcd60e51b815260040161026690610cc9565b426066541061057a5760405162461bcd60e51b815260040161026690610d37565b606554421061059b5760405162461bcd60e51b815260040161026690610d00565b6069546040516323b872dd60e01b81526001600160a01b03909116906323b872dd906105cf90339030908690600401610b58565b602060405180830381600087803b1580156105e957600080fd5b505af11580156105fd573d6000803e3d6000fd5b505050506040513d601f19601f820116820180604052508101906106219190610af8565b50336000908152606a602052604090205461063c90826108eb565b336000818152606a60205260409081902092909255606854915163a9059cbb60e01b81526001600160a01b039092169163a9059cbb91610344918590600401610b7c565b606a6020526000908152604090205481565b61069a610895565b6001600160a01b03166106ab61047c565b6001600160a01b0316146106d15760405162461bcd60e51b815260040161026690610c94565b60698054911515600160a01b0260ff60a01b19909216919091179055565b60655481565b6106fd610895565b6001600160a01b031661070e61047c565b6001600160a01b0316146107345760405162461bcd60e51b815260040161026690610c94565b606655565b60665481565b600054610100900460ff1680610758575060005460ff16155b6107745760405162461bcd60e51b815260040161026690610c46565b600054610100900460ff1615801561079f576000805460ff1961ff0019909116610100171660011790555b6107a76108fe565b606880546001600160a01b038088166001600160a01b031992831617909255606980546066879055606586905560ff60a01b1993881692169190911791909116905568878678326eac9000006067558015610808576000805461ff00191690555b5050505050565b60675481565b61081d610895565b6001600160a01b031661082e61047c565b6001600160a01b0316146108545760405162461bcd60e51b815260040161026690610c94565b6001600160a01b03811661087a5760405162461bcd60e51b815260040161026690610c00565b61088381610899565b50565b6068546001600160a01b031681565b3390565b603380546001600160a01b038381166001600160a01b0319831681179093556040519116919082907f8be0079c531659141344cd1fd0a4f28419497f9722a3daafe3b4186f6b6457e090600090a35050565b60006108f78284610d69565b9392505050565b600054610100900460ff1680610917575060005460ff16155b6109335760405162461bcd60e51b815260040161026690610c46565b600054610100900460ff1615801561095e576000805460ff1961ff0019909116610100171660011790555b610966610982565b61096e6109f5565b8015610883576000805461ff001916905550565b600054610100900460ff168061099b575060005460ff16155b6109b75760405162461bcd60e51b815260040161026690610c46565b600054610100900460ff1615801561096e576000805460ff1961ff0019909116610100171660011790558015610883576000805461ff001916905550565b600054610100900460ff1680610a0e575060005460ff16155b610a2a5760405162461bcd60e51b815260040161026690610c46565b600054610100900460ff16158015610a55576000805460ff1961ff0019909116610100171660011790555b61096e610a60610895565b610899565b80356001600160a01b0381168114610a7c57600080fd5b919050565b600060208284031215610a92578081fd5b6108f782610a65565b60008060008060808587031215610ab0578283fd5b610ab985610a65565b9350610ac760208601610a65565b93969395505050506040820135916060013590565b600060208284031215610aed578081fd5b81356108f781610d8d565b600060208284031215610b09578081fd5b81516108f781610d8d565b600060208284031215610b25578081fd5b5035919050565b600060208284031215610b3d578081fd5b5051919050565b6001600160a01b0391909116815260200190565b6001600160a01b039384168152919092166020820152604081019190915260600190565b6001600160a01b03929092168252602082015260400190565b901515815260200190565b6020808252601e908201527f7377617070696e67206f66206153454120686173206e6f7420656e6465640000604082015260600190565b6020808252600f908201526e1b9bdd081a5b9a5d1a585b1a5e9959608a1b604082015260600190565b60208082526026908201527f4f776e61626c653a206e6577206f776e657220697320746865207a65726f206160408201526564647265737360d01b606082015260800190565b6020808252602e908201527f496e697469616c697a61626c653a20636f6e747261637420697320616c72656160408201526d191e481a5b9a5d1a585b1a5e995960921b606082015260800190565b6020808252818101527f4f776e61626c653a2063616c6c6572206973206e6f7420746865206f776e6572604082015260600190565b6020808252601b908201527f457863656564207468652073706563696669656420616d6f756e740000000000604082015260600190565b6020808252601a908201527f7377617070696e67206f6620615345412068617320656e646564000000000000604082015260600190565b6020808252600f908201526e139bdd081cdd185c9d1959081e595d608a1b604082015260600190565b90815260200190565b60008219821115610d8857634e487b7160e01b81526011600452602481fd5b500190565b801515811461088357600080fdfea2646970667358221220fe86c31b729567d72ed1d56de4de074acc18c4ee7cc59c2120bfbeb160d5bacb64736f6c63430008000033",
			"opcodes": "PUSH1 0x80 PUSH1 0x40 MSTORE CALLVALUE DUP1 ISZERO PUSH2 0x10 JUMPI PUSH1 0x0 DUP1 REVERT JUMPDEST POP PUSH2 0xDD1 DUP1 PUSH2 0x20 PUSH1 0x0 CODECOPY PUSH1 0x0 RETURN INVALID PUSH1 0x80 PUSH1 0x40 MSTORE CALLVALUE DUP1 ISZERO PUSH2 0x10 JUMPI PUSH1 0x0 DUP1 REVERT JUMPDEST POP PUSH1 0x4 CALLDATASIZE LT PUSH2 0x10B JUMPI PUSH1 0x0 CALLDATALOAD PUSH1 0xE0 SHR DUP1 PUSH4 0xA6DD4C66 GT PUSH2 0xA2 JUMPI DUP1 PUSH4 0xE6FD48BC GT PUSH2 0x71 JUMPI DUP1 PUSH4 0xE6FD48BC EQ PUSH2 0x1D9 JUMPI DUP1 PUSH4 0xEB990C59 EQ PUSH2 0x1E1 JUMPI DUP1 PUSH4 0xF019E2B2 EQ PUSH2 0x1F4 JUMPI DUP1 PUSH4 0xF2FDE38B EQ PUSH2 0x1FC JUMPI DUP1 PUSH4 0xFF257DAD EQ PUSH2 0x20F JUMPI PUSH2 0x10B JUMP JUMPDEST DUP1 PUSH4 0xA6DD4C66 EQ PUSH2 0x18B JUMPI DUP1 PUSH4 0xA85717D3 EQ PUSH2 0x1AB JUMPI DUP1 PUSH4 0xA85ADEAB EQ PUSH2 0x1BE JUMPI DUP1 PUSH4 0xC44BEF75 EQ PUSH2 0x1C6 JUMPI PUSH2 0x10B JUMP JUMPDEST DUP1 PUSH4 0x715018A6 GT PUSH2 0xDE JUMPI DUP1 PUSH4 0x715018A6 EQ PUSH2 0x160 JUMPI DUP1 PUSH4 0x7DF6A6C8 EQ PUSH2 0x168 JUMPI DUP1 PUSH4 0x8DA5CB5B EQ PUSH2 0x17B JUMPI DUP1 PUSH4 0x8FD3AB80 EQ PUSH2 0x183 JUMPI PUSH2 0x10B JUMP JUMPDEST DUP1 PUSH4 0x392E53CD EQ PUSH2 0x110 JUMPI DUP1 PUSH4 0x3CCFD60B EQ PUSH2 0x12E JUMPI DUP1 PUSH4 0x5294385B EQ PUSH2 0x138 JUMPI DUP1 PUSH4 0x5D2B6A0C EQ PUSH2 0x14B JUMPI JUMPDEST PUSH1 0x0 DUP1 REVERT JUMPDEST PUSH2 0x118 PUSH2 0x217 JUMP JUMPDEST PUSH1 0x40 MLOAD PUSH2 0x125 SWAP2 SWAP1 PUSH2 0xB95 JUMP JUMPDEST PUSH1 0x40 MLOAD DUP1 SWAP2 SUB SWAP1 RETURN JUMPDEST PUSH2 0x136 PUSH2 0x227 JUMP JUMPDEST STOP JUMPDEST PUSH2 0x136 PUSH2 0x146 CALLDATASIZE PUSH1 0x4 PUSH2 0xB14 JUMP JUMPDEST PUSH2 0x39A JUMP JUMPDEST PUSH2 0x153 PUSH2 0x3DE JUMP JUMPDEST PUSH1 0x40 MLOAD PUSH2 0x125 SWAP2 SWAP1 PUSH2 0xB44 JUMP JUMPDEST PUSH2 0x136 PUSH2 0x3ED JUMP JUMPDEST PUSH2 0x136 PUSH2 0x176 CALLDATASIZE PUSH1 0x4 PUSH2 0xB14 JUMP JUMPDEST PUSH2 0x438 JUMP JUMPDEST PUSH2 0x153 PUSH2 0x47C JUMP JUMPDEST PUSH2 0x136 PUSH2 0x48B JUMP JUMPDEST PUSH2 0x19E PUSH2 0x199 CALLDATASIZE PUSH1 0x4 PUSH2 0xA81 JUMP JUMPDEST PUSH2 0x680 JUMP JUMPDEST PUSH1 0x40 MLOAD PUSH2 0x125 SWAP2 SWAP1 PUSH2 0xD60 JUMP JUMPDEST PUSH2 0x136 PUSH2 0x1B9 CALLDATASIZE PUSH1 0x4 PUSH2 0xADC JUMP JUMPDEST PUSH2 0x692 JUMP JUMPDEST PUSH2 0x19E PUSH2 0x6EF JUMP JUMPDEST PUSH2 0x136 PUSH2 0x1D4 CALLDATASIZE PUSH1 0x4 PUSH2 0xB14 JUMP JUMPDEST PUSH2 0x6F5 JUMP JUMPDEST PUSH2 0x19E PUSH2 0x739 JUMP JUMPDEST PUSH2 0x136 PUSH2 0x1EF CALLDATASIZE PUSH1 0x4 PUSH2 0xA9B JUMP JUMPDEST PUSH2 0x73F JUMP JUMPDEST PUSH2 0x19E PUSH2 0x80F JUMP JUMPDEST PUSH2 0x136 PUSH2 0x20A CALLDATASIZE PUSH1 0x4 PUSH2 0xA81 JUMP JUMPDEST PUSH2 0x815 JUMP JUMPDEST PUSH2 0x153 PUSH2 0x886 JUMP JUMPDEST PUSH1 0x69 SLOAD PUSH1 0x1 PUSH1 0xA0 SHL SWAP1 DIV PUSH1 0xFF AND DUP2 JUMP JUMPDEST PUSH2 0x22F PUSH2 0x895 JUMP JUMPDEST PUSH1 0x1 PUSH1 0x1 PUSH1 0xA0 SHL SUB AND PUSH2 0x240 PUSH2 0x47C JUMP JUMPDEST PUSH1 0x1 PUSH1 0x1 PUSH1 0xA0 SHL SUB AND EQ PUSH2 0x26F JUMPI PUSH1 0x40 MLOAD PUSH3 0x461BCD PUSH1 0xE5 SHL DUP2 MSTORE PUSH1 0x4 ADD PUSH2 0x266 SWAP1 PUSH2 0xC94 JUMP JUMPDEST PUSH1 0x40 MLOAD DUP1 SWAP2 SUB SWAP1 REVERT JUMPDEST PUSH1 0x65 SLOAD TIMESTAMP GT PUSH2 0x290 JUMPI PUSH1 0x40 MLOAD PUSH3 0x461BCD PUSH1 0xE5 SHL DUP2 MSTORE PUSH1 0x4 ADD PUSH2 0x266 SWAP1 PUSH2 0xBA0 JUMP JUMPDEST PUSH1 0x68 SLOAD PUSH1 0x40 MLOAD PUSH4 0x70A08231 PUSH1 0xE0 SHL DUP2 MSTORE PUSH1 0x0 SWAP2 PUSH1 0x1 PUSH1 0x1 PUSH1 0xA0 SHL SUB AND SWAP1 PUSH4 0x70A08231 SWAP1 PUSH2 0x2C1 SWAP1 ADDRESS SWAP1 PUSH1 0x4 ADD PUSH2 0xB44 JUMP JUMPDEST PUSH1 0x20 PUSH1 0x40 MLOAD DUP1 DUP4 SUB DUP2 DUP7 DUP1 EXTCODESIZE ISZERO DUP1 ISZERO PUSH2 0x2D9 JUMPI PUSH1 0x0 DUP1 REVERT JUMPDEST POP GAS STATICCALL ISZERO DUP1 ISZERO PUSH2 0x2ED JUMPI RETURNDATASIZE PUSH1 0x0 DUP1 RETURNDATACOPY RETURNDATASIZE PUSH1 0x0 REVERT JUMPDEST POP POP POP POP PUSH1 0x40 MLOAD RETURNDATASIZE PUSH1 0x1F NOT PUSH1 0x1F DUP3 ADD AND DUP3 ADD DUP1 PUSH1 0x40 MSTORE POP DUP2 ADD SWAP1 PUSH2 0x311 SWAP2 SWAP1 PUSH2 0xB2C JUMP JUMPDEST PUSH1 0x68 SLOAD PUSH1 0x40 MLOAD PUSH4 0xA9059CBB PUSH1 0xE0 SHL DUP2 MSTORE SWAP2 SWAP3 POP PUSH1 0x1 PUSH1 0x1 PUSH1 0xA0 SHL SUB AND SWAP1 PUSH4 0xA9059CBB SWAP1 PUSH2 0x344 SWAP1 CALLER SWAP1 DUP6 SWAP1 PUSH1 0x4 ADD PUSH2 0xB7C JUMP JUMPDEST PUSH1 0x20 PUSH1 0x40 MLOAD DUP1 DUP4 SUB DUP2 PUSH1 0x0 DUP8 DUP1 EXTCODESIZE ISZERO DUP1 ISZERO PUSH2 0x35E JUMPI PUSH1 0x0 DUP1 REVERT JUMPDEST POP GAS CALL ISZERO DUP1 ISZERO PUSH2 0x372 JUMPI RETURNDATASIZE PUSH1 0x0 DUP1 RETURNDATACOPY RETURNDATASIZE PUSH1 0x0 REVERT JUMPDEST POP POP POP POP PUSH1 0x40 MLOAD RETURNDATASIZE PUSH1 0x1F NOT PUSH1 0x1F DUP3 ADD AND DUP3 ADD DUP1 PUSH1 0x40 MSTORE POP DUP2 ADD SWAP1 PUSH2 0x396 SWAP2 SWAP1 PUSH2 0xAF8 JUMP JUMPDEST POP POP JUMP JUMPDEST PUSH2 0x3A2 PUSH2 0x895 JUMP JUMPDEST PUSH1 0x1 PUSH1 0x1 PUSH1 0xA0 SHL SUB AND PUSH2 0x3B3 PUSH2 0x47C JUMP JUMPDEST PUSH1 0x1 PUSH1 0x1 PUSH1 0xA0 SHL SUB AND EQ PUSH2 0x3D9 JUMPI PUSH1 0x40 MLOAD PUSH3 0x461BCD PUSH1 0xE5 SHL DUP2 MSTORE PUSH1 0x4 ADD PUSH2 0x266 SWAP1 PUSH2 0xC94 JUMP JUMPDEST PUSH1 0x67 SSTORE JUMP JUMPDEST PUSH1 0x69 SLOAD PUSH1 0x1 PUSH1 0x1 PUSH1 0xA0 SHL SUB AND DUP2 JUMP JUMPDEST PUSH2 0x3F5 PUSH2 0x895 JUMP JUMPDEST PUSH1 0x1 PUSH1 0x1 PUSH1 0xA0 SHL SUB AND PUSH2 0x406 PUSH2 0x47C JUMP JUMPDEST PUSH1 0x1 PUSH1 0x1 PUSH1 0xA0 SHL SUB AND EQ PUSH2 0x42C JUMPI PUSH1 0x40 MLOAD PUSH3 0x461BCD PUSH1 0xE5 SHL DUP2 MSTORE PUSH1 0x4 ADD PUSH2 0x266 SWAP1 PUSH2 0xC94 JUMP JUMPDEST PUSH2 0x436 PUSH1 0x0 PUSH2 0x899 JUMP JUMPDEST JUMP JUMPDEST PUSH2 0x440 PUSH2 0x895 JUMP JUMPDEST PUSH1 0x1 PUSH1 0x1 PUSH1 0xA0 SHL SUB AND PUSH2 0x451 PUSH2 0x47C JUMP JUMPDEST PUSH1 0x1 PUSH1 0x1 PUSH1 0xA0 SHL SUB AND EQ PUSH2 0x477 JUMPI PUSH1 0x40 MLOAD PUSH3 0x461BCD PUSH1 0xE5 SHL DUP2 MSTORE PUSH1 0x4 ADD PUSH2 0x266 SWAP1 PUSH2 0xC94 JUMP JUMPDEST PUSH1 0x65 SSTORE JUMP JUMPDEST PUSH1 0x33 SLOAD PUSH1 0x1 PUSH1 0x1 PUSH1 0xA0 SHL SUB AND SWAP1 JUMP JUMPDEST PUSH1 0x69 SLOAD PUSH1 0x1 PUSH1 0xA0 SHL SWAP1 DIV PUSH1 0xFF AND PUSH2 0x4B4 JUMPI PUSH1 0x40 MLOAD PUSH3 0x461BCD PUSH1 0xE5 SHL DUP2 MSTORE PUSH1 0x4 ADD PUSH2 0x266 SWAP1 PUSH2 0xBD7 JUMP JUMPDEST PUSH1 0x69 SLOAD PUSH1 0x40 MLOAD PUSH4 0x70A08231 PUSH1 0xE0 SHL DUP2 MSTORE PUSH1 0x0 SWAP2 PUSH1 0x1 PUSH1 0x1 PUSH1 0xA0 SHL SUB AND SWAP1 PUSH4 0x70A08231 SWAP1 PUSH2 0x4E5 SWAP1 CALLER SWAP1 PUSH1 0x4 ADD PUSH2 0xB44 JUMP JUMPDEST PUSH1 0x20 PUSH1 0x40 MLOAD DUP1 DUP4 SUB DUP2 DUP7 DUP1 EXTCODESIZE ISZERO DUP1 ISZERO PUSH2 0x4FD JUMPI PUSH1 0x0 DUP1 REVERT JUMPDEST POP GAS STATICCALL ISZERO DUP1 ISZERO PUSH2 0x511 JUMPI RETURNDATASIZE PUSH1 0x0 DUP1 RETURNDATACOPY RETURNDATASIZE PUSH1 0x0 REVERT JUMPDEST POP POP POP POP PUSH1 0x40 MLOAD RETURNDATASIZE PUSH1 0x1F NOT PUSH1 0x1F DUP3 ADD AND DUP3 ADD DUP1 PUSH1 0x40 MSTORE POP DUP2 ADD SWAP1 PUSH2 0x535 SWAP2 SWAP1 PUSH2 0xB2C JUMP JUMPDEST SWAP1 POP PUSH1 0x67 SLOAD DUP2 GT ISZERO PUSH2 0x559 JUMPI PUSH1 0x40 MLOAD PUSH3 0x461BCD PUSH1 0xE5 SHL DUP2 MSTORE PUSH1 0x4 ADD PUSH2 0x266 SWAP1 PUSH2 0xCC9 JUMP JUMPDEST TIMESTAMP PUSH1 0x66 SLOAD LT PUSH2 0x57A JUMPI PUSH1 0x40 MLOAD PUSH3 0x461BCD PUSH1 0xE5 SHL DUP2 MSTORE PUSH1 0x4 ADD PUSH2 0x266 SWAP1 PUSH2 0xD37 JUMP JUMPDEST PUSH1 0x65 SLOAD TIMESTAMP LT PUSH2 0x59B JUMPI PUSH1 0x40 MLOAD PUSH3 0x461BCD PUSH1 0xE5 SHL DUP2 MSTORE PUSH1 0x4 ADD PUSH2 0x266 SWAP1 PUSH2 0xD00 JUMP JUMPDEST PUSH1 0x69 SLOAD PUSH1 0x40 MLOAD PUSH4 0x23B872DD PUSH1 0xE0 SHL DUP2 MSTORE PUSH1 0x1 PUSH1 0x1 PUSH1 0xA0 SHL SUB SWAP1 SWAP2 AND SWAP1 PUSH4 0x23B872DD SWAP1 PUSH2 0x5CF SWAP1 CALLER SWAP1 ADDRESS SWAP1 DUP7 SWAP1 PUSH1 0x4 ADD PUSH2 0xB58 JUMP JUMPDEST PUSH1 0x20 PUSH1 0x40 MLOAD DUP1 DUP4 SUB DUP2 PUSH1 0x0 DUP8 DUP1 EXTCODESIZE ISZERO DUP1 ISZERO PUSH2 0x5E9 JUMPI PUSH1 0x0 DUP1 REVERT JUMPDEST POP GAS CALL ISZERO DUP1 ISZERO PUSH2 0x5FD JUMPI RETURNDATASIZE PUSH1 0x0 DUP1 RETURNDATACOPY RETURNDATASIZE PUSH1 0x0 REVERT JUMPDEST POP POP POP POP PUSH1 0x40 MLOAD RETURNDATASIZE PUSH1 0x1F NOT PUSH1 0x1F DUP3 ADD AND DUP3 ADD DUP1 PUSH1 0x40 MSTORE POP DUP2 ADD SWAP1 PUSH2 0x621 SWAP2 SWAP1 PUSH2 0xAF8 JUMP JUMPDEST POP CALLER PUSH1 0x0 SWAP1 DUP2 MSTORE PUSH1 0x6A PUSH1 0x20 MSTORE PUSH1 0x40 SWAP1 KECCAK256 SLOAD PUSH2 0x63C SWAP1 DUP3 PUSH2 0x8EB JUMP JUMPDEST CALLER PUSH1 0x0 DUP2 DUP2 MSTORE PUSH1 0x6A PUSH1 0x20 MSTORE PUSH1 0x40 SWAP1 DUP2 SWAP1 KECCAK256 SWAP3 SWAP1 SWAP3 SSTORE PUSH1 0x68 SLOAD SWAP2 MLOAD PUSH4 0xA9059CBB PUSH1 0xE0 SHL DUP2 MSTORE PUSH1 0x1 PUSH1 0x1 PUSH1 0xA0 SHL SUB SWAP1 SWAP3 AND SWAP2 PUSH4 0xA9059CBB SWAP2 PUSH2 0x344 SWAP2 DUP6 SWAP1 PUSH1 0x4 ADD PUSH2 0xB7C JUMP JUMPDEST PUSH1 0x6A PUSH1 0x20 MSTORE PUSH1 0x0 SWAP1 DUP2 MSTORE PUSH1 0x40 SWAP1 KECCAK256 SLOAD DUP2 JUMP JUMPDEST PUSH2 0x69A PUSH2 0x895 JUMP JUMPDEST PUSH1 0x1 PUSH1 0x1 PUSH1 0xA0 SHL SUB AND PUSH2 0x6AB PUSH2 0x47C JUMP JUMPDEST PUSH1 0x1 PUSH1 0x1 PUSH1 0xA0 SHL SUB AND EQ PUSH2 0x6D1 JUMPI PUSH1 0x40 MLOAD PUSH3 0x461BCD PUSH1 0xE5 SHL DUP2 MSTORE PUSH1 0x4 ADD PUSH2 0x266 SWAP1 PUSH2 0xC94 JUMP JUMPDEST PUSH1 0x69 DUP1 SLOAD SWAP2 ISZERO ISZERO PUSH1 0x1 PUSH1 0xA0 SHL MUL PUSH1 0xFF PUSH1 0xA0 SHL NOT SWAP1 SWAP3 AND SWAP2 SWAP1 SWAP2 OR SWAP1 SSTORE JUMP JUMPDEST PUSH1 0x65 SLOAD DUP2 JUMP JUMPDEST PUSH2 0x6FD PUSH2 0x895 JUMP JUMPDEST PUSH1 0x1 PUSH1 0x1 PUSH1 0xA0 SHL SUB AND PUSH2 0x70E PUSH2 0x47C JUMP JUMPDEST PUSH1 0x1 PUSH1 0x1 PUSH1 0xA0 SHL SUB AND EQ PUSH2 0x734 JUMPI PUSH1 0x40 MLOAD PUSH3 0x461BCD PUSH1 0xE5 SHL DUP2 MSTORE PUSH1 0x4 ADD PUSH2 0x266 SWAP1 PUSH2 0xC94 JUMP JUMPDEST PUSH1 0x66 SSTORE JUMP JUMPDEST PUSH1 0x66 SLOAD DUP2 JUMP JUMPDEST PUSH1 0x0 SLOAD PUSH2 0x100 SWAP1 DIV PUSH1 0xFF AND DUP1 PUSH2 0x758 JUMPI POP PUSH1 0x0 SLOAD PUSH1 0xFF AND ISZERO JUMPDEST PUSH2 0x774 JUMPI PUSH1 0x40 MLOAD PUSH3 0x461BCD PUSH1 0xE5 SHL DUP2 MSTORE PUSH1 0x4 ADD PUSH2 0x266 SWAP1 PUSH2 0xC46 JUMP JUMPDEST PUSH1 0x0 SLOAD PUSH2 0x100 SWAP1 DIV PUSH1 0xFF AND ISZERO DUP1 ISZERO PUSH2 0x79F JUMPI PUSH1 0x0 DUP1 SLOAD PUSH1 0xFF NOT PUSH2 0xFF00 NOT SWAP1 SWAP2 AND PUSH2 0x100 OR AND PUSH1 0x1 OR SWAP1 SSTORE JUMPDEST PUSH2 0x7A7 PUSH2 0x8FE JUMP JUMPDEST PUSH1 0x68 DUP1 SLOAD PUSH1 0x1 PUSH1 0x1 PUSH1 0xA0 SHL SUB DUP1 DUP9 AND PUSH1 0x1 PUSH1 0x1 PUSH1 0xA0 SHL SUB NOT SWAP3 DUP4 AND OR SWAP1 SWAP3 SSTORE PUSH1 0x69 DUP1 SLOAD PUSH1 0x66 DUP8 SWAP1 SSTORE PUSH1 0x65 DUP7 SWAP1 SSTORE PUSH1 0xFF PUSH1 0xA0 SHL NOT SWAP4 DUP9 AND SWAP3 AND SWAP2 SWAP1 SWAP2 OR SWAP2 SWAP1 SWAP2 AND SWAP1 SSTORE PUSH9 0x878678326EAC900000 PUSH1 0x67 SSTORE DUP1 ISZERO PUSH2 0x808 JUMPI PUSH1 0x0 DUP1 SLOAD PUSH2 0xFF00 NOT AND SWAP1 SSTORE JUMPDEST POP POP POP POP POP JUMP JUMPDEST PUSH1 0x67 SLOAD DUP2 JUMP JUMPDEST PUSH2 0x81D PUSH2 0x895 JUMP JUMPDEST PUSH1 0x1 PUSH1 0x1 PUSH1 0xA0 SHL SUB AND PUSH2 0x82E PUSH2 0x47C JUMP JUMPDEST PUSH1 0x1 PUSH1 0x1 PUSH1 0xA0 SHL SUB AND EQ PUSH2 0x854 JUMPI PUSH1 0x40 MLOAD PUSH3 0x461BCD PUSH1 0xE5 SHL DUP2 MSTORE PUSH1 0x4 ADD PUSH2 0x266 SWAP1 PUSH2 0xC94 JUMP JUMPDEST PUSH1 0x1 PUSH1 0x1 PUSH1 0xA0 SHL SUB DUP2 AND PUSH2 0x87A JUMPI PUSH1 0x40 MLOAD PUSH3 0x461BCD PUSH1 0xE5 SHL DUP2 MSTORE PUSH1 0x4 ADD PUSH2 0x266 SWAP1 PUSH2 0xC00 JUMP JUMPDEST PUSH2 0x883 DUP2 PUSH2 0x899 JUMP JUMPDEST POP JUMP JUMPDEST PUSH1 0x68 SLOAD PUSH1 0x1 PUSH1 0x1 PUSH1 0xA0 SHL SUB AND DUP2 JUMP JUMPDEST CALLER SWAP1 JUMP JUMPDEST PUSH1 0x33 DUP1 SLOAD PUSH1 0x1 PUSH1 0x1 PUSH1 0xA0 SHL SUB DUP4 DUP2 AND PUSH1 0x1 PUSH1 0x1 PUSH1 0xA0 SHL SUB NOT DUP4 AND DUP2 OR SWAP1 SWAP4 SSTORE PUSH1 0x40 MLOAD SWAP2 AND SWAP2 SWAP1 DUP3 SWAP1 PUSH32 0x8BE0079C531659141344CD1FD0A4F28419497F9722A3DAAFE3B4186F6B6457E0 SWAP1 PUSH1 0x0 SWAP1 LOG3 POP POP JUMP JUMPDEST PUSH1 0x0 PUSH2 0x8F7 DUP3 DUP5 PUSH2 0xD69 JUMP JUMPDEST SWAP4 SWAP3 POP POP POP JUMP JUMPDEST PUSH1 0x0 SLOAD PUSH2 0x100 SWAP1 DIV PUSH1 0xFF AND DUP1 PUSH2 0x917 JUMPI POP PUSH1 0x0 SLOAD PUSH1 0xFF AND ISZERO JUMPDEST PUSH2 0x933 JUMPI PUSH1 0x40 MLOAD PUSH3 0x461BCD PUSH1 0xE5 SHL DUP2 MSTORE PUSH1 0x4 ADD PUSH2 0x266 SWAP1 PUSH2 0xC46 JUMP JUMPDEST PUSH1 0x0 SLOAD PUSH2 0x100 SWAP1 DIV PUSH1 0xFF AND ISZERO DUP1 ISZERO PUSH2 0x95E JUMPI PUSH1 0x0 DUP1 SLOAD PUSH1 0xFF NOT PUSH2 0xFF00 NOT SWAP1 SWAP2 AND PUSH2 0x100 OR AND PUSH1 0x1 OR SWAP1 SSTORE JUMPDEST PUSH2 0x966 PUSH2 0x982 JUMP JUMPDEST PUSH2 0x96E PUSH2 0x9F5 JUMP JUMPDEST DUP1 ISZERO PUSH2 0x883 JUMPI PUSH1 0x0 DUP1 SLOAD PUSH2 0xFF00 NOT AND SWAP1 SSTORE POP JUMP JUMPDEST PUSH1 0x0 SLOAD PUSH2 0x100 SWAP1 DIV PUSH1 0xFF AND DUP1 PUSH2 0x99B JUMPI POP PUSH1 0x0 SLOAD PUSH1 0xFF AND ISZERO JUMPDEST PUSH2 0x9B7 JUMPI PUSH1 0x40 MLOAD PUSH3 0x461BCD PUSH1 0xE5 SHL DUP2 MSTORE PUSH1 0x4 ADD PUSH2 0x266 SWAP1 PUSH2 0xC46 JUMP JUMPDEST PUSH1 0x0 SLOAD PUSH2 0x100 SWAP1 DIV PUSH1 0xFF AND ISZERO DUP1 ISZERO PUSH2 0x96E JUMPI PUSH1 0x0 DUP1 SLOAD PUSH1 0xFF NOT PUSH2 0xFF00 NOT SWAP1 SWAP2 AND PUSH2 0x100 OR AND PUSH1 0x1 OR SWAP1 SSTORE DUP1 ISZERO PUSH2 0x883 JUMPI PUSH1 0x0 DUP1 SLOAD PUSH2 0xFF00 NOT AND SWAP1 SSTORE POP JUMP JUMPDEST PUSH1 0x0 SLOAD PUSH2 0x100 SWAP1 DIV PUSH1 0xFF AND DUP1 PUSH2 0xA0E JUMPI POP PUSH1 0x0 SLOAD PUSH1 0xFF AND ISZERO JUMPDEST PUSH2 0xA2A JUMPI PUSH1 0x40 MLOAD PUSH3 0x461BCD PUSH1 0xE5 SHL DUP2 MSTORE PUSH1 0x4 ADD PUSH2 0x266 SWAP1 PUSH2 0xC46 JUMP JUMPDEST PUSH1 0x0 SLOAD PUSH2 0x100 SWAP1 DIV PUSH1 0xFF AND ISZERO DUP1 ISZERO PUSH2 0xA55 JUMPI PUSH1 0x0 DUP1 SLOAD PUSH1 0xFF NOT PUSH2 0xFF00 NOT SWAP1 SWAP2 AND PUSH2 0x100 OR AND PUSH1 0x1 OR SWAP1 SSTORE JUMPDEST PUSH2 0x96E PUSH2 0xA60 PUSH2 0x895 JUMP JUMPDEST PUSH2 0x899 JUMP JUMPDEST DUP1 CALLDATALOAD PUSH1 0x1 PUSH1 0x1 PUSH1 0xA0 SHL SUB DUP2 AND DUP2 EQ PUSH2 0xA7C JUMPI PUSH1 0x0 DUP1 REVERT JUMPDEST SWAP2 SWAP1 POP JUMP JUMPDEST PUSH1 0x0 PUSH1 0x20 DUP3 DUP5 SUB SLT ISZERO PUSH2 0xA92 JUMPI DUP1 DUP2 REVERT JUMPDEST PUSH2 0x8F7 DUP3 PUSH2 0xA65 JUMP JUMPDEST PUSH1 0x0 DUP1 PUSH1 0x0 DUP1 PUSH1 0x80 DUP6 DUP8 SUB SLT ISZERO PUSH2 0xAB0 JUMPI DUP3 DUP4 REVERT JUMPDEST PUSH2 0xAB9 DUP6 PUSH2 0xA65 JUMP JUMPDEST SWAP4 POP PUSH2 0xAC7 PUSH1 0x20 DUP7 ADD PUSH2 0xA65 JUMP JUMPDEST SWAP4 SWAP7 SWAP4 SWAP6 POP POP POP POP PUSH1 0x40 DUP3 ADD CALLDATALOAD SWAP2 PUSH1 0x60 ADD CALLDATALOAD SWAP1 JUMP JUMPDEST PUSH1 0x0 PUSH1 0x20 DUP3 DUP5 SUB SLT ISZERO PUSH2 0xAED JUMPI DUP1 DUP2 REVERT JUMPDEST DUP2 CALLDATALOAD PUSH2 0x8F7 DUP2 PUSH2 0xD8D JUMP JUMPDEST PUSH1 0x0 PUSH1 0x20 DUP3 DUP5 SUB SLT ISZERO PUSH2 0xB09 JUMPI DUP1 DUP2 REVERT JUMPDEST DUP2 MLOAD PUSH2 0x8F7 DUP2 PUSH2 0xD8D JUMP JUMPDEST PUSH1 0x0 PUSH1 0x20 DUP3 DUP5 SUB SLT ISZERO PUSH2 0xB25 JUMPI DUP1 DUP2 REVERT JUMPDEST POP CALLDATALOAD SWAP2 SWAP1 POP JUMP JUMPDEST PUSH1 0x0 PUSH1 0x20 DUP3 DUP5 SUB SLT ISZERO PUSH2 0xB3D JUMPI DUP1 DUP2 REVERT JUMPDEST POP MLOAD SWAP2 SWAP1 POP JUMP JUMPDEST PUSH1 0x1 PUSH1 0x1 PUSH1 0xA0 SHL SUB SWAP2 SWAP1 SWAP2 AND DUP2 MSTORE PUSH1 0x20 ADD SWAP1 JUMP JUMPDEST PUSH1 0x1 PUSH1 0x1 PUSH1 0xA0 SHL SUB SWAP4 DUP5 AND DUP2 MSTORE SWAP2 SWAP1 SWAP3 AND PUSH1 0x20 DUP3 ADD MSTORE PUSH1 0x40 DUP2 ADD SWAP2 SWAP1 SWAP2 MSTORE PUSH1 0x60 ADD SWAP1 JUMP JUMPDEST PUSH1 0x1 PUSH1 0x1 PUSH1 0xA0 SHL SUB SWAP3 SWAP1 SWAP3 AND DUP3 MSTORE PUSH1 0x20 DUP3 ADD MSTORE PUSH1 0x40 ADD SWAP1 JUMP JUMPDEST SWAP1 ISZERO ISZERO DUP2 MSTORE PUSH1 0x20 ADD SWAP1 JUMP JUMPDEST PUSH1 0x20 DUP1 DUP3 MSTORE PUSH1 0x1E SWAP1 DUP3 ADD MSTORE PUSH32 0x7377617070696E67206F66206153454120686173206E6F7420656E6465640000 PUSH1 0x40 DUP3 ADD MSTORE PUSH1 0x60 ADD SWAP1 JUMP JUMPDEST PUSH1 0x20 DUP1 DUP3 MSTORE PUSH1 0xF SWAP1 DUP3 ADD MSTORE PUSH15 0x1B9BDD081A5B9A5D1A585B1A5E9959 PUSH1 0x8A SHL PUSH1 0x40 DUP3 ADD MSTORE PUSH1 0x60 ADD SWAP1 JUMP JUMPDEST PUSH1 0x20 DUP1 DUP3 MSTORE PUSH1 0x26 SWAP1 DUP3 ADD MSTORE PUSH32 0x4F776E61626C653A206E6577206F776E657220697320746865207A65726F2061 PUSH1 0x40 DUP3 ADD MSTORE PUSH6 0x646472657373 PUSH1 0xD0 SHL PUSH1 0x60 DUP3 ADD MSTORE PUSH1 0x80 ADD SWAP1 JUMP JUMPDEST PUSH1 0x20 DUP1 DUP3 MSTORE PUSH1 0x2E SWAP1 DUP3 ADD MSTORE PUSH32 0x496E697469616C697A61626C653A20636F6E747261637420697320616C726561 PUSH1 0x40 DUP3 ADD MSTORE PUSH14 0x191E481A5B9A5D1A585B1A5E9959 PUSH1 0x92 SHL PUSH1 0x60 DUP3 ADD MSTORE PUSH1 0x80 ADD SWAP1 JUMP JUMPDEST PUSH1 0x20 DUP1 DUP3 MSTORE DUP2 DUP2 ADD MSTORE PUSH32 0x4F776E61626C653A2063616C6C6572206973206E6F7420746865206F776E6572 PUSH1 0x40 DUP3 ADD MSTORE PUSH1 0x60 ADD SWAP1 JUMP JUMPDEST PUSH1 0x20 DUP1 DUP3 MSTORE PUSH1 0x1B SWAP1 DUP3 ADD MSTORE PUSH32 0x457863656564207468652073706563696669656420616D6F756E740000000000 PUSH1 0x40 DUP3 ADD MSTORE PUSH1 0x60 ADD SWAP1 JUMP JUMPDEST PUSH1 0x20 DUP1 DUP3 MSTORE PUSH1 0x1A SWAP1 DUP3 ADD MSTORE PUSH32 0x7377617070696E67206F6620615345412068617320656E646564000000000000 PUSH1 0x40 DUP3 ADD MSTORE PUSH1 0x60 ADD SWAP1 JUMP JUMPDEST PUSH1 0x20 DUP1 DUP3 MSTORE PUSH1 0xF SWAP1 DUP3 ADD MSTORE PUSH15 0x139BDD081CDD185C9D1959081E595D PUSH1 0x8A SHL PUSH1 0x40 DUP3 ADD MSTORE PUSH1 0x60 ADD SWAP1 JUMP JUMPDEST SWAP1 DUP2 MSTORE PUSH1 0x20 ADD SWAP1 JUMP JUMPDEST PUSH1 0x0 DUP3 NOT DUP3 GT ISZERO PUSH2 0xD88 JUMPI PUSH4 0x4E487B71 PUSH1 0xE0 SHL DUP2 MSTORE PUSH1 0x11 PUSH1 0x4 MSTORE PUSH1 0x24 DUP2 REVERT JUMPDEST POP ADD SWAP1 JUMP JUMPDEST DUP1 ISZERO ISZERO DUP2 EQ PUSH2 0x883 JUMPI PUSH1 0x0 DUP1 REVERT INVALID LOG2 PUSH5 0x6970667358 0x22 SLT KECCAK256 INVALID DUP7 0xC3 SHL PUSH19 0x9567D72ED1D56DE4DE074ACC18C4EE7CC59C21 KECCAK256 0xBF 0xBE 0xB1 PUSH1 0xD5 0xBA 0xCB PUSH5 0x736F6C6343 STOP ADDMOD STOP STOP CALLER "
		},
		"gasEstimates": {
			"creation": {
				"codeDepositCost": "707400",
				"executionCost": "741",
				"totalCost": "708141"
			},
			"external": {
				"SEA()": "1180",
				"aSEA()": "1160",
				"endTimestamp()": "1095",
				"initialize(address,address,uint256,uint256)": "infinite",
				"isInitialized()": "1081",
				"maxAmt()": "1094",
				"migrate()": "infinite",
				"open(bool)": "22124",
				"owner()": "1137",
				"renounceOwnership()": "23530",
				"senderInfo(address)": "1275",
				"setEndTimestamp(uint256)": "21199",
				"setMaxAmt(uint256)": "21222",
				"setStartTimestamp(uint256)": "21243",
				"startTimestamp()": "1050",
				"transferOwnership(address)": "23790",
				"withdraw()": "infinite"
			}
		},
		"methodIdentifiers": {
			"SEA()": "ff257dad",
			"aSEA()": "5d2b6a0c",
			"endTimestamp()": "a85adeab",
			"initialize(address,address,uint256,uint256)": "eb990c59",
			"isInitialized()": "392e53cd",
			"maxAmt()": "f019e2b2",
			"migrate()": "8fd3ab80",
			"open(bool)": "a85717d3",
			"owner()": "8da5cb5b",
			"renounceOwnership()": "715018a6",
			"senderInfo(address)": "a6dd4c66",
			"setEndTimestamp(uint256)": "7df6a6c8",
			"setMaxAmt(uint256)": "5294385b",
			"setStartTimestamp(uint256)": "c44bef75",
			"startTimestamp()": "e6fd48bc",
			"transferOwnership(address)": "f2fde38b",
			"withdraw()": "3ccfd60b"
		}
	},
	"abi": [
		{
			"anonymous": false,
			"inputs": [
				{
					"indexed": true,
					"internalType": "address",
					"name": "previousOwner",
					"type": "address"
				},
				{
					"indexed": true,
					"internalType": "address",
					"name": "newOwner",
					"type": "address"
				}
			],
			"name": "OwnershipTransferred",
			"type": "event"
		},
		{
			"inputs": [],
			"name": "SEA",
			"outputs": [
				{
					"internalType": "contract IERC20Upgradeable",
					"name": "",
					"type": "address"
				}
			],
			"stateMutability": "view",
			"type": "function"
		},
		{
			"inputs": [],
			"name": "aSEA",
			"outputs": [
				{
					"internalType": "contract IERC20Upgradeable",
					"name": "",
					"type": "address"
				}
			],
			"stateMutability": "view",
			"type": "function"
		},
		{
			"inputs": [],
			"name": "endTimestamp",
			"outputs": [
				{
					"internalType": "uint256",
					"name": "",
					"type": "uint256"
				}
			],
			"stateMutability": "view",
			"type": "function"
		},
		{
			"inputs": [
				{
					"internalType": "address",
					"name": "_SEA",
					"type": "address"
				},
				{
					"internalType": "address",
					"name": "_aSEA",
					"type": "address"
				},
				{
					"internalType": "uint256",
					"name": "_startTimestamp",
					"type": "uint256"
				},
				{
					"internalType": "uint256",
					"name": "_endTimestamp",
					"type": "uint256"
				}
			],
			"name": "initialize",
			"outputs": [],
			"stateMutability": "nonpayable",
			"type": "function"
		},
		{
			"inputs": [],
			"name": "isInitialized",
			"outputs": [
				{
					"internalType": "bool",
					"name": "",
					"type": "bool"
				}
			],
			"stateMutability": "view",
			"type": "function"
		},
		{
			"inputs": [],
			"name": "maxAmt",
			"outputs": [
				{
					"internalType": "uint256",
					"name": "",
					"type": "uint256"
				}
			],
			"stateMutability": "view",
			"type": "function"
		},
		{
			"inputs": [],
			"name": "migrate",
			"outputs": [],
			"stateMutability": "nonpayable",
			"type": "function"
		},
		{
			"inputs": [
				{
					"internalType": "bool",
					"name": "_bool",
					"type": "bool"
				}
			],
			"name": "open",
			"outputs": [],
			"stateMutability": "nonpayable",
			"type": "function"
		},
		{
			"inputs": [],
			"name": "owner",
			"outputs": [
				{
					"internalType": "address",
					"name": "",
					"type": "address"
				}
			],
			"stateMutability": "view",
			"type": "function"
		},
		{
			"inputs": [],
			"name": "renounceOwnership",
			"outputs": [],
			"stateMutability": "nonpayable",
			"type": "function"
		},
		{
			"inputs": [
				{
					"internalType": "address",
					"name": "",
					"type": "address"
				}
			],
			"name": "senderInfo",
			"outputs": [
				{
					"internalType": "uint256",
					"name": "",
					"type": "uint256"
				}
			],
			"stateMutability": "view",
			"type": "function"
		},
		{
			"inputs": [
				{
					"internalType": "uint256",
					"name": "val",
					"type": "uint256"
				}
			],
			"name": "setEndTimestamp",
			"outputs": [],
			"stateMutability": "nonpayable",
			"type": "function"
		},
		{
			"inputs": [
				{
					"internalType": "uint256",
					"name": "val",
					"type": "uint256"
				}
			],
			"name": "setMaxAmt",
			"outputs": [],
			"stateMutability": "nonpayable",
			"type": "function"
		},
		{
			"inputs": [
				{
					"internalType": "uint256",
					"name": "val",
					"type": "uint256"
				}
			],
			"name": "setStartTimestamp",
			"outputs": [],
			"stateMutability": "nonpayable",
			"type": "function"
		},
		{
			"inputs": [],
			"name": "startTimestamp",
			"outputs": [
				{
					"internalType": "uint256",
					"name": "",
					"type": "uint256"
				}
			],
			"stateMutability": "view",
			"type": "function"
		},
		{
			"inputs": [
				{
					"internalType": "address",
					"name": "newOwner",
					"type": "address"
				}
			],
			"name": "transferOwnership",
			"outputs": [],
			"stateMutability": "nonpayable",
			"type": "function"
		},
		{
			"inputs": [],
			"name": "withdraw",
			"outputs": [],
			"stateMutability": "nonpayable",
			"type": "function"
		}
	]
}